:100000000000022081D60100A9D60100ABD6010074
:10001000ADD60100AFD60100B1D60100000000004E
:10002000000000000000000000000000B3D6010046
:10003000B5D6010000000000B7D60100B9D6010016
:10004000BBD601006517010021D50100E5D40100F0
:10005000F9D40100BBD6010079B8010041A7010025
:1000600041CB010049CB010051CB0100BBD60100BF
:10007000E19D0000BBD60100BBD60100BBD601004C
:10008000BBD60100BBD60100BBD60100BBD6010028
:10009000BBD60100BBD60100BBD60100BBD6010018
:1000A000BBD60100BBD6010059CB010061CB0100DA
:1000B000BBD60100BBD6010000000000000000001C
:1000C000BBD60100BBD60100BBD601000DD5010097
:1000D000BBD60100BBD60100BBD60100BBD60100D8
:1000E00049D50100000000000000000000000000F1
:1000F00000000000BBD601000000000035D5010063
:1001000000000000000000000000000000000000EF
:1001100000000000000000000000000000000000DF
:1001200000000000000000000000000000000000CF
:1001300000000000000000000000000000000000BF
:1001400000000000000000000000000000000000AF
:10015000000000000000000000000000000000009F
:10016000000000000000000000000000000000008F
:10017000000000000000000000000000000000007F
:10018000000000000000000000000000000000006F
:10019000000000000000000000000000000000005F
:1001A000000000000000000000000000000000004F
:1001B000000000000000000000000000000000003F
:1001C000000000000000000000000000000000002F
:1001D000000000000000000000000000000000001F
:1001E000000000000000000000000000000000000F
:1001F00000000000000000000000000000000000FF
:100200007CB0EE877CB0EE87FF00FF00FF00FF00B0
:10021000FF00FF00FF00FF00FF00FF00FF00FF00E6
:10022000FF00FF00FF00FF00FF00FF00FF00FF00D6
:10023000FF00FF00FF00FF002DE9F04F85B00391A4
:100240000778A7F10903042B044607F07F0200F1A9
:100250000100F5D9202AF3D02B2F04BF677804467C
:100260002D2F72D09FED427B8DED007B4FF000086B
:100270004FF000098FB34FF0000E4FF0000ADFF887
:1002800000B1754619E027F0A5FB80468946304647
:1002900027F03AFB42464B4627F0EAF952468046A1
:1002A00089465B46DDE9000135B327F0BDFCCDE9A9
:1002B0000001AE4614F8017F7FB1A7F13006092E88
:1002C00052465B4640464946DDD9C5B92E2F16D168
:1002D00014F8017F0125002FEFD142464B46DDE99E
:1002E000000127F077FB80468946039B404649463C
:1002F0001C6005B0BDE8F08F4FF0010EDAE7BEF1EB
:10030000000F29D042464B46DDE9000127F062FB91
:1003100007F0DF07452F80468946E6D10399601C28
:100320000A2227F089F916490246002027F0B2FE7A
:1003300002460B464046494627F04CFB804689461C
:100340004046494605B0BDE8F08F9FED0B7B6778CE
:100350008DED007B013489E7DFF828904FF000082D
:100360004046494605B0BDE8F08F00BFAFF30080BE
:10037000000000000000F03F000000000000F0BF9F
:10038000000024400000F87F2DE9F84F16460023B6
:10039000002204460D4627F08FFD002840F09D8086
:1003A000002200232046294627F07CFD28B1302278
:1003B000002332707370BDE8F88F2046294624F080
:1003C0006BFF27F0B7FD7BA3D3E9002381462946C5
:1003D000204627F071FD002800F08680B9F1000F5B
:1003E000C0F2BE804A4600206F4927F053FE024605
:1003F0000B462046294627F017FC04460D4666A109
:10040000D1E9000101274FF0000822462B4627F0D2
:10041000E1FA0022654B27F02BF927F08FFE002F21
:10042000CC464FF0FF3AC1464FF0000840F38580BC
:10043000DFF888E15E4C0122AEF1700945F6F32544
:100440004FF02E0BA94208BFA0424FF0300309D352
:10045000001B61EB0501A94208BFA04203F10103A3
:10046000F6D2DBB2337050EA010306F1010409D180
:10047000BA4210DACE4502F101020CD026467EE8DF
:100480000245DFE7BA4204BF86F801B0B41CCE458E
:1004900002F10102F2D1B8F1000F0DD02246302155
:1004A00002F8011BC2F1010353442344002BF7DC83
:1004B0002AEAEA7301331C44BCF1010F4CD06523D6
:1004C000BCF1000F2370C5BF2B236370611CA11CFE
:1004D0006046BDE8F84F13F077BB05F100431D46B9
:1004E0002D23337001365BE72DA3D3E9002320468B
:1004F000294627F0FFFC00287FF470AFB9F10E0FFA
:1005000009F101073DDDA9F10E0842460020264908
:1005100027F0C0FD02460B462046294627F084FB03
:100520000022224B27F0A4F827F008FE002FA9F1A3
:100530000F0A4FF0010C3FF77BAF334630222E24D9
:1005400003F8022B74707FEA090618D01E4403F8E2
:10055000012BB342FBD16BE700232370BDE8F88F7A
:10056000C9F100020020104927F094FD02460B4615
:100570002046294627F02EFA04460D463FE71E4640
:1005800056E7C9F10E0200200749C84627F082FD50
:100590004FF0010939E700BF0000901EC4BCD642ED
:1005A00050EFE2D6E41A4B44000024400000E03F44
:1005B00000407A108DEDB5A0F7C6B03E408C020029
:1005C00070B54FF0FF3006F0BDFD04466FF07F4080
:1005D00006F0B8FD0646204627F086F900220C4BAF
:1005E00027F0F8F9044630460D4627F07DF906A3BA
:1005F000D3E9002327F018FB02460B462046294684
:1006000027F036F870BD00BF0000E0DFFFFF6F434A
:100610000000F03D000000002DE9F843436A044665
:1006200018680D4627F082F9064668680F4627F0DD
:100630006BF924F031FE636A95ED037AD3ED007A0D
:1006400077EE677A8046894617EE900A27F06EF9B2
:1006500042464B4627F0BEF907A3D3E9002327F013
:10066000E3FA32463B4627F003F827F0ABFCA063E1
:10067000BDE8F883AFF30080333333333333FF3FC8
:100680002DE9F04F2DED028B044683B0C06827F0B2
:100690003BF980462069894627F036F98246606931
:1006A0008B4627F031F9024601F1004306460F461A
:1006B0004046494624F09CFC27F084FCE062054655
:1006C00024F04AFB0190284624F0FAFA019B0546E3
:1006D000184627F02BF942464B4627F07BF9804617
:1006E0002846894627F022F932463B4627F072F920
:1006F00002460B464046494626F0B8FF02460B46E6
:100700005046594624F074FC27F05CFC002208EEA9
:10071000100A00233046394627F0ECFB28B3B5EE2B
:10072000C08AF1EE10FA1CDD11A7D7E9006718EEB8
:10073000100A27F0FBF802460B463046394626F0F1
:1007400095FF32463B4626F093FF27F03BFCA06224
:10075000E38843F00203E38003B0BDEC028BBDE805
:10076000F08F05A7D7E90067E1E784ED0A8AEFE794
:10077000EA2E4454FB21F93FEA2E4454FB21F9BFF1
:1007800008B514F041FDDFED0C7A07EE100A67EEB4
:10079000277A17EE900A27F0C9F805A3D3E90023BA
:1007A00027F042FA27F0C6FB08BD00BFAFF3008078
:1007B000EA2E4454FB2119400000B443000000001D
:1007C00008B514F035FDDFED0C7A07EE100A67EE80
:1007D000277A17EE900A27F0A9F805A3D3E900239A
:1007E00027F022FA27F0A6FB08BD00BFAFF3008078
:1007F000EA2E4454FB2119400000B44300000000DD
:100800002DE9F84F16461F460446002200233046C5
:1008100039460A9D27F050FB002840F0CD80324633
:100820003B463046394627F06FFB002840F01F81D9
:1008300027F00049304649464FF0FF32984B27F0E9
:1008400063FB48B9304649464FF0FF32944B27F0DE
:100850003DFB002800F0B7808BA3D3E9002330468E
:10086000394627F029FB002840F099800F2DA8BFBA
:100870000F25042D30463946A946B8BF4FF004096C
:1008800024F00AFD27F056FB81A3D3E9002382461A
:100890003946304627F010FB48B97FA3D3E900233F
:1008A0003046394627F026FB002800F09180BAF147
:1008B000000FC0F2BE80524600207A4927F0EAFBC2
:1008C00002460B463046394627F0AEF906460F463B
:1008D00001254FF0000BA9EB0B02013A00207149F2
:1008E00027F0D8FB3B46324627F074F800226E4BC7
:1008F00026F0BEFE27F022FC002D57464FF0FF38B1
:10090000DA464FF0000B40F38180684B09F1FF3C61
:100910004FF0010E03EBC9094FF02E0A79E90223CB
:10092000994208BF90424FF0300609D3801A61EB1C
:100930000301994208BF904206F10106F6D2F6B2D1
:1009400050EA0102267004F101032ED1AE451C4687
:1009500006DA0CF1FF3CBCF1FF3F0EF1010EDDD1D8
:10096000BBF1000F0DD02246302102F8011BC2F16D
:10097000010343442344002BF7DC28EAE8730133E6
:100980001C44012F51D06523002F237060DD2B23E1
:100990006370A11C3846BDE8F84F1EF0BBBA302288
:1009A000002322706370BDE8F88FAE450ABF84F85B
:1009B00001A01C460234CCE707F100431F462D235B
:1009C000237001342BE73A4B18682060BDE8F88F9C
:1009D000D1450AF1010551DCAAEB090808F1010B28
:1009E0005A4600202F4927F055FB02460B46304659
:1009F000394627F019F900222B4B26F039FE27F053
:100A00009DFB002D4FF001073FF77FAF23463022BB
:100A10002E2603F8022B66707FEA0A042CD01C44B1
:100A200003F8012BA342FBD16FE700232370BDE83D
:100A3000F88FCAF1000200201A4927F02BFB02466A
:100A40000B463046394626F0C5FF06460F463FE7BF
:100A5000611C0AD0002F9DDA2D237F426370A11CF8
:100A60003846BDE8F84F1EF055BABDE8F88F114B77
:100A700018682060BDE8F88F1C4646E7D3464FF063
:100A8000010A28E7AFF30080B0CA6E47ED89100075
:100A90008DEDB5A0F7C6B03E50EFE2D6E41A4B4458
:100AA000FFFFEF7F000024400000E03F508C020079
:100AB000DCB90200D8B902002DE9F043154605F073
:100AC0000F068BB08A68DDF84890D16AA6F1080E4F
:100AD000BEF1010F074640F2A48005F0030C4FF071
:100AE000080E4FEA15180EFA0CFEF04500F28B8046
:100AF0000A6B546FB9EBD40F00F28C80012000FA1E
:100B00000CF0B9F1000F37D191F8704018448442CD
:100B10003CD37431CC18139B002B00F0228193E856
:100B20000300B8F1000F02D14B1C00F0EA8020F066
:100B300059FD08F2FF380023002268F31E5326F007
:100B400049FF2D0702460B4605D40022BE4B26F076
:100B50008FFD02460B46684620F0C4FC9DE803006A
:100B60000B460B2E00F2CB80DFE806F0847EAB8ACA
:100B700078726E1AC9C9685FD2F870C002EBC90EEC
:100B8000E6441844BEF804E0704533D9139B43B3E0
:100B90006722384621F076FD38460BB0BDE8F08379
:100BA0004B1C00F0CB8020F01DFD0022A74B80469F
:100BB000894627F081F9002840F05D810022A34B8F
:100BC0004046494627F096F9002840F054814046B7
:100BD000494627F09BFACDE9060106AB03CB20601E
:100BE00061609B4BD3E900233846C7E900230BB073
:100BF000BDE8F08309F18044496C013C51F8244080
:100C000001EB840186E7652221F03CFD38460BB0FC
:100C1000BDE8F083662221F035FD38460BB0BDE813
:100C2000F083642221F02EFDB6E720F0DBFC0AAB56
:100C300063E9020103CB20606160D2E720F0D2FCBF
:100C400027F0C0F92060CCE720F0BEFC2060C8E7A8
:100C500020F0BAFC00F30F002080C2E720F0B4FCC3
:100C600000F307002070BCE720F0AEFC80F310001A
:100C70002080B6E720F0A8FC80F308002070B0E7E1
:100C80004A1C68D020F0AEFC002200238046894632
:100C900027F012F9002840F0018100226D4B4046F8
:100CA000494627F027F9002840F0EA8040464946A7
:100CB00027F044FACDE9040104AB03CB2060616066
:100CC0008FE7013141D0194620F08CFC002200232F
:100CD0008046894627F0F0F8002840F0E28058A3CB
:100CE000D3E900234046494627F004F9002840F0A4
:100CF000CC804046494627F045F9206071E71CF05A
:100D000017FF0B2EFBD801A353F826F0750C00003B
:100D1000690C00004B0D0000570D00005D0C000039
:100D2000510C0000490C00003D0D0000FF0C0000BC
:100D3000FF0C00003D0C00002B0C000000287FF78A
:100D400032AFC117CDE9060147E700283FF77AAF78
:100D50004FF0FF33B7E7002894DDC117CDE9040158
:100D6000AAE70B2ECBD801A353F826F0730E000090
:100D70006F0E0000590E0000190E0000130E000047
:100D80000D0E0000E10D0000C50D0000FF0C00007D
:100D9000FF0C0000B10D00009D0D0000206861688F
:100DA00008AB03C3DDE90801B8F1000F28D01DE04E
:100DB0002068039026F0BAFDCDE90801B8F1000FD4
:100DC0001ED013E02068616806AB03C3DDE90601AD
:100DD00026F0D2FDCDE90801B8F1000F10D005E0F2
:100DE0002068B8F1000F54D026F08EFDC8F57F784A
:100DF00008F103080023002268F31E5326F0EAFDE1
:100E000002460B46384620F06DFBC5E6B4F90000FB
:100E1000E7E794F90000E4E72068616804AB03C3E6
:100E2000DDE90401002908BFB0F1004FD9D326F055
:100E30009BFDCDE90801B8F1000FE1D0D6E700BF76
:100E40000000E0FFFFFFEF410000E03F0000E04353
:100E5000D88C02000000F04320680028C1DA26F098
:100E600043FDCDE90801B8F1000FC9D0BEE72088E5
:100E7000B7E72078B5E74FF0FF306FF00041AAE602
:100E80004FF0FF304FF0FF3114E74FF0FF3020609C
:100E9000A7E60146384620F089FB7DE600200021C8
:100EA00008E7002020609CE6494A21F00043934275
:100EB0002DE9704304460D464BDC464A93420E46EC
:100EC0000EDC3FA3D3E9002326F0D2FB0022424BE5
:100ED00027F010F800284CD020462946BDE8708342
:100EE0003E4A93423BDCB3F1804F42DD23F082FD6A
:100EF0002246804689462B462046294626F06AFD32
:100F00000022354B26F0B4FB24F08EFE02460B4641
:100F10004046494626F0ACFB02460B4600202E49CF
:100F200026F082FE424604460D464B464046494660
:100F300026F09EFB02460B462046294626F098FBEB
:100F400002F06AF8002EC9DC01F100431946BDE841
:100F5000708302460B4626F08BFBBDE8708323F0BE
:100F600049FD02F059F818A3D3E9002326F080FBCD
:100F7000E8E722462B462046294626F02BFD8046F0
:100F800089462046294623F035FD002204460D46B9
:100F9000114B4046494626F06BFB24F045FE0022EB
:100FA0000D4B26F065FB02460B464046494626F0AF
:100FB0003BFE22462B4626F05BFB00F0C5FAC1E75C
:100FC0009C7500883CE4377EEF39FAFE422EE63FFE
:100FD000FFFFEF7FFFFF2F3E0000F03F0000B0411A
:100FE0002DE9F84FC44B21F000469E4204460D46C1
:100FF0008A460EDDC14B9E4200F3AC8000F0A78014
:10100000BAF1000F40F3EA809FA1D1E90001BDE8E9
:10101000F88FBB4B9E4200F3B580A3F1DE739E4276
:1010200040F3A0804FF0FF3B22462B462046294646
:1010300026F0D0FC02460B468046894626F0CAFCC4
:1010400093A3D3E9002306460F4626F0C3FC92A3E0
:10105000D3E9002326F00CFB32463B4626F0BAFCCF
:101060008FA3D3E9002326F003FB32463B4626F04C
:10107000B1FC8DA3D3E9002326F0FAFA32463B46B1
:1010800026F0A8FC8AA3D3E9002326F0F1FA324621
:101090003B4626F09FFC88A3D3E9002326F0E8FA1C
:1010A00042464B4626F096FC85A3D3E900238046B2
:1010B00089463046394626F08DFC83A3D3E90023C8
:1010C00026F0D4FA32463B4626F084FC80A3D3E9CE
:1010D000002326F0CBFA32463B4626F07BFC7EA36B
:1010E000D3E9002326F0C2FA32463B4626F072FCD2
:1010F0007BA3D3E9002326F0B9FA32463B4626F01B
:1011000069FCBBF1FF3F02460B466CD040464946A6
:1011100026F0AEFA22462B4626F05CFC794E7A4B3E
:101120004FEACB0B5E449B44DBE9002326F09EFA9A
:1011300022462B4626F09AFA02460B46D6E90001D3
:1011400026F094FABAF1000F43DBBDE8F88F0028CF
:101150003FF456AF22462B462046294626F088FA11
:10116000BDE8F88F60A3D3E9002326F081FA0022BE
:10117000664B26F0BFFE00283FF454AF20462946B8
:10118000BDE8F88F23F036FC614B9E4204460D46C5
:1011900039DCA3F550239E425EDC02460B4626F066
:1011A00067FA0022594B26F061FA002206460F46E4
:1011B0004FF080432046294626F05AFA02460B4655
:1011C0003046394626F030FD4FF0000B04460D4600
:1011D0002AE701F100431946BDE8F88F44A1D1E99F
:1011E0000001BDE8F88F4046494626F041FA224604
:1011F0002B4626F0EFFB02460B462046294626F0FA
:1012000035FABDE8F88F434B9E421ADC0022424B70
:1012100026F02CFA002206460F463F4B2046294670
:1012200026F0D8FB0022394B26F022FA02460B4664
:101230003046394626F0F8FC4FF0020B04460D46C6
:10124000F2E602460B460020344926F0EDFC4FF052
:10125000030B04460D46E7E600222C4B26F006FA67
:10126000002206460F46294B2046294626F000FA62
:1012700002460B463046394626F0D6FC4FF0010BAD
:1012800004460D46D0E600BF182D4454FB21F93F1B
:1012900011DA22E33AAD903FEB0D76244B7BA93F68
:1012A000513DD0A0660DB13F6E204CC5CD45B73F36
:1012B000FF8300922449C23F0D5555555555D53FE2
:1012C0002F6C6A2C44B4A2BF9AFDDE522DDEAD3FD6
:1012D0006D9A74AFF2B0B33F711623FEC671BC3F76
:1012E000C4EB98999999C93F9C7500883CE4377E76
:1012F000182D4454FB21F9BFFFFF0F440000F07F7D
:10130000FFFFDB3FF08C0200108D02000000F03F79
:10131000FFFFF23FFF7F03400000F83F0000F0BFF7
:101320002DE9F843C1F30A59A9F2FF35132D0246FE
:101330000B460C4606468846074622DC002D50DB4D
:10134000DFF8F09049FA05F901EA090E5EEA0606AF
:101350001CD036A3D3E9002326F08AF9002200230B
:1013600026F0C8FD48B1002C04DD4FF4801343FA89
:1013700005F5A84428EA0904002721463846BDE8B7
:10138000F883332D06DDB5F5806F3DD01046194644
:10139000BDE8F883A9F213494FF0FF3E2EFA09F990
:1013A00010EA090FF2D021A3D3E9002326F060F957
:1013B0000022002326F09EFD0028DED0002C09DD4F
:1013C000142D2BD00127C5F1340507FA05F5AE1908
:1013D00028BFB844444626EA090721463846BDE8F6
:1013E000F88312A3D3E9002326F042F90022002358
:1013F00026F080FD0028C0D0002C0BDB54EA060745
:1014000006D00027084CB8E726F032F9BDE8F8838B
:101410003C46B2E700274FF00044AEE704F1010874
:10142000D8E700BFAFF300800000F03F9C75008854
:101430003CE4377EFFFF0F002DE9F041C1F30A576E
:10144000A7F2FF35132D02460B460C46884606468A
:101450001CDC002D3FDB3A4F2F41864601EA070C8A
:101460005CEA0E0E17D034A3D3E9002326F000F96E
:101470000022002326F03EFD20B1002C3FDB28EAAD
:101480000704002621463046BDE8F081332D06DDF5
:10149000B5F5806F2FD010461946BDE8F081A7F250
:1014A00013474FF0FF3E2EFA07F73842F3D022A33E
:1014B000D3E9002326F0DCF80022002326F01AFDF1
:1014C0000028DFD0002C20DB444626EA0706214610
:1014D0003046BDE8F08118A3D3E9002326F0C8F810
:1014E0000022002326F006FD0028CBD0002C17DBBD
:1014F00000263446C6E726F0BBF8BDE8F0814FF47D
:10150000801343FA05F5A844B9E7142D10D0012340
:10151000C5F1340503FA05F5AE1928BF9844D3E7A1
:1015200024F00042074B324318BF1C460026A9E7AF
:1015300004F10108C8E700BF9C7500883CE4377ED1
:10154000FFFF0F000000F0BF2DE9F04FD84B99428C
:1015500087B0804689460E4613DCD64B21F0004406
:101560009C4218DD0022D44B26F09CFC002879D048
:10157000002200230020D14926F056FB07B0BDE829
:10158000F08FCF4B99422FDD42464B4626F070F844
:1015900007B0BDE8F08FCB4B9C4270DDCA4B1E44B8
:1015A0009E427ED80022C94B4046494626F060F84C
:1015B0004FEA215AAAF2FF3ABAF1000F04460D464B
:1015C0000E4640F3DE8142464B4626F04FF8024677
:1015D0000B460020BD4926F049F822462B4626F04E
:1015E00023FBCDE902010BE0B94B9E42DADD9FED12
:1015F0009A7B8DED027B4FEA265A4446AAF2FF3AC7
:10160000B44BC6F313069E4246F07F5500F3E780C5
:1016100045F44015204629460022AC4B26F026F81A
:10162000002204460D46AC4B26F0D4F922462B4648
:1016300026F0D0F9A046CDE90401A946CDE9000184
:10164000002E3AD1002200232046294626F02AFC0B
:10165000002800F0CE80BAF1000F40F07481002025
:10166000002195E742464B464046314625F0FEFFB5
:1016700002460B4626F0D8FA07B0BDE8F08F0022EC
:10168000964B25F0F5FF0022002326F033FC0028BE
:1016900000F0CC80924B9C4200F3C8804046494603
:1016A00076E700228C4B26F095F942464B4626F011
:1016B00091F9CDE900014FF0000A00224FF080437C
:1016C0004046494625F0D4FF02460B46404649466F
:1016D00026F0AAFA02460B4606460F4626F07AF98D
:1016E0005FA3D3E9002304460D4626F073F95EA3F9
:1016F000D3E9002325F0BCFF22462B4626F06AF9E9
:101700005BA3D3E9002325F0B3FF22462B4626F046
:1017100061F959A3D3E9002325F0AAFF22462B46FD
:1017200026F058F956A3D3E9002325F0A1FF22465D
:101730002B4626F04FF954A3D3E9002325F098FF58
:1017400022462B4626F046F951A3D3E9002325F083
:101750008FFF22462B4626F03DF904460D46BAF18E
:10176000000F00F0BF80504626F0CEF84AA3D3E920
:10177000002382468B4626F02DF9DDE90023CDE9D2
:1017800004012046294625F073FF32463B4626F0E9
:1017900021F943A3D3E9002304460D465046594698
:1017A00026F018F9DDE9022325F062FF02460B4618
:1017B0002046294625F05CFF02460B46DDE9000184
:1017C00025F054FF42464B4625F050FF02460B469B
:1017D000DDE9040125F04AFF07B0BDE8F08F45F4CC
:1017E0000015C6F5801620462946B6100AF1010AF2
:1017F00012E72DA3D3E900232046294626F0EAF874
:1018000002460B460020314925F030FFDDE9042374
:1018100026F0E0F806460F46BAF1000F73D10246F3
:101820000B462046294625F021FFB1E642464B46AD
:101830004046494626F0CEF80022274B26F0CAF84B
:1018400002460B464046494625F010FF07B0BDE86A
:10185000F08F00BFAFF30080000000000000000028
:1018600044523EDF12F1C23F9FC678D0099AC33F6F
:10187000DE03CB966446C73FAF788E1DC571CC3F63
:10188000599322942449D23F04FA97999999D93FC0
:10189000935555555555E53F0000E0FE422EE63F75
:1018A000763C7935EF39EA3D555555555555E53F67
:1018B0007982DA3FFFFFEF3F0000F0BF000050C326
:1018C000FFFFEF7FFFFF1F3E3C412D400000F03F38
:1018D000FFFF3F439DA006000000E03F0000504393
:1018E000FFFF8F3CDDE9004522462B4625F0C0FE78
:1018F00032463B4626F06EF802460B462046294605
:1019000025F0B4FE9CE7504625F0FEFF23A3D3E963
:10191000002382468B4626F05DF822A3D3E90023FC
:10192000804689465046594626F054F8DDE90223A0
:1019300025F09EFE02460B463046394625F096FEBF
:1019400022462B46DCE7504625F0DEFF15A3D3E9FF
:10195000002306460F4626F03DF8DDE9022325F078
:1019600087FE0EA3D3E9002304460D4630463946D0
:1019700026F030F802460B462046294625F078FE30
:1019800006E60022044B25F071FE02460B46404657
:10199000494625F06BFE20E60000F03F0000E0FE27
:1019A000422EE63F763C7935EF39EA3D00000000F3
:1019B00008B523F0F1FB04A3D3E9002326F034F9A2
:1019C00008BD00BFAFF30080EF39FAFE422EE63FBC
:1019D0002DE9F043DFF8B4808BB004460D4601F0EA
:1019E000F3F898F90030013306460F462BD0224613
:1019F0002B462046294626F087FA814618BB20460A
:101A0000294622F0F7FF1FA3D3E9002326F072FA3C
:101A1000C8B1194A98F90030CDF820900321CDE9DA
:101A20000445CDE902458DE806008BB9134B4FF014
:101A30006042CDE90623684625F0F8FA70B1089BAC
:101A40009BB9DDE90667304639460BB0BDE8F08347
:101A50000B490020022BCDE90601ECD125F094FDC5
:101A600022230360089B002BEBD025F08DFD089B03
:101A70000360E6E7AFF3008074BF0200FFFFEF47AB
:101A80000000F07F7DF8B98FCE33864080020020C1
:101A90002DE9F043DFF8E4808BB004460D4601F0F9
:101AA00043F998F90030013306460F4633D02046FB
:101AB000294625F0B5FA70B32CA3D3E900232046BC
:101AC000294626F017FA814650BB2AA3D3E9002302
:101AD0002046294626F0F0F9E8B198F90030204A6E
:101AE000CDF82090002600270421022BCDE90445E3
:101AF000CDE90245CDE906678DE8060029D06846A4
:101B000025F094FA28B3089B1BB125F03DFD089BF6
:101B10000360DDE90667304639460BB0BDE8F08367
:101B20000F4A98F90030019203210022CDE90445C3
:101B3000CDE90245009108922BB90A4B4FF0604263
:101B4000CDE90623DBE708490020022BCDE9060199
:101B5000D5D125F019FD22230360D4E7AFF300802F
:101B60007CBF0200FFFFEF470000F07FEF39FAFE75
:101B7000422E864051302DD5104987C0800200206A
:101B80002DE9F04FDFF80C938DB006460F46144652
:101B90001D4601F0C5FC99F90080B8F1FF3FCDE981
:101BA000000136D022462B462046294626F0ACF9C5
:101BB000834670BB32463B463046394626F0A4F990
:101BC0008246002840F0A280304639460022002399
:101BD00026F068F910B3002200232046294626F09B
:101BE00061F9834600286AD09FEDA17B0122A44BB6
:101BF000CDF828A00292CDE90467CDE906458DED28
:101C0000087B0393B8F1000F45D09FED9B7B8DEDD2
:101C1000007BDDE900010DB0BDE8F08FDDE90001DA
:101C200025F0FEF98046002800F08D804FF0000A74
:101C30004FF0000BDDE9000152465B4626F032F919
:101C40000028E6D03046394625F0EAF90028E0D0F1
:101C50002046294625F0E4F90028DAD099F9003029
:101C6000874A039204210022022BCDE90467CDE9C3
:101C70000645CDE908AB02910A9203D002A825F0EF
:101C8000D5F968B925F080FC2223036008E09FEDB8
:101C9000787B8DED087B02A825F0C8F9002830D0AC
:101CA0000A9B1BB125F070FC0A9B03609DED087B2D
:101CB0008DED007BDDE900010DB0BDE8F08F204621
:101CC000294625F0ADF90028A3D0002200232046A4
:101CD000294626F0F1F800289BD099F90030684A8F
:101CE000CDF828B00121CDE90467CDE90645029180
:101CF0000392002BCBD063490020022BCDE90801D1
:101D0000C9D125F041FC21230360C9E7002200234B
:101D10002046294626F0C6F800283FF47AAF5A4BF1
:101D20005749CDF828B000220120B8F1020FCDE9C3
:101D300004670290CDE90645CDE908230391AAD1B5
:101D4000CDE9002365E73046394625F069F90028DA
:101D50003FF46CAF2046294625F062F900283FF495
:101D600065AFDDE900231046194626F0CDF80028BE
:101D70005FD1032399F900800293414B0A90CDE98A
:101D80000467CDE906450393B8F1000F2BD1DFF8C6
:101D900008B14FF0604A0022002330463946CDE9B1
:101DA00008AB26F089F800283FF468AF0022374BD3
:101DB0002046294625F00EFE04460D4625F03EF944
:101DC00002460B462046294626F06CF870BB304B85
:101DD00099F900804FF06042CDE90823B8F1020F75
:101DE0007FF44CAF4EE7DFF8B4B04FF0000A0022AA
:101DF000002330463946CDE908AB26F05DF80028CF
:101E0000ECD00022214B2046294625F0E3FD044674
:101E10000D4625F013F902460B462046294626F0CA
:101E200041F818B9174B0022CDE9082399F9008031
:101E3000D4E799F90090124BCDF828800122CDE922
:101E40000467CDE9064502920393B9F1000F3FF410
:101E50001EAF002200231046194625F0E5FEB9F119
:101E6000020FCDE908013FF44CAF14E7AFF3008057
:101E70000000000000000000000000000000F03F33
:101E800094BF02000000F0FF0000F03F0000E03FC0
:101E9000FFFFEFC780020020FFFFEF470000F07F49
:101EA0002DE9F84FC44E21F00043B34204460D46DD
:101EB0000DDD03F1404303F58013034340F0B98087
:101EC000002940F3408100200021BDE8F88FBB4E7F
:101ED000B34240F3A6800029C0F2788102460B4647
:101EE0000020B74925F0C2FB0022B64B25F072FD59
:101EF00004460D4623F098FE95A3D3E900238946B6
:101F000080462946204625F065FD93A3D3E90023AA
:101F100025F0AEFB22462B4625F05CFD90A3D3E9CD
:101F2000002325F0A3FB22462B4625F053FD8EA36C
:101F3000D3E9002325F09CFB22462B4625F04AFDE1
:101F40008BA3D3E9002325F091FB22462B4625F0F5
:101F500041FD89A3D3E9002325F08AFB22462B46C5
:101F600025F038FD86A3D3E9002382468B46204620
:101F7000294625F02FFD84A3D3E9002325F076FB25
:101F800022462B4625F026FD81A3D3E9002325F028
:101F90006FFB22462B4625F01DFD7FA3D3E90023CE
:101FA00025F064FB22462B4625F014FD0022844BCD
:101FB00025F05EFB02460B465046594625F034FE9E
:101FC00042464B4625F006FD002682468B463246A9
:101FD0004B463046494625F0FDFC02460B4620465E
:101FE000294625F043FB324604460D464B46404603
:101FF000494625F03DFB02460B462046294625F082
:1020000013FE02460B465046594625F031FB324638
:102010004B4625F02DFB02460B4625F029FBBDE87B
:10202000F88F694A93420EDC5DA1D1E90001BDE859
:10203000F88F02460B4625F019FB02460B4625F0A9
:10204000F3FDBDE8F88F02460B4625F0C3FC40A324
:10205000D3E9002306460F4625F0BCFC3EA3D3E996
:10206000002325F005FB32463B4625F0B3FC3CA39C
:10207000D3E9002325F0FAFA32463B4625F0AAFCC4
:1020800039A3D3E9002325F0F3FA32463B4625F085
:10209000A1FC37A3D3E9002325F0E8FA32463B46FA
:1020A00025F098FC34A3D3E9002325F0E1FA324669
:1020B0003B4625F08FFC32A3D3E9002380468946B6
:1020C0003046394625F086FC2FA3D3E9002325F0BE
:1020D000CDFA32463B4625F07DFC2DA3D3E9002303
:1020E00025F0C6FA32463B4625F074FC2AA3D3E914
:1020F000002325F0BBFA32463B4625F06BFC00225C
:102100002F4B25F0B5FA02460B464046494625F0CE
:102110008BFD22462B4625F05DFC02460B4622A194
:10212000D1E9000125F0A2FA02460B4620462946D5
:1021300025F09CFA02460B4619A1D1E9000125F0D1
:1021400095FABDE8F88F1AA1D1E90001BDE8F88F32
:1021500009F7FD0DE13D023F88B20175E0EF493F0F
:102160003B8F68B52882A43F5544880E55C1C93FAE
:102170007D6FEB0312D6D43F555555555555C53F88
:1021800082922EB1C5B8B33F59018D1B6C06E63F54
:10219000C88A599CE52A00404B2D8A1C273A0340E7
:1021A000182D4454FB21F93F075C143326A6913CBB
:1021B000182D4454FB210940FFFFEF3FFFFFDF3F95
:1021C0000000F03F0000E03F0000603C00225C4B5C
:1021D00025F04EFA00225B4B25F0FCFB40A3D3E92F
:1021E000002304460D4625F0F5FB3FA3D3E9002369
:1021F00025F03EFA22462B4625F0ECFB3CA3D3E922
:10220000002325F033FA22462B4625F0E3FB3AA3C0
:10221000D3E9002325F02CFA22462B4625F0DAFBE1
:1022200037A3D3E9002325F021FA22462B4625F0D7
:10223000D1FB35A3D3E9002325F01AFA22462B4619
:1022400025F0C8FB804689462046294623F0ECFC51
:102250002FA3D3E9002306460F462046294625F042
:10226000B9FB2DA3D3E9002325F000FA22462B4623
:1022700025F0B0FB2AA3D3E9002325F0F9F9224683
:102280002B4625F0A7FB28A3D3E9002325F0EEF980
:1022900022462B4625F09EFB0022294B25F0E8F92B
:1022A00002460B464046494625F0BEFC32463B46B8
:1022B00025F090FB1EA3D3E9002325F0D7F9324681
:1022C0003B4625F0D5F902460B4625F0D1F90246EA
:1022D0000B4619A1D1E9000125F0C8F9BDE8F88F36
:1022E00009F7FD0DE13D023F88B20175E0EF493F7E
:1022F0003B8F68B52882A43F5544880E55C1C93F1D
:102300007D6FEB0312D6D43F555555555555C53FF6
:1023100082922EB1C5B8B33F59018D1B6C06E63FC2
:10232000C88A599CE52A00404B2D8A1C273A034055
:10233000075C143326A6913C182D4454FB21094018
:102340000000F03F0000E03F434A91422DE9F8438E
:1023500004460D4639DD414A914209DD02F17952C8
:10236000914240DD02460B4625F082F9BDE8F88334
:1023700001F1404202F58012024330D0B1F1804FAA
:102380003ADC0022364B25F071F902460B46044632
:102390000D4625F06DF9224606460F462B4620468F
:1023A000294625F017FB02460B463046394625F0F4
:1023B0005FF923F039FC0B4602462946204625F0FA
:1023C00057F9BDE8F843FFF7BFB802460B4625F0C2
:1023D0004DF902460B4625F027FCBDE8F8830020A6
:1023E0000021BDE8F88300F017FE19A3D3E900230C
:1023F00025F03EF9BDE8F88302460B4625F0EAFADF
:102400000022174B25F032F923F00EFC22468046BD
:1024100089462B462046294625F02AF9424606469B
:102420000F464B462046294625F022F902460B4628
:1024300000200B4925F0F8FB0B4602463946304692
:1024400025F014F9BDE8F84300F0E6BDAFF30080D5
:10245000EF39FAFE422EE63FFFFFEF3FFFFFAF41AD
:102460000000F03F000000002DE9F047BE4B21F0D6
:102470000048984584B004460D4612DD08F14048F6
:1024800008F58018034658EA030321D002460B469C
:1024900025F0ECF802460B4625F0C6FB04B0BDE87B
:1024A000F087B24B98458A4629DCB8F1795F80F213
:1024B000658191A3D3E9002325F0DAF80022AC4B23
:1024C00025F018FDD8B12046294604B0BDE8F087B4
:1024D0008BA3D3E9002325F07DFA8BA3D3E9002356
:1024E00006460F462046294625F074FA02460B465A
:1024F0003046394625F0BCF804B0BDE8F0872046E8
:10250000294622F077FA02460B460020984925F02A
:10251000ADF80022974B25F05DFA7DA3D3E90023A7
:1025200004460D4625F056FA7BA3D3E9002325F097
:102530009FF822462B4625F04DFA79A3D3E90023D4
:1025400025F094F822462B4625F044FA76A3D3E9E9
:10255000002325F08DF822462B4625F03BFA74A384
:10256000D3E9002325F082F822462B4625F032FAE3
:1025700071A3D3E9002325F07BF822462B4625F0F2
:1025800029FA6FA3D3E90023CDE9000120462946AB
:1025900025F020FA6CA3D3E9002325F067F8224642
:1025A0002B4625F017FA6AA3D3E9002325F060F83B
:1025B00022462B4625F00EFA67A3D3E9002325F027
:1025C00055F822462B4625F005FA694B002225F0E6
:1025D0004FF8CDE902012046294623F025FB664B42
:1025E000984506460F4666DCDDE90223DDE9000179
:1025F00025F01AFB3246CDE900013B46304639460C
:1026000025F036F802460B46DDE9000125F0E2F937
:102610004FF00008CDE9000142463B4640463946AE
:1026200025F0D8F902460B462046294625F01EF82B
:10263000424604460D463B463046394625F018F8DA
:1026400002460B462046294625F0EEFA02460B4686
:1026500025F00EF802460B462BA1D1E9000125F02A
:1026600005F802460B46DDE9000124F0FFFF424673
:1026700004460D463B464046394624F0F9FF0246E3
:102680000B4637A1D1E9000124F0F0FF02460B46CA
:102690002046294624F0EAFF02460B4630A1D1E944
:1026A000000124F0E3FFBAF1000F3FF7F7AE01F1AC
:1026B00000431946F2E6DDE90223DDE9000125F0D9
:1026C000B3FA32463B4625F085F932463B4624F0C4
:1026D000CFFF02460B4624F0CBFF0BA3D3E9002328
:1026E00024F0C4FF02460B4605A1D1E9000124F005
:1026F000BDFFD8E7AFF300809C7500883CE4377ECF
:10270000182D4454FB21F93F075C143326A6913C55
:1027100009F7FD0DE13D023F88B20175E0EF493F49
:102720003B8F68B52882A43F5544880E55C1C93FE8
:102730007D6FEB0312D6D43F555555555555C53FC2
:1027400082922EB1C5B8B33F59018D1B6C06E63F8E
:10275000C88A599CE52A00404B2D8A1C273A034021
:10276000182D4454FB21E93FFFFFEF3FFFFFDF3F00
:102770000000F03F0000E03F3233EF3F02460B46DF
:1027800025F028F937A3D3E9002306460F4625F0A4
:1027900021F936A3D3E9002324F06AFF32463B46F1
:1027A00025F018F933A3D3E9002324F05FFF324664
:1027B0003B4625F00FF931A3D3E9002324F058FF5D
:1027C00032463B4625F006F92EA3D3E9002324F038
:1027D0004DFF32463B4625F0FDF82CA3D3E90023FC
:1027E00024F046FF32463B4625F0F4F829A3D3E90E
:1027F0000023804689463046394625F0EBF827A36A
:10280000D3E9002324F032FF32463B4625F0E2F8BC
:1028100024A3D3E9002324F02BFF32463B4625F0C6
:10282000D9F822A3D3E9002324F020FF32463B4607
:1028300025F0D0F800220A4B24F01AFF02460B467E
:102840004046494625F0F0F922462B4625F0C2F8CD
:1028500022462B4624F00CFF04B0BDE8F08700BFF1
:102860000000F03F09F7FD0DE13D023F88B2017520
:10287000E0EF493F3B8F68B52882A43F5544880E5E
:1028800055C1C93F7D6FEB0312D6D43F5555555501
:102890005555C53F82922EB1C5B8B33F59018D1B26
:1028A0006C06E63FC88A599CE52A00404B2D8A1CDD
:1028B000273A0340000000002DE9F84F1D4653421F
:1028C000134325F0004ADFF8E0E14AEAD373734589
:1028D000144606460F4647D8C0F1000848EA0008EB
:1028E00021F0004343EAD878F0458B463CD805F107
:1028F000404808F5801858EA020850D04FEAA578F9
:1029000008F0020848EAD17850EA030134D052EACC
:102910000A023CD0F24557D0734538D0A3EB0A03E6
:102920001B153C2B42DC002D70DB22462B4630462B
:10293000394625F079F922F05DF8FEF751FBB8F140
:10294000010F5FD0B8F1020F4ED0B8F1000F62D086
:1029500043A3D3E9002324F089FE43A3D3E9002352
:1029600024F084FEBDE8F88F32463B4620462946D7
:1029700024F07EFEBDE8F88FB8F1020F1AD0B8F14E
:10298000030F10D13AA1D1E90001BDE8F88FBBF1E6
:10299000000F14DB38A1D1E90001BDE8F88FBDE8D4
:1029A000F84FFEF71DBB3946BDE8F88F32A1D1E9DB
:1029B0000001C4E72CA1D1E90001BDE8F88F30A1E6
:1029C000D1E90001BDE8F88F534526D0B8F1020FD8
:1029D000F0D0B8F1030FD5D0B8F1010F4FF00000DF
:1029E00029D00021BDE8F88F1DA3D3E9002324F0EE
:1029F0003DFE02460B461CA1D1E9000124F036FE43
:102A0000BDE8F88F01F10041BDE8F88F3C338CDA66
:102A10000020002193E7BDE8F88FB8F1020F18D02D
:102A2000B8F1030F10D0B8F1010F08D016A1D1E909
:102A30000001BDE8F88F4FF00041BDE8F88F14A108
:102A4000D1E90001BDE8F88F13A1D1E90001BDE88B
:102A5000F88F13A1D1E90001BDE8F88FAFF3008032
:102A6000075C143326A6A13C182D4454FB210940D1
:102A7000182D4454FB2109C0182D4454FB21F93F63
:102A8000182D4454FB21F9BF182D4454FB21E93F74
:102A9000182D4454FB21E9BFD221337F7CD902C0D9
:102AA000D221337F7CD902400000F07F000000007B
:102AB00043422DE9F047034321F000463E4A46EAEF
:102AC000D373934204460D4613D896423DD03B4BF8
:102AD0009E428A4617DC36A3D3E9002324F0C8FDC2
:102AE0000022002325F006FAA8B320462946BDE8B7
:102AF000F08702460B4624F0B9FD02460B4625F04E
:102B000093F8BDE8F0872E4B9E42354624DD3346D0
:102B10000246314624F0ACFD224606460F462B46BF
:102B20000020254924F0A2FD02460B4630463946D6
:102B300025F07AF8FEF708FD0022224B24F04AFF28
:102B4000BAF1000F2FDBBDE8F0870022002325F04B
:102B50006BF8BDE8F087354622462B4620462946CD
:102B600024F086FD22462B4606460F4624F032FF0F
:102B70002246804689462B4600200F4924F076FDE8
:102B800002460B464046494625F04EF832463B4643
:102B900024F06EFDFEF7D8FC00220A4B24F01AFF49
:102BA000BAF1000FCFDA01F100431946BDE8F08712
:102BB0009C7500883CE4377E0000F03FFFFF2F3E0D
:102BC000FFFFDF3F0000E03F2DE9F8434E4B21F0CF
:102BD00000449C4206460F461BDC4C4B9C4222DDC7
:102BE0004B4B9C4263DD4B4B9C427BDD4A4B9C42F2
:102BF00046DD01339C4240D041A3D3E90023104677
:102C0000194624F0E7FE06460F4630463946BDE831
:102C1000F88302460B4624F0DDFE06460F4630469A
:102C20003946BDE8F88321F0E5FE02F0B1FC002250
:102C30003A4B8046894624F01BFDB4F1725F06468C
:102C40000F46ECDB42464B464046494624F0C2FE66
:102C500032463B4604460D463046394624F008FDD0
:102C600002460B462046294624F0DEFF00222B4B6D
:102C700024F0FEFC06460F46D1E7294B9842BBD80C
:102C80003046394621F0B6FE0022264B24F0A2FE43
:102C900000F04AF8002204460D46224B24F09AFE2A
:102CA00022462B4624F096FE06460F46B7E721F053
:102CB000A1FE00F039F800221A4B06460F4624F018
:102CC00089FE32463B4604460D460020154924F055
:102CD000ABFF02460B462046294624F0C9FC0646B7
:102CE0000F469CE721F086FE00F01EF800220D4BF7
:102CF00024F070FE06460F4691E700BFAFF3008058
:102D00009C7500883CE4377EFFFFEF7F422ED63F64
:102D1000FFFF3540412E8640CD3386400000F03F16
:102D20007DF8B98F0000E03F2DE9F04FB04E21F063
:102D30000042B24283B004460D464FEAD1770DD926
:102D4000AC4EB24225D9C1F31303034340F0EC80EB
:102D50000FB10020002103B0BDE8F08FA64B9A42CE
:102D600000F2CB80A54B9A4200F2DC808AA3D3E923
:102D7000002324F07DFC0022A14B25F0BBF80028A5
:102D800000F006812046294600229D4B24F070FC6D
:102D9000E1E783A3D3E9002325F0ACF8002840F055
:102DA000C88081A3D3E900232046294625F084F872
:102DB0000028CED1934E7EA3D3E9002306EBC706AD
:102DC0002046294624F006FED6E9002324F050FCD4
:102DD00025F0B0F8064624F097FD77A3D3E9002349
:102DE0008046894624F0F6FD02460B4620462946D9
:102DF00024F03CFC72A3D3E90023CDE90001404656
:102E0000494624F0E7FD82468B4652465B46DDE9A3
:102E1000000124F02BFC04460D4622462B4620469A
:102E2000294624F0D7FD68A3D3E9002380468946CC
:102E300024F0D0FD66A3D3E9002324F017FC42461A
:102E40004B4624F0C7FD64A3D3E9002324F010FC13
:102E500042464B4624F0BEFD61A3D3E9002324F093
:102E600005FC42464B4624F0B5FD5FA3D3E90023A1
:102E700024F0FEFB42464B4624F0ACFD02460B46D6
:102E80002046294624F0F2FB80468946002E58D081
:102E90002046294642464B4624F09CFD42460446C5
:102EA0000D464B4600204FF0804124F0DFFB0246E8
:102EB0000B462046294624F0B7FE02460B465046F4
:102EC000594624F0D3FBDDE9002324F0CFFB0B4669
:102ED00002464B49002024F0C9FB6FF47F739E42E9
:102EE00051DA06F57A7601EB065100224FF0B873FD
:102EF00024F070FD03B0BDE8F08F434B9A423FF6DB
:102F000059AF424BFC002344D3E9002324F0AEFB2D
:102F10003F4BC7F101062344CDE90001D3E900ABE3
:102F2000F61B72E7002678E702460B4624F0A0FB6A
:102F300011E719A3D3E900231046194624F04AFDEE
:102F400009E702460B462046294624F043FD0022AD
:102F500006460F464FF080434046494624F086FB24
:102F600002460B463046394624F05EFE22462B468A
:102F700024F07CFB02460B460020214924F076FB1E
:102F800003B0BDE8F08F01EB065103B0BDE8F08F50
:102F9000064642E7AFF300809C7500883CE4377E2C
:102FA000EF39FAFE422E864051302DD5104987C0A8
:102FB000FE822B654715F73F0000E0FE422EE63FFC
:102FC000763C7935EF39EA3DD0A4BE726937663E6A
:102FD000F16BD2C541BDBB3E2CDE25AF6A56113F19
:102FE00093BDBE166CC1663F3E5555555555C53F00
:102FF000412E8640FFFFEF7F422ED63FFFFF2F3E40
:103000000000F03F308D0200B1A2F03F408D020081
:10301000508D0200000000002DE9F04FB1F5801F37
:1030200085B006460F460B465ADA024621F00044A8
:10303000224300F0F8800029C0F27A810022D64BAA
:1030400024F0C8FCD54A0B46934206460F466FF063
:10305000350C4ADCC3F3130505F5152E0EF6647E18
:103060000EF4801E8EF07F5282F440121C1542EA4C
:103070000507A4F2FF3464440022C94B30463946A8
:1030800004EB1E5424F0F2FAAB1CC3F31303022B1F
:1030900082468B464FF0000230DC002324F002FF12
:1030A000002800F0C980002C00F04B81204624F05D
:1030B0002BFCA5A3D3E9002306460F4624F08AFC87
:1030C000A3A3D3E9002304460D463046394624F035
:1030D00081FC02460B462046294624F0C9FA0AE044
:1030E000AE4A93424FF0000CB4DD32463B463046C8
:1030F000394624F0BDFA05B0BDE8F08F4FF08043AB
:1031000024F0B6FA02460B465046594624F08CFD90
:10311000064620460F4624F0F7FB3246CDE9000173
:103120003B4630463946CDE9026724F053FC02465F
:103130000B468046894624F04DFC87A3D3E9002343
:1031400006460F4624F046FC85A3D3E9002324F06D
:103150008FFA32463B4624F03DFC83A3D3E900239B
:1031600024F086FA32463B4624F034FC80A3D3E9AF
:10317000002324F07DFA42464B4624F02BFC7EA32C
:10318000D3E90023804689463046394624F022FCA4
:103190007BA3D3E9002324F06BFA32463B4624F0AC
:1031A00019FC79A3D3E9002324F062FA32463B46A6
:1031B00024F010FC0B4602464946404624F058FADB
:1031C000A5F5C223C5F5D725A3F27A4351351D4392
:1031D000002D8046894656DD0022724B50465946E6
:1031E00024F0F8FB52465B4624F0F4FB06460F46FB
:1031F000002C68D132463B464046494624F038FA16
:10320000DDE9022324F0E6FB02460B463046394650
:1032100024F02CFA02460B465046594624F026FA72
:1032200005B0BDE8F08F0022002300205E4924F0A5
:10323000FBFC05B0BDE8F08F55A3D3E90023504651
:10324000594624F0C7FB02460B460020554924F09E
:103250000DFA524606460F465B465046594624F044
:10326000B9FB02460B463046394624F0B3FB06460E
:103270000F46002C40F09A8002460B4650465946B5
:1032800024F0F4F937E7002C00F0A4802EA3D3E952
:103290000023DDE9000124F09DFB42464B46044635
:1032A0000D465046594624F0E1F9DDE9022324F0A9
:1032B00091FB27A3D3E9002306460F46DDE9000171
:1032C00024F088FB21E020A3D3E90023DDE90001FD
:1032D00024F080FB32463B4604460D4640464946B4
:1032E00024F0C6F9DDE9022324F074FB18A3D3E926
:1032F000002380468946DDE9000124F06BFB02468D
:103300000B464046494624F0B3F902460B46304688
:10331000394624F0ABF952465B4624F0A7F9024641
:103320000B462046294624F0A1F905B0BDE8F08FF0
:1033300002460B4624F09AF90022002324F074FC84
:10334000D9E600200021D6E60000E0FE422EE63F4E
:10335000763C7935EF39EA3D44523EDF12F1C23F07
:10336000DE03CB966446C73F599322942449D23F4B
:10337000935555555555E53F9FC678D0099AC33F9B
:10338000AF788E1DC571CC3F04FA97999999D93FB2
:10339000555555555555D53F00005043FFFFEF7F1C
:1033A0000000F03F0000E03F000050C3204624F042
:1033B000ABFA0FA3D3E900238046894624F00AFB29
:1033C0000DA3D3E9002304460D464046494624F0A8
:1033D00001FB9AE702460B465046594624F046F94F
:1033E000DDE9022324F0F6FA14E700BFAFF3008012
:1033F0000000E0FE422EE63F763C7935EF39EA3DAB
:10340000B1F5801F2DE9F84304460D460B461ADA44
:10341000024621F00046324359D000295FDB0022EA
:103420003B4B24F0D7FA3B4A0D462B4693420446C9
:103430006FF035010CDD22462B462046294624F04C
:1034400017F9BDE8F883334A93424FF00001F2DCEC
:103450001815A0F2FF3008444FEAD0794844C3F36E
:10346000130824F051FAC9F57F73033348EA035572
:1034700006460F4620462946FFF7CEFD1EA3D3E998
:103480000023804689463046394624F0A3FA1CA31F
:10349000D3E9002304460D464046494624F09AFAF3
:1034A00002460B462046294624F0E2F816A3D3E94B
:1034B000002304460D463046394624F08BFA024676
:1034C0000B462046294624F0D3F8BDE8F8830022B5
:1034D00000230020104924F0A7FBBDE8F883024632
:1034E0000B4624F0C3F80022002324F09DFBBDE826
:1034F000F88300BFAFF30080362BF111F3FE593D86
:103500000EE526157BCBDB3F00609F501344D33F75
:1035100000005043FFFFEF7F000050C30000000099
:103520002DE9F04F23F0004757EA020493B037D05B
:10353000674C21F00046A64283460D4629DC9A4698
:10354000964625D0A74224DC614CA74279D0002DB5
:1035500080468946CDE9002377DB0024BEF1000FC9
:103560002CD15B4B9F4200F08B805A4B9F4261D025
:10357000BAF1804F00F0C383574B9A451ED1002DFE
:103580001CDB4046494613B0BDE8F04F22F04CBB6F
:1035900058B106F1404606F5801656EA0B0306D1EF
:1035A0004C49002013B0BDE8F08FB742CCDD4B484A
:1035B00013B0BDE8F04F23F03BBD00244046494620
:1035C00021F018FABBF1000F19D126B1414B25F0BB
:1035D00040429A4213D1BAF1000FC0F2CA83002DC3
:1035E000E0DA06F1404606F5801656EA040300F0DC
:1035F000A584012CD6D101F100431946D2E7ED0F85
:10360000013D54EA05034ED0354B9F426EDD03F178
:1036100004739F4240F3FE83324B9E424EDDBAF16B
:10362000000F4EDD28A3D3E900231046194624F0ED
:10363000D1F9B7E7BAF1000FC0F2528440464946CB
:10364000B0E7BEF1000F82D0A3E7274B9F4228DCF2
:10365000A3F154739F4280DD3B15A3F2FF33142B7B
:1036600040F35484C3F134032EFA03F202FA03F355
:103670009E457FF472AF02F00102C2F102046DE7D1
:1036800006F1404303F5801353EA0B0388D0154B32
:103690009E4240F33B83BAF1000F12DBDDE90001EB
:1036A00080E702245AE742464B461046194623F06B
:1036B000DDFF02460B4624F0B7FA73E7BAF1000FBC
:1036C000B0DB002000216DE79C7500883CE4377E6C
:1036D0000000F07F0000F03F0000E03FA4970200F0
:1036E0000000E041FFFFEF3FFFFF3F43B6F5801FC3
:1036F0004FF0000205DAD84B24F06CF96FF0340279
:103700000E463315D54FC6F31306A3F2FF33134409
:1037100046F07F5ABE421A460D934AF4401A40F3CF
:103720002F83CF4B9E4240F30D849FEDB57B8DEDF3
:10373000087B8DED0E7B9FEDB47B13468DED067BF4
:1037400001330D93AAF5801A0027DDE906235146BF
:10375000CDE90A0123F08AFFDDE906238046894688
:10376000DDE90A0123F084FF02460B460020BD4933
:1037700024F05AFA0A460146CDE91012134649468A
:103780000246404624F026F94FEA6A0343F000530C
:103790008C46834603F50023CDE904BCDA468B460C
:1037A000D9190023CDE902AB0293DDE902AB002079
:1037B00006460F4602460B465046594624F00AF983
:1037C00002460B464046494623F050FFDDE90623FA
:1037D000804689463046394623F048FF02460B466C
:1037E000DDE90A0123F042FF52465B4624F0F2F87D
:1037F00002460B464046494623F038FFDDE91023D8
:1038000024F0E8F8DDE90467CDE9060132463B46DD
:103810003046394624F0DEF87DA3D3E9002306467E
:103820000F4624F0D7F87CA3D3E9002323F020FF30
:1038300032463B4624F0CEF879A3D3E9002323F0A7
:1038400017FF32463B4624F0C5F877A3D3E900239F
:1038500023F00EFF32463B4624F0BCF874A3D3E9B4
:10386000002323F005FF32463B4624F0B3F872A351
:10387000D3E9002323F0FCFE3246804689463B46CE
:103880003046394624F0A6F802460B4640464946E3
:1038900024F0A0F8524606460F465B46DDE90401D7
:1038A00023F0E6FEDDE9062324F094F832463B4699
:1038B00023F0DEFE5246804689465B465046594616
:1038C00024F088F80022684BCDE90A0123F0D0FEED
:1038D00042464B4623F0CCFE02980F46064632463F
:1038E0003B465046594624F075F8002282468B46E6
:1038F0005D4B3046394623F0B9FEDDE90A2323F05B
:10390000B5FE02460B464046494623F0AFFEDDE9D0
:10391000042324F05FF83246804689463B46DDE9C1
:10392000060124F057F802460B464046494623F06C
:103930009FFE8046894602460B4650465946CDE9D1
:1039400004AB23F095FEDDE902AB3DA3D3E90023F0
:1039500050460F4624F03EF8DDE90423CDE902018C
:103960003946504623F082FE02460B464046494601
:1039700023F07CFE34A3D3E9002324F02BF834A3F6
:10398000D3E90023804689465046394624F022F880
:1039900002460B464046494623F06AFEDDE90E2307
:1039A00023F066FE80460D98894623F0ADFF42461F
:1039B00006460F464B46DDE9020123F059FEDDE9DC
:1039C000082323F055FE32463B4623F051FE324693
:1039D0003B4650468B4623F049FEDDE9082323F0A1
:1039E00045FEDDE9022323F041FE02460B46404638
:1039F000494623F03BFE8046894637E0AFF300801E
:103A00000000000000000000000000000000F03F87
:103A1000EF4E454A287ECA3F65DBC9934A86CD3FB3
:103A200001411DA96074D13F4D268F515555D53F99
:103A3000FFAB6FDBB66DDB3F033333333333E33F31
:103A4000000000E009C7EE3FFD033ADC09C7EE3F86
:103A5000F5015B14E02F3EBE000040438E9803004A
:103A600079B60B000000F03F00000840013C54EA2A
:103A7000050300F079819FEDC87B8DED047BDDE9C6
:103A800000120B461446CDE9023400230293DDE90F
:103A9000024508462B461146224623F0E7FD5246D2
:103AA0005B4623F097FFDDE9002306460F464046BC
:103AB000494623F08FFF02460B463046394623F035
:103AC000D7FD2246804689462B4650465946CDE9C9
:103AD000008923F07FFF0B46024606460F4640460C
:103AE000494623F0C5FDC64B994204460D468A4619
:103AF00040F3168101F13F4303F5E003034340F037
:103B0000F781A7A3D3E90023DDE9000123F0B0FD8D
:103B10003246804689463B462046294623F0A6FD8C
:103B200002460B464046494624F0E4F9002840F09E
:103B3000DF81A8464FEA28534FF48012A3F2FE33E8
:103B400042FA03F35344C3F30A52AE4DA2F2FF32DA
:103B50001541C3F3130423EA05010020C2F1140B3D
:103B600044F48014BAF1000F02460B4644FA0BFBF2
:103B700030463946B8BFCBF1000B23F077FD024643
:103B80000B4606460F46DDE9000123F071FD4FEAC2
:103B90000B5A0D46002484A3D3E90023204629466E
:103BA00023F018FF3246804689463B462046294688
:103BB00023F05CFD02460B46DDE9000123F056FDD3
:103BC0007BA3D3E9002323F005FF7BA3D3E90023E4
:103BD00006460F462046294623F0FCFE02460B46C9
:103BE0003046394623F044FD06460F4602460B4652
:103BF0004046494623F03CFD42464B4604460D46AE
:103C000023F034FD02460B463046394623F02EFDA4
:103C10002246804689462B462046294623F0DAFE76
:103C200067A3D3E9002306460F4623F0D3FE66A31D
:103C3000D3E9002323F01AFD32463B4623F0CAFEA7
:103C400063A3D3E9002323F013FD32463B4623F060
:103C5000C1FE61A3D3E9002323F008FD32463B46B1
:103C600023F0B8FE5EA3D3E9002323F001FD324622
:103C70003B4623F0AFFE02460B462046294623F082
:103C8000F5FC06460F4602460B462046294623F021
:103C9000A1FE0022CDE900014FF0804330463946B5
:103CA00023F0E4FC02460B46DDE9000123F0BCFFF3
:103CB000424606460F464B462046294623F08AFEDA
:103CC00042464B4623F0D4FC02460B46304639466A
:103CD00023F0CCFC22462B4623F0C8FC02460B46C0
:103CE0000020494923F0C2FC8A44BAF5801FC0F283
:103CF00039815146DDE9042323F06CFE52E442464B
:103D00004B464046494623F065FE4BE4BAF1000FAE
:103D1000BFF6D7ACDDE90034184604F1004141E4B8
:103D20003A4B21F00048984540F3FF80384B0B4454
:103D300003430CD132463B4623F098FC02460B4627
:103D4000DDE9000124F0C2F800283FF4F3AEDDE91C
:103D5000040125A3D3E9002323F03CFE22A3D3E9E9
:103D6000002323F037FE1DE49FED217B8DED047BC6
:103D700085E602460B460020234923F055FF2EE43A
:103D80009FED1D7B8DED087B8DED0E7B9FED027B06
:103D900000278DED067BD8E4000000000000F03F16
:103DA000FE822B654715973C00000000432EE63F3E
:103DB000EF39FAFE422EE63F396CA80C615C20BE5A
:103DC000D0A4BE726937663EF16BD2C541BDBB3E21
:103DD0002CDE25AF6A56113F93BDBE166CC1663FFF
:103DE0003E5555555555C53F59F3F8C21F6EA501AF
:103DF000000000000000F0BF000000000000000014
:103E0000FFFF8F40FFFF0F000000F03FFFCB90400F
:103E100000346F3F684B9E427FF750AC674B9E4229
:103E20003FF7FDAB0022654B23F020FC52A3D3E902
:103E3000002306460F4623F0CDFD51A3D3E900230E
:103E4000804689463046394623F0C4FD002282462A
:103E50008B465B4B3046394623F0BCFD02460B4691
:103E600049A1D1E9000123F001FC32463B4623F091
:103E7000B1FD02460B460020524923F0F7FB3246C3
:103E8000CDE902013B463046394623F0A3FD024608
:103E90000B46DDE9020123F09DFD3DA3D3E900239C
:103EA00023F098FD02460B465046594623F0DEFBB0
:103EB00002460B4606460F464046494623F0D8FBCD
:103EC00042464B46002082468B4623F0CFFB0246FB
:103ED0000B463046394623F0C9FB80468946C5E586
:103EE00042464B460020354923F09EFEFFF75ABB61
:103EF000DDE9040128A3D3E9002323F06BFD26A309
:103F0000D3E9002323F066FDFFF74CBBBEF1000FA1
:103F10007FF453ABC3F1140347FA03F202FA03F33D
:103F20009F4223D07446FFF720BB264B98453FF7AE
:103F300001AEDDE90223924693462BE602460B468C
:103F4000FFF7B3BB9FED167B8DED087B9FED167BD6
:103F50008DED0E7B9FED167B4FF480278DED067B5C
:103F6000FFF7F3BB5A4601F04FFDC3E602F0010232
:103F7000C2F10204FFF7F9BA000000604715F73FED
:103F800044DF5DF80BAE543E555555555555D53F5C
:103F9000FE822B654715F73F9C7500883CE4377E11
:103FA0000000004003B8E23F06D0CF43EBFD4C3E9B
:103FB000000000000000F83FFEFFEF3F0000F03F70
:103FC0000000D03F0000E03F2DE9F0479C4B21F07E
:103FD00000479F4290B08046894640F38E80994BBF
:103FE0009F420C46924626DC00298BA3D3E900238E
:103FF00040F3B08123F03AFB934B9F4204460D46B9
:1040000000F0908086A3D3E9002323F02FFB024623
:104010000B46CAE900232046294623F027FB80A34C
:10402000D3E9002323F022FB0125CAE90201284637
:1040300010B0BDE8F087854B9F4240F39080844BE1
:104040009F4265DC3D15A5F21645A7EB05531946C1
:104050001F46064623F06EFF23F056FC8046894635
:1040600042464B4630463946CDE90A8923F0FEFAEE
:104070000022784B23F0AEFC8946804623F05AFF9D
:1040800023F042FC06460F4632463B464046494630
:10409000CDE90C6723F0EAFA00226E4B23F09AFC7C
:1040A00000220023CDE90E0123F0FCFE002800F0E1
:1040B0006F81002330463946002223F0F3FE0028AA
:1040C00014BF01230223644A019202212A4600916F
:1040D0000AA8514600F08CFB002C054614DADAF8E9
:1040E0000420DAF80C3002F1004203F100434542AB
:1040F000CAF80420CAF80C3006E000200021C2E90A
:104100000089C2E902010025284610B0BDE8F08709
:1041100002460B4623F0AAFA0025CAE90201CAE9C1
:104120000001F1E740A3D3E9002323F09FFA40A365
:10413000D3E900230D46044623F098FA02460B46C5
:10414000CAE900232946204623F090FA38A3D3E990
:10415000002323F08BFA0125CAE90201D4E720F0FD
:1041600049FC35A3D3E900238046894623F032FC7D
:1041700000223A4B23F07CFA23F0DCFE054623F0C4
:10418000C3FB25A3D3E90023CDE9060123F022FCDC
:1041900002460B464046494623F068FA20A3D3E97D
:1041A0000023CDE90201DDE9060123F013FC1F2DF8
:1041B00080468946CDE9048954DC294B6A1E53F8B0
:1041C00022309F424ED002460B46DDE9020123F029
:1041D0004DFA80468946CAE9008942464B46DDE9E8
:1041E000020123F043FADDE9042323F03FFA002C17
:1041F000CAE9020188DA09F1004401F100436D4285
:10420000CAF80080CAF80440CAF80800CAF80C309E
:104210007AE700BFAFF3008000004054FB21F93F74
:104220003163621A61B4D03D0000601A61B4D03DC0
:104230007370032E8A19A33B83C8C96D305FE43FB6
:10424000FB21E93F7BD90240FB21F93FFB213941AA
:10425000FFFFEF7F0000704140C002000000E03F20
:10426000C0BF0200DDE90423DDE9020123F0FEF90D
:104270003F15C1F30A53FB1A80468946102BCAE941
:104280000089AADD58A3D3E90023DDE9060123F064
:10429000A1FB8046894602460B46DDE9020123F078
:1042A000E5F902460B46DDE90201CDE9082323F0DA
:1042B000DDF942464B4623F0D9F94DA3D3E900235B
:1042C00080468946DDE9060123F084FB42464B46E1
:1042D00023F0CCF90B46CDE904010246DDE90801E3
:1042E00023F0C4F9C1F30A53FF1A80468946312FDF
:1042F000CAE900896CDD41A3D3E90023DDE90601A9
:1043000023F068FBDDE9088906460F4602460B46A6
:104310004046494623F0AAF902460B464046494624
:10432000CDE9022323F0A2F932463B4623F09EF961
:1043300034A3D3E9002306460F46DDE9060123F046
:1043400049FB32463B4623F091F902460B46CDE944
:1043500004233AE723F08CF9274B9F4204460D468D
:1043600018D01FA3D3E9002323F082F902460B469D
:10437000CAE900232946204623F078F918A3D3E997
:10438000002323F075F94FF0FF35CAE90201BBE6BF
:10439000032398E614A3D3E9002323F069F914A3B7
:1043A000D3E900230D46044623F062F902460B468A
:1043B000CAE900232946204623F058F90CA3D3E983
:1043C000002323F055F94FF0FF35CAE902019BE6BF
:1043D0009DED087B8DED027BFFE600BFAFF3008013
:1043E0003163621A61B4D03D0000601A61B4D03DFF
:1043F0007370032E8A19A33BFB21F93F0000002EA6
:104400008A19A33BC14920259A837B39000000000B
:10441000594A2DE9F84F21F00048904506460F46CD
:104420002BDC564B0029B4BF554D564D98454FF0E7
:10443000000410DC544B984570DC4DA3D3E90023F5
:1044400023F016F90022514B23F054FDD8B1304629
:104450003946BDE8F88F4E4B98457CDD4D4B98456D
:1044600044DD013398453ED03046394640A3D3E978
:10447000002323F0AFFABDE8F88F02460B4623F085
:10448000F7F8BDE8F88F3046394620F0B3FA01F06E
:104490007FF806460F4632463B463046394623F003
:1044A000E7F8324682468B463B463046394623F093
:1044B00091FA002280468946344B3046394623F033
:1044C000D7F802460B464046494623F0ADFB02466C
:1044D0000B465046594623F0C9F822462B4623F096
:1044E00079FABDE8F88F2C4B9842BDD83046394652
:1044F00020F080FA0022234B23F06CFAFEF714FC24
:1045000006460F4602460B462046294623F062FA2D
:1045100032463B4623F05EFABDE8F88F20F06AFA97
:1045200001F036F81D4B984506460F46B3DD0022D4
:10453000164B23F09DF802460B463046394623F0D1
:1045400073FB32463B4623F093F822462B4623F07A
:1045500041FABDE8F88F20F04DFAFEF7E5FB024680
:104560000B462046294623F035FABDE8F88F00BFF8
:104570003374AC3C1F7BAC7FFFFFEF7FFFFF354008
:104580000000E0BF0000E03FFFFF2F3E0000F03FD3
:10459000412E8640CD3386407DF8B98FFFFFEF3F37
:1045A0002DE9F04F21F00048B8F1795F85B006465B
:1045B0000F4692469B466BDA23F0BCFC002800F0C5
:1045C000EA8032463B463046394623F003FA74A36C
:1045D000D3E9002304460D4623F0FCF972A3D3E986
:1045E000002323F045F822462B4623F0F3F970A36D
:1045F000D3E9002323F03AF822462B4623F0EAF9C8
:104600006DA3D3E9002323F033F822462B4623F091
:10461000E1F96BA3D3E9002323F028F822462B46C7
:1046200023F0D8F968A3D3E9002323F021F8224628
:104630002B4623F0CFF9CDE900010022664B20463E
:10464000294623F0C7F9DDE9002380468946204644
:10465000294623F0BFF9524604460D465B463046D4
:10466000394623F0B7F902460B462046294622F088
:10467000FDFF02460B464046494622F0F7FF024640
:104680000B460020554922F0F1FF05B0BDE8F08F40
:1046900002460B4623F09EF941A3D3E900230446CA
:1046A0000D4623F097F940A3D3E9002322F0E0FF61
:1046B00022462B4623F08EF93DA3D3E9002322F0B6
:1046C000D5FF22462B4623F085F93BA3D3E90023EF
:1046D00022F0CEFF22462B4623F07CF938A3D3E903
:1046E000002322F0C3FF22462B4623F073F936A3A2
:1046F000D3E9002322F0BCFF2B46224623F06AF9BF
:10470000374B9845CDE9000197DD364B984539DCAC
:10471000A8F500130022002030499046994622F067
:10472000A5FFCDE9020100222B4B2046294623F0AC
:1047300051F942464B4622F099FFDDE900238046BD
:1047400089462046294623F045F9524604460D463F
:104750005B463046394623F03DF902460B4620467B
:10476000294622F083FF02460B464046494622F086
:104770007DFF02460B46DDE9020122F077FF05B01E
:10478000BDE8F08F9FED127B4FF000088DED027BAE
:10479000DFF85490C7E71149002005B0BDE8F08F5D
:1047A000D43888BEE9FAA8BDC4B1B4BD9EEE213E9E
:1047B000AD529C804F7E923E9015CB19A001FA3EDF
:1047C0007751C1166CC1563F4C5555555555A53FAF
:1047D000000000000000E73F0000E03F0000F03F65
:1047E0003233D33F0000E93F0000D23F0000000019
:1047F0002DE9F04FADF51B7D9F4CA49E9F4D54F8C5
:10480000264007942646D41E85FB0475E417C4EBA6
:10481000A50424EAE4741D460A93631CA3EB8303F6
:10482000013D02EBC30306932B460B940395651BD6
:10483000F418049008911AD42C440026002701345F
:104840000DF18808DDF8949208E059F8250023F06E
:104850005BF80135A542E8E8020108D0002DF4DA42
:10486000013530463946A542E8E80201F6D1079BFA
:10487000002BC0F2DF83079B03F1010B0A9B22A9E7
:10488000DB001A4601EB03090093049B0DF5E47A63
:1048900019460AEBCB0B01EB0208039B002BC0F27D
:1048A000F582049C4D460026002775E90223F4E8B2
:1048B000020123F08FF802460B463046394622F0BB
:1048C000D7FE444506460F46EFD1EAE80267DA45CF
:1048D00009F10809E1D107990098049C009101F1C0
:1048E0008043013B9B0020441A1F83460EA80244CC
:1048F00003440C920D93009A9AA901EBC203002A7B
:1049000053E9284529DD0DF5E47A0AEBC2080DF1DB
:10491000340900225A4B2046294623F05BF823F045
:1049200009FB22F0F1FF0022564B06460F4623F00A
:1049300051F802460B462046294622F097FE23F006
:10494000F9FA78E9022349F8040F3946304622F093
:104950008FFED04504460D46DBD1DDF81890204689
:1049600029464A4601F050F800224FF07F53044692
:104970000D4623F02FF8FCF75FFD0022424B23F099
:1049800029F802460B462046294622F06FFE0D46C6
:10499000044623F0CFFA804622F0B6FF0B460246CB
:1049A0002946204622F062FE4B46002B06460F4663
:1049B00040F3F980009A0EA9013AC9F1180351F8A1
:1049C000225045FA03F101FA03F30EA8EB1A40F85E
:1049D0002230C9F11705884443FA05F5002D6DDD35
:1049E000009B002B08F1010840F36F820E9C002C05
:1049F00040F01683009B012B40F38F820EAA012307
:104A000052F8044F002C00F08382581C0EAAC4F107
:104A1000807442F82340009A824219DD0EAA0EAC3F
:104A200052F820106FF07F42511A44F8201000997C
:104A3000023399420CDD1046009A0EA901EB830364
:104A400001EB82011A68821A43F8042B8B42F9D1D8
:104A5000069B002B1ADD069B012B4FF0010440F052
:104A60003C82009B5A1E0EAB0EA953F82230C3F3B2
:104A7000160341F822303CE2E0C40200ABAAAA2AA5
:104A80000000703E0000704100002040022D15D152
:104A900032463B460020924922F0E8FD06460F468A
:104AA000069A8F49002000F0AFFF02460B463046C1
:104AB000394622F0DBFD022506460F460022002380
:104AC0003046394623F0EEF9002800F03782009A8C
:104AD000079B501E83420FDC02F18043013B0EAA6C
:104AE0000D9C02EB8303002253F80419A34242EA0F
:104AF0000102F9D1002A67D1079B0EAA013B52F8A7
:104B00002330002B40F018820C9A012352F804192C
:104B100001330029FAD0009AD31802F1010A9A450C
:104B200009933DDC009B0A990B9A0B4409990AEB07
:104B30000208994622AB08F1804803EBC9098B189B
:104B4000A59A08F1FF3802EB880872AA02EBCA0A9C
:104B5000A59A02EB8303009358F8040F22F0D4FEC9
:104B6000039B002BE9E802014FF000064FF000071D
:104B700011DB049C4D4675E90223F4E8020122F0A2
:104B800029FF02460B463046394622F071FD5C454E
:104B900006460F46EFD1009B9845EAE80267DBD155
:104BA000099B0093A7E606D1009B0EAA013B52F891
:104BB0002350ED1512E700224A4B23F091F900280B
:104BC00040F06E81054679E70EA9039551F8203033
:104BD0000699CDF8248018390246009006916BB9E9
:104BE00000F18043013B0EA800EB830353F8040956
:104BF000013A18390028F9D000920691069A3849EE
:104C0000002000F001FF009B002B04460D46C0F27F
:104C1000F781DA0072A901EB020B06920EAA02EBF1
:104C20008306DFF8C4904FF000080BF10807043644
:104C300056F8040D22F068FE22462B4622F0CAFEEA
:104C40004B4667E9020142462046294622F0C2FE51
:104C50000EAB9E4204460D46EAD14AACDDF81C90EC
:104C600004944FF0000AB9F1000FC0F22B81DFF875
:104C70007C805D4618A1D1E90001002600270024B0
:104C800003E0544510DCF8E80201F5E8022322F0C5
:104C9000A1FE02460B463046394622F0E9FC0134BB
:104CA000A14506460F46ECDA049B03EBCA03ABF1C1
:104CB000080BC3E9006770AB9B450AF1010AD2D12A
:104CC000A49B049C032B00F28980DFE803F0C58ECF
:104CD0008E1100BFAFF3008000000040FB21F93FC0
:104CE0000000F03F0000E03F0000703E788D0200C1
:104CF000009B002B40F38181069A04EB020ADAE95B
:104D0000008902F1080525440DF5987B1AED027B18
:104D100042464B4651EC170B8DED047B22F0A8FC6C
:104D200006460F4602460B46DDE9040122F09EFCD2
:104D300042464B4622F09CFC65E902015D45B046C7
:104D4000B9466AE90267E1D1009B012B40F3558126
:104D5000069BE518D5E9008903F1080B04EB0B0A63
:104D600015ED027B42464B4651EC170B8DED007B57
:104D700022F07EFC06460F4602460B46DDE90001A6
:104D800022F074FC4B46424622F072FC6AE90201B2
:104D90004EAB5345B046B94665E90267E0D1002005
:104DA000002104EB0B0575E9022322F061FCAA4502
:104DB000F9D1039B002B00F00A816268E368089F29
:104DC0002568A4683D6002F1004203F1004301F14F
:104DD00000417A60FB60BC6038617961099B03F037
:104DE00007000DF51B7DBDE8F08F069D08352544B5
:104DF0000020002175E9022322F03AFCA542F9D1F6
:104E0000039B002B00F0D280089E024601F1004374
:104E100086E80C000B460246D4E9000122F026FC8D
:104E2000009B002B0BDD4CAD0124F5E8022322F0A2
:104E30001FFC009B0134A342F7DA039B13B101F17D
:104E400000431946089BC3E90201099B03F00700D0
:104E50000DF51B7DBDE8F08F069D08350020002173
:104E6000254475E9022322F003FCAC42F9D1039BEF
:104E700013B101F100431946089BC3E90001099BE6
:104E800003F007000DF51B7DBDE8F08F002600271D
:104E9000EAE80267DA4509F108097FF4FEAC1AE591
:104EA000009B002B08F10108C8BF02253FF79EAD0B
:104EB00032463B460020614922F0D8FB02250646D7
:104EC0000F46FBE500260027EEE6069B002B27DDBC
:104ED0000024069B012B3FF4C4AD022B09D1009B9B
:104EE0005A1E0EAB0EA953F82230C3F3150341F836
:104EF0002230022D7FF4E2AD32463B4600204F497E
:104F000022F0B4FB06460F46002C3FF4D7ADC7E5B0
:104F10000099013399427FF473AD069B002BD8DCD6
:104F2000022D7FF4CBAD32463B460020434922F0B0
:104F30009DFB06460F46C1E50123ECE53946069F79
:104F400003957A423046CDF8248000F05DFD0022C2
:104F50003B4B04460D4622F0C3FF002843D00022FD
:104F6000384B2046294622F035FD22F0E3FF064665
:104F700022F0CAFC0022324B22F02CFD02460B46E6
:104F80002046294622F072FB22F0D4FF00990B46FE
:104F900001331A4600933B46183306930B460EA97D
:104FA00041F82300134641F8236027E6089B024698
:104FB000C3E900010B46D4E9000122F057FB009B36
:104FC000002B3FF730AF089BC3E902013DE7D4E96E
:104FD0000067D4E90223089DC5E90401C5E900671B
:104FE000C5E90223FAE62946204622F0A3FF009AEB
:104FF0000EA941F8220001E64AAC00200021D8E6C3
:10500000A49B032B3FF6EAAE01A252F823F000BFA7
:105010002F5000002750000027500000F94F0000DB
:1050200001200023F2E4002000214AACE8E6002041
:1050300000211CE70A9BDB0000934CE40000F03FDA
:10504000000070410000703E2DE9F04F21F0004655
:10505000B6F1795F85B004460D469046994604DA6C
:1050600022F068FF002800F0858022462B4620466B
:10507000294622F0AFFC06460F4602460B46204664
:10508000294622F0A7FC41A3D3E9002382468B46A0
:105090003046394622F09EFC3EA3D3E9002322F09D
:1050A000E5FA32463B4622F095FC3CA3D3E90023C7
:1050B00022F0DEFA32463B4622F08CFC39A3D3E9DB
:1050C000002322F0D3FA32463B4622F083FC37A37A
:1050D000D3E9002322F0CCFA0E9BCDE900019BB36B
:1050E0000022294B4046494622F074FCDDE90023AA
:1050F000CDE902015046594622F06CFC02460B46AF
:10510000DDE9020122F0B2FA32463B4622F062FCAF
:1051100042464B4622F0AAFA19A3D3E900230646D9
:105120000F465046594622F055FC02460B46304683
:10513000394622F09DFA02460B462046294622F0C7
:1051400095FA05B0BDE8F08F02460B463046394669
:1051500022F040FC0AA3D3E9002322F087FA52464A
:105160005B4622F037FC22462B4622F081FA05B03E
:10517000BDE8F08F2046294605B0BDE8F08F00BF9E
:10518000495555555555C53F0000E03F7CD5CF5A90
:105190003AD9E53DEB9C2B8AE6E55A3E7DFEB157B8
:1051A000E31DC73ED561C119A0012A3FA6F8101121
:1051B0001111813F000000002DE9F04FBE4C21F09D
:1051C000004687B0A64282468B460F46CDE90023B3
:1051D0001BDC22F0AFFE002837D153461E43109B44
:1051E0000133334300F0B381109B012B00F0C881E1
:1051F00052465B460020B14922F016FD04460D469A
:105200002046294607B0BDE8F08FAD4B9E421CDD1D
:105210000029C0F2A98152465B4687A1D1E900016D
:1052200022F024FADDE9002304460D4684A1D1E9E9
:10523000000122F01BFA9FED847B22462B468DED68
:10524000007B22F015FA82468B4652465B4650465A
:10525000594622F0BFFB02460B468046894622F0A3
:10526000B9FB424604460D464B465046594622F08D
:10527000B1FB77A3D3E90023CDE9020120462946FB
:1052800022F0A8FB74A3D3E9002322F0F1F922460F
:105290002B4622F09FFB72A3D3E9002322F0E8F90A
:1052A00022462B4622F096FB6FA3D3E9002322F07F
:1052B000DFF922462B4622F08DFB6DA3D3E90023B4
:1052C00022F0D6F922462B4622F084FB6AA3D3E9CA
:1052D000002322F0CDF942464B4622F07BFB68A327
:1052E000D3E90023CDE904012046294622F072FBD0
:1052F00065A3D3E9002322F0BBF922462B4622F016
:1053000069FB63A3D3E9002322F0B2F922462B46BE
:1053100022F060FB60A3D3E9002322F0A9F9224622
:105320002B4622F057FB5EA3D3E9002322F0A0F91D
:1053300022462B4622F04EFB5BA3D3E9002322F04A
:1053400097F902460B46DDE9040122F091F9DDE907
:10535000022322F03FFBDDE9004522462B4622F0E6
:1053600087F942464B4622F035FB02460B46204663
:10537000294622F07DF94EA3D3E9002304460D46C9
:10538000DDE9020122F026FB22462B4622F070F9CD
:105390000B460246804689465046594622F068F937
:1053A000474B9E4204460D4600F38E80109B012B16
:1053B0003BD002460B460020404922F035FC002439
:1053C00006460F462046294652465B46CDE9006711
:1053D000CDE90201009422F049F9DDE900AB024673
:1053E0000B464046494622F041F952465B4622F0C0
:1053F000F1FA524604460D465B46DDE9020122F011
:10540000E9FA00222F4B22F033F902460B462046E0
:10541000294622F02DF932463B4622F0DBFA52466D
:105420005B4622F025F904460D462046294607B082
:10543000BDE8F08FAFF30080182D4454FB21E93F05
:10544000075C143326A6813C000000000000000029
:10545000D47ABF74702AFB3EE9A7F0320FB8123F2E
:1054600068108D1AF726303F1583E0FEC8DB573FE2
:1054700093846EE9E326823FFE41B31BBAA1AB3FA2
:10548000735360DBCB75F3BEA69237A0887E143FC2
:105490000165F2F2D844433F280356C9226D6D3F9F
:1054A00037D60684F464963F7AFE10111111C13F7D
:1054B000635555555555D53FFFFF2F3E0000F0BFB2
:1054C0002794E53F0000F03F109822F01DFA224695
:1054D000CDE900012B462046294622F07BFADDE982
:1054E0000023CDE902012046294622F0C1F80246F8
:1054F0000B46DDE9020122F097FB42464B4622F0C3
:10550000B5F802460B465046594622F0AFF802461F
:105510000B4622F0ADF802460B46DDE9000122F011
:10552000A5F80446B81700F00200C0F101000D46CE
:1055300022F0EAF902460B462046294622F04AFAB2
:1055400004460D462046294607B0BDE8F08F504678
:1055500059461FF04FFA02460B4600200A4922F036
:1055600063FB04460D4660E7DDE9004501F10041BB
:10557000224605F1004382468B46CDE900234AE6E8
:1055800054465D4651E700BF0000F03F00000000B8
:105590002DE9F04FD24A21F00043934285B0824674
:1055A0008B460C462DD9CF4A93421AD8002C80F254
:1055B0001681B5A3D3E900235046594622F058F886
:1055C0000022002322F078FCC0B9B1A3D3E9002364
:1055D0005046594622F0FEF902460B460020C249C9
:1055E00008E1C24A934240F2D0800346C1F313025D
:1055F000134340F0F481002980F2C4800020BC49AC
:10560000C0E0BC4A934200F22981BB4A934240F277
:10561000DE80002301930022B84B5046594622F009
:10562000D9F906460F4602460B465046594622F027
:10563000D1F999A3D3E9002304460D4622F0CAF913
:1056400097A3D3E9002322F013F822462B4622F039
:10565000C1F995A3D3E9002322F008F822462B468E
:1056600022F0B8F992A3D3E9002322F001F82246F0
:105670002B4622F0AFF990A3D3E9002321F0F6FFE7
:1056800022462B4622F0A6F900229D4B21F0F0FF86
:105690008046894602460B463046394622F09AF942
:1056A00002460B460020974921F0E0FF06460246DD
:1056B0000B460F464046494621F0D8FF3246804609
:1056C00089463B465046594622F084F902460B462D
:1056D00000208D4921F0CAFF02460B46404649464C
:1056E00022F0A2FA22462B4622F074F9019E0246CD
:1056F0000B46002E38D0DDE9026732463B4621F0EA
:10570000B5FF52465B4622F065F932463B4621F032
:10571000ADFF2B46224621F0A9FF019B013306462F
:105720000F4600F00F81019B012B00F0F180019BDF
:105730000133392B39D8019B132B40F31281019C83
:10574000C4F57F75033500222B0521F091FF024639
:105750000B465046594621F089FF0022684B21F044
:1057600087FF01EB04510DE05046594622F032F913
:1057700022462B4621F07AFF02460B4650465946F8
:1057800021F074FF05B0BDE8F08F4DA3D3E90023ED
:1057900022F0B0FB00283FF409AF4BA3D3E900236C
:1057A0001046194622F016F9ECE752465B4621F006
:1057B0005DFF02460B460020514921F057FF019A38
:1057C0004F4B01EB0251002221F050FFDAE73EA3DC
:1057D000D3E9002321F04CFF02460B46CAE72CA375
:1057E000D3E900235046594622F0F4F80B464349CA
:1057F0000246002021F03CFF22F09CFB019022F0A9
:1058000083F833A3D3E9002306460F4622F0E2F8DB
:1058100002460B465046594621F028FF2EA3D3E9F5
:105820000023804689463046394622F0D3F80646A2
:105830000F4632463B464046494621F017FF024696
:105840000B4682468B464046494621F00FFF3246C2
:105850003B4621F00BFFCDE90201DCE62B4A9342E7
:1058600000F2958000291AA3D3E90023C0F2AC808E
:1058700021F0FCFE012380468946019316A7D7E953
:105880000067D6E7AFF3008059F3F8C21F6EA50199
:10589000FE822B654715F73F2DC3096EB7FD8ABE03
:1058A0003952E686CACFD03EB7DBAA9E19CE143F46
:1058B0008555FE19A0015A3FF41011111111A13F95
:1058C000EF39FAFE422E86409C7500883CE4377E14
:1058D0000000E0FE422EE63F763C7935EF39EA3DA6
:1058E00079684340412E86400000E0BFFFFFEF7F14
:1058F0000000F0BF422ED63FFFFF8F3C0000E03F8C
:105900000000F03F0000084000001840B1A2F03F46
:105910000022394B5046594622F0CEFA002844D096
:10592000504659460022354B21F0A2FE02460B4656
:105930003046394621F09AFE00224FF0404322F0D3
:1059400049F81FE702460B465046594621F08EFEA5
:1059500000222A4B22F03EF80022284B21F086FE3E
:1059600010E7019C4FF400132341C3F17F575246C7
:105970005B4621F07BFE002607F5401702460B46EA
:105980003046394621F072FE01EB0451FAE616A3C7
:10599000D3E9002322F01EF8002C02460B464FF0FC
:1059A0000000FFF61CAE154924E732463B46504640
:1059B000594621F05BFE02460B4621F059FE0022BB
:1059C0000F4B21F055FEDDE621F052FE4FF0FF3384
:1059D00080468946019306A7D7E9006729E7024672
:1059E0000B4621F045FECDE6FE822B654715F73FBD
:1059F000763C7935EF39EABD0000D0BF0000E03FCA
:105A00000000F03F00000000F8B5C1F30A5604465C
:105A10000D460B4617460EBB21F000430343864656
:105A200025D00022344B21F0D5FF344A974204465A
:105A30000D460B462ADBC1F30A56363E3E4440F281
:105A4000FE72964228DC002E12DD23F0FF4323F481
:105A5000E00343EA065520462946F8BD40F2FF72AE
:105A60009642EBD102460B4621F002FEF8BDF8BD8E
:105A700016F1350F1DDA4CF250339F4222462B4669
:105A800025DC19A1D1E9000121F062FD16A3D3E9BB
:105A9000002321F09FFFF8BD22462B4614A1D1E937
:105AA000000121F055FD12A3D3E9002321F092FF5C
:105AB000F8BD23F0FF4323F4E003363643EA0655EE
:105AC0002046294600220E4B21F084FFF8BD08A194
:105AD000D1E9000121F03CFD05A3D3E9002321F029
