:100000000000022059D6010081D6010083D60100EC
:1000100085D6010087D6010089D6010000000000C6
:100020000000000000000000000000008BD601006E
:100030008DD60100000000008FD6010091D601008E
:1000400093D601003D170100F9D40100BDD4010091
:10005000D1D4010093D6010051B8010019A70100C5
:1000600019CB010021CB010029CB010093D601005F
:10007000B99D000093D6010093D6010093D60100EC
:1000800093D6010093D6010093D6010093D60100C8
:1000900093D6010093D6010093D6010093D60100B8
:1000A00093D6010093D6010031CB010039CB01007A
:1000B00093D6010093D6010000000000000000006C
:1000C00093D6010093D6010093D60100E5D4010038
:1000D00093D6010093D6010093D6010093D6010078
:1000E00021D5010000000000000000000000000019
:1000F0000000000093D60100000000000DD50100B3
:1001000000000000000000000000000000000000EF
:1001100000000000000000000000000000000000DF
:1001200000000000000000000000000000000000CF
:1001300000000000000000000000000000000000BF
:1001400000000000000000000000000000000000AF
:10015000000000000000000000000000000000009F
:10016000000000000000000000000000000000008F
:10017000000000000000000000000000000000007F
:10018000000000000000000000000000000000006F
:10019000000000000000000000000000000000005F
:1001A000000000000000000000000000000000004F
:1001B000000000000000000000000000000000003F
:1001C000000000000000000000000000000000002F
:1001D000000000000000000000000000000000001F
:1001E000000000000000000000000000000000000F
:1001F00000000000000000000000000000000000FF
:100200007CB0EE877CB0EE87FF00FF00FF00FF00B0
:10021000FF00FF00FF00FF00FF00FF00FF00FF00E6
:10022000FF00FF00FF00FF00FF00FF00FF00FF00D6
:10023000FF00FF00FF00FF002DE9F04F85B00391A4
:100240000778A7F10903042B044607F07F0200F1A9
:100250000100F5D9202AF3D02B2F04BF677804467C
:100260002D2F72D09FED427B8DED007B4FF000086B
:100270004FF000098FB34FF0000E4FF0000ADFF887
:1002800000B1754619E028F007FA804689463046E5
:1002900028F09CF942464B4628F04CF852468046DE
:1002A00089465B46DDE9000135B328F01FFBCDE947
:1002B0000001AE4614F8017F7FB1A7F13006092E88
:1002C00052465B4640464946DDD9C5B92E2F16D168
:1002D00014F8017F0125002FEFD142464B46DDE99E
:1002E000000128F0D9F980468946039B40464946DB
:1002F0001C6005B0BDE8F08F4FF0010EDAE7BEF1EB
:10030000000F29D042464B46DDE9000128F0C4F930
:1003100007F0DF07452F80468946E6D10399601C28
:100320000A2227F0EBFF16490246002028F014FDB0
:1003300002460B464046494628F0AEF980468946BB
:100340004046494605B0BDE8F08F9FED0B7B6778CE
:100350008DED007B013489E7DFF828904FF000082D
:100360004046494605B0BDE8F08F00BFAFF30080BE
:10037000000000000000F03F000000000000F0BF9F
:10038000000024400000F87F2DE9F84F16460023B6
:10039000002204460D4628F0F1FB002840F09D8025
:1003A000002200232046294628F0DEFB28B1302217
:1003B000002332707370BDE8F88F2046294625F07F
:1003C000CDFD28F019FC7BA3D3E900238146294603
:1003D000204628F0D3FB002800F08680B9F1000FFA
:1003E000C0F2BE804A4600206F4928F0B5FC0246A4
:1003F0000B462046294628F079FA04460D4666A1A8
:10040000D1E9000101274FF0000822462B4628F0D1
:1004100043F90022654B27F08DFF28F0F1FC002FF7
:10042000CC464FF0FF3AC1464FF0000840F38580BC
:10043000DFF888E15E4C0122AEF1700945F6F32544
:100440004FF02E0BA94208BFA0424FF0300309D352
:10045000001B61EB0501A94208BFA04203F10103A3
:10046000F6D2DBB2337050EA010306F1010409D180
:10047000BA4210DACE4502F101020CD026467EE8DF
:100480000245DFE7BA4204BF86F801B0B41CCE458E
:1004900002F10102F2D1B8F1000F0DD02246302155
:1004A00002F8011BC2F1010353442344002BF7DC83
:1004B0002AEAEA7301331C44BCF1010F4CD06523D6
:1004C000BCF1000F2370C5BF2B236370611CA11CFE
:1004D0006046BDE8F84F13F063BB05F100431D46CD
:1004E0002D23337001365BE72DA3D3E9002320468B
:1004F000294628F061FB00287FF470AFB9F10E0F98
:1005000009F101073DDDA9F10E0842460020264908
:1005100028F022FC02460B462046294628F0E6F940
:100520000022224B27F006FF28F06AFC002FA9F1D9
:100530000F0A4FF0010C3FF77BAF334630222E24D9
:1005400003F8022B74707FEA090618D01E4403F8E2
:10055000012BB342FBD16BE700232370BDE8F88F7A
:10056000C9F100020020104928F0F6FB02460B46B4
:100570002046294628F090F804460D463FE71E46DF
:1005800056E7C9F10E0200200749C84628F0E4FBEF
:100590004FF0010939E700BF0000901EC4BCD642ED
:1005A00050EFE2D6E41A4B44000024400000E03F44
:1005B00000407A108DEDB5A0F7C6B03E009902005C
:1005C00070B54FF0FF3006F0A9FD04466FF07F4094
:1005D00006F0A4FD0646204627F0E8FF00220C4B5B
:1005E00028F05AF8044630460D4627F0DFFF06A3F0
:1005F000D3E9002328F07AF902460B462046294623
:1006000027F098FE70BD00BF0000E0DFFFFF6F43E2
:100610000000F03D000000002DE9F843436A044665
:1006200018680D4627F0E4FF064668680F4627F075
:10063000CDFF25F093FC636A95ED037AD3ED007A44
:1006400077EE677A8046894617EE900A27F0D0FF4A
:1006500042464B4628F020F807A3D3E9002328F0B0
:1006600045F932463B4627F065FE28F00DFBA063B6
:10067000BDE8F883AFF30080333333333333FF3FC8
:100680002DE9F04F2DED028B044683B0C06827F0B2
:100690009DFF80462069894627F098FF8246606961
:1006A0008B4627F093FF024601F1004306460F46B2
:1006B0004046494625F0FEFA28F0E6FAE062054693
:1006C00025F0ACF90190284625F05CF9019B054620
:1006D000184627F08DFF42464B4627F0DDFF804647
:1006E0002846894627F084FF32463B4627F0D4FF50
:1006F00002460B464046494627F01AFE02460B4684
:100700005046594625F0D6FA28F0BEFA002208EEE7
:10071000100A00233046394628F04EFA28B3B5EEC9
:10072000C08AF1EE10FA1CDD11A7D7E9006718EEB8
:10073000100A27F05DFF02460B463046394627F087
:10074000F7FD32463B4627F0F5FD28F09DFAA06202
:10075000E38843F00203E38003B0BDEC028BBDE805
:10076000F08F05A7D7E90067E1E784ED0A8AEFE794
:10077000EA2E4454FB21F93FEA2E4454FB21F9BFF1
:1007800008B514F02DFDDFED0C7A07EE100A67EEC8
:10079000277A17EE900A27F02BFF05A3D3E9002351
:1007A00028F0A4F828F028FA08BD00BFAFF30080B5
:1007B000EA2E4454FB2119400000B443000000001D
:1007C00008B514F021FDDFED0C7A07EE100A67EE94
:1007D000277A17EE900A27F00BFF05A3D3E9002331
:1007E00028F084F828F008FA08BD00BFAFF30080B5
:1007F000EA2E4454FB2119400000B44300000000DD
:100800002DE9F84F16461F460446002200233046C5
:1008100039460A9D28F0B2F9002840F0CD803246D2
:100820003B463046394628F0D1F9002840F01F8178
:1008300027F00049304649464FF0FF32984B28F0E8
:10084000C5F948B9304649464FF0FF32944B28F07D
:100850009FF9002800F0B7808BA3D3E9002330462E
:10086000394628F08BF9002840F099800F2DA8BF59
:100870000F25042D30463946A946B8BF4FF004096C
:1008800025F06CFB28F0B8F981A3D3E90023824658
:100890003946304628F072F948B97FA3D3E90023DE
:1008A0003046394628F088F9002800F09180BAF1E6
:1008B000000FC0F2BE80524600207A4928F04CFA60
:1008C00002460B463046394628F010F806460F46D9
:1008D00001254FF0000BA9EB0B02013A00207149F2
:1008E00028F03AFA3B46324627F0D6FE00226E4BFD
:1008F00027F020FD28F084FA002D57464FF0FF38EE
:10090000DA464FF0000B40F38180684B09F1FF3C61
:100910004FF0010E03EBC9094FF02E0A79E90223CB
:10092000994208BF90424FF0300609D3801A61EB1C
:100930000301994208BF904206F10106F6D2F6B2D1
:1009400050EA0102267004F101032ED1AE451C4687
:1009500006DA0CF1FF3CBCF1FF3F0EF1010EDDD1D8
:10096000BBF1000F0DD02246302102F8011BC2F16D
:10097000010343442344002BF7DC28EAE8730133E6
:100980001C44012F51D06523002F237060DD2B23E1
:100990006370A11C3846BDE8F84F1FF0E5BF302258
:1009A000002322706370BDE8F88FAE450ABF84F85B
:1009B00001A01C460234CCE707F100431F462D235B
:1009C000237001342BE73A4B18682060BDE8F88F9C
:1009D000D1450AF1010551DCAAEB090808F1010B28
:1009E0005A4600202F4928F0B7F902460B463046F8
:1009F000394627F07BFF00222B4B27F09BFC28F089
:100A0000FFF9002D4FF001073FF77FAF234630225B
:100A10002E2603F8022B66707FEA0A042CD01C44B1
:100A200003F8012BA342FBD16FE700232370BDE83D
:100A3000F88FCAF1000200201A4928F08DF9024609
:100A40000B463046394627F027FE06460F463FE75D
:100A5000611C0AD0002F9DDA2D237F426370A11CF8
:100A60003846BDE8F84F1FF07FBFBDE8F88F114B47
:100A700018682060BDE8F88F1C4646E7D3464FF063
:100A8000010A28E7AFF30080B0CA6E47ED89100075
:100A90008DEDB5A0F7C6B03E50EFE2D6E41A4B4458
:100AA000FFFFEF7F000024400000E03F509902006C
:100AB0003CC8020038C802002DE9F04F90468A6811
:100AC00008F00F0BD2F82C90ABF10802012A8DB080
:100AD000044640F28A801D4608F0030A08234FEAC4
:100AE000181603FA0AF39E4277D805AB00934846DE
:100AF000DDE916231EF03EFC012303FA0AFA059BEA
:100B0000AA449A45074632D8189B00EB050A002BE9
:100B100000F00F8193E8030016B94B1C00F0D88059
:100B20001EF0B4FB06F2FF390023002269F31E53C6
:100B300027F0B2FD18F0080F02460B4605D100223F
:100B4000B54B27F0F7FB02460B4602A81EF0F2FA5F
:100B5000039902980B46BBF10B0F00F2B780DFE858
:100B60000BF06F699775635D5911B5B55349189BC3
:100B700053B320464946672221F0F6FD20460DB0CA
:100B8000BDE8F08F4B1C00F0C1801EF07FFB0022FF
:100B9000A24B8046894627F0F1FF002840F054819F
:100BA00000229E4B4046494628F006F8002840F0B7
:100BB0004B814046494628F00BF9CDE9080108ABC6
:100BC00003CB7851CAF80410954BD3E90023C4E94C
:100BD000002320460DB0BDE8F08F4946652221F084
:100BE000C3FD20460DB0BDE8F08F4946642221F0D8
:100BF000BBFDEEE71EF04AFB0CAB63E9020103CB41
:100C00007851CAF80410DFE71EF040FB28F03CF8EA
:100C10007851D9E71EF01EFB7851D5E71EF01AFB7C
:100C200000F30F007853CFE71EF014FB00F307002A
:100C30007855C9E71EF00EFB80F310007853C3E728
:100C40001EF008FB80F308007855BDE74A1C6AD007
:100C50001EF01CFB002200238046894627F08EFFF1
:100C6000002840F0078100226E4B4046494627F09D
:100C7000A3FF002840F0ED804046494628F0C0F828
:100C8000CDE9060106AB03CB7851CAF804109BE707
:100C9000013142D019461EF0F9FA002200238046A5
:100CA000894627F06BFF002840F0E18058A3D3E984
:100CB00000234046494627F07FFF002840F0CE80C1
:100CC0004046494627F0C0FF78517DE71CF01CFFE5
:100CD000BBF10B0FFAD801A353F82BF0410C000025
:100CE000350C00001B0D0000270D0000290C000032
:100CF0001D0C0000150C00000D0D0000CD0C0000B7
:100D0000CD0C0000090C0000F50B000000287FF757
:100D10003CAFC117CDE9080151E700283FF778AF94
:100D20004FF0FF33B6E7002892DDC117CDE9060189
:100D3000A8E7BBF10B0FC9D801A353F82BF000BFF4
:100D4000450E00003F0E0000290E0000E90D0000D6
:100D5000E50D0000DF0D0000B30D0000970D000051
:100D6000CD0C0000CD0C0000850D0000710D0000C1
:100D7000DAF80000DAF804100AAB03C3DDE90A016F
:100D80003EB31CE0DAF80000049027F031FCCDE916
:100D90000A01F6B113E0DAF80000DAF8041008AB43
:100DA00003C3DDE9080127F049FCCDE90A0186B15A
:100DB00005E0DAF80000002E54D027F007FCC6F555
:100DC0007F7909F103090023002269F31E5327F0FC
:100DD00063FC02460B4620461EF0ACF9F9E6BAF970
:100DE0000000E8E74057E6E7DAF80000DAF8041018
:100DF00006AB03C3DDE90601002908BFB0F1004FCF
:100E0000D9D327F013FCCDE90A01002EE1D0D6E7B3
:100E10000000E0FFFFFFEF410000E03F0000E04383
:100E2000309902000000F043DAF800000028C2DA2E
:100E300027F0BCFBCDE90A01002ECAD0BFE7BAF803
:100E40000000B8E7405DB6E74FF0FF306FF00041BB
:100E5000B3E64FF0FF304FF0FF3111E74FF0FF30B6
:100E60007851B1E6014620461EF0C8F9B1E60020EF
:100E70007851A9E60020002102E700BF0000000031
:100E8000494A21F0004393422DE9704304460D4640
:100E90004BDC464A93420E460EDC3FA3D3E90023C7
:100EA00027F048FA0022424B27F086FE00284CD05B
:100EB00020462946BDE870833E4A93423BDCB3F1AD
:100EC000804F42DD24F0F8FB2246804689462B46BF
:100ED0002046294627F0E0FB0022354B27F02AFA6E
:100EE00025F004FD02460B464046494627F022FA0B
:100EF00002460B4600202E4927F0F8FC42460446E5
:100F00000D464B464046494627F014FA02460B462A
:100F10002046294627F00EFA02F06AF8002EC9DCB6
:100F200001F100431946BDE8708302460B4627F0E5
:100F300001FABDE8708324F0BFFB02F059F818A352
:100F4000D3E9002327F0F6F9E8E722462B462046AE
:100F5000294627F0A1FB804689462046294624F0F1
:100F6000ABFB002204460D46114B4046494627F094
:100F7000E1F925F0BBFC00220D4B27F0DBF902461E
:100F80000B464046494627F0B1FC22462B4627F047
:100F9000D1F900F0C5FAC1E79C7500883CE4377EC2
:100FA000EF39FAFE422EE63FFFFFEF7FFFFF2F3EB5
:100FB0000000F03F0000B0412DE9F84FC44B21F094
:100FC00000469E4204460D468A460EDDC14B9E42B7
:100FD00000F3AC8000F0A780BAF1000F40F3EA8084
:100FE0009FA1D1E90001BDE8F88FBB4B9E4200F301
:100FF000B580A3F1DE739E4240F3A0804FF0FF3B2B
:1010000022462B462046294627F046FB02460B4641
:101010008046894627F040FB93A3D3E90023064688
:101020000F4627F039FB92A3D3E9002327F082F97A
:1010300032463B4627F030FB8FA3D3E9002327F04D
:1010400079F932463B4627F027FB8DA3D3E90023ED
:1010500027F070F932463B4627F01EFB8AA3D3E9FE
:10106000002327F067F932463B4627F015FB88A39B
:10107000D3E9002327F05EF942464B4627F00CFBEC
:1010800085A3D3E90023804689463046394627F0B8
:1010900003FB83A3D3E9002327F04AF932463B46FA
:1010A00027F0FAFA80A3D3E9002327F041F932466A
:1010B0003B4627F0F1FA7EA3D3E9002327F038F965
:1010C00032463B4627F0E8FA7BA3D3E9002327F01A
:1010D0002FF932463B4627F0DFFABBF1FF3F0246CD
:1010E0000B466CD04046494627F024F922462B4651
:1010F00027F0D2FA794E7A4B4FEACB0B5E449B44F1
:10110000DBE9002327F014F922462B4627F010F9DB
:1011100002460B46D6E9000127F00AF9BAF1000FA2
:1011200043DBBDE8F88F00283FF456AF22462B463C
:101130002046294627F0FEF8BDE8F88F60A3D3E9E2
:10114000002327F0F7F80022664B27F035FD002832
:101150003FF454AF20462946BDE8F88F24F0ACFA9E
:10116000614B9E4204460D4639DCA3F550239E4256
:101170005EDC02460B4627F0DDF80022594B27F0D3
:10118000D7F8002206460F464FF0804320462946F6
:1011900027F0D0F802460B463046394627F0A6FB2A
:1011A0004FF0000B04460D462AE701F100431946B3
:1011B000BDE8F88F44A1D1E90001BDE8F88F4046B1
:1011C000494627F0B7F822462B4627F065FA024633
:1011D0000B462046294627F0ABF8BDE8F88F434B75
:1011E0009E421ADC0022424B27F0A2F8002206465B
:1011F0000F463F4B2046294627F04EFA0022394B36
:1012000027F098F802460B463046394627F06EFB29
:101210004FF0020B04460D46F2E602460B46002054
:10122000344927F063FB4FF0030B04460D46E7E615
:1012300000222C4B27F07CF8002206460F46294B53
:101240002046294627F076F802460B4630463946B6
:1012500027F04CFB4FF0010B04460D46D0E600BFD3
:10126000182D4454FB21F93F11DA22E33AAD903FA7
:10127000EB0D76244B7BA93F513DD0A0660DB13FCD
:101280006E204CC5CD45B73FFF8300922449C23F35
:101290000D5555555555D53F2F6C6A2C44B4A2BFFA
:1012A0009AFDDE522DDEAD3F6D9A74AFF2B0B33FC2
:1012B000711623FEC671BC3FC4EB98999999C93F3A
:1012C0009C7500883CE4377E182D4454FB21F9BFFF
:1012D000FFFF0F440000F07FFFFFDB3FC8990200D3
:1012E000E89902000000F03FFFFFF23FFF7F03405C
:1012F0000000F83F0000F0BF2DE9F843C1F30A59A0
:10130000A9F2FF35132D02460B460C4606468846C9
:10131000074622DC002D50DBDFF8F09049FA05F992
:1013200001EA090E5EEA06061CD036A3D3E90023C3
:1013300027F000F80022002327F03EFC48B1002CE3
:1013400004DD4FF4801343FA05F5A84428EA0904A4
:10135000002721463846BDE8F883332D06DDB5F574
:10136000806F3DD010461946BDE8F883A9F21349B5
:101370004FF0FF3E2EFA09F910EA090FF2D021A32F
:10138000D3E9002326F0D6FF0022002327F014FC27
:101390000028DED0002C09DD142D2BD00127C5F14B
:1013A000340507FA05F5AE1928BFB844444626EAC5
:1013B000090721463846BDE8F88312A3D3E9002384
:1013C00026F0B8FF0022002327F0F6FB0028C0D04B
:1013D000002C0BDB54EA060706D00027084CB8E7C0
:1013E00026F0A8FFBDE8F8833C46B2E700274FF09F
:1013F0000044AEE704F10108D8E700BFAFF3008076
:101400000000F03F9C7500883CE4377EFFFF0F0032
:101410002DE9F041C1F30A57A7F2FF35132D02461B
:101420000B460C46884606461CDC002D3FDB3A4F37
:101430002F41864601EA070C5CEA0E0E17D034A352
:10144000D3E9002326F076FF0022002327F0B4FB27
:1014500020B1002C3FDB28EA070400262146304655
:10146000BDE8F081332D06DDB5F5806F2FD0104635
:101470001946BDE8F081A7F213474FF0FF3E2EFA60
:1014800007F73842F3D022A3D3E9002326F052FF16
:101490000022002327F090FB0028DFD0002C20DB67
:1014A000444626EA070621463046BDE8F08118A3E7
:1014B000D3E9002326F03EFF0022002327F07CFB27
:1014C0000028CBD0002C17DB00263446C6E726F0D8
:1014D00031FFBDE8F0814FF4801343FA05F5A844CD
:1014E000B9E7142D10D00123C5F1340503FA05F531
:1014F000AE1928BF9844D3E724F00042074B32438B
:1015000018BF1C460026A9E704F10108C8E700BF80
:101510009C7500883CE4377EFFFF0F000000F0BFA1
:101520002DE9F04FD84B994287B0804689460E4648
:1015300013DCD64B21F000449C4218DD0022D44B32
:1015400027F012FB002879D0002200230020D14987
:1015500027F0CCF907B0BDE8F08FCF4B99422FDDD3
:1015600042464B4626F0E6FE07B0BDE8F08FCB4B77
:101570009C4270DDCA4B1E449E427ED80022C94B5D
:101580004046494626F0D6FE4FEA215AAAF2FF3AD3
:10159000BAF1000F04460D460E4640F3DE81424686
:1015A0004B4626F0C5FE02460B460020BD4926F0FC
:1015B000BFFE22462B4627F099F9CDE902010BE048
:1015C000B94B9E42DADD9FED9A7B8DED027B4FEAAF
:1015D000265A4446AAF2FF3AB44BC6F313069E427B
:1015E00046F07F5500F3E78045F440152046294634
:1015F0000022AC4B26F09CFE002204460D46AC4B6C
:1016000027F04AF822462B4627F046F8A046CDE9B7
:101610000401A946CDE90001002E3AD100220023A1
:101620002046294627F0A0FA002800F0CE80BAF123
:10163000000F40F074810020002195E742464B46A0
:101640004046314626F074FE02460B4627F04EF91E
:1016500007B0BDE8F08F0022964B26F06BFE00220B
:10166000002327F0A9FA002800F0CC80924B9C427E
:1016700000F3C8804046494676E700228C4B27F0AD
:101680000BF842464B4627F007F8CDE900014FF032
:10169000000A00224FF080434046494626F04AFEA9
:1016A00002460B464046494627F020F902460B46C3
:1016B00006460F4626F0F0FF5FA3D3E90023044659
:1016C0000D4626F0E9FF5EA3D3E9002326F032FEA3
:1016D00022462B4626F0E0FF5BA3D3E9002326F049
:1016E00029FE22462B4626F0D7FF59A3D3E9002333
:1016F00026F020FE22462B4626F0CEFF56A3D3E945
:10170000002326F017FE22462B4626F0C5FF54A3E1
:10171000D3E9002326F00EFE22462B4626F0BCFF1E
:1017200051A3D3E9002326F005FE22462B4626F0DE
:10173000B3FF04460D46BAF1000F00F0BF805046DB
:1017400026F044FF4AA3D3E9002382468B4626F0C5
:10175000A3FFDDE90023CDE904012046294626F058
:10176000E9FD32463B4626F097FF43A3D3E9002329
:1017700004460D465046594626F08EFFDDE9022309
:1017800026F0D8FD02460B462046294626F0D2FD1B
:1017900002460B46DDE9000126F0CAFD42464B46F3
:1017A00026F0C6FD02460B46DDE9040126F0C0FD29
:1017B00007B0BDE8F08F45F40015C6F58016204649
:1017C0002946B6100AF1010A12E72DA3D3E9002336
:1017D0002046294626F060FF02460B46002031498C
:1017E00026F0A6FDDDE9042326F056FF06460F4647
:1017F000BAF1000F73D102460B462046294626F067
:1018000097FDB1E642464B464046494626F044FF26
:101810000022274B26F040FF02460B464046494631
:1018200026F086FD07B0BDE8F08F00BFAFF3008063
:10183000000000000000000044523EDF12F1C23FF1
:101840009FC678D0099AC33FDE03CB966446C73F54
:10185000AF788E1DC571CC3F599322942449D23F55
:1018600004FA97999999D93F935555555555E53FA0
:101870000000E0FE422EE63F763C7935EF39EA3D46
:10188000555555555555E53F7982DA3FFFFFEF3FF6
:101890000000F0BF000050C3FFFFEF7FFFFF1F3EBF
:1018A0003C412D400000F03FFFFF3F439DA006005C
:1018B0000000E03F00005043FFFF8F3CDDE90045A2
:1018C00022462B4626F036FD32463B4626F0E4FE05
:1018D00002460B462046294626F02AFD9CE7504644
:1018E00026F074FE23A3D3E9002382468B4626F01C
:1018F000D3FE22A3D3E900238046894650465946A9
:1019000026F0CAFEDDE9022326F014FD02460B464E
:101910003046394626F00CFD22462B46DCE7504681
:1019200026F054FE15A3D3E9002306460F4626F001
:10193000B3FEDDE9022326F0FDFC0EA3D3E900236C
:1019400004460D463046394626F0A6FE02460B46B2
:101950002046294626F0EEFC06E60022044B26F03F
:10196000E7FC02460B464046494626F0E1FC20E6ED
:101970000000F03F0000E0FE422EE63F763C793565
:10198000EF39EA3D0000000008B524F067FA04A32F
:10199000D3E9002326F0AAFF08BD00BFAFF3008003
:1019A000EF39FAFE422EE63F2DE9F043DFF8B4802E
:1019B0008BB004460D4601F0F3F898F9003001337E
:1019C00006460F462BD022462B462046294627F0B6
:1019D000FDF8814618BB2046294623F06DFE1FA363
:1019E000D3E9002327F0E8F8C8B1194A98F9003084
:1019F000CDF820900321CDE90445CDE902458DE8DD
:101A000006008BB9134B4FF06042CDE906236846C0
:101A100026F06EF970B1089B9BB9DDE90667304688
:101A200039460BB0BDE8F0830B490020022BCDE90D
:101A30000601ECD126F00AFC22230360089B002B50
:101A4000EBD026F003FC089B0360E6E7AFF30080D1
:101A5000ECCA0200FFFFEF470000F07F7DF8B98F6E
:101A6000CE338640F00300202DE9F043DFF8E48018
:101A70008BB004460D4601F043F998F9003001336C
:101A800006460F4633D02046294626F02BF970B380
:101A90002CA3D3E900232046294627F08DF8814660
:101AA00050BB2AA3D3E900232046294627F066F835
:101AB000E8B198F90030204ACDF8209000260027A0
:101AC0000421022BCDE90445CDE90245CDE90667A5
:101AD0008DE8060029D0684626F00AF928B3089B4D
:101AE0001BB126F0B3FB089B0360DDE906673046B7
:101AF00039460BB0BDE8F0830F4A98F900300192E7
:101B000003210022CDE90445CDE902450091089268
:101B10002BB90A4B4FF06042CDE90623DBE70849B9
:101B20000020022BCDE90601D5D126F08FFB222320
:101B30000360D4E7AFF30080F4CA0200FFFFEF4771
:101B40000000F07FEF39FAFE422E864051302DD54D
:101B5000104987C0F00300202DE9F04FDFF80C9307
:101B60008DB006460F4614461D4601F0C5FC99F996
:101B70000080B8F1FF3FCDE9000136D022462B4668
:101B80002046294627F022F8834670BB32463B4662
:101B90003046394627F01AF88246002840F0A280E5
:101BA000304639460022002326F0DEFF10B3002223
:101BB00000232046294626F0D7FF834600286AD016
:101BC0009FEDA17B0122A44BCDF828A00292CDE984
:101BD0000467CDE906458DED087B0393B8F1000F4E
:101BE00045D09FED9B7B8DED007BDDE900010DB0C5
:101BF000BDE8F08FDDE9000126F074F8804600288A
:101C000000F08D804FF0000A4FF0000BDDE900017D
:101C100052465B4626F0A8FF0028E6D030463946FB
:101C200026F060F80028E0D02046294626F05AF831
:101C30000028DAD099F90030874A03920421002263
:101C4000022BCDE90467CDE90645CDE908AB029149
:101C50000A9203D002A826F04BF868B926F0F6FAEB
:101C60002223036008E09FED787B8DED087B02A8BE
:101C700026F03EF8002830D00A9B1BB126F0E6FA89
:101C80000A9B03609DED087B8DED007BDDE9000183
:101C90000DB0BDE8F08F2046294626F023F8002835
:101CA000A3D0002200232046294626F067FF002803
:101CB0009BD099F90030684ACDF828B00121CDE9D0
:101CC0000467CDE9064502910392002BCBD063490E
:101CD0000020022BCDE90801C9D126F0B7FA212353
:101CE0000360C9E7002200232046294626F03CFF76
:101CF00000283FF47AAF5A4B5749CDF828B000225C
:101D00000120B8F1020FCDE904670290CDE9064544
:101D1000CDE908230391AAD1CDE9002365E7304638
:101D2000394625F0DFFF00283FF46CAF20462946F6
:101D300025F0D8FF00283FF465AFDDE90023104609
:101D4000194626F043FF00285FD1032399F900804C
:101D50000293414B0A90CDE90467CDE90645039310
:101D6000B8F1000F2BD1DFF808B14FF0604A002224
:101D7000002330463946CDE908AB26F0FFFE0028A7
:101D80003FF468AF0022374B2046294626F084FCFA
:101D900004460D4625F0B4FF02460B462046294670
:101DA00026F0E2FE70BB304B99F900804FF06042A4
:101DB000CDE90823B8F1020F7FF44CAF4EE7DFF80E
:101DC000B4B04FF0000A0022002330463946CDE976
:101DD00008AB26F0D3FE0028ECD00022214B204691
:101DE000294626F059FC04460D4625F089FF024697
:101DF0000B462046294626F0B7FE18B9174B00229D
:101E0000CDE9082399F90080D4E799F90090124BA5
:101E1000CDF828800122CDE90467CDE9064502927C
:101E20000393B9F1000F3FF41EAF002200231046C8
:101E3000194626F05BFDB9F1020FCDE908013FF428
:101E40004CAF14E7AFF3008000000000000000007A
:101E5000000000000000F03F0CCB02000000F0FF8B
:101E60000000F03F0000E03FFFFFEFC7F00300205D
:101E7000FFFFEF470000F07F2DE9F84FC44E21F03F
:101E80000043B34204460D460DDD03F1404303F524
:101E90008013034340F0B980002940F340810020C3
:101EA0000021BDE8F88FBB4EB34240F3A680002965
:101EB000C0F2788102460B460020B74926F038FA76
:101EC0000022B64B26F0E8FB04460D4624F00EFD3A
:101ED00095A3D3E90023894680462946204626F06B
:101EE000DBFB93A3D3E9002326F024FA22462B46FA
:101EF00026F0D2FB90A3D3E9002326F019FA22465C
:101F00002B4626F0C9FB8EA3D3E9002326F012FA54
:101F100022462B4626F0C0FB8BA3D3E9002326F0F4
:101F200007FA22462B4626F0B7FB89A3D3E9002304
:101F300026F000FA22462B4626F0AEFB86A3D3E914
:101F4000002382468B462046294626F0A5FB84A323
:101F5000D3E9002326F0ECF922462B4626F09CFB21
:101F600081A3D3E9002326F0E5F922462B4626F08B
:101F700093FB7FA3D3E9002326F0DAF922462B4610
:101F800026F08AFB0022844B26F0D4F902460B4649
:101F90005046594626F0AAFC42464B4626F07CFBAA
:101FA000002682468B4632464B463046494626F04E
:101FB00073FB02460B462046294626F0B9F9324605
:101FC00004460D464B464046494626F0B3F90246C4
:101FD0000B462046294626F089FC02460B46504611
:101FE000594626F0A7F932464B4626F0A3F9024699
:101FF0000B4626F09FF9BDE8F88F694A93420EDC44
:102000005DA1D1E90001BDE8F88F02460B4626F03C
:102010008FF902460B4626F069FCBDE8F88F0246B0
:102020000B4626F039FB40A3D3E9002306460F46B2
:1020300026F032FB3EA3D3E9002326F07BF932469B
:102040003B4626F029FB3CA3D3E9002326F070F998
:1020500032463B4626F020FB39A3D3E9002326F085
:1020600069F932463B4626F017FB37A3D3E9002334
:1020700026F05EF932463B4626F00EFB34A3D3E948
:10208000002326F057F932463B4626F005FB32A3E3
:10209000D3E90023804689463046394626F0FCFACB
:1020A0002FA3D3E9002326F043F932463B4626F01E
:1020B000F3FA2DA3D3E9002326F03CF932463B4640
:1020C00026F0EAFA2AA3D3E9002326F031F93246B2
:1020D0003B4626F0E1FA00222F4B26F02BF9024670
:1020E0000B464046494626F001FC22462B4626F088
:1020F000D3FA02460B4622A1D1E9000126F018F9D5
:1021000002460B462046294626F012F902460B46A7
:1021100019A1D1E9000126F00BF9BDE8F88F1AA149
:10212000D1E90001BDE8F88F09F7FD0DE13D023F5F
:1021300088B20175E0EF493F3B8F68B52882A43F24
:102140005544880E55C1C93F7D6FEB0312D6D43F6D
:10215000555555555555C53F82922EB1C5B8B33F1B
:1021600059018D1B6C06E63FC88A599CE52A004040
:102170004B2D8A1C273A0340182D4454FB21F93F6C
:10218000075C143326A6913C182D4454FB210940CA
:10219000FFFFEF3FFFFFDF3F0000F03F0000E03FA9
:1021A0000000603C00225C4B26F0C4F800225B4B30
:1021B00026F072FA40A3D3E9002304460D4626F028
:1021C0006BFA3FA3D3E9002326F0B4F822462B464E
:1021D00026F062FA3CA3D3E9002326F0A9F82246B0
:1021E0002B4626F059FA3AA3D3E9002326F0A2F8A9
:1021F00022462B4626F050FA37A3D3E9002326F0D7
:1022000097F822462B4626F047FA35A3D3E9002358
:1022100026F090F822462B4626F03EFA8046894664
:102220002046294624F062FB2FA3D3E9002306466B
:102230000F462046294626F02FFA2DA3D3E9002386
:1022400026F076F822462B4626F026FA2AA3D3E972
:10225000002326F06FF822462B4626F01DFA28A30D
:10226000D3E9002326F064F822462B4626F014FA20
:102270000022294B26F05EF802460B4640464946AE
:1022800026F034FB32463B4626F006FA1EA3D3E97D
:10229000002326F04DF832463B4626F04BF8024626
:1022A0000B4626F047F802460B4619A1D1E900017A
:1022B00026F03EF8BDE8F88F09F7FD0DE13D023F3D
:1022C00088B20175E0EF493F3B8F68B52882A43F93
:1022D0005544880E55C1C93F7D6FEB0312D6D43FDC
:1022E000555555555555C53F82922EB1C5B8B33F8A
:1022F00059018D1B6C06E63FC88A599CE52A0040AF
:102300004B2D8A1C273A0340075C143326A6913CC8
:10231000182D4454FB2109400000F03F0000E03F2D
:10232000434A91422DE9F84304460D4639DD414ABE
:10233000914209DD02F17952914240DD02460B469D
:1023400025F0F8FFBDE8F88301F1404202F5801264
:10235000024330D0B1F1804F3ADC0022364B25F0F9
:10236000E7FF02460B4604460D4625F0E3FF2246F2
:1023700006460F462B462046294626F08DF9024692
:102380000B463046394625F0D5FF24F0AFFA0B4610
:1023900002462946204625F0CDFFBDE8F843FFF769
:1023A000BFB802460B4625F0C3FF02460B4626F097
:1023B0009DFABDE8F88300200021BDE8F88300F015
:1023C00017FE19A3D3E9002325F0B4FFBDE8F88375
:1023D00002460B4626F060F90022174B25F0A8FFB5
:1023E00024F084FA2246804689462B462046294618
:1023F00025F0A0FF424606460F464B46204629469A
:1024000025F098FF02460B4600200B4926F06EFA95
:102410000B4602463946304625F08AFFBDE8F843B0
:1024200000F0E6BDAFF30080EF39FAFE422EE63F42
:10243000FFFFEF3FFFFFAF410000F03F0000000053
:102440002DE9F047BE4B21F00048984584B0044682
:102450000D4612DD08F1404808F58018034658EA99
:10246000030321D002460B4625F062FF02460B46CD
:1024700026F03CFA04B0BDE8F087B24B98458A4696
:1024800029DCB8F1795F80F2658191A3D3E900235B
:1024900025F050FF0022AC4B26F08EFBD8B1204631
:1024A000294604B0BDE8F0878BA3D3E9002326F0CA
:1024B000F3F88BA3D3E9002306460F4620462946AE
:1024C00026F0EAF802460B463046394625F032FF40
:1024D00004B0BDE8F0872046294623F0EDF8024617
:1024E0000B460020984925F023FF0022974B26F049
:1024F000D3F87DA3D3E9002304460D4626F0CCF89B
:102500007BA3D3E9002325F015FF22462B4626F0B6
:10251000C3F879A3D3E9002325F00AFF22462B460E
:1025200026F0BAF876A3D3E9002325F003FF22466C
:102530002B4626F0B1F874A3D3E9002325F0F8FE6A
:1025400022462B4626F0A8F871A3D3E9002325F0F4
:10255000F1FE22462B4626F09FF86FA3D3E9002315
:10256000CDE900012046294626F096F86CA3D3E970
:10257000002325F0DDFE22462B4626F08DF86AA3C7
:10258000D3E9002325F0D6FE22462B4626F084F818
:1025900067A3D3E9002325F0CBFE22462B4626F085
:1025A0007BF8694B002225F0C5FECDE902012046EB
:1025B000294624F09BF9664B984506460F4666DC93
:1025C000DDE90223DDE9000126F090F93246CDE98C
:1025D00000013B463046394625F0ACFE02460B462C
:1025E000DDE9000126F058F84FF00008CDE90001C0
:1025F00042463B464046394626F04EF802460B46D8
:102600002046294625F094FE424604460D463B46A8
:102610003046394625F08EFE02460B4620462946B6
:1026200026F064F902460B4625F084FE02460B466E
:102630002BA1D1E9000125F07BFE02460B46DDE926
:10264000000125F075FE424604460D463B464046D5
:10265000394625F06FFE02460B4637A1D1E900014D
:1026600025F066FE02460B462046294625F060FE10
:1026700002460B4630A1D1E9000125F059FEBAF11E
:10268000000F3FF7F7AE01F100431946F2E6DDE92E
:102690000223DDE9000126F029F932463B4625F008
:1026A000FBFF32463B4625F045FE02460B4625F031
:1026B00041FE0BA3D3E9002325F03AFE02460B4668
:1026C00005A1D1E9000125F033FED8E7AFF3008082
:1026D0009C7500883CE4377E182D4454FB21F93F5B
:1026E000075C143326A6913C09F7FD0DE13D023F3E
:1026F00088B20175E0EF493F3B8F68B52882A43F5F
:102700005544880E55C1C93F7D6FEB0312D6D43FA7
:10271000555555555555C53F82922EB1C5B8B33F55
:1027200059018D1B6C06E63FC88A599CE52A00407A
:102730004B2D8A1C273A0340182D4454FB21E93FB6
:10274000FFFFEF3FFFFFDF3F0000F03F0000E03FF3
:102750003233EF3F02460B4625F09EFF37A3D3E905
:10276000002306460F4625F097FF36A3D3E9002342
:1027700025F0E0FD32463B4625F08EFF33A3D3E93A
:10278000002325F0D5FD32463B4625F085FF31A3D9
:10279000D3E9002325F0CEFD32463B4625F07CFFF1
:1027A0002EA3D3E9002325F0C3FD32463B4625F096
:1027B00073FF2CA3D3E9002325F0BCFD32463B4632
:1027C00025F06AFF29A3D3E90023804689463046D5
:1027D000394625F061FF27A3D3E9002325F0A8FDA2
:1027E00032463B4625F058FF24A3D3E9002325F0C9
:1027F000A1FD32463B4625F04FFF22A3D3E900233B
:1028000025F096FD32463B4625F046FF00220A4B56
:1028100025F090FD02460B464046494626F066F8F4
:1028200022462B4625F038FF22462B4625F082FD16
:1028300004B0BDE8F08700BF0000F03F09F7FD0DD0
:10284000E13D023F88B20175E0EF493F3B8F68B53B
:102850002882A43F5544880E55C1C93F7D6FEB03C4
:1028600012D6D43F555555555555C53F82922EB178
:10287000C5B8B33F59018D1B6C06E63FC88A599C09
:10288000E52A00404B2D8A1C273A03400000000037
:102890002DE9F84F1D465342134325F0004ADFF857
:1028A000E0E14AEAD3737345144606460F4647D81B
:1028B000C0F1000848EA000821F0004343EAD87854
:1028C000F0458B463CD805F1404808F5801858EA99
:1028D000020850D04FEAA57808F0020848EAD178FB
:1028E00050EA030134D052EA0A023CD0F24557D0F4
:1028F000734538D0A3EB0A031B153C2B42DC002D9B
:1029000070DB22462B463046394625F0EFFF22F099
:10291000D3FEFEF751FBB8F1010F5FD0B8F1020F03
:102920004ED0B8F1000F62D043A3D3E9002325F0C5
:10293000FFFC43A3D3E9002325F0FAFCBDE8F88FA0
:1029400032463B462046294625F0F4FCBDE8F88F88
:10295000B8F1020F1AD0B8F1030F10D13AA1D1E9A2
:102960000001BDE8F88FBBF1000F14DB38A1D1E9FD
:102970000001BDE8F88FBDE8F84FFEF71DBB3946F2
:10298000BDE8F88F32A1D1E90001C4E72CA1D1E95B
:102990000001BDE8F88F30A1D1E90001BDE8F88F52
:1029A000534526D0B8F1020FF0D0B8F1030FD5D0BF
:1029B000B8F1010F4FF0000029D00021BDE8F88FD9
:1029C0001DA3D3E9002325F0B3FC02460B461CA14E
:1029D000D1E9000125F0ACFCBDE8F88F01F1004120
:1029E000BDE8F88F3C338CDA0020002193E7BDE886
:1029F000F88FB8F1020F18D0B8F1030F10D0B8F16A
:102A0000010F08D016A1D1E90001BDE8F88F4FF001
:102A10000041BDE8F88F14A1D1E90001BDE8F88FAD
:102A200013A1D1E90001BDE8F88F13A1D1E900019C
:102A3000BDE8F88FAFF30080075C143326A6A13CF5
:102A4000182D4454FB210940182D4454FB2109C082
:102A5000182D4454FB21F93F182D4454FB21F9BF94
:102A6000182D4454FB21E93F182D4454FB21E9BFA4
:102A7000D221337F7CD902C0D221337F7CD902405E
:102A80000000F07F0000000043422DE9F0470343BF
:102A900021F000463E4A46EAD373934204460D466F
:102AA00013D896423DD03B4B9E428A4617DC36A354
:102AB000D3E9002325F03EFC0022002326F07CF819
:102AC000A8B320462946BDE8F08702460B4625F00C
:102AD0002FFC02460B4625F009FFBDE8F0872E4B80
:102AE0009E42354624DD33460246314625F022FC1F
:102AF000224606460F462B460020254925F018FCA5
:102B000002460B463046394625F0F0FEFEF708FD3A
:102B10000022224B25F0C0FDBAF1000F2FDBBDE8EB
:102B2000F0870022002325F0E1FEBDE8F08735465E
:102B300022462B462046294625F0FCFB22462B4602
:102B400006460F4625F0A8FD2246804689462B46BC
:102B500000200F4925F0ECFB02460B464046494653
:102B600025F0C4FE32463B4625F0E4FBFEF7D8FCD8
:102B700000220A4B25F090FDBAF1000FCFDA01F1E7
:102B800000431946BDE8F0879C7500883CE4377E19
:102B90000000F03FFFFF2F3EFFFFDF3F0000E03F60
:102BA0002DE9F8434E4B21F000449C4206460F4667
:102BB0001BDC4C4B9C4222DD4B4B9C4263DD4B4B60
:102BC0009C427BDD4A4B9C4246DD01339C4240D017
:102BD00041A3D3E900231046194625F05DFD0646C2
:102BE0000F4630463946BDE8F88302460B4625F0CD
:102BF00053FD06460F4630463946BDE8F88322F0BD
:102C00005BFD02F0B1FC00223A4B8046894625F07C
:102C100091FBB4F1725F06460F46ECDB42464B4631
:102C20004046494625F038FD32463B4604460D46AF
:102C30003046394625F07EFB02460B4620462946A3
:102C400025F054FE00222B4B25F074FB06460F4660
:102C5000D1E7294B9842BBD83046394622F02CFDAB
:102C60000022264B25F018FD00F04AF80022044609
:102C70000D46224B25F010FD22462B4625F00CFD7B
:102C800006460F46B7E722F017FD00F039F800229C
:102C90001A4B06460F4625F0FFFC32463B460446DB
:102CA0000D460020154925F021FE02460B46204620
:102CB000294625F03FFB06460F469CE722F0FCFC28
:102CC00000F01EF800220D4B25F0E6FC06460F46EC
:102CD00091E700BFAFF300809C7500883CE4377E2D
:102CE000FFFFEF7F422ED63FFFFF3540412E86404B
:102CF000CD3386400000F03F7DF8B98F0000E03F03
:102D00002DE9F04FB04E21F00042B24283B00446AC
:102D10000D464FEAD1770DD9AC4EB24225D9C1F359
:102D20001303034340F0EC800FB10020002103B0F7
:102D3000BDE8F08FA64B9A4200F2CB80A54B9A4299
:102D400000F2DC808AA3D3E9002325F0F3FA002205
:102D5000A14B25F031FF002800F0068120462946CE
:102D600000229D4B25F0E6FAE1E783A3D3E9002397
:102D700025F022FF002840F0C88081A3D3E900237A
:102D80002046294625F0FAFE0028CED1934E7EA398
:102D9000D3E9002306EBC7062046294625F07CFC34
:102DA000D6E9002325F0C6FA25F026FF064625F0D1
:102DB0000DFC77A3D3E900238046894625F06CFCFF
:102DC00002460B462046294625F0B2FA72A3D3E903
:102DD0000023CDE900014046494625F05DFC8246CE
:102DE0008B4652465B46DDE9000125F0A1FA044618
:102DF0000D4622462B462046294625F04DFC68A369
:102E0000D3E900238046894625F046FC66A3D3E932
:102E1000002325F08DFA42464B4625F03DFC64A385
:102E2000D3E9002325F086FA42464B4625F034FCD0
:102E300061A3D3E9002325F07BFA42464B4625F0F7
:102E40002BFC5FA3D3E9002325F074FA42464B46DE
:102E500025F022FC02460B462046294625F068FA5A
:102E600080468946002E58D02046294642464B4689
:102E700025F012FC424604460D464B4600204FF01A
:102E8000804125F055FA02460B462046294625F09A
:102E90002DFD02460B465046594625F049FADDE91C
:102EA000002325F045FA0B4602464B49002025F049
:102EB0003FFA6FF47F739E4251DA06F57A7601EBA2
:102EC000065100224FF0B87325F0E6FB03B0BDE8D1
:102ED000F08F434B9A423FF659AF424BFC002344DC
:102EE000D3E9002325F024FA3F4BC7F10106234420
:102EF000CDE90001D3E900ABF61B72E7002678E7C5
:102F000002460B4625F016FA11E719A3D3E9002370
:102F10001046194625F0C0FB09E702460B4620463D
:102F2000294625F0B9FB002206460F464FF08043A4
:102F30004046494625F0FCF902460B4630463946E4
:102F400025F0D4FC22462B4625F0F2F902460B462A
:102F50000020214925F0ECF903B0BDE8F08F01EB2A
:102F6000065103B0BDE8F08F064642E7AFF300809C
:102F70009C7500883CE4377EEF39FAFE422E86408D
:102F800051302DD5104987C0FE822B654715F73F7C
:102F90000000E0FE422EE63F763C7935EF39EA3D0F
:102FA000D0A4BE726937663EF16BD2C541BDBB3E4F
:102FB0002CDE25AF6A56113F93BDBE166CC1663F2D
:102FC0003E5555555555C53F412E8640FFFFEF7F75
:102FD000422ED63FFFFF2F3E0000F03F089A02002E
:102FE000B1A2F03F189A0200289A020000000000E7
:102FF0002DE9F04FB1F5801F85B006460F460B4610
:103000005ADA024621F00044224300F0F8800029F9
:10301000C0F27A810022D64B25F03EFBD54A0B4602
:10302000934206460F466FF0350C4ADCC3F3130596
:1030300005F5152E0EF6647E0EF4801E8EF07F527E
:1030400082F440121C1542EA0507A4F2FF346444DE
:103050000022C94B3046394604EB1E5425F068F96E
:10306000AB1CC3F31303022B82468B464FF00002C6
:1030700030DC002325F078FD002800F0C980002C0A
:1030800000F04B81204625F0A1FAA5A3D3E9002347
:1030900006460F4625F000FBA3A3D3E90023044610
:1030A0000D463046394625F0F7FA02460B462046D3
:1030B000294625F03FF90AE0AE4A93424FF0000C52
:1030C000B4DD32463B463046394625F033F905B08B
:1030D000BDE8F08F4FF0804325F02CF902460B46F7
:1030E0005046594625F002FC064620460F4625F07C
:1030F0006DFA3246CDE900013B4630463946CDE90E
:10310000026725F0C9FA02460B468046894625F03B
:10311000C3FA87A3D3E9002306460F4625F0BCFA7D
:1031200085A3D3E9002325F005F932463B4625F077
:10313000B3FA83A3D3E9002325F0FCF832463B46DB
:1031400025F0AAFA80A3D3E9002325F0F3F842463C
:103150004B4625F0A1FA7EA3D3E900238046894699
:103160003046394625F098FA7BA3D3E9002325F0B1
:10317000E1F832463B4625F08FFA79A3D3E90023E4
:1031800025F0D8F832463B4625F086FA0B46024633
:103190004946404625F0CEF8A5F5C223C5F5D7250A
:1031A000A3F27A4351351D43002D8046894656DDF2
:1031B0000022724B5046594625F06EFA52465B4645
:1031C00025F06AFA06460F46002C68D132463B4687
:1031D0004046494625F0AEF8DDE9022325F05CFAC9
:1031E00002460B463046394625F0A2F802460B4609
:1031F0005046594625F09CF805B0BDE8F08F0022F6
:10320000002300205E4925F071FB05B0BDE8F08F7A
:1032100055A3D3E900235046594625F03DFA02460E
:103220000B460020554925F083F8524606460F46C6
:103230005B465046594625F02FFA02460B4630466B
:10324000394625F029FA06460F46002C40F09A80B0
:1032500002460B465046594625F06AF837E7002CDF
:1032600000F0A4802EA3D3E90023DDE9000125F0BE
:1032700013FA42464B4604460D465046594625F041
:1032800057F8DDE9022325F007FA27A3D3E9002345
:1032900006460F46DDE9000125F0FEF921E020A3F6
:1032A000D3E90023DDE9000125F0F6F932463B467B
:1032B00004460D464046494625F03CF8DDE9022328
:1032C00025F0EAF918A3D3E9002380468946DDE911
:1032D000000125F0E1F902460B464046494625F03B
:1032E00029F802460B463046394625F021F8524669
:1032F0005B4625F01DF802460B462046294625F080
:1033000017F805B0BDE8F08F02460B4625F010F81F
:103310000022002325F0EAFAD9E600200021D6E6B3
:103320000000E0FE422EE63F763C7935EF39EA3D7B
:1033300044523EDF12F1C23FDE03CB966446C73FE4
:10334000599322942449D23F935555555555E53FFD
:103350009FC678D0099AC33FAF788E1DC571CC3F08
:1033600004FA97999999D93F555555555555D53FD3
:1033700000005043FFFFEF7F0000F03F0000E03F00
:10338000000050C3204625F021F90FA3D3E9002304
:103390008046894625F080F90DA3D3E90023044631
:1033A0000D464046494625F077F99AE702460B4616
:1033B0005046594624F0BCFFDDE9022325F06CF9A4
:1033C00014E700BFAFF300800000E0FE422EE63FAE
:1033D000763C7935EF39EA3DB1F5801F2DE9F843A8
:1033E00004460D460B461ADA024621F000463243E7
:1033F00059D000295FDB00223B4B25F04DF93B4AB9
:103400000D462B46934204466FF035010CDD2246F3
:103410002B462046294624F08DFFBDE8F883334A29
:1034200093424FF00001F2DC1815A0F2FF3008447F
:103430004FEAD0794844C3F3130825F0C7F8C9F51B
:103440007F73033348EA035506460F462046294654
:10345000FFF7CEFD1EA3D3E9002380468946304600
:10346000394625F019F91CA3D3E9002304460D467B
:103470004046494625F010F902460B4620462946AB
:1034800024F058FF16A3D3E9002304460D46304626
:10349000394625F001F902460B462046294624F01C
:1034A00049FFBDE8F883002200230020104925F0E1
:1034B0001DFABDE8F88302460B4624F039FF0022CE
:1034C000002325F013FABDE8F88300BFAFF30080B6
:1034D000362BF111F3FE593D0EE526157BCBDB3F74
:1034E00000609F501344D33F00005043FFFFEF7F25
:1034F000000050C3000000002DE9F04F23F000470A
:1035000057EA020493B037D0674C21F00046A64238
:1035100083460D4629DC9A46964625D0A74224DCF0
:10352000614CA74279D0002D80468946CDE9002321
:1035300077DB0024BEF1000F2CD15B4B9F4200F0E3
:103540008B805A4B9F4261D0BAF1804F00F0C38309
:10355000574B9A451ED1002D1CDB4046494613B0FF
:10356000BDE8F04F23F0C2B958B106F1404606F568
:10357000801656EA0B0306D14C49002013B0BDE873
:10358000F08FB742CCDD4B4813B0BDE8F04F24F0CC
:10359000B1BB00244046494622F08EF8BBF1000F33
:1035A00019D126B1414B25F040429A4213D1BAF1CC
:1035B000000FC0F2CA83002DE0DA06F1404606F59E
:1035C000801656EA040300F0A584012CD6D101F13F
:1035D00000431946D2E7ED0F013D54EA05034ED0F2
:1035E000354B9F426EDD03F104739F4240F3FE832F
:1035F000324B9E424EDDBAF1000F4EDD28A3D3E9D7
:1036000000231046194625F047F8B7E7BAF1000F36
:10361000C0F2528440464946B0E7BEF1000F82D066
:10362000A3E7274B9F4228DCA3F154739F4280DD20
:103630003B15A3F2FF33142B40F35484C3F134033E
:103640002EFA03F202FA03F39E457FF472AF02F002
:103650000102C2F102046DE706F1404303F5801355
:1036600053EA0B0388D0154B9E4240F33B83BAF1DB
:10367000000F12DBDDE9000180E702245AE7424631
:103680004B461046194624F053FE02460B4625F0E1
:103690002DF973E7BAF1000FB0DB002000216DE7D0
:1036A0009C7500883CE4377E0000F07F0000F03F0E
:1036B0000000E03F7CA402000000E041FFFFEF3F7C
:1036C000FFFF3F43B6F5801F4FF0000205DAD84BED
:1036D00024F0E2FF6FF034020E463315D54FC6F3E7
:1036E0001306A3F2FF33134446F07F5ABE421A4634
:1036F0000D934AF4401A40F32F83CF4B9E4240F380
:103700000D849FEDB57B8DED087B8DED0E7B9FEDE0
:10371000B47B13468DED067B01330D93AAF5801A19
:103720000027DDE906235146CDE90A0124F000FE19
:10373000DDE9062380468946DDE90A0124F0FAFD29
:1037400002460B460020BD4925F0D0F80A46014646
:10375000CDE91012134649460246404624F09CFF2C
:103760004FEA6A0343F000538C46834603F5002377
:10377000CDE904BCDA468B46D9190023CDE902AB6A
:103780000293DDE902AB002006460F4602460B46D7
:103790005046594624F080FF02460B4640464946B3
:1037A00024F0C6FDDDE906238046894630463946C9
:1037B00024F0BEFD02460B46DDE90A0124F0B8FD07
:1037C00052465B4624F068FF02460B464046494697
:1037D00024F0AEFDDDE9102324F05EFFDDE904678F
:1037E000CDE9060132463B463046394624F054FFC7
:1037F0007DA3D3E9002306460F4624F04DFF7CA3AA
:10380000D3E9002324F096FD32463B4624F044FFE2
:1038100079A3D3E9002324F08DFD32463B4624F002
:103820003BFF77A3D3E9002324F084FD32463B46D7
:1038300024F032FF74A3D3E9002324F07BFD324649
:103840003B4624F029FF72A3D3E9002324F072FD44
:103850003246804689463B463046394624F01CFFB6
:1038600002460B464046494624F016FF524606469D
:103870000F465B46DDE9040124F05CFDDDE906232B
:1038800024F00AFF32463B4624F054FD524680465F
:1038900089465B465046594624F0FEFE0022684B9E
:1038A000CDE90A0124F046FD42464B4624F042FD94
:1038B00002980F46064632463B465046594624F08B
:1038C000EBFE002282468B465D4B3046394624F0A3
:1038D0002FFDDDE90A2324F02BFD02460B4640466E
:1038E000494624F025FDDDE9042324F0D5FE3246C7
:1038F000804689463B46DDE9060124F0CDFE0246BE
:103900000B464046494624F015FD8046894602464E
:103910000B4650465946CDE904AB24F00BFDDDE9DA
:1039200002AB3DA3D3E9002350460F4624F0B4FE7A
:10393000DDE90423CDE902013946504624F0F8FCC4
:1039400002460B464046494624F0F2FC34A3D3E934
:10395000002324F0A1FE34A3D3E900238046894646
:103960005046394624F098FE02460B4640464946EA
:1039700024F0E0FCDDE90E2324F0DCFC80460D9809
:10398000894624F023FE424606460F464B46DDE9B3
:10399000020124F0CFFCDDE9082324F0CBFC324601
:1039A0003B4624F0C7FC32463B4650468B4624F04B
:1039B000BFFCDDE9082324F0BBFCDDE9022324F091
:1039C000B7FC02460B464046494624F0B1FC80460F
:1039D000894637E0AFF300800000000000000000DF
:1039E000000000000000F03FEF4E454A287ECA3F2D
:1039F00065DBC9934A86CD3F01411DA96074D13F63
:103A00004D268F515555D53FFFAB6FDBB66DDB3F74
:103A1000033333333333E33F000000E009C7EE3FA5
:103A2000FD033ADC09C7EE3FF5015B14E02F3EBE13
:103A3000000040438E98030079B60B000000F03F71
:103A400000000840013C54EA050300F079819FED35
:103A5000C87B8DED047BDDE900120B461446CDE9F1
:103A6000023400230293DDE9024508462B46114645
:103A7000224624F05DFC52465B4624F00DFEDDE953
:103A8000002306460F464046494624F005FE0246FE
:103A90000B463046394624F04DFC22468046894686
:103AA0002B4650465946CDE9008924F0F5FD0B46DA
:103AB000024606460F464046494624F03BFCC64BAC
:103AC000994204460D468A4640F3168101F13F4370
:103AD00003F5E003034340F0F781A7A3D3E90023F4
:103AE000DDE9000124F026FC3246804689463B464B
:103AF0002046294624F01CFC02460B464046494617
:103B000025F05AF8002840F0DF81A8464FEA2853F4
:103B10004FF48012A3F2FE3342FA03F35344C3F38B
:103B20000A52AE4DA2F2FF321541C3F3130423EA49
:103B300005010020C2F1140B44F48014BAF1000F07
:103B400002460B4644FA0BFB30463946B8BFCBF170
:103B5000000B24F0EDFB02460B4606460F46DDE95E
:103B6000000124F0E7FB4FEA0B5A0D46002484A322
:103B7000D3E900232046294624F08EFD32468046B4
:103B800089463B462046294624F0D2FB02460B4696
:103B9000DDE9000124F0CCFB7BA3D3E9002324F072
:103BA0007BFD7BA3D3E9002306460F46204629462A
:103BB00024F072FD02460B463046394624F0BAFB2B
:103BC00006460F4602460B464046494624F0B2FBE5
:103BD00042464B4604460D4624F0AAFB02460B46DD
:103BE0003046394624F0A4FB2246804689462B46BF
:103BF0002046294624F050FD67A3D3E9002306465A
:103C00000F4624F049FD66A3D3E9002324F090FB7E
:103C100032463B4624F040FD63A3D3E9002324F061
:103C200089FB32463B4624F037FD61A3D3E90023EC
:103C300024F07EFB32463B4624F02EFD5EA3D3E902
:103C4000002324F077FB32463B4624F025FD024654
:103C50000B462046294624F06BFB06460F460246DB
:103C60000B462046294624F017FD0022CDE900012D
:103C70004FF080433046394624F05AFB02460B464B
:103C8000DDE9000124F032FE424606460F464B466F
:103C90002046294624F000FD42464B4624F04AFBCC
:103CA00002460B463046394624F042FB22462B465C
:103CB00024F03EFB02460B460020494924F038FB25
:103CC0008A44BAF5801FC0F239815146DDE90423E8
:103CD00024F0E2FC52E442464B464046494624F07A
:103CE000DBFC4BE4BAF1000FBFF6D7ACDDE90034E2
:103CF000184604F1004141E43A4B21F00048984550
:103D000040F3FF80384B0B4403430CD132463B4613
:103D100024F00EFB02460B46DDE9000124F038FFDB
:103D200000283FF4F3AEDDE9040125A3D3E9002325
:103D300024F0B2FC22A3D3E9002324F0ADFC1DE45F
:103D40009FED217B8DED047B85E602460B4600202E
:103D5000234924F0CBFD2EE49FED1D7B8DED087BE8
:103D60008DED0E7B9FED027B00278DED067BD8E469
:103D7000000000000000F03FFE822B654715973CD5
:103D800000000000432EE63FEF39FAFE422EE63FE8
:103D9000396CA80C615C20BED0A4BE726937663E47
:103DA000F16BD2C541BDBB3E2CDE25AF6A56113F3B
:103DB00093BDBE166CC1663F3E5555555555C53F22
:103DC00059F3F8C21F6EA501000000000000F0BF0B
:103DD0000000000000000000FFFF8F40FFFF0F0009
:103DE0000000F03FFFCB904000346F3F684B9E4295
:103DF0007FF750AC674B9E423FF7FDAB0022654B0F
:103E000024F096FA52A3D3E9002306460F4624F085
:103E100043FC51A3D3E90023804689463046394606
:103E200024F03AFC002282468B465B4B30463946F2
:103E300024F032FC02460B4649A1D1E9000124F0EE
:103E400077FA32463B4624F027FC02460B46002018
:103E5000524924F06DFA3246CDE902013B46304624
:103E6000394624F019FC02460B46DDE9020124F034
:103E700013FC3DA3D3E9002324F00EFC02460B46BD
:103E80005046594624F054FA02460B4606460F4661
:103E90004046494624F04EFA42464B4600208246B0
:103EA0008B4624F045FA02460B463046394624F04C
:103EB0003FFA80468946C5E542464B4600203549D3
:103EC00024F014FDFFF75ABBDDE9040128A3D3E970
:103ED000002324F0E1FB26A3D3E9002324F0DCFB3C
:103EE000FFF74CBBBEF1000F7FF453ABC3F11403DB
:103EF00047FA03F202FA03F39F4223D07446FFF716
:103F000020BB264B98453FF701AEDDE902239246E0
:103F100093462BE602460B46FFF7B3BB9FED167B9D
:103F20008DED087B9FED167B8DED0E7B9FED167B57
:103F30004FF480278DED067BFFF7F3BB5A4601F067
:103F40004FFDC3E602F00102C2F10204FFF7F9BA25
:103F5000000000604715F73F44DF5DF80BAE543EAC
:103F6000555555555555D53FFE822B654715F73F9D
:103F70009C7500883CE4377E0000004003B8E23FB7
:103F800006D0CF43EBFD4C3E000000000000F83FA0
:103F9000FEFFEF3F0000F03F0000D03F0000E03F99
:103FA0002DE9F0479C4B21F000479F4290B080469E
:103FB000894640F38E80994B9F420C46924626DC00
:103FC00000298BA3D3E9002340F3B08124F0B0F99A
:103FD000934B9F4204460D4600F0908086A3D3E9A0
:103FE000002324F0A5F902460B46CAE90023204627
:103FF000294624F09DF980A3D3E9002324F098F901
:104000000125CAE90201284610B0BDE8F087854BBA
:104010009F4240F39080844B9F4265DC3D15A5F2A2
:104020001645A7EB055319461F46064624F0E4FD46
:1040300024F0CCFA8046894642464B463046394603
:10404000CDE90A8924F074F90022784B24F024FB8E
:104050008946804624F0D0FD24F0B8FA06460F4683
:1040600032463B4640464946CDE90C6724F060F9AC
:1040700000226E4B24F010FB00220023CDE90E013C
:1040800024F072FD002800F06F810023304639468D
:10409000002224F069FD002814BF01230223644A92
:1040A000019202212A4600910AA8514600F08CFB99
:1040B000002C054614DADAF80420DAF80C3002F1A4
:1040C000004203F100434542CAF80420CAF80C300C
:1040D00006E000200021C2E90089C2E902010025B2
:1040E000284610B0BDE8F08702460B4624F020F9C0
:1040F0000025CAE90201CAE90001F1E740A3D3E9BA
:10410000002324F015F940A3D3E900230D4604460B
:1041100024F00EF902460B46CAE900232946204640
:1041200024F006F938A3D3E9002324F001F901258E
:10413000CAE90201D4E721F0BFFA35A3D3E900238D
:104140008046894624F0A8FA00223A4B24F0F2F87F
:1041500024F052FD054624F039FA25A3D3E90023C3
:10416000CDE9060124F098FA02460B46404649463E
:1041700024F0DEF820A3D3E90023CDE90201DDE934
:10418000060124F089FA1F2D80468946CDE904896D
:1041900054DC294B6A1E53F822309F424ED002460F
:1041A0000B46DDE9020124F0C3F880468946CAE9DE
:1041B000008942464B46DDE9020124F0B9F8DDE909
:1041C000042324F0B5F8002CCAE9020188DA09F1C9
:1041D000004401F100436D42CAF80080CAF804406F
:1041E000CAF80800CAF80C307AE700BFAFF30080C5
:1041F00000004054FB21F93F3163621A61B4D03DA5
:104200000000601A61B4D03D7370032E8A19A33B7D
:1042100083C8C96D305FE43FFB21E93F7BD9024091
:10422000FB21F93FFB213941FFFFEF7F0000704187
:10423000B8CB02000000E03F38CB0200DDE90423E8
:10424000DDE9020124F074F83F15C1F30A53FB1AAB
:1042500080468946102BCAE90089AADD58A3D3E914
:104260000023DDE9060124F017FA8046894602465C
:104270000B46DDE9020124F05BF802460B46DDE95E
:104280000201CDE9082324F053F842464B4624F0BE
:104290004FF84DA3D3E9002380468946DDE90601A6
:1042A00024F0FAF942464B4624F042F80B46CDE999
:1042B00004010246DDE9080124F03AF8C1F30A538B
:1042C000FF1A80468946312FCAE900896CDD41A377
:1042D000D3E90023DDE9060124F0DEF9DDE90889F0
:1042E00006460F4602460B464046494624F020F853
:1042F00002460B4640464946CDE9022324F018F811
:1043000032463B4624F014F834A3D3E90023064692
:104310000F46DDE9060124F0BFF932463B4624F0A2
:1043200007F802460B46CDE904233AE724F002F8E9
:10433000274B9F4204460D4618D01FA3D3E9002304
:1043400023F0F8FF02460B46CAE90023294620461F
:1043500023F0EEFF18A3D3E9002323F0EBFF4FF087
:10436000FF35CAE90201BBE6032398E614A3D3E9AB
:10437000002323F0DFFF14A3D3E900230D460446F6
:1043800023F0D8FF02460B46CAE9002329462046FF
:1043900023F0CEFF0CA3D3E9002323F0CBFF4FF093
:1043A000FF35CAE902019BE69DED087B8DED027B9E
:1043B000FFE600BFAFF300803163621A61B4D03D05
:1043C0000000601A61B4D03D7370032E8A19A33BBC
:1043D000FB21F93F0000002E8A19A33BC14920258B
:1043E0009A837B3900000000594A2DE9F84F21F0EB
:1043F0000048904506460F462BDC564B0029B4BFBB
:10440000554D564D98454FF0000410DC544B9845DF
:1044100070DC4DA3D3E9002323F08CFF0022514B25
:1044200024F0CAFBD8B130463946BDE8F88F4E4B70
:1044300098457CDD4D4B984544DD013398453ED091
:104440003046394640A3D3E9002324F025F9BDE8DE
:10445000F88F02460B4623F06DFFBDE8F88F30461B
:10446000394621F029F901F07FF806460F46324619
:104470003B463046394623F05DFF324682468B4646
:104480003B463046394624F007F9002280468946EB
:10449000344B3046394623F04DFF02460B4640462A
:1044A000494624F023FA02460B465046594623F06B
:1044B0003FFF22462B4624F0EFF8BDE8F88F2C4B47
:1044C0009842BDD83046394621F0F6F80022234BF9
:1044D00024F0E2F8FEF714FC06460F4602460B46AF
:1044E0002046294624F0D8F832463B4624F0D4F83A
:1044F000BDE8F88F21F0E0F801F036F81D4B984543
:1045000006460F46B3DD0022164B23F013FF02468A
:104510000B463046394624F0E9F932463B4623F053
:1045200009FF22462B4624F0B7F8BDE8F88F21F0AA
:10453000C3F8FEF7E5FB02460B462046294624F069
:10454000ABF8BDE8F88F00BF3374AC3C1F7BAC7F89
:10455000FFFFEF7FFFFF35400000E0BF0000E03FBE
:10456000FFFF2F3E0000F03F412E8640CD338640B6
:104570007DF8B98FFFFFEF3F2DE9F04F21F00048A4
:10458000B8F1795F85B006460F4692469B466BDAD6
:1045900024F032FB002800F0EA8032463B463046E9
:1045A000394624F079F874A3D3E9002304460D4674
:1045B00024F072F872A3D3E9002323F0BBFE224655
:1045C0002B4624F069F870A3D3E9002323F0B0FE52
:1045D00022462B4624F060F86DA3D3E9002323F094
:1045E000A9FE22462B4624F057F86BA3D3E90023FB
:1045F00023F09EFE22462B4624F04EF868A3D3E912
:10460000002323F097FE22462B4624F045F8CDE9FF
:1046100000010022664B2046294624F03DF8DDE9E2
:104620000023804689462046294624F035F8524624
:1046300004460D465B463046394624F02DF80246C6
:104640000B462046294623F073FE02460B464046A1
:10465000494623F06DFE02460B460020554923F0E3
:1046600067FE05B0BDE8F08F02460B4624F014F853
:1046700041A3D3E9002304460D4624F00DF840A3DE
:10468000D3E9002323F056FE22462B4624F004F8FB
:104690003DA3D3E9002323F04BFE22462B4623F013
:1046A000FBFF3BA3D3E9002323F044FE22462B4625
:1046B00023F0F2FF38A3D3E9002323F039FE22468A
:1046C0002B4623F0E9FF36A3D3E9002323F032FE83
:1046D0002B46224623F0E0FF374B9845CDE90001F9
:1046E00097DD364B984539DCA8F5001300220020F1
:1046F00030499046994623F01BFECDE90201002285
:104700002B4B2046294623F0C7FF42464B4623F059
:104710000FFEDDE90023804689462046294623F026
:10472000BBFF524604460D465B463046394623F0F1
:10473000B3FF02460B462046294623F0F9FD024608
:104740000B464046494623F0F3FD02460B46DDE9A1
:10475000020123F0EDFD05B0BDE8F08F9FED127B67
:104760004FF000088DED027BDFF85490C7E7114948
:10477000002005B0BDE8F08FD43888BEE9FAA8BDA6
:10478000C4B1B4BD9EEE213EAD529C804F7E923EA0
:104790009015CB19A001FA3E7751C1166CC1563F56
:1047A0004C5555555555A53F000000000000E73F0A
:1047B0000000E03F0000F03F3233D33F0000E93F0C
:1047C0000000D23F000000002DE9F04FADF51B7D49
:1047D0009F4CA49E9F4D54F8264007942646D41E15
:1047E00085FB0475E417C4EBA50424EAE4741D46B4
:1047F0000A93631CA3EB8303013D02EBC3030693FF
:104800002B460B940395651BF418049008911AD459
:104810002C440026002701340DF18808DDF894921D
:1048200008E059F8250023F0D1FE0135A542E8E85B
:10483000020108D0002DF4DA013530463946A54290
:10484000E8E80201F6D1079B002BC0F2DF83079B4B
:1048500003F1010B0A9B22A9DB001A4601EB0309B5
:104860000093049B0DF5E47A19460AEBCB0B01EBA0
:104870000208039B002BC0F2F582049C4D460026E3
:10488000002775E90223F4E8020123F005FF024640
:104890000B463046394623F04DFD444506460F464B
:1048A000EFD1EAE80267DA4509F10809E1D1079991
:1048B0000098049C009101F18043013B9B0020443F
:1048C0001A1F83460EA8024403440C920D93009ACB
:1048D0009AA901EBC203002A53E9284529DD0DF509
:1048E000E47A0AEBC2080DF1340900225A4B204643
:1048F000294623F0D1FE24F07FF923F067FE002241
:10490000564B06460F4623F0C7FE02460B4620468E
:10491000294623F00DFD24F06FF978E9022349F8C8
:10492000040F3946304623F005FDD04504460D46B8
:10493000DBD1DDF81890204629464A4601F050F8B0
:1049400000224FF07F5304460D4623F0A5FEFCF7EE
:104950005FFD0022424B23F09FFE02460B4620469D
:10496000294623F0E5FC0D46044624F045F980462F
:1049700023F02CFE0B4602462946204623F0D8FCA5
:104980004B46002B06460F4640F3F980009A0EA9CD
:10499000013AC9F1180351F8225045FA03F101FA1E
:1049A00003F30EA8EB1A40F82230C9F1170588442A
:1049B00043FA05F5002D6DDD009B002B08F1010881
:1049C00040F36F820E9C002C40F01683009B012B5D
:1049D00040F38F820EAA012352F8044F002C00F0FE
:1049E0008382581C0EAAC4F1807442F82340009AB6
:1049F000824219DD0EAA0EAC52F820106FF07F42F1
:104A0000511A44F820100099023399420CDD1046E7
:104A1000009A0EA901EB830301EB82011A68821A46
:104A200043F8042B8B42F9D1069B002B1ADD069B21
:104A3000012B4FF0010440F03C82009B5A1E0EAB4C
:104A40000EA953F82230C3F3160341F822303CE29A
:104A500058D00200ABAAAA2A0000703E00007041A4
:104A600000002040022D15D132463B4600209249DD
:104A700023F05EFC06460F46069A8F49002000F0A0
:104A8000AFFF02460B463046394623F051FC022563
:104A900006460F46002200233046394624F064F8CB
:104AA000002800F03782009A079B501E83420FDCDB
:104AB00002F18043013B0EAA0D9C02EB830300220E
:104AC00053F80419A34242EA0102F9D1002A67D13E
:104AD000079B0EAA013B52F82330002B40F01882AE
:104AE0000C9A012352F8041901330029FAD0009AD4
:104AF000D31802F1010A9A4509933DDC009B0A99FB
:104B00000B9A0B4409990AEB0208994622AB08F16B
:104B1000804803EBC9098B18A59A08F1FF3802EB0E
:104B2000880872AA02EBCA0AA59A02EB83030093D3
:104B300058F8040F23F04AFD039B002BE9E802011B
:104B40004FF000064FF0000711DB049C4D4675E95D
:104B50000223F4E8020123F09FFD02460B46304693
:104B6000394623F0E7FB5C4506460F46EFD1009B34
:104B70009845EAE80267DBD1099B0093A7E606D1D6
:104B8000009B0EAA013B52F82350ED1512E70022BC
:104B90004A4B24F007F8002840F06E81054679E77B
:104BA0000EA9039551F820300699CDF824801839C4
:104BB0000246009006916BB900F18043013B0EA8BC
:104BC00000EB830353F80409013A18390028F9D09F
:104BD00000920691069A3849002000F001FF009BE0
:104BE000002B04460D46C0F2F781DA0072A901EBF2
:104BF000020B06920EAA02EB8306DFF8C4904FF078
:104C000000080BF10807043656F8040D23F0DEFC0B
:104C100022462B4623F040FD4B4667E902014246FF
:104C20002046294623F038FD0EAB9E4204460D4631
:104C3000EAD14AACDDF81C9004944FF0000AB9F1B7
:104C4000000FC0F22B81DFF87C805D4618A1D1E90E
:104C5000000100260027002403E0544510DCF8E89A
:104C60000201F5E8022323F017FD02460B46304609
:104C7000394623F05FFB0134A14506460F46ECDAC6
:104C8000049B03EBCA03ABF1080BC3E9006770ABED
:104C90009B450AF1010AD2D1A49B049C032B00F28C
:104CA0008980DFE803F0C58E8E1100BFAFF300806E
:104CB00000000040FB21F93F0000F03F0000E03F12
:104CC0000000703E509A0200009B002B40F381814F
:104CD000069A04EB020ADAE9008902F10805254484
:104CE0000DF5987B1AED027B42464B4651EC170BB3
:104CF0008DED047B23F01EFB06460F4602460B4655
:104D0000DDE9040123F014FB42464B4623F012FB7D
:104D100065E902015D45B046B9466AE90267E1D13D
:104D2000009B012B40F35581069BE518D5E90089CE
:104D300003F1080B04EB0B0A15ED027B42464B46D0
:104D400051EC170B8DED007B23F0F4FA06460F466D
:104D500002460B46DDE9000123F0EAFA4B464246E3
:104D600023F0E8FA6AE902014EAB5345B046B94672
:104D700065E90267E0D10020002104EB0B0575E92D
:104D8000022323F0D7FAAA45F9D1039B002B00F0A8
:104D90000A816268E368089F2568A4683D6002F1A3
:104DA000004203F1004301F100417A60FB60BC6006
:104DB00038617961099B03F007000DF51B7DBDE8A3
:104DC000F08F069D083525440020002175E9022357
:104DD00023F0B0FAA542F9D1039B002B00F0D2805A
:104DE000089E024601F1004386E80C000B4602468D
:104DF000D4E9000123F09CFA009B002B0BDD4CADA5
:104E00000124F5E8022323F095FA009B0134A34224
:104E1000F7DA039B13B101F100431946089BC3E97C
:104E20000201099B03F007000DF51B7DBDE8F08F23
:104E3000069D083500200021254475E9022323F052
:104E400079FAAC42F9D1039B13B101F10043194641
:104E5000089BC3E90001099B03F007000DF51B7DCA
:104E6000BDE8F08F00260027EAE80267DA4509F17D
:104E700008097FF4FEAC1AE5009B002B08F101083D
:104E8000C8BF02253FF79EAD32463B460020614930
:104E900023F04EFA022506460F46FBE500260027C2
:104EA000EEE6069B002B27DD0024069B012B3FF43A
:104EB000C4AD022B09D1009B5A1E0EAB0EA953F8AC
:104EC0002230C3F3150341F82230022D7FF4E2AD06
:104ED00032463B4600204F4923F02AFA06460F4649
:104EE000002C3FF4D7ADC7E50099013399427FF418
:104EF00073AD069B002BD8DC022D7FF4CBAD324680
:104F00003B460020434923F013FA06460F46C1E50D
:104F10000123ECE53946069F03957A423046CDF8E9
:104F2000248000F05DFD00223B4B04460D4623F03B
:104F300039FE002843D00022384B2046294623F072
:104F4000ABFB23F059FE064623F040FB0022324B18
:104F500023F0A2FB02460B462046294623F0E8F93F
:104F600023F04AFE00990B4601331A4600933B4654
:104F7000183306930B460EA941F82300134641F857
:104F8000236027E6089B0246C3E900010B46D4E9EB
:104F9000000123F0CDF9009B002B3FF730AF089BB9
:104FA000C3E902013DE7D4E90067D4E90223089D83
:104FB000C5E90401C5E90067C5E90223FAE6294607
:104FC000204623F019FE009A0EA941F8220001E6BE
:104FD0004AAC00200021D8E6A49B032B3FF6EAAEA2
:104FE00001A252F823F000BF07500000FF4F00005D
:104FF000FF4F0000D14F000001200023F2E4002009
:1050000000214AACE8E6002000211CE70A9BDB00F7
:1050100000934CE40000F03F000070410000703E3F
:105020002DE9F04F21F00046B6F1795F85B00446D6
:105030000D469046994604DA23F0DEFD002800F084
:10504000858022462B462046294623F025FB06462E
:105050000F4602460B462046294623F01DFB41A37E
:10506000D3E9002382468B463046394623F014FBB1
:105070003EA3D3E9002323F05BF932463B4623F0FD
:105080000BFB3CA3D3E9002323F054F932463B4603
:1050900023F002FB39A3D3E9002323F049F9324678
:1050A0003B4623F0F9FA37A3D3E9002323F042F972
:1050B0000E9BCDE900019BB30022294B4046494697
:1050C00023F0EAFADDE90023CDE902015046594612
:1050D00023F0E2FA02460B46DDE9020123F028F94B
:1050E00032463B4623F0D8FA42464B4623F020F99D
:1050F00019A3D3E9002306460F465046594623F02C
:10510000CBFA02460B463046394623F013F90246E5
:105110000B462046294623F00BF905B0BDE8F08F79
:1051200002460B463046394623F0B6FA0AA3D3E9C5
:10513000002323F0FDF852465B4623F0ADFA2246E9
:105140002B4623F0F7F805B0BDE8F08F204629463E
:1051500005B0BDE8F08F00BF495555555555C53FC1
:105160000000E03F7CD5CF5A3AD9E53DEB9C2B8A35
:10517000E6E55A3E7DFEB157E31DC73ED561C11934
:10518000A0012A3FA6F810111111813F0000000074
:105190002DE9F04FBE4C21F0004687B0A642824672
:1051A0008B460F46CDE900231BDC23F025FD0028AC
:1051B00037D153461E43109B0133334300F0B38174
:1051C000109B012B00F0C88152465B460020B1497C
:1051D00023F08CFB04460D462046294607B0BDE867
:1051E000F08FAD4B9E421CDD0029C0F2A9815246D2
:1051F0005B4687A1D1E9000123F09AF8DDE900239D
:1052000004460D4684A1D1E9000123F091F89FEDF9
:10521000847B22462B468DED007B23F08BF8824663
:105220008B4652465B465046594623F035FA0246B5
:105230000B468046894623F02FFA424604460D4627
:105240004B465046594623F027FA77A3D3E900236B
:10525000CDE902012046294623F01EFA74A3D3E9C2
:10526000002323F067F822462B4623F015FA72A399
:10527000D3E9002323F05EF822462B4623F00CFAF4
:105280006FA3D3E9002323F055F822462B4623F0E1
:1052900003FA6DA3D3E9002323F04CF822462B46F2
:1052A00023F0FAF96AA3D3E9002323F043F8424636
:1052B0004B4623F0F1F968A3D3E90023CDE90401BB
:1052C0002046294623F0E8F965A3D3E9002323F01B
:1052D00031F822462B4623F0DFF963A3D3E90023FC
:1052E00023F028F822462B4623F0D6F960A3D3E911
:1052F000002323F01FF822462B4623F0CDF95EA3AE
:10530000D3E9002323F016F822462B4623F0C4F9F4
:105310005BA3D3E9002323F00DF802460B46DDE939
:10532000040123F007F8DDE9022323F0B5F9DDE9F4
:10533000004522462B4622F0FDFF42464B4623F015
:10534000ABF902460B462046294622F0F3FF4EA356
:10535000D3E9002304460D46DDE9020123F09CF960
:1053600022462B4622F0E6FF0B460246804689463F
:105370005046594622F0DEFF474B9E4204460D46FA
:1053800000F38E80109B012B3BD002460B46002081
:10539000404923F0ABFA002406460F462046294632
:1053A00052465B46CDE90067CDE90201009422F048
:1053B000BFFFDDE900AB02460B464046494622F0FE
:1053C000B7FF52465B4623F067F9524604460D4646
:1053D0005B46DDE9020123F05FF900222F4B22F04A
:1053E000A9FF02460B462046294622F0A3FF32467B
:1053F0003B4623F051F952465B4622F09BFF0446A0
:105400000D462046294607B0BDE8F08FAFF3008077
:10541000182D4454FB21E93F075C143326A6813C38
:105420000000000000000000D47ABF74702AFB3E28
:10543000E9A7F0320FB8123F68108D1AF726303FF7
:105440001583E0FEC8DB573F93846EE9E326823F75
:10545000FE41B31BBAA1AB3F735360DBCB75F3BE08
:10546000A69237A0887E143F0165F2F2D844433FEC
:10547000280356C9226D6D3F37D60684F464963FE3
:105480007AFE10111111C13F635555555555D53F41
:10549000FFFF2F3E0000F0BF2794E53F0000F03FE4
:1054A000109823F093F82246CDE900012B462046C0
:1054B000294623F0F1F8DDE90023CDE90201204679
:1054C000294622F037FF02460B46DDE9020123F0B0
:1054D0000DFA42464B4622F02BFF02460B46504641
:1054E000594622F025FF02460B4622F023FF0246D2
:1054F0000B46DDE9000122F01BFF0446B81700F05F
:105500000200C0F101000D4623F060F802460B4690
:105510002046294623F0C0F804460D462046294679
:1055200007B0BDE8F08F5046594620F0C5F8024656
:105530000B4600200A4923F0D9F904460D4660E7DE
:10554000DDE9004501F10041224605F100438246B4
:105550008B46CDE900234AE654465D4651E700BF3D
:105560000000F03F000000002DE9F04FD24A21F08A
:105570000043934285B082468B460C462DD9CF4AD4
:1055800093421AD8002C80F21681B5A3D3E90023E8
:105590005046594622F0CEFE0022002323F0EEFAB8
:1055A000C0B9B1A3D3E900235046594623F074F89B
:1055B00002460B460020C24908E1C24A934240F22B
:1055C000D0800346C1F31302134340F0F481002955
:1055D00080F2C4800020BC49C0E0BC4A934200F283
:1055E0002981BB4A934240F2DE80002301930022CE
:1055F000B84B5046594623F04FF806460F46024630
:105600000B465046594623F047F899A3D3E90023A7
:1056100004460D4623F040F897A3D3E9002322F077
:1056200089FE22462B4623F037F895A3D3E90023C1
:1056300022F07EFE22462B4623F02EF892A3D3E9D9
:10564000002322F077FE22462B4623F025F890A374
:10565000D3E9002322F06CFE22462B4623F01CF8EF
:1056600000229D4B22F066FE8046894602460B468C
:105670003046394623F010F802460B460020974981
:1056800022F056FE064602460B460F464046494665
:1056900022F04EFE3246804689463B4650465946E9
:1056A00022F0FAFF02460B4600208D4922F040FE10
:1056B00002460B464046494623F018F922462B463F
:1056C00022F0EAFF019E02460B46002E38D0DDE9AB
:1056D000026732463B4622F02BFE52465B4622F0E2
:1056E000DBFF32463B4622F023FE2B46224622F0C9
:1056F0001FFE019B013306460F4600F00F81019B00
:10570000012B00F0F180019B0133392B39D8019B2B
:10571000132B40F31281019CC4F57F7503350022E1
:105720002B0522F007FE02460B465046594622F052
:10573000FFFD0022684B22F0FDFD01EB04510DE05E
:105740005046594622F0A8FF22462B4622F0F0FD93
:1057500002460B465046594622F0EAFD05B0BDE828
:10576000F08F4DA3D3E9002323F026FA00283FF45D
:1057700009AF4BA3D3E900231046194622F08CFF52
:10578000ECE752465B4622F0D3FD02460B46002072
:10579000514922F0CDFD019A4F4B01EB02510022FD
:1057A00022F0C6FDDAE73EA3D3E9002322F0C2FDD2
:1057B00002460B46CAE72CA3D3E9002350465946BC
:1057C00022F06AFF0B4643490246002022F0B2FD58
:1057D00023F012FA019022F0F9FE33A3D3E900235B
:1057E00006460F4622F058FF02460B4650465946E1
:1057F00022F09EFD2EA3D3E9002380468946304641
:10580000394622F049FF06460F4632463B4640469F
:10581000494622F08DFD02460B4682468B464046A5
:10582000494622F085FD32463B4622F081FDCDE916
:105830000201DCE62B4A934200F2958000291AA36C
:10584000D3E90023C0F2AC8022F072FD0123804630
:105850008946019316A7D7E90067D6E7AFF3008022
:1058600059F3F8C21F6EA501FE822B654715F73F5D
:105870002DC3096EB7FD8ABE3952E686CACFD03E27
:10588000B7DBAA9E19CE143F8555FE19A0015A3FD9
:10589000F41011111111A13FEF39FAFE422E86408A
:1058A0009C7500883CE4377E0000E0FE422EE63F17
:1058B000763C7935EF39EA3D79684340412E8640A0
:1058C0000000E0BFFFFFEF7F0000F0BF422ED63F99
:1058D000FFFF8F3C0000E03F0000F03F0000084069
:1058E00000001840B1A2F03F0022394B5046594603
:1058F00023F044F9002844D0504659460022354B45
:1059000022F018FD02460B463046394622F010FDC3
:1059100000224FF0404322F0BFFE1FE702460B4635
:105920005046594622F004FD00222A4B22F0B4FED4
:105930000022284B22F0FCFC10E7019C4FF40013DE
:105940002341C3F17F5752465B4622F0F1FC00260B
:1059500007F5401702460B463046394622F0E8FC70
:1059600001EB0451FAE616A3D3E9002322F094FEDA
:10597000002C02460B464FF00000FFF61CAE154906
:1059800024E732463B465046594622F0D1FC0246B7
:105990000B4622F0CFFC00220F4B22F0CBFCDDE6C1
:1059A00022F0C8FC4FF0FF3380468946019306A7DA
:1059B000D7E9006729E702460B4622F0BBFCCDE69B
:1059C000FE822B654715F73F763C7935EF39EABD06
:1059D0000000D0BF0000E03F0000F03F00000000EA
:1059E000F8B5C1F30A5604460D460B4617460EBBE2
:1059F00021F000430343864625D00022344B22F099
:105A00004BFE344A974204460D460B462ADBC1F34F
:105A10000A56363E3E4440F2FE72964228DC002E84
:105A200012DD23F0FF4323F4E00343EA065520464A
:105A30002946F8BD40F2FF729642EBD102460B4672
:105A400022F078FCF8BDF8BD16F1350F1DDA4CF2E6
:105A500050339F4222462B4625DC19A1D1E9000193
:105A600022F0D8FB16A3D3E9002322F015FEF8BDDF
:105A700022462B4614A1D1E9000122F0CBFB12A350
:105A8000D3E9002322F008FEF8BD23F0FF4323F4FE
:105A9000E003363643EA06552046294600220E4BDF
:105AA00022F0FAFDF8BD08A1D1E9000122F0B2FB15
:105AB00005A3D3E9002322F0EFFDF8BDAFF300808A
:105AC00059F3F8C21F6EA5019C7500883CE4377E2F
:105AD00000005043B03CFFFF0000903C10B5054C67
