:100000000000022001D3010029D301002BD30100FD
:100010002DD301002FD3010031D3010000000000D7
:1000200000000000000000000000000033D30100C9
:1000300035D301000000000037D3010039D301009F
:100040003BD30100F5130100A1D1010065D10100EE
:1000500079D101003BD30100F9B40100C1A3010033
:10006000C1C70100C9C70100D1C701003BD30100CE
:100070007D9D00003BD301003BD301003BD3010039
:100080003BD301003BD301003BD301003BD3010034
:100090003BD301003BD301003BD301003BD3010024
:1000A0003BD301003BD30100D9C70100E1C70100E8
:1000B0003BD301003BD30100000000000000000022
:1000C0003BD301003BD301003BD301008DD10100A4
:1000D0003BD301003BD301003BD301003BD30100E4
:1000E000C9D1010000000000000000000000000075
:1000F000000000003BD3010000000000B5D101006A
:1001000000000000000000000000000000000000EF
:1001100000000000000000000000000000000000DF
:1001200000000000000000000000000000000000CF
:1001300000000000000000000000000000000000BF
:1001400000000000000000000000000000000000AF
:10015000000000000000000000000000000000009F
:10016000000000000000000000000000000000008F
:10017000000000000000000000000000000000007F
:10018000000000000000000000000000000000006F
:10019000000000000000000000000000000000005F
:1001A000000000000000000000000000000000004F
:1001B000000000000000000000000000000000003F
:1001C000000000000000000000000000000000002F
:1001D000000000000000000000000000000000001F
:1001E000000000000000000000000000000000000F
:1001F00000000000000000000000000000000000FF
:100200007CB0EE877CB0EE87FF00FF00FF00FF00B0
:10021000FF00FF00FF00FF00FF00FF00FF00FF00E6
:10022000FF00FF00FF00FF00FF00FF00FF00FF00D6
:10023000FF00FF00FF00FF002DE9F04F85B00391A4
:100240000778A7F10903042B044607F07F0200F1A9
:100250000100F5D9202AF3D02B2F04BF677804467C
:100260002D2F72D09FED427B8DED007B4FF000086B
:100270004FF000098FB34FF0000E4FF0000ADFF887
:1002800000B1754619E027F057F980468946304697
:1002900027F0ECF842464B4626F09CFF524680463B
:1002A00089465B46DDE9000135B327F06FFACDE9F9
:1002B0000001AE4614F8017F7FB1A7F13006092E88
:1002C00052465B4640464946DDD9C5B92E2F16D168
:1002D00014F8017F0125002FEFD142464B46DDE99E
:1002E000000127F029F980468946039B404649468C
:1002F0001C6005B0BDE8F08F4FF0010EDAE7BEF1EB
:10030000000F29D042464B46DDE9000127F014F9E1
:1003100007F0DF07452F80468946E6D10399601C28
:100320000A2226F03BFF16490246002027F064FC13
:1003300002460B464046494627F0FEF8804689466D
:100340004046494605B0BDE8F08F9FED0B7B6778CE
:100350008DED007B013489E7DFF828904FF000082D
:100360004046494605B0BDE8F08F00BFAFF30080BE
:10037000000000000000F03F000000000000F0BF9F
:10038000000024400000F87F2DE9F84F16460023B6
:10039000002204460D4627F041FB002840F09D80D6
:1003A000002200232046294627F02EFB28B13022C8
:1003B000002332707370BDE8F88F2046294624F080
:1003C0001DFD27F069FB7BA3D3E900238146294665
:1003D000204627F023FB002800F08680B9F1000FAB
:1003E000C0F2BE804A4600206F4927F005FC024655
:1003F0000B462046294627F0C9F904460D4666A15A
:10040000D1E9000101274FF0000822462B4627F0D2
:1004100093F80022654B26F0DDFE27F041FC002F0B
:10042000CC464FF0FF3AC1464FF0000840F38580BC
:10043000DFF888E15E4C0122AEF1700945F6F32544
:100440004FF02E0BA94208BFA0424FF0300309D352
:10045000001B61EB0501A94208BFA04203F10103A3
:10046000F6D2DBB2337050EA010306F1010409D180
:10047000BA4210DACE4502F101020CD026467EE8DF
:100480000245DFE7BA4204BF86F801B0B41CCE458E
:1004900002F10102F2D1B8F1000F0DD02246302155
:1004A00002F8011BC2F1010353442344002BF7DC83
:1004B0002AEAEA7301331C44BCF1010F4CD06523D6
:1004C000BCF1000F2370C5BF2B236370611CA11CFE
:1004D0006046BDE8F84F13F0B7B905F100431D467B
:1004E0002D23337001365BE72DA3D3E9002320468B
:1004F000294627F0B1FA00287FF470AFB9F10E0F4A
:1005000009F101073DDDA9F10E0842460020264908
:1005100027F072FB02460B462046294627F036F9A3
:100520000022224B26F056FE27F0BAFB002FA9F13D
:100530000F0A4FF0010C3FF77BAF334630222E24D9
:1005400003F8022B74707FEA090618D01E4403F8E2
:10055000012BB342FBD16BE700232370BDE8F88F7A
:10056000C9F100020020104927F046FB02460B4665
:100570002046294626F0E0FF04460D463FE71E468A
:1005800056E7C9F10E0200200749C84627F034FBA0
:100590004FF0010939E700BF0000901EC4BCD642ED
:1005A00050EFE2D6E41A4B44000024400000E03F44
:1005B00000407A108DEDB5A0F7C6B03EA0870200CE
:1005C00070B54FF0FF3006F0BDFD04466FF07F4080
:1005D00006F0B8FD0646204626F038FF00220C4BF8
:1005E00026F0AAFF044630460D4626F02FFF06A34C
:1005F000D3E9002327F0CAF802460B4620462946D5
:1006000026F0E8FD70BD00BF0000E0DFFFFF6F4394
:100610000000F03D000000002DE9F843436A044665
:1006200018680D4626F034FF064668680F4626F027
:100630001DFF24F0E3FB636A95ED037AD3ED007AA6
:1006400077EE677A8046894617EE900A26F020FFFB
:1006500042464B4626F070FF07A3D3E9002327F05C
:1006600095F832463B4626F0B5FD27F05DFAA063CB
:10067000BDE8F883AFF30080333333333333FF3FC8
:100680002DE9F04F2DED028B044683B0C06826F0B3
:10069000EDFE80462069894626F0E8FE82466069C4
:1006A0008B4626F0E3FE024601F1004306460F4664
:1006B0004046494624F04EFA27F036FAE0620546F5
:1006C00024F0FCF80190284624F0ACF8019B054684
:1006D000184626F0DDFE42464B4626F02DFF8046AA
:1006E0002846894626F0D4FE32463B4626F024FFB3
:1006F00002460B464046494626F06AFD02460B4636
:100700005046594624F026FA27F00EFA002208EE49
:10071000100A00233046394627F09EF928B3B5EE7B
:10072000C08AF1EE10FA1CDD11A7D7E9006718EEB8
:10073000100A26F0ADFE02460B463046394626F03A
:1007400047FD32463B4626F045FD27F0EDF9A06215
:10075000E38843F00203E38003B0BDEC028BBDE805
:10076000F08F05A7D7E90067E1E784ED0A8AEFE794
:10077000EA2E4454FB21F93FEA2E4454FB21F9BFF1
:1007800008B514F081FBDFED0C7A07EE100A67EE76
:10079000277A17EE900A26F07BFE05A3D3E9002303
:1007A00026F0F4FF27F078F908BD00BFAFF3008012
:1007B000EA2E4454FB2119400000B443000000001D
:1007C00008B514F075FBDFED0C7A07EE100A67EE42
:1007D000277A17EE900A26F05BFE05A3D3E90023E3
:1007E00026F0D4FF27F058F908BD00BFAFF3008012
:1007F000EA2E4454FB2119400000B44300000000DD
:100800002DE9F84F16461F460446002200233046C5
:1008100039460A9D27F002F9002840F0CD80324683
:100820003B463046394627F021F9002840F01F8129
:1008300027F00049304649464FF0FF32984B27F0E9
:1008400015F948B9304649464FF0FF32944B27F02E
:10085000EFF8002800F0B7808BA3D3E900233046DF
:10086000394627F0DBF8002840F099800F2DA8BF0B
:100870000F25042D30463946A946B8BF4FF004096C
:1008800024F0BCFA27F008F981A3D3E900238246BB
:100890003946304627F0C2F848B97FA3D3E9002390
:1008A0003046394627F0D8F8002800F09180BAF198
:1008B000000FC0F2BE80524600207A4927F09CF912
:1008C00002460B463046394626F060FF06460F4684
:1008D00001254FF0000BA9EB0B02013A00207149F2
:1008E00027F08AF93B46324626F026FE00226E4B60
:1008F00026F070FC27F0D4F9002D57464FF0FF3852
:10090000DA464FF0000B40F38180684B09F1FF3C61
:100910004FF0010E03EBC9094FF02E0A79E90223CB
:10092000994208BF90424FF0300609D3801A61EB1C
:100930000301994208BF904206F10106F6D2F6B2D1
:1009400050EA0102267004F101032ED1AE451C4687
:1009500006DA0CF1FF3CBCF1FF3F0EF1010EDDD1D8
:10096000BBF1000F0DD02246302102F8011BC2F16D
:10097000010343442344002BF7DC28EAE8730133E6
:100980001C44012F51D06523002F237060DD2B23E1
:100990006370A11C3846BDE8F84F1EF0F9B830224C
:1009A000002322706370BDE8F88FAE450ABF84F85B
:1009B00001A01C460234CCE707F100431F462D235B
:1009C000237001342BE73A4B18682060BDE8F88F9C
:1009D000D1450AF1010551DCAAEB090808F1010B28
:1009E0005A4600202F4927F007F902460B463046A9
:1009F000394626F0CBFE00222B4B26F0EBFB27F0EE
:100A00004FF9002D4FF001073FF77FAF234630220B
:100A10002E2603F8022B66707FEA0A042CD01C44B1
:100A200003F8012BA342FBD16FE700232370BDE83D
:100A3000F88FCAF1000200201A4927F0DDF80246BB
:100A40000B463046394626F077FD06460F463FE70F
:100A5000611C0AD0002F9DDA2D237F426370A11CF8
:100A60003846BDE8F84F1EF093B8BDE8F88F114B3B
:100A700018682060BDE8F88F1C4646E7D3464FF063
:100A8000010A28E7AFF30080B0CA6E47ED89100075
:100A90008DEDB5A0F7C6B03E50EFE2D6E41A4B4458
:100AA000FFFFEF7F000024400000E03FB08702001E
:100AB00004B5020000B502002DE9F043154605F02B
:100AC0000F068BB08A68DDF84890D16AA6F1080E4F
:100AD000BEF1010F074640F2A48005F0030C4FF071
:100AE000080E4FEA15180EFA0CFEF04500F28B8046
:100AF0000A6B546FB9EBD40F80F08C80012000FAA0
:100B00000CF0B9F1000F37D191F8704018448442CD
:100B10003CD37431CC18139B002B00F0228193E856
:100B20000300B8F1000F02D14B1C00F0EA8020F066
:100B300093FB08F2FF380023002268F31E5326F0CF
:100B4000FBFC2D0702460B4605D40022BE4B26F0C7
:100B500041FB02460B46684620F0FEFA9DE8030082
:100B60000B460B2E00F2CB80DFE806F0847EAB8ACA
:100B700078726E1AC9C9685FD2F870C002EBC90EEC
:100B8000E6441844BEF804E0864533D2139B43B3D1
:100B90006722384621F09EFB38460BB0BDE8F08353
:100BA0004B1C00F0CB8020F057FB0022A74B804667
:100BB000894626F033FF002840F05D810022A34BD8
:100BC0004046494626F048FF002840F05481404600
:100BD000494627F04DF8CDE9060106AB03CB20606E
:100BE00061609B4BD3E900233846C7E900230BB073
:100BF000BDE8F08309F18044496C013C51F8244080
:100C000001EB840186E7652221F064FB38460BB0D6
:100C1000BDE8F083662221F05DFB38460BB0BDE8ED
:100C2000F083642221F056FBB6E720F015FB0AABF7
:100C300063E9020103CB20606160D2E720F00CFB86
:100C400026F072FF2060CCE720F0F8FA2060C8E7B9
:100C500020F0F4FA00F30F002080C2E720F0EEFA53
:100C600000F307002070BCE720F0E8FA80F31000E2
:100C70002080B6E720F0E2FA80F308002070B0E7A9
:100C80004A1C68D020F0E8FA0022002380468946FA
:100C900026F0C4FE002840F0018100226D4B404642
:100CA000494626F0D9FE002840F0EA8040464946F1
:100CB00026F0F6FFCDE9040104AB03CB20606160B0
:100CC0008FE7013141D0194620F0C6FA00220023F7
:100CD0008046894626F0A2FE002840F0E28058A314
:100CE000D3E900234046494626F0B6FE002840F0EE
:100CF000CC804046494626F0F7FE206071E71CF0A4
:100D000057FD0B2EFBD801A353F826F0750C0000FD
:100D1000690C00004B0D0000570D00005D0C000039
:100D2000510C0000490C00003D0D0000FF0C0000BC
:100D3000FF0C00003D0C00002B0C000000287FF78A
:100D400032AFC117CDE9060147E700283FF77AAF78
:100D50004FF0FF33B7E7002894DDC117CDE9040158
:100D6000AAE70B2ECBD801A353F826F0730E000090
:100D70006F0E0000590E0000190E0000130E000047
:100D80000D0E0000E10D0000C50D0000FF0C00007D
:100D9000FF0C0000B10D00009D0D0000206861688F
:100DA00008AB03C3DDE90801B8F1000F28D01DE04E
:100DB0002068039026F06CFBCDE90801B8F1000F24
:100DC0001ED013E02068616806AB03C3DDE90601AD
:100DD00026F084FBCDE90801B8F1000F10D005E042
:100DE0002068B8F1000F54D026F040FBC8F57F789A
:100DF00008F103080023002268F31E5326F09CFB31
:100E000002460B46384620F0A7F9C5E6B4F90000C3
:100E1000E7E794F90000E4E72068616804AB03C3E6
:100E2000DDE90401002908BFB0F1004FD9D326F055
:100E30004DFBCDE90801B8F1000FE1D0D6E700BFC6
:100E40000000E0FFFFFFEF410000E03F0000E04353
:100E5000388802000000F04320680028C1DA26F03C
:100E6000F5FACDE90801B8F1000FC9D0BEE7208836
:100E7000B7E72078B5E74FF0FF306FF00041AAE602
:100E80004FF0FF304FF0FF3114E74FF0FF3020609C
:100E9000A7E60146384620F0C3F97DE60020002190
:100EA00008E7002020609CE6494A21F00043934275
:100EB0002DE9704304460D464BDC464A93420E46EC
:100EC0000EDC3FA3D3E9002326F084F90022424B35
:100ED00026F0C2FD00284CD020462946BDE870838C
:100EE0003E4A93423BDCB3F1804F42DD23F034FBBA
:100EF0002246804689462B462046294626F01CFB82
:100F00000022354B26F066F924F040FC02460B46E1
:100F10004046494626F05EF902460B4600202E491F
:100F200026F034FC424604460D464B4640464946B0
:100F300026F050F902460B462046294626F04AF98B
:100F400002F06AF8002EC9DC01F100431946BDE841
:100F5000708302460B4626F03DF9BDE8708323F00E
:100F6000FBFA02F059F818A3D3E9002326F032F96E
:100F7000E8E722462B462046294626F0DDFA804641
:100F800089462046294623F0E7FA002204460D460A
:100F9000114B4046494626F01DF924F0F7FB00228C
:100FA0000D4B26F017F902460B464046494626F0FF
:100FB000EDFB22462B4626F00DF900F0C5FAC1E7FD
:100FC0009C7500883CE4377EEF39FAFE422EE63FFE
:100FD000FFFFEF7FFFFF2F3E0000F03F0000B0411A
:100FE0002DE9F84FC44B21F000469E4204460D46C1
:100FF0008A460EDDC14B9E4200F3AC8000F0A78014
:10100000BAF1000F40F3EA809FA1D1E90001BDE8E9
:10101000F88FBB4B9E4200F3B580A3F1DE739E4276
:1010200040F3A0804FF0FF3B22462B462046294646
:1010300026F082FA02460B468046894626F07CFA64
:1010400093A3D3E9002306460F4626F075FA92A330
:10105000D3E9002326F0BEF832463B4626F06CFA70
:101060008FA3D3E9002326F0B5F832463B4626F09D
:1010700063FA8DA3D3E9002326F0ACF832463B4651
:1010800026F05AFA8AA3D3E9002326F0A3F83246C1
:101090003B4626F051FA88A3D3E9002326F09AF8BC
:1010A00042464B4626F048FA85A3D3E90023804602
:1010B00089463046394626F03FFA83A3D3E9002318
:1010C00026F086F832463B4626F036FA80A3D3E96E
:1010D000002326F07DF832463B4626F02DFA7EA30B
:1010E000D3E9002326F074F832463B4626F024FA72
:1010F0007BA3D3E9002326F06BF832463B4626F06B
:101100001BFABBF1FF3F02460B466CD040464946F6
:1011100026F060F822462B4626F00EFA794E7A4BDE
:101120004FEACB0B5E449B44DBE9002326F050F8EA
:1011300022462B4626F04CF802460B46D6E9000123
:1011400026F046F8BAF1000F43DBBDE8F88F00281F
:101150003FF456AF22462B462046294626F03AF861
:10116000BDE8F88F60A3D3E9002326F033F800220E
:10117000664B26F071FC00283FF454AF2046294608
:10118000BDE8F88F23F0E8F9614B9E4204460D4616
:1011900039DCA3F550239E425EDC02460B4626F066
:1011A00019F80022594B26F013F8002206460F4684
:1011B0004FF080432046294626F00CF802460B46A5
:1011C0003046394626F0E2FA4FF0000B04460D4651
:1011D0002AE701F100431946BDE8F88F44A1D1E99F
:1011E0000001BDE8F88F4046494625F0F3FF22464E
:1011F0002B4626F0A1F902460B462046294625F04B
:10120000E7FFBDE8F88F434B9E421ADC0022424BB9
:1012100025F0DEFF002206460F463F4B20462946BA
:1012200026F08AF90022394B25F0D4FF02460B46FE
:101230003046394626F0AAFA4FF0020B04460D4616
:10124000F2E602460B460020344926F09FFA4FF0A2
:10125000030B04460D46E7E600222C4B25F0B8FFB1
:10126000002206460F46294B2046294625F0B2FFAC
:1012700002460B463046394626F088FA4FF0010BFD
:1012800004460D46D0E600BF182D4454FB21F93F1B
:1012900011DA22E33AAD903FEB0D76244B7BA93F68
:1012A000513DD0A0660DB13F6E204CC5CD45B73F36
:1012B000FF8300922449C23F0D5555555555D53FE2
:1012C0002F6C6A2C44B4A2BF9AFDDE522DDEAD3FD6
:1012D0006D9A74AFF2B0B33F711623FEC671BC3F76
:1012E000C4EB98999999C93F9C7500883CE4377E76
:1012F000182D4454FB21F9BFFFFF0F440000F07F7D
:10130000FFFFDB3F50880200708802000000F03FC2
:10131000FFFFF23FFF7F03400000F83F0000F0BFF7
:101320002DE9F843C1F30A59A9F2FF35132D0246FE
:101330000B460C4606468846074622DC002D50DB4D
:10134000DFF8F09049FA05F901EA090E5EEA0606AF
:101350001CD036A3D3E9002325F03CFF0022002354
:1013600026F07AFB48B1002C04DD4FF4801343FAD9
:1013700005F5A84428EA0904002721463846BDE8B7
:10138000F883332D06DDB5F5806F3DD01046194644
:10139000BDE8F883A9F213494FF0FF3E2EFA09F990
:1013A00010EA090FF2D021A3D3E9002325F012FFA0
:1013B0000022002326F050FB0028DED0002C09DD9F
:1013C000142D2BD00127C5F1340507FA05F5AE1908
:1013D00028BFB844444626EA090721463846BDE8F6
:1013E000F88312A3D3E9002325F0F4FE00220023A2
:1013F00026F032FB0028C0D0002C0BDB54EA060795
:1014000006D00027084CB8E725F0E4FEBDE8F883D5
:101410003C46B2E700274FF00044AEE704F1010874
:10142000D8E700BFAFF300800000F03F9C75008854
:101430003CE4377EFFFF0F002DE9F041C1F30A576E
:10144000A7F2FF35132D02460B460C46884606468A
:101450001CDC002D3FDB3A4F2F41864601EA070C8A
:101460005CEA0E0E17D034A3D3E9002325F0B2FEB8
:101470000022002326F0F0FA20B1002C3FDB28EAFE
:101480000704002621463046BDE8F081332D06DDF5
:10149000B5F5806F2FD010461946BDE8F081A7F250
:1014A00013474FF0FF3E2EFA07F73842F3D022A33E
:1014B000D3E9002325F08EFE0022002326F0CCFA8B
:1014C0000028DFD0002C20DB444626EA0706214610
:1014D0003046BDE8F08118A3D3E9002325F07AFE59
:1014E0000022002326F0B8FA0028CBD0002C17DB0E
:1014F00000263446C6E725F06DFEBDE8F0814FF4C6
:10150000801343FA05F5A844B9E7142D10D0012340
:10151000C5F1340503FA05F5AE1928BF9844D3E7A1
:1015200024F00042074B324318BF1C460026A9E7AF
:1015300004F10108C8E700BF9C7500883CE4377ED1
:10154000FFFF0F000000F0BF2DE9F04FD84B99428C
:1015500087B0804689460E4613DCD64B21F0004406
:101560009C4218DD0022D44B26F04EFA002879D098
:10157000002200230020D14926F008F907B0BDE879
:10158000F08FCF4B99422FDD42464B4625F022FE8D
:1015900007B0BDE8F08FCB4B9C4270DDCA4B1E44B8
:1015A0009E427ED80022C94B4046494625F012FE95
:1015B0004FEA215AAAF2FF3ABAF1000F04460D464B
:1015C0000E4640F3DE8142464B4625F001FE0246C0
:1015D0000B460020BD4925F0FBFD22462B4626F098
:1015E000D5F8CDE902010BE0B94B9E42DADD9FED63
:1015F0009A7B8DED027B4FEA265A4446AAF2FF3AC7
:10160000B44BC6F313069E4246F07F5500F3E780C5
:1016100045F44015204629460022AC4B25F0D8FD64
:10162000002204460D46AC4B25F086FF22462B4691
:1016300025F082FFA046CDE90401A946CDE90001CD
:10164000002E3AD1002200232046294626F0DCF95C
:10165000002800F0CE80BAF1000F40F07481002025
:10166000002195E742464B464046314625F0B0FD05
:1016700002460B4626F08AF807B0BDE8F08F00223C
:10168000964B25F0A7FD0022002326F0E5F900285F
:1016900000F0CC80924B9C4200F3C8804046494603
:1016A00076E700228C4B25F047FF42464B4625F05B
:1016B00043FFCDE900014FF0000A00224FF08043C4
:1016C0004046494625F086FD02460B4640464946BF
:1016D00026F05CF802460B4606460F4625F02CFF26
:1016E0005FA3D3E9002304460D4625F025FF5EA342
:1016F000D3E9002325F06EFD22462B4625F01CFF82
:101700005BA3D3E9002325F065FD22462B4625F097
:1017100013FF59A3D3E9002325F05CFD22462B4695
:1017200025F00AFF56A3D3E9002325F053FD2246F6
:101730002B4625F001FF54A3D3E9002325F04AFDF1
:1017400022462B4625F0F8FE51A3D3E9002325F0CD
:1017500041FD22462B4625F0EFFE04460D46BAF128
:10176000000F00F0BF80504625F080FE4AA3D3E969
:10177000002382468B4625F0DFFEDDE90023CDE91C
:1017800004012046294625F025FD32463B4625F03A
:10179000D3FE43A3D3E9002304460D4650465946E1
:1017A00025F0CAFEDDE9022325F014FD02460B46B2
:1017B0002046294625F00EFD02460B46DDE90001D4
:1017C00025F006FD42464B4625F002FD02460B463B
:1017D000DDE9040125F0FCFC07B0BDE8F08F45F41D
:1017E0000015C6F5801620462946B6100AF1010AF2
:1017F00012E72DA3D3E900232046294625F09CFEBD
:1018000002460B460020314925F0E2FCDDE90423C5
:1018100025F092FE06460F46BAF1000F73D102463C
:101820000B462046294625F0D3FCB1E642464B46FE
:101830004046494625F080FE0022274B25F07CFEDD
:1018400002460B464046494625F0C2FC07B0BDE8BB
:10185000F08F00BFAFF30080000000000000000028
:1018600044523EDF12F1C23F9FC678D0099AC33F6F
:10187000DE03CB966446C73FAF788E1DC571CC3F63
:10188000599322942449D23F04FA97999999D93FC0
:10189000935555555555E53F0000E0FE422EE63F75
:1018A000763C7935EF39EA3D555555555555E53F67
:1018B0007982DA3FFFFFEF3F0000F0BF000050C326
:1018C000FFFFEF7FFFFF1F3E3C412D400000F03F38
:1018D000FFFF3F439DA006000000E03F0000504393
:1018E000FFFF8F3CDDE9004522462B4625F072FCC8
:1018F00032463B4625F020FE02460B46204629464E
:1019000025F066FC9CE7504625F0B0FD23A3D3E903
:10191000002382468B4625F00FFE22A3D3E9002345
:10192000804689465046594625F006FEDDE90223E9
:1019300025F050FC02460B463046394625F048FC5F
:1019400022462B46DCE7504625F090FD15A3D3E94F
:10195000002306460F4625F0EFFDDDE9022325F0C2
:1019600039FC0EA3D3E9002304460D463046394620
:1019700025F0E2FD02460B462046294625F02AFCCA
:1019800006E60022044B25F023FC02460B464046A7
:10199000494625F01DFC20E60000F03F0000E0FE77
:1019A000422EE63F763C7935EF39EA3D00000000F3
:1019B00008B523F0A3F904A3D3E9002325F0E6FE3C
:1019C00008BD00BFAFF30080EF39FAFE422EE63FBC
:1019D0002DE9F043DFF8B4808BB004460D4601F0EA
:1019E000F3F898F90030013306460F462BD0224613
:1019F0002B462046294626F039F8814618BB20465A
:101A0000294622F0A9FD1FA3D3E9002326F024F8DC
:101A1000C8B1194A98F90030CDF820900321CDE9DA
:101A20000445CDE902458DE806008BB9134B4FF014
:101A30006042CDE90623684625F0AAF870B1089BFC
:101A40009BB9DDE90667304639460BB0BDE8F08347
:101A50000B490020022BCDE90601ECD125F046FB15
:101A600022230360089B002BEBD025F03FFB089B53
:101A70000360E6E7AFF3008098BA0200FFFFEF478C
:101A80000000F07F7DF8B98FCE33864080020020C1
:101A90002DE9F043DFF8E4808BB004460D4601F0F9
:101AA00043F998F90030013306460F4633D02046FB
:101AB000294625F067F870B32CA3D3E9002320460C
:101AC000294625F0C9FF814650BB2AA3D3E900234C
:101AD0002046294625F0A2FFE8B198F90030204AB7
:101AE000CDF82090002600270421022BCDE90445E3
:101AF000CDE90245CDE906678DE8060029D06846A4
:101B000025F046F828B3089B1BB125F0EFFA089B97
:101B10000360DDE90667304639460BB0BDE8F08367
:101B20000F4A98F90030019203210022CDE90445C3
:101B3000CDE90245009108922BB90A4B4FF0604263
:101B4000CDE90623DBE708490020022BCDE9060199
:101B5000D5D125F0CBFA22230360D4E7AFF3008080
:101B6000A0BA0200FFFFEF470000F07FEF39FAFE56
:101B7000422E864051302DD5104987C0800200206A
:101B80002DE9F04FDFF80C938DB006460F46144652
:101B90001D4601F0C5FC99F90080B8F1FF3FCDE981
:101BA000000136D022462B462046294625F05EFF0E
:101BB000834670BB32463B463046394625F056FFD9
:101BC0008246002840F0A280304639460022002399
:101BD00025F01AFF10B3002200232046294625F0E5
:101BE00013FF834600286AD09FEDA17B0122A44BFE
:101BF000CDF828A00292CDE90467CDE906458DED28
:101C0000087B0393B8F1000F45D09FED9B7B8DEDD2
:101C1000007BDDE900010DB0BDE8F08FDDE90001DA
:101C200024F0B0FF8046002800F08D804FF0000ABD
:101C30004FF0000BDDE9000152465B4625F0E4FE63
:101C40000028E6D03046394624F09CFF0028E0D03A
:101C50002046294624F096FF0028DAD099F9003072
:101C6000874A039204210022022BCDE90467CDE9C3
:101C70000645CDE908AB02910A9203D002A824F0F0
:101C800087FF68B925F032FA2223036008E09FED50
:101C9000787B8DED087B02A824F07AFF002830D0F5
:101CA0000A9B1BB125F022FA0A9B03609DED087B7D
:101CB0008DED007BDDE900010DB0BDE8F08F204621
:101CC000294624F05FFF0028A3D0002200232046ED
:101CD000294625F0A3FE00289BD099F90030684AD8
:101CE000CDF828B00121CDE90467CDE90645029180
:101CF0000392002BCBD063490020022BCDE90801D1
:101D0000C9D125F0F3F921230360C9E7002200239C
:101D10002046294625F078FE00283FF47AAF5A4B3A
:101D20005749CDF828B000220120B8F1020FCDE9C3
:101D300004670290CDE90645CDE908230391AAD1B5
:101D4000CDE9002365E73046394624F01BFF002823
:101D50003FF46CAF2046294624F014FF00283FF4DE
:101D600065AFDDE900231046194625F07FFE002807
:101D70005FD1032399F900800293414B0A90CDE98A
:101D80000467CDE906450393B8F1000F2BD1DFF8C6
:101D900008B14FF0604A0022002330463946CDE9B1
:101DA00008AB25F03BFE00283FF468AF0022374B1C
:101DB0002046294625F0C0FB04460D4624F0F0FEDF
:101DC00002460B462046294625F01EFE70BB304BCE
:101DD00099F900804FF06042CDE90823B8F1020F75
:101DE0007FF44CAF4EE7DFF8B4B04FF0000A0022AA
:101DF000002330463946CDE908AB25F00FFE002818
:101E0000ECD00022214B2046294625F095FB0446C4
:101E10000D4624F0C5FE02460B462046294625F015
:101E2000F3FD18B9174B0022CDE9082399F900807A
:101E3000D4E799F90090124BCDF828800122CDE922
:101E40000467CDE9064502920393B9F1000F3FF410
:101E50001EAF002200231046194625F097FCB9F169
:101E6000020FCDE908013FF44CAF14E7AFF3008057
:101E70000000000000000000000000000000F03F33
:101E8000B8BA02000000F0FF0000F03F0000E03FA1
:101E9000FFFFEFC780020020FFFFEF470000F07F49
:101EA0002DE9F84FC44E21F00043B34204460D46DD
:101EB0000DDD03F1404303F58013034340F0B98087
:101EC000002940F3408100200021BDE8F88FBB4E7F
:101ED000B34240F3A6800029C0F2788102460B4647
:101EE0000020B74925F074F90022B64B25F024FBF9
:101EF00004460D4623F04AFC95A3D3E90023894606
:101F000080462946204625F017FB93A3D3E90023FA
:101F100025F060F922462B4625F00EFB90A3D3E96D
:101F2000002325F055F922462B4625F005FB8EA30C
:101F3000D3E9002325F04EF922462B4625F0FCFA82
:101F40008BA3D3E9002325F043F922462B4625F045
:101F5000F3FA89A3D3E9002325F03CF922462B4666
:101F600025F0EAFA86A3D3E9002382468B46204671
:101F7000294625F0E1FA84A3D3E9002325F028F9C6
:101F800022462B4625F0D8FA81A3D3E9002325F079
:101F900021F922462B4625F0CFFA7FA3D3E900236F
:101FA00025F016F922462B4625F0C6FA0022844B6E
:101FB00025F010F902460B465046594625F0E6FB3F
:101FC00042464B4625F0B8FA002682468B463246FA
:101FD0004B463046494625F0AFFA02460B462046AE
:101FE000294625F0F5F8324604460D464B46404654
:101FF000494625F0EFF802460B462046294625F0D3
:10200000C5FB02460B465046594625F0E3F83246DA
:102010004B4625F0DFF802460B4625F0DBF8BDE81D
:10202000F88F694A93420EDC5DA1D1E90001BDE859
:10203000F88F02460B4625F0CBF802460B4625F0FA
:10204000A5FBBDE8F88F02460B4625F075FA40A3C4
:10205000D3E9002306460F4625F06EFA3EA3D3E9E6
:10206000002325F0B7F832463B4625F065FA3CA33D
:10207000D3E9002325F0ACF832463B4625F05CFA64
:1020800039A3D3E9002325F0A5F832463B4625F0D5
:1020900053FA37A3D3E9002325F09AF832463B469A
:1020A00025F04AFA34A3D3E9002325F093F8324609
:1020B0003B4625F041FA32A3D3E900238046894606
:1020C0003046394625F038FA2FA3D3E9002325F00E
:1020D0007FF832463B4625F02FFA2DA3D3E90023A3
:1020E00025F078F832463B4625F026FA2AA3D3E9B4
:1020F000002325F06DF832463B4625F01DFA0022FC
:102100002F4B25F067F802460B464046494625F01E
:102110003DFB22462B4625F00FFA02460B4622A134
:10212000D1E9000125F054F802460B462046294625
:1021300025F04EF802460B4619A1D1E9000125F021
:1021400047F8BDE8F88F1AA1D1E90001BDE8F88F82
:1021500009F7FD0DE13D023F88B20175E0EF493F0F
:102160003B8F68B52882A43F5544880E55C1C93FAE
:102170007D6FEB0312D6D43F555555555555C53F88
:1021800082922EB1C5B8B33F59018D1B6C06E63F54
:10219000C88A599CE52A00404B2D8A1C273A0340E7
:1021A000182D4454FB21F93F075C143326A6913CBB
:1021B000182D4454FB210940FFFFEF3FFFFFDF3F95
:1021C0000000F03F0000E03F0000603C00225C4B5C
:1021D00025F000F800225B4B25F0AEF940A3D3E9CF
:1021E000002304460D4625F0A7F93FA3D3E90023B9
:1021F00024F0F0FF22462B4625F09EF93CA3D3E9BC
:10220000002324F0E5FF22462B4625F095F93AA35A
:10221000D3E9002324F0DEFF22462B4625F08CF97B
:1022200037A3D3E9002324F0D3FF22462B4625F021
:1022300083F935A3D3E9002324F0CCFF22462B46B3
:1022400025F07AF9804689462046294623F09EFAF1
:102250002FA3D3E9002306460F462046294625F042
:102260006BF92DA3D3E9002324F0B2FF22462B46BD
:1022700025F062F92AA3D3E9002324F0ABFF22461C
:102280002B4625F059F928A3D3E9002324F0A0FF19
:1022900022462B4625F050F90022294B24F09AFFC4
:1022A00002460B464046494625F070FA32463B4608
:1022B00025F042F91EA3D3E9002324F089FF32461A
:1022C0003B4624F087FF02460B4624F083FF02467C
:1022D0000B4619A1D1E9000124F07AFFBDE8F88F7F
:1022E00009F7FD0DE13D023F88B20175E0EF493F7E
:1022F0003B8F68B52882A43F5544880E55C1C93F1D
:102300007D6FEB0312D6D43F555555555555C53FF6
:1023100082922EB1C5B8B33F59018D1B6C06E63FC2
:10232000C88A599CE52A00404B2D8A1C273A034055
:10233000075C143326A6913C182D4454FB21094018
:102340000000F03F0000E03F434A91422DE9F8438E
:1023500004460D4639DD414A914209DD02F17952C8
:10236000914240DD02460B4624F034FFBDE8F8837D
:1023700001F1404202F58012024330D0B1F1804FAA
:102380003ADC0022364B24F023FF02460B4604467B
:102390000D4624F01FFF224606460F462B462046D8
:1023A000294625F0C9F802460B463046394624F046
:1023B00011FF23F0EBF90B4602462946204624F094
:1023C00009FFBDE8F843FFF7BFB802460B4624F00B
:1023D000FFFE02460B4625F0D9F9BDE8F883002040
:1023E0000021BDE8F88300F017FE19A3D3E900230C
:1023F00024F0F0FEBDE8F88302460B4625F09CF879
:102400000022174B24F0E4FE23F0C0F92246804658
:1024100089462B462046294624F0DCFE42460646E5
:102420000F464B462046294624F0D4FE02460B4672
:1024300000200B4925F0AAF90B46024639463046E2
:1024400024F0C6FEBDE8F84300F0E6BDAFF300801F
:10245000EF39FAFE422EE63FFFFFEF3FFFFFAF41AD
:102460000000F03F000000002DE9F047BE4B21F0D6
:102470000048984584B004460D4612DD08F14048F6
:1024800008F58018034658EA030321D002460B469C
:1024900024F09EFE02460B4625F078F904B0BDE814
:1024A000F087B24B98458A4629DCB8F1795F80F213
:1024B000658191A3D3E9002324F08CFE0022AC4B6C
:1024C00025F0CAFAD8B12046294604B0BDE8F08705
:1024D0008BA3D3E9002325F02FF88BA3D3E90023A6
:1024E00006460F462046294625F026F802460B46AA
:1024F0003046394624F06EFE04B0BDE8F087204631
:10250000294622F029F802460B460020984924F07B
:102510005FFE0022974B25F00FF87DA3D3E900233F
:1025200004460D4625F008F87BA3D3E9002324F0E8
:1025300051FE22462B4624F0FFFF79A3D3E9002366
:1025400024F046FE22462B4624F0F6FF76A3D3E97C
:10255000002324F03FFE22462B4624F0EDFF74A317
:10256000D3E9002324F034FE22462B4624F0E4FF76
:1025700071A3D3E9002324F02DFE22462B4624F03C
:10258000DBFF6FA3D3E90023CDE9000120462946F4
:1025900024F0D2FF6CA3D3E9002324F019FE2246D5
:1025A0002B4624F0C9FF6AA3D3E9002324F012FECE
:1025B00022462B4624F0C0FF67A3D3E9002324F072
:1025C00007FE22462B4624F0B7FF694B002224F079
:1025D00001FECDE902012046294623F0D7F8664BDB
:1025E000984506460F4666DCDDE90223DDE9000179
:1025F00025F0CCF83246CDE900013B46304639465D
:1026000024F0E8FD02460B46DDE9000124F094FFCA
:102610004FF00008CDE9000142463B4640463946AE
:1026200024F08AFF02460B462046294624F0D0FDBE
:10263000424604460D463B463046394624F0CAFD24
:1026400002460B462046294625F0A0F802460B46D6
:1026500024F0C0FD02460B462BA1D1E9000124F075
:10266000B7FD02460B46DDE9000124F0B1FD42460C
:1026700004460D463B464046394624F0ABFD024633
:102680000B4637A1D1E9000124F0A2FD02460B461A
:102690002046294624F09CFD02460B4630A1D1E994
:1026A000000124F095FDBAF1000F3FF7F7AE01F1FC
:1026B00000431946F2E6DDE90223DDE9000125F0D9
:1026C00065F832463B4624F037FF32463B4624F05D
:1026D00081FD02460B4624F07DFD0BA3D3E90023C8
:1026E00024F076FD02460B4605A1D1E9000124F055
:1026F0006FFDD8E7AFF300809C7500883CE4377E1F
:10270000182D4454FB21F93F075C143326A6913C55
:1027100009F7FD0DE13D023F88B20175E0EF493F49
:102720003B8F68B52882A43F5544880E55C1C93FE8
:102730007D6FEB0312D6D43F555555555555C53FC2
:1027400082922EB1C5B8B33F59018D1B6C06E63F8E
:10275000C88A599CE52A00404B2D8A1C273A034021
:10276000182D4454FB21E93FFFFFEF3FFFFFDF3F00
:102770000000F03F0000E03F3233EF3F02460B46DF
:1027800024F0DAFE37A3D3E9002306460F4624F0EF
:10279000D3FE36A3D3E9002324F01CFD32463B468A
:1027A00024F0CAFE33A3D3E9002324F011FD3246FE
:1027B0003B4624F0C1FE31A3D3E9002324F00AFDF7
:1027C00032463B4624F0B8FE2EA3D3E9002324F082
:1027D000FFFC32463B4624F0AFFE2CA3D3E9002396
:1027E00024F0F8FC32463B4624F0A6FE29A3D3E9A8
:1027F0000023804689463046394624F09DFE27A3B3
:10280000D3E9002324F0E4FC32463B4624F094FE56
:1028100024A3D3E9002324F0DDFC32463B4624F018
:102820008BFE22A3D3E9002324F0D2FC32463B46A0
:1028300024F082FE00220A4B24F0CCFC02460B4618
:102840004046494624F0A2FF22462B4624F074FE5F
:1028500022462B4624F0BEFC04B0BDE8F08700BF42
:102860000000F03F09F7FD0DE13D023F88B2017520
:10287000E0EF493F3B8F68B52882A43F5544880E5E
:1028800055C1C93F7D6FEB0312D6D43F5555555501
:102890005555C53F82922EB1C5B8B33F59018D1B26
:1028A0006C06E63FC88A599CE52A00404B2D8A1CDD
:1028B000273A0340000000002DE9F84F1D4653421F
:1028C000134325F0004ADFF8E0E14AEAD373734589
:1028D000144606460F4647D8C0F1000848EA0008EB
:1028E00021F0004343EAD878F0458B463CD805F107
:1028F000404808F5801858EA020850D04FEAA578F9
:1029000008F0020848EAD17850EA030134D052EACC
:102910000A023CD0F24557D0734538D0A3EB0A03E6
:102920001B153C2B42DC002D70DB22462B4630462B
:10293000394624F02BFF21F00FFEFEF751FBB8F1D2
:10294000010F5FD0B8F1020F4ED0B8F1000F62D086
:1029500043A3D3E9002324F03BFC43A3D3E90023A2
:1029600024F036FCBDE8F88F32463B462046294627
:1029700024F030FCBDE8F88FB8F1020F1AD0B8F19E
:10298000030F10D13AA1D1E90001BDE8F88FBBF1E6
:10299000000F14DB38A1D1E90001BDE8F88FBDE8D4
:1029A000F84FFEF71DBB3946BDE8F88F32A1D1E9DB
:1029B0000001C4E72CA1D1E90001BDE8F88F30A1E6
:1029C000D1E90001BDE8F88F534526D0B8F1020FD8
:1029D000F0D0B8F1030FD5D0B8F1010F4FF00000DF
:1029E00029D00021BDE8F88F1DA3D3E9002324F0EE
:1029F000EFFB02460B461CA1D1E9000124F0E8FBE5
:102A0000BDE8F88F01F10041BDE8F88F3C338CDA66
:102A10000020002193E7BDE8F88FB8F1020F18D02D
:102A2000B8F1030F10D0B8F1010F08D016A1D1E909
:102A30000001BDE8F88F4FF00041BDE8F88F14A108
:102A4000D1E90001BDE8F88F13A1D1E90001BDE88B
:102A5000F88F13A1D1E90001BDE8F88FAFF3008032
:102A6000075C143326A6A13C182D4454FB210940D1
:102A7000182D4454FB2109C0182D4454FB21F93F63
:102A8000182D4454FB21F9BF182D4454FB21E93F74
:102A9000182D4454FB21E9BFD221337F7CD902C0D9
:102AA000D221337F7CD902400000F07F000000007B
:102AB00043422DE9F047034321F000463E4A46EAEF
:102AC000D373934204460D4613D896423DD03B4BF8
:102AD0009E428A4617DC36A3D3E9002324F07AFB12
:102AE0000022002324F0B8FFA8B320462946BDE801
:102AF000F08702460B4624F06BFB02460B4624F09F
:102B000045FEBDE8F0872E4B9E42354624DD334618
:102B10000246314624F05EFB224606460F462B460F
:102B20000020254924F054FB02460B463046394626
:102B300024F02CFEFEF708FD0022224B24F0FCFCC2
:102B4000BAF1000F2FDBBDE8F0870022002324F04C
:102B50001DFEBDE8F087354622462B462046294615
:102B600024F038FB22462B4606460F4624F0E4FCB0
:102B70002246804689462B4600200F4924F028FB38
:102B800002460B464046494624F000FE32463B468C
:102B900024F020FBFEF7D8FC00220A4B24F0CCFCEA
:102BA000BAF1000FCFDA01F100431946BDE8F08712
:102BB0009C7500883CE4377E0000F03FFFFF2F3E0D
:102BC000FFFFDF3F0000E03F2DE9F8434E4B21F0CF
:102BD00000449C4206460F461BDC4C4B9C4222DDC7
:102BE0004B4B9C4263DD4B4B9C427BDD4A4B9C42F2
:102BF00046DD01339C4240D041A3D3E90023104677
:102C0000194624F099FC06460F4630463946BDE881
:102C1000F88302460B4624F08FFC06460F463046EA
:102C20003946BDE8F88321F097FC02F0B1FC0022A0
:102C30003A4B8046894624F0CDFAB4F1725F0646DD
:102C40000F46ECDB42464B464046494624F074FCB6
:102C500032463B4604460D463046394624F0BAFA21
:102C600002460B462046294624F090FD00222B4BBD
:102C700024F0B0FA06460F46D1E7294B9842BBD85C
:102C80003046394621F068FC0022264B24F054FCE3
:102C900000F04AF8002204460D46224B24F04CFC7A
:102CA00022462B4624F048FC06460F46B7E721F0A3
:102CB00053FC00F039F800221A4B06460F4624F068
:102CC0003BFC32463B4604460D460020154924F0A5
:102CD0005DFD02460B462046294624F07BFA064657
:102CE0000F469CE721F038FC00F01EF800220D4B47
:102CF00024F022FC06460F4691E700BFAFF30080A8
:102D00009C7500883CE4377EFFFFEF7F422ED63F64
:102D1000FFFF3540412E8640CD3386400000F03F16
:102D20007DF8B98F0000E03F2DE9F04FB04E21F063
:102D30000042B24283B004460D464FEAD1770DD926
:102D4000AC4EB24225D9C1F31303034340F0EC80EB
:102D50000FB10020002103B0BDE8F08FA64B9A42CE
:102D600000F2CB80A54B9A4200F2DC808AA3D3E923
:102D7000002324F02FFA0022A14B24F06DFE00283E
:102D800000F006812046294600229D4B24F022FABD
:102D9000E1E783A3D3E9002324F05EFE002840F09E
:102DA000C88081A3D3E900232046294624F036FEBB
:102DB0000028CED1934E7EA3D3E9002306EBC706AD
:102DC0002046294624F0B8FBD6E9002324F002FA75
:102DD00024F062FE064624F049FB77A3D3E90023E2
:102DE0008046894624F0A8FB02460B462046294629
:102DF00024F0EEF972A3D3E90023CDE900014046A7
:102E0000494624F099FB82468B4652465B46DDE9F3
:102E1000000124F0DDF904460D4622462B462046EB
:102E2000294624F089FB68A3D3E90023804689461C
:102E300024F082FB66A3D3E9002324F0C9F94246BB
:102E40004B4624F079FB64A3D3E9002324F0C2F9B4
:102E500042464B4624F070FB61A3D3E9002324F0E3
:102E6000B7F942464B4624F067FB5FA3D3E9002342
:102E700024F0B0F942464B4624F05EFB02460B4676
:102E80002046294624F0A4F980468946002E58D0D1
:102E90002046294642464B4624F04EFB4246044615
:102EA0000D464B4600204FF0804124F091F9024638
:102EB0000B462046294624F069FC02460B46504644
:102EC000594624F085F9DDE9002324F081F90B4609
:102ED00002464B49002024F07BF96FF47F739E4239
:102EE00051DA06F57A7601EB065100224FF0B873FD
:102EF00024F022FB03B0BDE8F08F434B9A423FF62B
:102F000059AF424BFC002344D3E9002324F060F97D
:102F10003F4BC7F101062344CDE90001D3E900ABE3
:102F2000F61B72E7002678E702460B4624F052F9BA
:102F300011E719A3D3E900231046194624F0FCFA3F
:102F400009E702460B462046294624F0F5FA0022FE
:102F500006460F464FF080434046494624F038F974
:102F600002460B463046394624F010FC22462B46DA
:102F700024F02EF902460B460020214924F028F9BE
:102F800003B0BDE8F08F01EB065103B0BDE8F08F50
:102F9000064642E7AFF300809C7500883CE4377E2C
:102FA000EF39FAFE422E864051302DD5104987C0A8
:102FB000FE822B654715F73F0000E0FE422EE63FFC
:102FC000763C7935EF39EA3DD0A4BE726937663E6A
:102FD000F16BD2C541BDBB3E2CDE25AF6A56113F19
:102FE00093BDBE166CC1663F3E5555555555C53F00
:102FF000412E8640FFFFEF7F422ED63FFFFF2F3E40
:103000000000F03F90880200B1A2F03FA0880200CB
:10301000B0880200000000002DE9F04FB1F5801FDC
:1030200085B006460F460B465ADA024621F00044A8
:10303000224300F0F8800029C0F27A810022D64BAA
:1030400024F07AFAD54A0B46934206460F466FF0B3
:10305000350C4ADCC3F3130505F5152E0EF6647E18
:103060000EF4801E8EF07F5282F440121C1542EA4C
:103070000507A4F2FF3464440022C94B30463946A8
:1030800004EB1E5424F0A4F8AB1CC3F31303022B6F
:1030900082468B464FF0000230DC002324F0B4FC63
:1030A000002800F0C980002C00F04B81204624F05D
:1030B000DDF9A5A3D3E9002306460F4624F03CFA28
:1030C000A3A3D3E9002304460D463046394624F035
:1030D00033FA02460B462046294624F07BF80AE0E4
:1030E000AE4A93424FF0000CB4DD32463B463046C8
:1030F000394624F06FF805B0BDE8F08F4FF08043FB
:1031000024F068F802460B465046594624F03EFB30
:10311000064620460F4624F0A9F93246CDE90001C3
:103120003B4630463946CDE9026724F005FA0246AF
:103130000B468046894624F0FFF987A3D3E9002394
:1031400006460F4624F0F8F985A3D3E9002324F0BE
:1031500041F832463B4624F0EFF983A3D3E900233C
:1031600024F038F832463B4624F0E6F980A3D3E950
:10317000002324F02FF842464B4624F0DDF97EA3CD
:10318000D3E90023804689463046394624F0D4F9F5
:103190007BA3D3E9002324F01DF832463B4624F0FC
:1031A000CBF979A3D3E9002324F014F832463B4647
:1031B00024F0C2F90B4602464946404624F00AF87C
:1031C000A5F5C223C5F5D725A3F27A4351351D4392
:1031D000002D8046894656DD0022724B50465946E6
:1031E00024F0AAF952465B4624F0A6F906460F469B
:1031F000002C68D132463B464046494623F0EAFF60
:10320000DDE9022324F098F902460B4630463946A0
:1032100023F0DEFF02460B465046594623F0D8FF06
:1032200005B0BDE8F08F0022002300205E4924F0A5
:10323000ADFA05B0BDE8F08F55A3D3E900235046A1
:10324000594624F079F902460B460020554923F0EF
:10325000BFFF524606460F465B465046594624F08D
:103260006BF902460B463046394624F065F90646AE
:103270000F46002C40F09A8002460B4650465946B5
:1032800023F0A6FF37E7002C00F0A4802EA3D3E99B
:103290000023DDE9000124F04FF942464B46044685
:1032A0000D465046594623F093FFDDE9022324F0F2
:1032B00043F927A3D3E9002306460F46DDE90001C1
:1032C00024F03AF921E020A3D3E90023DDE900014D
:1032D00024F032F932463B4604460D464046494604
:1032E00023F078FFDDE9022324F026F918A3D3E9BF
:1032F000002380468946DDE9000124F01DF90246DD
:103300000B464046494623F065FF02460B463046D1
:10331000394623F05DFF52465B4623F059FF0246D3
:103320000B462046294623F053FF05B0BDE8F08F39
:1033300002460B4623F04CFF0022002324F026FA1D
:10334000D9E600200021D6E60000E0FE422EE63F4E
:10335000763C7935EF39EA3D44523EDF12F1C23F07
:10336000DE03CB966446C73F599322942449D23F4B
:10337000935555555555E53F9FC678D0099AC33F9B
:10338000AF788E1DC571CC3F04FA97999999D93FB2
:10339000555555555555D53F00005043FFFFEF7F1C
:1033A0000000F03F0000E03F000050C3204624F042
:1033B0005DF80FA3D3E900238046894624F0BCF8CA
:1033C0000DA3D3E9002304460D464046494624F0A8
:1033D000B3F89AE702460B465046594623F0F8FEEA
:1033E000DDE9022324F0A8F814E700BFAFF3008062
:1033F0000000E0FE422EE63F763C7935EF39EA3DAB
:10340000B1F5801F2DE9F84304460D460B461ADA44
:10341000024621F00046324359D000295FDB0022EA
:103420003B4B24F089F83B4A0D462B469342044619
:103430006FF035010CDD22462B462046294623F04D
:10344000C9FEBDE8F883334A93424FF00001F2DC35
:103450001815A0F2FF3008444FEAD0794844C3F36E
:10346000130824F003F8C9F57F73033348EA0355C2
:1034700006460F4620462946FFF7CEFD1EA3D3E998
:103480000023804689463046394624F055F81CA36F
:10349000D3E9002304460D464046494624F04CF843
:1034A00002460B462046294623F094FE16A3D3E994
:1034B000002304460D463046394624F03DF80246C6
:1034C0000B462046294623F085FEBDE8F8830022FE
:1034D00000230020104924F059F9BDE8F883024682
:1034E0000B4623F075FE0022002324F04FF9BDE8BF
:1034F000F88300BFAFF30080362BF111F3FE593D86
:103500000EE526157BCBDB3F00609F501344D33F75
:1035100000005043FFFFEF7F000050C30000000099
:103520002DE9F04F23F0004757EA020493B037D05B
:10353000674C21F00046A64283460D4629DC9A4698
:10354000964625D0A74224DC614CA74279D0002DB5
:1035500080468946CDE9002377DB0024BEF1000FC9
:103560002CD15B4B9F4200F08B805A4B9F4261D025
:10357000BAF1804F00F0C383574B9A451ED1002DFE
:103580001CDB4046494613B0BDE8F04F22F0FEB8C0
:1035900058B106F1404606F5801656EA0B0306D1EF
:1035A0004C49002013B0BDE8F08FB742CCDD4B484A
:1035B00013B0BDE8F04F23F0EDBA00244046494671
:1035C00020F0CAFFBBF1000F19D126B1414B25F005
:1035D00040429A4213D1BAF1000FC0F2CA83002DC3
:1035E000E0DA06F1404606F5801656EA040300F0DC
:1035F000A584012CD6D101F100431946D2E7ED0F85
:10360000013D54EA05034ED0354B9F426EDD03F178
:1036100004739F4240F3FE83324B9E424EDDBAF16B
:10362000000F4EDD28A3D3E900231046194623F0EE
:1036300083FFB7E7BAF1000FC0F252844046494613
:10364000B0E7BEF1000F82D0A3E7274B9F4228DCF2
:10365000A3F154739F4280DD3B15A3F2FF33142B7B
:1036600040F35484C3F134032EFA03F202FA03F355
:103670009E457FF472AF02F00102C2F102046DE7D1
:1036800006F1404303F5801353EA0B0388D0154B32
:103690009E4240F33B83BAF1000F12DBDDE90001EB
:1036A00080E702245AE742464B461046194623F06B
:1036B0008FFD02460B4624F069F873E7BAF1000F5C
:1036C000B0DB002000216DE79C7500883CE4377E6C
:1036D0000000F07F0000F03F0000E03FE4920200B5
:1036E0000000E041FFFFEF3FFFFF3F43B6F5801FC3
:1036F0004FF0000205DAD84B23F01EFF6FF03402C2
:103700000E463315D54FC6F31306A3F2FF33134409
:1037100046F07F5ABE421A460D934AF4401A40F3CF
:103720002F83CF4B9E4240F30D849FEDB57B8DEDF3
:10373000087B8DED0E7B9FEDB47B13468DED067BF4
:1037400001330D93AAF5801A0027DDE906235146BF
:10375000CDE90A0123F03CFDDDE9062380468946D8
:10376000DDE90A0123F036FD02460B460020BD4983
:1037700024F00CF80A460146CDE9101213464946DA
:103780000246404623F0D8FE4FEA6A0343F0005356
:103790008C46834603F50023CDE904BCDA468B460C
:1037A000D9190023CDE902AB0293DDE902AB002079
:1037B00006460F4602460B465046594623F0BCFECD
:1037C00002460B464046494623F002FDDDE906234A
:1037D000804689463046394623F0FAFC02460B46BD
:1037E000DDE90A0123F0F4FC52465B4623F0A4FE17
:1037F00002460B464046494623F0EAFCDDE9102329
:1038000023F09AFEDDE90467CDE9060132463B4626
:103810003046394623F090FE7DA3D3E900230646C7
:103820000F4623F089FE7CA3D3E9002323F0D2FCCA
:1038300032463B4623F080FE79A3D3E9002323F0F0
:10384000C9FC32463B4623F077FE77A3D3E9002339
:1038500023F0C0FC32463B4623F06EFE74A3D3E94E
:10386000002323F0B7FC32463B4623F065FE72A3EB
:10387000D3E9002323F0AEFC3246804689463B461E
:103880003046394623F058FE02460B46404649462C
:1038900023F052FE524606460F465B46DDE9040120
:1038A00023F098FCDDE9062323F046FE32463B4632
:1038B00023F090FC5246804689465B465046594666
:1038C00023F03AFE0022684BCDE90A0123F082FC86
:1038D00042464B4623F07EFC02980F46064632468F
:1038E0003B465046594623F027FE002282468B462F
:1038F0005D4B3046394623F06BFCDDE90A2323F0AB
:1039000067FC02460B464046494623F061FCDDE970
:10391000042323F011FE3246804689463B46DDE90A
:10392000060123F009FE02460B464046494623F0B5
:1039300051FC8046894602460B4650465946CDE921
:1039400004AB23F047FCDDE902AB3DA3D3E9002340
:1039500050460F4623F0F0FDDDE90423CDE90201D6
:103960003946504623F034FC02460B464046494651
:1039700023F02EFC34A3D3E9002323F0DDFD34A390
:10398000D3E90023804689465046394623F0D4FDCA
:1039900002460B464046494623F01CFCDDE90E2357
:1039A00023F018FC80460D98894623F05FFD4246BF
:1039B00006460F464B46DDE9020123F00BFCDDE92C
:1039C000082323F007FC32463B4623F003FC324633
:1039D0003B4650468B4623F0FBFBDDE9082323F0F2
:1039E000F7FBDDE9022323F0F3FB02460B464046DA
:1039F000494623F0EDFB8046894637E0AFF300806F
:103A00000000000000000000000000000000F03F87
:103A1000EF4E454A287ECA3F65DBC9934A86CD3FB3
:103A200001411DA96074D13F4D268F515555D53F99
:103A3000FFAB6FDBB66DDB3F033333333333E33F31
:103A4000000000E009C7EE3FFD033ADC09C7EE3F86
:103A5000F5015B14E02F3EBE000040438E9803004A
:103A600079B60B000000F03F00000840013C54EA2A
:103A7000050300F079819FEDC87B8DED047BDDE9C6
:103A800000120B461446CDE9023400230293DDE90F
:103A9000024508462B461146224623F099FB524622
:103AA0005B4623F049FDDDE9002306460F4640460C
:103AB000494623F041FD02460B463046394623F085
:103AC00089FB2246804689462B4650465946CDE919
:103AD000008923F031FD0B46024606460F4640465C
:103AE000494623F077FBC64B994204460D468A4669
:103AF00040F3168101F13F4303F5E003034340F037
:103B0000F781A7A3D3E90023DDE9000123F062FBDD
:103B10003246804689463B462046294623F058FBDC
:103B200002460B464046494623F096FF002840F0E7
:103B3000DF81A8464FEA28534FF48012A3F2FE33E8
:103B400042FA03F35344C3F30A52AE4DA2F2FF32DA
:103B50001541C3F3130423EA05010020C2F1140B3D
:103B600044F48014BAF1000F02460B4644FA0BFBF2
:103B700030463946B8BFCBF1000B23F029FB024693
:103B80000B4606460F46DDE9000123F023FB4FEA12
:103B90000B5A0D46002484A3D3E90023204629466E
:103BA00023F0CAFC3246804689463B4620462946D9
:103BB00023F00EFB02460B46DDE9000123F008FB73
:103BC0007BA3D3E9002323F0B7FC7BA3D3E9002335
:103BD00006460F462046294623F0AEFC02460B4619
:103BE0003046394623F0F6FA06460F4602460B46A3
:103BF0004046494623F0EEFA42464B4604460D46FF
:103C000023F0E6FA02460B463046394623F0E0FA46
:103C10002246804689462B462046294623F08CFCC6
:103C200067A3D3E9002306460F4623F085FC66A36D
:103C3000D3E9002323F0CCFA32463B4623F07CFC48
:103C400063A3D3E9002323F0C5FA32463B4623F0B1
:103C500073FC61A3D3E9002323F0BAFA32463B4652
:103C600023F06AFC5EA3D3E9002323F0B3FA3246C3
:103C70003B4623F061FC02460B462046294623F0D2
:103C8000A7FA06460F4602460B462046294623F071
:103C900053FC0022CDE900014FF080433046394605
:103CA00023F096FA02460B46DDE9000123F06EFD93
:103CB000424606460F464B462046294623F03CFC2A
:103CC00042464B4623F086FA02460B4630463946BA
:103CD00023F07EFA22462B4623F07AFA02460B4660
:103CE0000020494923F074FA8A44BAF5801FC0F2D3
:103CF00039815146DDE9042323F01EFC52E442469B
:103D00004B464046494623F017FC4BE4BAF1000FFE
:103D1000BFF6D7ACDDE90034184604F1004141E4B8
:103D20003A4B21F00048984540F3FF80384B0B4454
:103D300003430CD132463B4623F04AFA02460B4677
:103D4000DDE9000123F074FE00283FF4F3AEDDE965
:103D5000040125A3D3E9002323F0EEFB22A3D3E93A
:103D6000002323F0E9FB1DE49FED217B8DED047B17
:103D700085E602460B460020234923F007FD2EE48A
:103D80009FED1D7B8DED087B8DED0E7B9FED027B06
:103D900000278DED067BD8E4000000000000F03F16
:103DA000FE822B654715973C00000000432EE63F3E
:103DB000EF39FAFE422EE63F396CA80C615C20BE5A
:103DC000D0A4BE726937663EF16BD2C541BDBB3E21
:103DD0002CDE25AF6A56113F93BDBE166CC1663FFF
:103DE0003E5555555555C53F59F3F8C21F6EA501AF
:103DF000000000000000F0BF000000000000000014
:103E0000FFFF8F40FFFF0F000000F03FFFCB90400F
:103E100000346F3F684B9E427FF750AC674B9E4229
:103E20003FF7FDAB0022654B23F0D2F952A3D3E953
:103E3000002306460F4623F07FFB51A3D3E900235E
:103E4000804689463046394623F076FB002282467A
:103E50008B465B4B3046394623F06EFB02460B46E1
:103E600049A1D1E9000123F0B3F932463B4623F0E2
:103E700063FB02460B460020524923F0A9F9324663
:103E8000CDE902013B463046394623F055FB024658
:103E90000B46DDE9020123F04FFB3DA3D3E90023EC
:103EA00023F04AFB02460B465046594623F090F950
:103EB00002460B4606460F464046494623F08AF91D
:103EC00042464B46002082468B4623F081F902464B
:103ED0000B463046394623F07BF980468946C5E5D6
:103EE00042464B460020354923F050FCFFF75ABBB1
:103EF000DDE9040128A3D3E9002323F01DFB26A359
:103F0000D3E9002323F018FBFFF74CBBBEF1000FF1
:103F10007FF453ABC3F1140347FA03F202FA03F33D
:103F20009F4223D07446FFF720BB264B98453FF7AE
:103F300001AEDDE90223924693462BE602460B468C
:103F4000FFF7B3BB9FED167B8DED087B9FED167BD6
:103F50008DED0E7B9FED167B4FF480278DED067B5C
:103F6000FFF7F3BB5A4601F04FFDC3E602F0010232
:103F7000C2F10204FFF7F9BA000000604715F73FED
:103F800044DF5DF80BAE543E555555555555D53F5C
:103F9000FE822B654715F73F9C7500883CE4377E11
:103FA0000000004003B8E23F06D0CF43EBFD4C3E9B
:103FB000000000000000F83FFEFFEF3F0000F03F70
:103FC0000000D03F0000E03F2DE9F0479C4B21F07E
:103FD00000479F4290B08046894640F38E80994BBF
:103FE0009F420C46924626DC00298BA3D3E900238E
:103FF00040F3B08123F0ECF8934B9F4204460D460A
:1040000000F0908086A3D3E9002323F0E1F8024674
:104010000B46CAE900232046294623F0D9F880A39D
:10402000D3E9002323F0D4F80125CAE90201284688
:1040300010B0BDE8F087854B9F4240F39080844BE1
:104040009F4265DC3D15A5F21645A7EB05531946C1
:104050001F46064623F020FD23F008FA80468946D5
:1040600042464B4630463946CDE90A8923F0B0F83E
:104070000022784B23F060FA8946804623F00CFD3D
:1040800023F0F4F906460F4632463B464046494681
:10409000CDE90C6723F09CF800226E4B23F04CFA1C
:1040A00000220023CDE90E0123F0AEFC002800F031
:1040B0006F81002330463946002223F0A5FC0028FA
:1040C00014BF01230223644A019202212A4600916F
:1040D0000AA8514600F08CFB002C054614DADAF8E9
:1040E0000420DAF80C3002F1004203F100434542AB
:1040F000CAF80420CAF80C3006E000200021C2E90A
:104100000089C2E902010025284610B0BDE8F08709
:1041100002460B4623F05CF80025CAE90201CAE911
:104120000001F1E740A3D3E9002323F051F840A3B5
:10413000D3E900230D46044623F04AF802460B4615
:10414000CAE900232946204623F042F838A3D3E9E0
:10415000002323F03DF80125CAE90201D4E720F04D
:10416000FBF935A3D3E900238046894623F0E4F91F
:1041700000223A4B23F02EF823F08EFC054623F064
:1041800075F925A3D3E90023CDE9060123F0D4F97D
:1041900002460B464046494623F01AF820A3D3E9CD
:1041A0000023CDE90201DDE9060123F0C5F91F2D49
:1041B00080468946CDE9048954DC294B6A1E53F8B0
:1041C00022309F424ED002460B46DDE9020122F02A
:1041D000FFFF80468946CAE9008942464B46DDE931
:1041E000020122F0F5FFDDE9042322F0F1FF002CAB
:1041F000CAE9020188DA09F1004401F100436D4285
:10420000CAF80080CAF80440CAF80800CAF80C309E
:104210007AE700BFAFF3008000004054FB21F93F74
:104220003163621A61B4D03D0000601A61B4D03DC0
:104230007370032E8A19A33B83C8C96D305FE43FB6
:10424000FB21E93F7BD90240FB21F93FFB213941AA
:10425000FFFFEF7F0000704164BB02000000E03F01
:10426000E4BA0200DDE90423DDE9020122F0B0FF37
:104270003F15C1F30A53FB1A80468946102BCAE941
:104280000089AADD58A3D3E90023DDE9060123F064
:1042900053F98046894602460B46DDE9020122F0C9
:1042A00097FF02460B46DDE90201CDE9082322F023
:1042B0008FFF42464B4622F08BFF4DA3D3E90023EC
:1042C00080468946DDE9060123F036F942464B4631
:1042D00022F07EFF0B46CDE904010246DDE908012C
:1042E00022F076FFC1F30A53FF1A80468946312F28
:1042F000CAE900896CDD41A3D3E90023DDE90601A9
:1043000023F01AF9DDE9088906460F4602460B46F6
:104310004046494622F05CFF02460B46404649466D
:10432000CDE9022322F054FF32463B4622F050FFF3
:1043300034A3D3E9002306460F46DDE9060123F046
:10434000FBF832463B4622F043FF02460B46CDE9DE
:1043500004233AE722F03EFF274B9F4204460D46D6
:1043600018D01FA3D3E9002322F034FF02460B46E6
:10437000CAE900232946204622F02AFF18A3D3E9E0
:10438000002322F027FF4FF0FF35CAE90201BBE608
:10439000032398E614A3D3E9002322F01BFF14A300
:1043A000D3E900230D46044622F014FF02460B46D3
:1043B000CAE900232946204622F00AFF0CA3D3E9CC
:1043C000002322F007FF4FF0FF35CAE902019BE608
:1043D0009DED087B8DED027BFFE600BFAFF3008013
:1043E0003163621A61B4D03D0000601A61B4D03DFF
:1043F0007370032E8A19A33BFB21F93F0000002EA6
:104400008A19A33BC14920259A837B39000000000B
:10441000594A2DE9F84F21F00048904506460F46CD
:104420002BDC564B0029B4BF554D564D98454FF0E7
:10443000000410DC544B984570DC4DA3D3E90023F5
:1044400022F0C8FE0022514B23F006FBD8B13046C3
:104450003946BDE8F88F4E4B98457CDD4D4B98456D
:1044600044DD013398453ED03046394640A3D3E978
:10447000002323F061F8BDE8F88F02460B4622F0D6
:10448000A9FEBDE8F88F3046394620F065F801F006
:104490007FF806460F4632463B463046394622F004
:1044A00099FE324682468B463B463046394623F0DB
:1044B00043F8002280468946344B3046394622F084
:1044C00089FE02460B464046494623F05FF9024604
:1044D0000B465046594622F07BFE22462B4623F0DF
:1044E0002BF8BDE8F88F2C4B9842BDD830463946A2
:1044F00020F032F80022234B23F01EF8FEF714FCC4
:1045000006460F4602460B462046294623F014F87D
:1045100032463B4623F010F8BDE8F88F20F01CF837
:1045200001F036F81D4B984506460F46B3DD0022D4
:10453000164B22F04FFE02460B463046394623F01A
:1045400025F932463B4622F045FE22462B4622F014
:10455000F3FFBDE8F88F1FF0FFFFFEF7E5FB024613
:104560000B462046294622F0E7FFBDE8F88F00BF42
:104570003374AC3C1F7BAC7FFFFFEF7FFFFF354008
:104580000000E0BF0000E03FFFFF2F3E0000F03FD3
:10459000412E8640CD3386407DF8B98FFFFFEF3F37
:1045A0002DE9F04F21F00048B8F1795F85B006465B
:1045B0000F4692469B466BDA23F06EFA002800F015
:1045C000EA8032463B463046394622F0B5FF74A3B6
:1045D000D3E9002304460D4622F0AEFF72A3D3E9CF
:1045E000002322F0F7FD22462B4622F0A5FF70A300
:1045F000D3E9002322F0ECFD22462B4622F09CFF5B
:104600006DA3D3E9002322F0E5FD22462B4622F0DC
:1046100093FF6BA3D3E9002322F0DAFD22462B4659
:1046200022F08AFF68A3D3E9002322F0D3FD2246BB
:104630002B4622F081FFCDE900010022664B204687
:10464000294622F079FFDDE900238046894620468D
:10465000294622F071FF524604460D465B4630461D
:10466000394622F069FF02460B462046294622F0D1
:10467000AFFD02460B464046494622F0A9FD0246E0
:104680000B460020554922F0A3FD05B0BDE8F08F90
:1046900002460B4622F050FF41A3D3E90023044613
:1046A0000D4622F049FF40A3D3E9002322F092FDFA
:1046B00022462B4622F040FF3DA3D3E9002322F0FF
:1046C00087FD22462B4622F037FF3BA3D3E9002388
:1046D00022F080FD22462B4622F02EFF38A3D3E99C
:1046E000002322F075FD22462B4622F025FF36A33B
:1046F000D3E9002322F06EFD2B46224622F01CFF58
:10470000374B9845CDE9000197DD364B984539DCAC
:10471000A8F500130022002030499046994622F067
:1047200057FDCDE9020100222B4B2046294622F0FD
:1047300003FF42464B4622F04BFDDDE90023804655
:1047400089462046294622F0F7FE524604460D4689
:104750005B463046394622F0EFFE02460B462046C5
:10476000294622F035FD02460B464046494622F0D6
:104770002FFD02460B46DDE9020122F029FD05B0BE
:10478000BDE8F08F9FED127B4FF000088DED027BAE
:10479000DFF85490C7E71149002005B0BDE8F08F5D
:1047A000D43888BEE9FAA8BDC4B1B4BD9EEE213E9E
:1047B000AD529C804F7E923E9015CB19A001FA3EDF
:1047C0007751C1166CC1563F4C5555555555A53FAF
:1047D000000000000000E73F0000E03F0000F03F65
:1047E0003233D33F0000E93F0000D23F0000000019
:1047F0002DE9F04FADF51B7D9F4CA49E9F4D54F8C5
:10480000264007942646D41E85FB0475E417C4EBA6
:10481000A50424EAE4741D460A93631CA3EB8303F6
:10482000013D02EBC30306932B460B940395651BD6
:10483000F418049008911AD42C440026002701345F
:104840000DF18808DDF8949208E059F8250022F06F
:104850000DFE0135A542E8E8020108D0002DF4DA8A
:10486000013530463946A542E8E80201F6D1079BFA
:10487000002BC0F2DF83079B03F1010B0A9B22A9E7
:10488000DB001A4601EB03090093049B0DF5E47A63
:1048900019460AEBCB0B01EB0208039B002BC0F27D
:1048A000F582049C4D460026002775E90223F4E8B2
:1048B000020122F041FE02460B463046394622F004
:1048C00089FC444506460F46EFD1EAE80267DA451F
:1048D00009F10809E1D107990098049C009101F1C0
:1048E0008043013B9B0020441A1F83460EA80244CC
:1048F00003440C920D93009A9AA901EBC203002A7B
:1049000053E9284529DD0DF5E47A0AEBC2080DF1DB
:10491000340900225A4B2046294622F00DFE23F08E
:10492000BBF822F0A3FD0022564B06460F4622F0AC
:1049300003FE02460B462046294622F049FC23F09E
:10494000ABF878E9022349F8040F3946304622F0E3
:1049500041FCD04504460D46DBD1DDF818902046D9
:1049600029464A4601F050F800224FF07F53044692
:104970000D4622F0E1FDFCF75FFD0022424B22F0E4
:10498000DBFD02460B462046294622F021FC0D465F
:10499000044623F081F8804622F068FD0B4602466B
:1049A0002946204622F014FC4B46002B06460F46B3
:1049B00040F3F980009A0EA9013AC9F1180351F8A1
:1049C000225045FA03F101FA03F30EA8EB1A40F85E
:1049D0002230C9F11705884443FA05F5002D6DDD35
:1049E000009B002B08F1010840F36F820E9C002C05
:1049F00040F01683009B012B40F38F820EAA012307
:104A000052F8044F002C00F08382581C0EAAC4F107
:104A1000807442F82340009A824219DD0EAA0EAC3F
:104A200052F820106FF07F42511A44F8201000997C
:104A3000023399420CDD1046009A0EA901EB830364
:104A400001EB82011A68821A43F8042B8B42F9D1D8
:104A5000069B002B1ADD069B012B4FF0010440F052
:104A60003C82009B5A1E0EAB0EA953F82230C3F3B2
:104A7000160341F822303CE204C00200ABAAAA2A85
:104A80000000703E0000704100002040022D15D152
:104A900032463B460020924922F09AFB06460F46DA
:104AA000069A8F49002000F0AFFF02460B463046C1
:104AB000394622F08DFB022506460F4600220023D0
:104AC0003046394622F0A0FF002800F03782009AD5
:104AD000079B501E83420FDC02F18043013B0EAA6C
:104AE0000D9C02EB8303002253F80419A34242EA0F
:104AF0000102F9D1002A67D1079B0EAA013B52F8A7
:104B00002330002B40F018820C9A012352F804192C
:104B100001330029FAD0009AD31802F1010A9A450C
:104B200009933DDC009B0A990B9A0B4409990AEB07
:104B30000208994622AB08F1804803EBC9098B189B
:104B4000A59A08F1FF3802EB880872AA02EBCA0A9C
:104B5000A59A02EB8303009358F8040F22F086FC19
:104B6000039B002BE9E802014FF000064FF000071D
:104B700011DB049C4D4675E90223F4E8020122F0A2
:104B8000DBFC02460B463046394622F023FB5C45EF
:104B900006460F46EFD1009B9845EAE80267DBD155
:104BA000099B0093A7E606D1009B0EAA013B52F891
:104BB0002350ED1512E700224A4B22F043FF002854
:104BC00040F06E81054679E70EA9039551F8203033
:104BD0000699CDF8248018390246009006916BB9E9
:104BE00000F18043013B0EA800EB830353F8040956
:104BF000013A18390028F9D000920691069A3849EE
:104C0000002000F001FF009B002B04460D46C0F27F
:104C1000F781DA0072A901EB020B06920EAA02EBF1
:104C20008306DFF8C4904FF000080BF10807043644
:104C300056F8040D22F01AFC22462B4622F07CFC8A
:104C40004B4667E9020142462046294622F074FCA1
:104C50000EAB9E4204460D46EAD14AACDDF81C90EC
:104C600004944FF0000AB9F1000FC0F22B81DFF875
:104C70007C805D4618A1D1E90001002600270024B0
:104C800003E0544510DCF8E80201F5E8022322F0C5
:104C900053FC02460B463046394622F09BFA01345B
:104CA000A14506460F46ECDA049B03EBCA03ABF1C1
:104CB000080BC3E9006770AB9B450AF1010AD2D12A
:104CC000A49B049C032B00F28980DFE803F0C58ECF
:104CD0008E1100BFAFF3008000000040FB21F93FC0
:104CE0000000F03F0000E03F0000703ED888020066
:104CF000009B002B40F38181069A04EB020ADAE95B
:104D0000008902F1080525440DF5987B1AED027B18
:104D100042464B4651EC170B8DED047B22F05AFABC
:104D200006460F4602460B46DDE9040122F050FA22
:104D300042464B4622F04EFA65E902015D45B04617
:104D4000B9466AE90267E1D1009B012B40F3558126
:104D5000069BE518D5E9008903F1080B04EB0B0A63
:104D600015ED027B42464B4651EC170B8DED007B57
:104D700022F030FA06460F4602460B46DDE90001F6
:104D800022F026FA4B46424622F024FA6AE9020152
:104D90004EAB5345B046B94665E90267E0D1002005
:104DA000002104EB0B0575E9022322F013FAAA4552
:104DB000F9D1039B002B00F00A816268E368089F29
:104DC0002568A4683D6002F1004203F1004301F14F
:104DD00000417A60FB60BC6038617961099B03F037
:104DE00007000DF51B7DBDE8F08F069D08352544B5
:104DF0000020002175E9022322F0ECF9A542F9D147
:104E0000039B002B00F0D280089E024601F1004374
:104E100086E80C000B460246D4E9000122F0D8F9DE
:104E2000009B002B0BDD4CAD0124F5E8022322F0A2
:104E3000D1F9009B0134A342F7DA039B13B101F1CE
:104E400000431946089BC3E90201099B03F00700D0
:104E50000DF51B7DBDE8F08F069D08350020002173
:104E6000254475E9022322F0B5F9AC42F9D1039B40
:104E700013B101F100431946089BC3E90001099BE6
:104E800003F007000DF51B7DBDE8F08F002600271D
:104E9000EAE80267DA4509F108097FF4FEAC1AE591
:104EA000009B002B08F10108C8BF02253FF79EAD0B
:104EB00032463B460020614922F08AF90225064627
:104EC0000F46FBE500260027EEE6069B002B27DDBC
:104ED0000024069B012B3FF4C4AD022B09D1009B9B
:104EE0005A1E0EAB0EA953F82230C3F3150341F836
:104EF0002230022D7FF4E2AD32463B4600204F497E
:104F000022F066F906460F46002C3FF4D7ADC7E500
:104F10000099013399427FF473AD069B002BD8DCD6
:104F2000022D7FF4CBAD32463B460020434922F0B0
:104F30004FF906460F46C1E50123ECE53946069FC9
:104F400003957A423046CDF8248000F05DFD0022C2
:104F50003B4B04460D4622F075FD002843D000224D
:104F6000384B2046294622F0E7FA22F095FD064606
:104F700022F07CFA0022324B22F0DEFA02460B4687
:104F80002046294622F024F922F086FD00990B469E
:104F900001331A4600933B46183306930B460EA97D
:104FA00041F82300134641F8236027E6089B024698
:104FB000C3E900010B46D4E9000122F009F9009B86
:104FC000002B3FF730AF089BC3E902013DE7D4E96E
:104FD0000067D4E90223089DC5E90401C5E900671B
:104FE000C5E90223FAE62946204622F055FD009A3B
:104FF0000EA941F8220001E64AAC00200021D8E6C3
:10500000A49B032B3FF6EAAE01A252F823F000BFA7
:105010002F5000002750000027500000F94F0000DB
:1050200001200023F2E4002000214AACE8E6002041
:1050300000211CE70A9BDB0000934CE40000F03FDA
:10504000000070410000703E2DE9F04F21F0004655
:10505000B6F1795F85B004460D469046994604DA6C
:1050600022F01AFD002800F0858022462B462046BB
:10507000294622F061FA06460F4602460B462046B4
:10508000294622F059FA41A3D3E9002382468B46F0
:105090003046394622F050FA3EA3D3E9002322F0ED
:1050A00097F832463B4622F047FA3CA3D3E9002367
:1050B00022F090F832463B4622F03EFA39A3D3E97B
:1050C000002322F085F832463B4622F035FA37A31A
:1050D000D3E9002322F07EF80E9BCDE900019BB3BB
:1050E0000022294B4046494622F026FADDE90023FA
:1050F000CDE902015046594622F01EFA02460B46FF
:10510000DDE9020122F064F832463B4622F014FA4F
:1051100042464B4622F05CF819A3D3E90023064629
:105120000F465046594622F007FA02460B463046D3
:10513000394622F04FF802460B462046294622F017
:1051400047F805B0BDE8F08F02460B4630463946B9
:1051500022F0F2F90AA3D3E9002322F039F85246EB
:105160005B4622F0E9F922462B4622F033F805B0DF
:10517000BDE8F08F2046294605B0BDE8F08F00BF9E
:10518000495555555555C53F0000E03F7CD5CF5A90
:105190003AD9E53DEB9C2B8AE6E55A3E7DFEB157B8
:1051A000E31DC73ED561C119A0012A3FA6F8101121
:1051B0001111813F000000002DE9F04FBE4C21F09D
:1051C000004687B0A64282468B460F46CDE90023B3
:1051D0001BDC22F061FC002837D153461E43109B94
:1051E0000133334300F0B381109B012B00F0C881E1
:1051F00052465B460020B14922F0C8FA04460D46EB
:105200002046294607B0BDE8F08FAD4B9E421CDD1D
:105210000029C0F2A98152465B4687A1D1E900016D
:1052200021F0D6FFDDE9002304460D4684A1D1E933
:10523000000121F0CDFF9FED847B22462B468DEDB2
:10524000007B21F0C7FF82468B4652465B465046A4
:10525000594622F071F902460B468046894622F0F3
:105260006BF9424604460D464B465046594622F0DD
:1052700063F977A3D3E90023CDE90201204629464B
:1052800022F05AF974A3D3E9002321F0A3FF2246A8
:105290002B4622F051F972A3D3E9002321F09AFFA3
:1052A00022462B4622F048F96FA3D3E9002321F0D0
:1052B00091FF22462B4622F03FF96DA3D3E900234C
:1052C00021F088FF22462B4622F036F96AA3D3E963
:1052D000002321F07FFF42464B4622F02DF968A3C0
:1052E000D3E90023CDE904012046294622F024F920
:1052F00065A3D3E9002321F06DFF22462B4622F05F
:105300001BF963A3D3E9002321F064FF22462B4657
:1053100022F012F960A3D3E9002321F05BFF2246BB
:105320002B4622F009F95EA3D3E9002321F052FFB6
:1053300022462B4622F000F95BA3D3E9002321F09B
:1053400049FF02460B46DDE9040121F043FFDDE998
:10535000022322F0F1F8DDE9004522462B4621F038
:1053600039FF42464B4622F0E7F802460B462046FC
:10537000294621F02FFF4EA3D3E9002304460D4612
:10538000DDE9020122F0D8F822462B4621F022FF67
:105390000B460246804689465046594621F01AFF80
:1053A000474B9E4204460D4600F38E80109B012B16
:1053B0003BD002460B460020404922F0E7F900248A
:1053C00006460F462046294652465B46CDE9006711
:1053D000CDE90201009421F0FBFEDDE900AB0246BD
:1053E0000B464046494621F0F3FE52465B4622F00A
:1053F000A3F8524604460D465B46DDE9020122F061
:105400009BF800222F4B21F0E5FE02460B4620467A
:10541000294621F0DFFE32463B4622F08DF8524607
:105420005B4621F0D7FE04460D462046294607B0CC
:10543000BDE8F08FAFF30080182D4454FB21E93F05
:10544000075C143326A6813C000000000000000029
:10545000D47ABF74702AFB3EE9A7F0320FB8123F2E
:1054600068108D1AF726303F1583E0FEC8DB573FE2
:1054700093846EE9E326823FFE41B31BBAA1AB3FA2
:10548000735360DBCB75F3BEA69237A0887E143FC2
:105490000165F2F2D844433F280356C9226D6D3F9F
:1054A00037D60684F464963F7AFE10111111C13F7D
:1054B000635555555555D53FFFFF2F3E0000F0BFB2
:1054C0002794E53F0000F03F109821F0CFFF2246DF
:1054D000CDE900012B462046294622F02DF8DDE9D2
:1054E0000023CDE902012046294621F073FE024641
:1054F0000B46DDE9020122F049F942464B4621F014
:1055000067FE02460B465046594621F061FE0246B0
:105510000B4621F05FFE02460B46DDE9000121F05B
:1055200057FE0446B81700F00200C0F101000D4616
:1055300021F09CFF02460B462046294621F0FCFF45
:1055400004460D462046294607B0BDE8F08F504678
:1055500059461FF001F802460B4600200A4922F086
:1055600015F904460D4660E7DDE9004501F100410B
:10557000224605F1004382468B46CDE900234AE6E8
:1055800054465D4651E700BF0000F03F00000000B8
:105590002DE9F04FD24A21F00043934285B0824674
:1055A0008B460C462DD9CF4A93421AD8002C80F254
:1055B0001681B5A3D3E900235046594621F00AFECF
:1055C0000022002322F02AFAC0B9B1A3D3E90023B4
:1055D0005046594621F0B0FF02460B460020C24912
:1055E00008E1C24A934240F2D0800346C1F313025D
:1055F000134340F0F481002980F2C4800020BC49AC
:10560000C0E0BC4A934200F22981BB4A934240F277
:10561000DE80002301930022B84B5046594621F00A
:105620008BFF06460F4602460B465046594621F070
:1056300083FF99A3D3E9002304460D4621F07CFFA4
:1056400097A3D3E9002321F0C5FD22462B4621F084
:1056500073FF95A3D3E9002321F0BAFD22462B4620
:1056600021F06AFF92A3D3E9002321F0B3FD224683
:105670002B4621F061FF90A3D3E9002321F0A8FD80
:1056800022462B4621F058FF00229D4B21F0A2FD1F
:105690008046894602460B463046394621F04CFF8B
:1056A00002460B460020974921F092FD064602462D
:1056B0000B460F464046494621F08AFD3246804659
:1056C00089463B465046594621F036FF02460B4676
:1056D00000208D4921F07CFD02460B46404649469C
:1056E00022F054F822462B4621F026FF019E024666
:1056F0000B46002E38D0DDE9026732463B4621F0EA
:1057000067FD52465B4621F017FF32463B4621F0CB
:105710005FFD2B46224621F05BFD019B01330646CF
:105720000F4600F00F81019B012B00F0F180019BDF
:105730000133392B39D8019B132B40F31281019C83
:10574000C4F57F75033500222B0521F043FD024689
:105750000B465046594621F03BFD0022684B21F094
:1057600039FD01EB04510DE05046594621F0E4FEAD
:1057700022462B4621F02CFD02460B465046594648
:1057800021F026FD05B0BDE8F08F4DA3D3E900233D
:1057900022F062F900283FF409AF4BA3D3E90023BC
:1057A0001046194621F0C8FEECE752465B4621F050
:1057B0000FFD02460B460020514921F009FD019AD8
:1057C0004F4B01EB0251002221F002FDDAE73EA32C
:1057D000D3E9002321F0FEFC02460B46CAE72CA3C6
:1057E000D3E900235046594621F0A6FE0B46434913
:1057F0000246002021F0EEFC22F04EF9019021F04B
:1058000035FE33A3D3E9002306460F4621F094FE6C
:1058100002460B465046594621F0DAFC2EA3D3E946
:105820000023804689463046394621F085FE0646EB
:105830000F4632463B464046494621F0C9FC0246E7
:105840000B4682468B464046494621F0C1FC324613
:105850003B4621F0BDFCCDE90201DCE62B4A934238
:1058600000F2958000291AA3D3E90023C0F2AC808E
:1058700021F0AEFC012380468946019316A7D7E9A3
:105880000067D6E7AFF3008059F3F8C21F6EA50199
:10589000FE822B654715F73F2DC3096EB7FD8ABE03
:1058A0003952E686CACFD03EB7DBAA9E19CE143F46
:1058B0008555FE19A0015A3FF41011111111A13F95
:1058C000EF39FAFE422E86409C7500883CE4377E14
:1058D0000000E0FE422EE63F763C7935EF39EA3DA6
:1058E00079684340412E86400000E0BFFFFFEF7F14
:1058F0000000F0BF422ED63FFFFF8F3C0000E03F8C
:105900000000F03F0000084000001840B1A2F03F46
:105910000022394B5046594622F080F8002844D0E6
:10592000504659460022354B21F054FC02460B46A6
:105930003046394621F04CFC00224FF0404321F024
:10594000FBFD1FE702460B465046594621F040FC3E
:1059500000222A4B21F0F0FD0022284B21F038FCD8
:1059600010E7019C4FF400132341C3F17F575246C7
:105970005B4621F02DFC002607F5401702460B463A
:105980003046394621F024FC01EB0451FAE616A317
:10599000D3E9002321F0D0FD002C02460B464FF046
:1059A0000000FFF61CAE154924E732463B46504640
:1059B000594621F00DFC02460B4621F00BFC00225B
:1059C0000F4B21F007FCDDE621F004FC4FF0FF3324
:1059D00080468946019306A7D7E9006729E7024672
:1059E0000B4621F0F7FBCDE6FE822B654715F73F0E
:1059F000763C7935EF39EABD0000D0BF0000E03FCA
:105A00000000F03F00000000F8B5C1F30A5604465C
:105A10000D460B4617460EBB21F000430343864656
:105A200025D00022344B21F087FD344A97420446AA
:105A30000D460B462ADBC1F30A56363E3E4440F281
:105A4000FE72964228DC002E12DD23F0FF4323F481
:105A5000E00343EA065520462946F8BD40F2FF72AE
:105A60009642EBD102460B4621F0B4FBF8BDF8BDDF
:105A700016F1350F1DDA4CF250339F4222462B4669
:105A800025DC19A1D1E9000121F014FB16A3D3E90B
:105A9000002321F051FDF8BD22462B4614A1D1E987
:105AA000000121F007FB12A3D3E9002321F044FDFC
:105AB000F8BD23F0FF4323F4E003363643EA0655EE
:105AC0002046294600220E4B21F036FDF8BD08A1E4
:105AD000D1E9000121F0EEFA05A3D3E9002321F07A
