:10000000000002207DD20100A5D20100A7D201008C
:10001000A9D20100ABD20100ADD201000000000066
:10002000000000000000000000000000AFD201004E
:10003000B1D2010000000000B3D20100B5D201002E
:10004000B7D20100711301001DD10100E1D0010000
:10005000F5D00100B7D2010075B401003DA3010045
:100060003DC7010045C701004DC70100B7D20100DF
:10007000FD9C0000B7D20100B7D20100B7D2010049
:10008000B7D20100B7D20100B7D20100B7D2010048
:10009000B7D20100B7D20100B7D20100B7D2010038
:1000A000B7D20100B7D2010055C701005DC70100FA
:1000B000B7D20100B7D2010000000000000000002C
:1000C000B7D20100B7D20100B7D2010009D10100B7
:1000D000B7D20100B7D20100B7D20100B7D20100F8
:1000E00045D10100000000000000000000000000F9
:1000F00000000000B7D201000000000031D1010073
:1001000000000000000000000000000000000000EF
:1001100000000000000000000000000000000000DF
:1001200000000000000000000000000000000000CF
:1001300000000000000000000000000000000000BF
:1001400000000000000000000000000000000000AF
:10015000000000000000000000000000000000009F
:10016000000000000000000000000000000000008F
:10017000000000000000000000000000000000007F
:10018000000000000000000000000000000000006F
:10019000000000000000000000000000000000005F
:1001A000000000000000000000000000000000004F
:1001B000000000000000000000000000000000003F
:1001C000000000000000000000000000000000002F
:1001D000000000000000000000000000000000001F
:1001E000000000000000000000000000000000000F
:1001F00000000000000000000000000000000000FF
:100200007CB0EE877CB0EE87FF00FF00FF00FF00B0
:10021000FF00FF00FF00FF00FF00FF00FF00FF00E6
:10022000FF00FF00FF00FF00FF00FF00FF00FF00D6
:10023000FF00FF00FF00FF002DE9F04F85B00391A4
:100240000778A7F10903042B044607F07F0200F1A9
:100250000100F5D9202AF3D02B2F04BF677804467C
:100260002D2F72D09FED427B8DED007B4FF000086B
:100270004FF000098FB34FF0000E4FF0000ADFF887
:1002800000B1754619E027F0A9F880468946304646
:1002900027F03EF842464B4626F0EEFE5246804698
:1002A00089465B46DDE9000135B327F0C1F9CDE9A8
:1002B0000001AE4614F8017F7FB1A7F13006092E88
:1002C00052465B4640464946DDD9C5B92E2F16D168
:1002D00014F8017F0125002FEFD142464B46DDE99E
:1002E000000127F07BF880468946039B404649463B
:1002F0001C6005B0BDE8F08F4FF0010EDAE7BEF1EB
:10030000000F29D042464B46DDE9000127F066F890
:1003100007F0DF07452F80468946E6D10399601C28
:100320000A2226F08DFE16490246002027F0B6FB71
:1003300002460B464046494627F050F8804689461B
:100340004046494605B0BDE8F08F9FED0B7B6778CE
:100350008DED007B013489E7DFF828904FF000082D
:100360004046494605B0BDE8F08F00BFAFF30080BE
:10037000000000000000F03F000000000000F0BF9F
:10038000000024400000F87F2DE9F84F16460023B6
:10039000002204460D4627F093FA002840F09D8085
:1003A000002200232046294627F080FA28B1302277
:1003B000002332707370BDE8F88F2046294624F080
:1003C0006FFC27F0BBFA7BA3D3E9002381462946C3
:1003D000204627F075FA002800F08680B9F1000F5A
:1003E000C0F2BE804A4600206F4927F057FB024604
:1003F0000B462046294627F01BF904460D4666A108
:10040000D1E9000101274FF0000822462B4626F0D3
:10041000E5FF0022654B26F02FFE27F093FB002F0F
:10042000CC464FF0FF3AC1464FF0000840F38580BC
:10043000DFF888E15E4C0122AEF1700945F6F32544
:100440004FF02E0BA94208BFA0424FF0300309D352
:10045000001B61EB0501A94208BFA04203F10103A3
:10046000F6D2DBB2337050EA010306F1010409D180
:10047000BA4210DACE4502F101020CD026467EE8DF
:100480000245DFE7BA4204BF86F801B0B41CCE458E
:1004900002F10102F2D1B8F1000F0DD02246302155
:1004A00002F8011BC2F1010353442344002BF7DC83
:1004B0002AEAEA7301331C44BCF1010F4CD06523D6
:1004C000BCF1000F2370C5BF2B236370611CA11CFE
:1004D0006046BDE8F84F13F075B905F100431D46BD
:1004E0002D23337001365BE72DA3D3E9002320468B
:1004F000294627F003FA00287FF470AFB9F10E0FF8
:1005000009F101073DDDA9F10E0842460020264908
:1005100027F0C4FA02460B462046294627F088F801
:100520000022224B26F0A8FD27F00CFB002FA9F19A
:100530000F0A4FF0010C3FF77BAF334630222E24D9
:1005400003F8022B74707FEA090618D01E4403F8E2
:10055000012BB342FBD16BE700232370BDE8F88F7A
:10056000C9F100020020104927F098FA02460B4614
:100570002046294626F032FF04460D463FE71E4638
:1005800056E7C9F10E0200200749C84627F086FA4F
:100590004FF0010939E700BF0000901EC4BCD642ED
:1005A00050EFE2D6E41A4B44000024400000E03F44
:1005B00000407A108DEDB5A0F7C6B03E408602002F
:1005C00070B54FF0FF3006F0BDFD04466FF07F4080
:1005D00006F0B8FD0646204626F08AFE00220C4BA7
:1005E00026F0FCFE044630460D4626F081FE06A3AA
:1005F000D3E9002327F01CF802460B462046294683
:1006000026F03AFD70BD00BF0000E0DFFFFF6F4342
:100610000000F03D000000002DE9F843436A044665
:1006200018680D4626F086FE064668680F4626F0D6
:100630006FFE24F035FB636A95ED037AD3ED007A03
:1006400077EE677A8046894617EE900A26F072FEAA
:1006500042464B4626F0C2FE07A3D3E9002326F00C
:10066000E7FF32463B4626F007FD27F0AFF9A063CF
:10067000BDE8F883AFF30080333333333333FF3FC8
:100680002DE9F04F2DED028B044683B0C06826F0B3
:100690003FFE80462069894626F03AFE8246606920
:1006A0008B4626F035FE024601F1004306460F4612
:1006B0004046494624F0A0F927F088F9E062054653
:1006C00024F04EF80190284623F0FEFF019B0546DA
:1006D000184626F02FFE42464B4626F07FFE804607
:1006E0002846894626F026FE32463B4626F076FE10
:1006F00002460B464046494626F0BCFC02460B46E5
:100700005046594624F078F927F060F9002208EEA7
:10071000100A00233046394627F0F0F828B3B5EE2A
:10072000C08AF1EE10FA1CDD11A7D7E9006718EEB8
:10073000100A26F0FFFD02460B463046394626F0E9
:1007400099FC32463B4626F097FC27F03FF9A06221
:10075000E38843F00203E38003B0BDEC028BBDE805
:10076000F08F05A7D7E90067E1E784ED0A8AEFE794
:10077000EA2E4454FB21F93FEA2E4454FB21F9BFF1
:1007800008B514F03FFBDFED0C7A07EE100A67EEB8
:10079000277A17EE900A26F0CDFD05A3D3E90023B2
:1007A00026F046FF27F0CAF808BD00BFAFF300806F
:1007B000EA2E4454FB2119400000B443000000001D
:1007C00008B514F033FBDFED0C7A07EE100A67EE84
:1007D000277A17EE900A26F0ADFD05A3D3E9002392
:1007E00026F026FF27F0AAF808BD00BFAFF300806F
:1007F000EA2E4454FB2119400000B44300000000DD
:100800002DE9F84F16461F460446002200233046C5
:1008100039460A9D27F054F8002840F0CD80324632
:100820003B463046394627F073F8002840F01F81D8
:1008300027F00049304649464FF0FF32984B27F0E9
:1008400067F848B9304649464FF0FF32944B27F0DD
:1008500041F8002800F0B7808BA3D3E9002330468D
:10086000394627F02DF8002840F099800F2DA8BFB9
:100870000F25042D30463946A946B8BF4FF004096C
:1008800024F00EFA27F05AF881A3D3E90023824618
:100890003946304627F014F848B97FA3D3E900233E
:1008A0003046394627F02AF8002800F09180BAF146
:1008B000000FC0F2BE80524600207A4927F0EEF8C1
:1008C00002460B463046394626F0B2FE06460F4633
:1008D00001254FF0000BA9EB0B02013A00207149F2
:1008E00027F0DCF83B46324626F078FD00226E4BBE
:1008F00026F0C2FB27F026F9002D57464FF0FF38AF
:10090000DA464FF0000B40F38180684B09F1FF3C61
:100910004FF0010E03EBC9094FF02E0A79E90223CB
:10092000994208BF90424FF0300609D3801A61EB1C
:100930000301994208BF904206F10106F6D2F6B2D1
:1009400050EA0102267004F101032ED1AE451C4687
:1009500006DA0CF1FF3CBCF1FF3F0EF1010EDDD1D8
:10096000BBF1000F0DD02246302102F8011BC2F16D
:10097000010343442344002BF7DC28EAE8730133E6
:100980001C44012F51D06523002F237060DD2B23E1
:100990006370A11C3846BDE8F84F1EF0A7B830229E
:1009A000002322706370BDE8F88FAE450ABF84F85B
:1009B00001A01C460234CCE707F100431F462D235B
:1009C000237001342BE73A4B18682060BDE8F88F9C
:1009D000D1450AF1010551DCAAEB090808F1010B28
:1009E0005A4600202F4927F059F802460B46304658
:1009F000394626F01DFE00222B4B26F03DFB27F04A
:100A0000A1F8002D4FF001073FF77FAF23463022BA
:100A10002E2603F8022B66707FEA0A042CD01C44B1
:100A200003F8012BA342FBD16FE700232370BDE83D
:100A3000F88FCAF1000200201A4927F02FF8024669
:100A40000B463046394626F0C9FC06460F463FE7BE
:100A5000611C0AD0002F9DDA2D237F426370A11CF8
:100A60003846BDE8F84F1EF041B8BDE8F88F114B8D
:100A700018682060BDE8F88F1C4646E7D3464FF063
:100A8000010A28E7AFF30080B0CA6E47ED89100075
:100A90008DEDB5A0F7C6B03E50EFE2D6E41A4B4458
:100AA000FFFFEF7F000024400000E03F508602007F
:100AB00088B3020084B302002DE9F043154605F027
:100AC0000F068BB08A68DDF84890D16AA6F1080E4F
:100AD000BEF1010F074640F2A48005F0030C4FF071
:100AE000080E4FEA15180EFA0CFEF04500F28B8046
:100AF0000A6B546FB9EBD40F80F08C80012000FAA0
:100B00000CF0B9F1000F37D191F8704018448442CD
:100B10003CD37431CC18139B002B00F0228193E856
:100B20000300B8F1000F02D14B1C00F0EA8020F066
:100B300003FB08F2FF380023002268F31E5326F05F
:100B40004DFC2D0702460B4605D40022BE4B26F075
:100B500093FA02460B46684620F06EFA9DE80300C1
:100B60000B460B2E00F2CB80DFE806F0847EAB8ACA
:100B700078726E1AC9C9685FD2F870C002EBC90EEC
:100B8000E6441844BEF804E0864533D2139B43B3D1
:100B90006722384621F01CFB38460BB0BDE8F083D5
:100BA0004B1C00F0CB8020F0C7FA0022A74B8046F8
:100BB000894626F085FE002840F05D810022A34B87
:100BC0004046494626F09AFE002840F054814046AF
:100BD000494626F09FFFCDE9060106AB03CB206016
:100BE00061609B4BD3E900233846C7E900230BB073
:100BF000BDE8F08309F18044496C013C51F8244080
:100C000001EB840186E7652221F0E2FA38460BB059
:100C1000BDE8F083662221F0DBFA38460BB0BDE870
:100C2000F083642221F0D4FAB6E720F085FA0AAB0B
:100C300063E9020103CB20606160D2E720F07CFA17
:100C400026F0C4FE2060CCE720F068FA2060C8E7F8
:100C500020F064FA00F30F002080C2E720F05EFA73
:100C600000F307002070BCE720F058FA80F3100072
:100C70002080B6E720F052FA80F308002070B0E739
:100C80004A1C68D020F058FA00220023804689468A
:100C900026F016FE002840F0018100226D4B4046F0
:100CA000494626F02BFE002840F0EA80404649469F
:100CB00026F048FFCDE9040104AB03CB206061605E
:100CC0008FE7013141D0194620F036FA0022002387
:100CD0008046894626F0F4FD002840F0E28058A3C3
:100CE000D3E900234046494626F008FE002840F09C
:100CF000CC804046494626F049FE206071E71CF052
:100D000015FD0B2EFBD801A353F826F0750C00003F
:100D1000690C00004B0D0000570D00005D0C000039
:100D2000510C0000490C00003D0D0000FF0C0000BC
:100D3000FF0C00003D0C00002B0C000000287FF78A
:100D400032AFC117CDE9060147E700283FF77AAF78
:100D50004FF0FF33B7E7002894DDC117CDE9040158
:100D6000AAE70B2ECBD801A353F826F0730E000090
:100D70006F0E0000590E0000190E0000130E000047
:100D80000D0E0000E10D0000C50D0000FF0C00007D
:100D9000FF0C0000B10D00009D0D0000206861688F
:100DA00008AB03C3DDE90801B8F1000F28D01DE04E
:100DB0002068039026F0BEFACDE90801B8F1000FD3
:100DC0001ED013E02068616806AB03C3DDE90601AD
:100DD00026F0D6FACDE90801B8F1000F10D005E0F1
:100DE0002068B8F1000F54D026F092FAC8F57F7849
:100DF00008F103080023002268F31E5326F0EEFAE0
:100E000002460B46384620F017F9C5E6B4F9000053
:100E1000E7E794F90000E4E72068616804AB03C3E6
:100E2000DDE90401002908BFB0F1004FD9D326F055
:100E30009FFACDE90801B8F1000FE1D0D6E700BF75
:100E40000000E0FFFFFFEF410000E03F0000E04353
:100E5000D88602000000F04320680028C1DA26F09E
:100E600047FACDE90801B8F1000FC9D0BEE72088E4
:100E7000B7E72078B5E74FF0FF306FF00041AAE602
:100E80004FF0FF304FF0FF3114E74FF0FF3020609C
:100E9000A7E60146384620F033F97DE60020002120
:100EA00008E7002020609CE6494A21F00043934275
:100EB0002DE9704304460D464BDC464A93420E46EC
:100EC0000EDC3FA3D3E9002326F0D6F80022424BE4
:100ED00026F014FD00284CD020462946BDE870833A
:100EE0003E4A93423BDCB3F1804F42DD23F086FA69
:100EF0002246804689462B462046294626F06EFA31
:100F00000022354B26F0B8F824F092FB02460B463F
:100F10004046494626F0B0F802460B4600202E49CE
:100F200026F086FB424604460D464B46404649465F
:100F300026F0A2F802460B462046294626F09CF8E9
:100F400002F06AF8002EC9DC01F100431946BDE841
:100F5000708302460B4626F08FF8BDE8708323F0BD
:100F60004DFA02F059F818A3D3E9002326F084F8CB
:100F7000E8E722462B462046294626F02FFA8046EF
:100F800089462046294623F039FA002204460D46B8
:100F9000114B4046494626F06FF824F049FB0022E9
:100FA0000D4B26F069F802460B464046494626F0AE
:100FB0003FFB22462B4626F05FF800F0C5FAC1E75A
:100FC0009C7500883CE4377EEF39FAFE422EE63FFE
:100FD000FFFFEF7FFFFF2F3E0000F03F0000B0411A
:100FE0002DE9F84FC44B21F000469E4204460D46C1
:100FF0008A460EDDC14B9E4200F3AC8000F0A78014
:10100000BAF1000F40F3EA809FA1D1E90001BDE8E9
:10101000F88FBB4B9E4200F3B580A3F1DE739E4276
:1010200040F3A0804FF0FF3B22462B462046294646
:1010300026F0D4F902460B468046894626F0CEF9C2
:1010400093A3D3E9002306460F4626F0C7F992A3DF
:10105000D3E9002326F010F832463B4626F0BEF9CD
:101060008FA3D3E9002326F007F832463B4626F04B
:10107000B5F98DA3D3E9002325F0FEFF32463B46A8
:1010800026F0ACF98AA3D3E9002325F0F5FF324618
:101090003B4626F0A3F988A3D3E9002325F0ECFF13
:1010A00042464B4626F09AF985A3D3E900238046B1
:1010B00089463046394626F091F983A3D3E90023C7
:1010C00025F0D8FF32463B4626F088F980A3D3E9C5
:1010D000002325F0CFFF32463B4626F07FF97EA362
:1010E000D3E9002325F0C6FF32463B4626F076F9C9
:1010F0007BA3D3E9002325F0BDFF32463B4626F013
:101100006DF9BBF1FF3F02460B466CD040464946A5
:1011100025F0B2FF22462B4626F060F9794E7A4B35
:101120004FEACB0B5E449B44DBE9002325F0A2FF92
:1011300022462B4625F09EFF02460B46D6E90001CB
:1011400025F098FFBAF1000F43DBBDE8F88F0028C7
:101150003FF456AF22462B462046294625F08CFF09
:10116000BDE8F88F60A3D3E9002325F085FF0022B6
:10117000664B26F0C3FB00283FF454AF20462946B7
:10118000BDE8F88F23F03AF9614B9E4204460D46C4
:1011900039DCA3F550239E425EDC02460B4625F067
:1011A0006BFF0022594B25F065FF002206460F46D3
:1011B0004FF080432046294625F05EFF02460B464D
:1011C0003046394626F034FA4FF0000B04460D46FF
:1011D0002AE701F100431946BDE8F88F44A1D1E99F
:1011E0000001BDE8F88F4046494625F045FF2246FC
:1011F0002B4626F0F3F802460B462046294625F0FA
:1012000039FFBDE8F88F434B9E421ADC0022424B67
:1012100025F030FF002206460F463F4B2046294668
:1012200026F0DCF80022394B25F026FF02460B465B
:101230003046394626F0FCF94FF0020B04460D46C5
:10124000F2E602460B460020344926F0F1F94FF051
:10125000030B04460D46E7E600222C4B25F00AFF5F
:10126000002206460F46294B2046294625F004FF5A
:1012700002460B463046394626F0DAF94FF0010BAC
:1012800004460D46D0E600BF182D4454FB21F93F1B
:1012900011DA22E33AAD903FEB0D76244B7BA93F68
:1012A000513DD0A0660DB13F6E204CC5CD45B73F36
:1012B000FF8300922449C23F0D5555555555D53FE2
:1012C0002F6C6A2C44B4A2BF9AFDDE522DDEAD3FD6
:1012D0006D9A74AFF2B0B33F711623FEC671BC3F76
:1012E000C4EB98999999C93F9C7500883CE4377E76
:1012F000182D4454FB21F9BFFFFF0F440000F07F7D
:10130000FFFFDB3FF0860200108702000000F03F85
:10131000FFFFF23FFF7F03400000F83F0000F0BFF7
:101320002DE9F843C1F30A59A9F2FF35132D0246FE
:101330000B460C4606468846074622DC002D50DB4D
:10134000DFF8F09049FA05F901EA090E5EEA0606AF
:101350001CD036A3D3E9002325F08EFE0022002303
:1013600026F0CCFA48B1002C04DD4FF4801343FA88
:1013700005F5A84428EA0904002721463846BDE8B7
:10138000F883332D06DDB5F5806F3DD01046194644
:10139000BDE8F883A9F213494FF0FF3E2EFA09F990
:1013A00010EA090FF2D021A3D3E9002325F064FE4F
:1013B0000022002326F0A2FA0028DED0002C09DD4E
:1013C000142D2BD00127C5F1340507FA05F5AE1908
:1013D00028BFB844444626EA090721463846BDE8F6
:1013E000F88312A3D3E9002325F046FE0022002350
:1013F00026F084FA0028C0D0002C0BDB54EA060744
:1014000006D00027084CB8E725F036FEBDE8F88383
:101410003C46B2E700274FF00044AEE704F1010874
:10142000D8E700BFAFF300800000F03F9C75008854
:101430003CE4377EFFFF0F002DE9F041C1F30A576E
:10144000A7F2FF35132D02460B460C46884606468A
:101450001CDC002D3FDB3A4F2F41864601EA070C8A
:101460005CEA0E0E17D034A3D3E9002325F004FE66
:101470000022002326F042FA20B1002C3FDB28EAAC
:101480000704002621463046BDE8F081332D06DDF5
:10149000B5F5806F2FD010461946BDE8F081A7F250
:1014A00013474FF0FF3E2EFA07F73842F3D022A33E
:1014B000D3E9002325F0E0FD0022002326F01EFAE8
:1014C0000028DFD0002C20DB444626EA0706214610
:1014D0003046BDE8F08118A3D3E9002325F0CCFD08
:1014E0000022002326F00AFA0028CBD0002C17DBBC
:1014F00000263446C6E725F0BFFDBDE8F0814FF475
:10150000801343FA05F5A844B9E7142D10D0012340
:10151000C5F1340503FA05F5AE1928BF9844D3E7A1
:1015200024F00042074B324318BF1C460026A9E7AF
:1015300004F10108C8E700BF9C7500883CE4377ED1
:10154000FFFF0F000000F0BF2DE9F04FD84B99428C
:1015500087B0804689460E4613DCD64B21F0004406
:101560009C4218DD0022D44B26F0A0F9002879D047
:10157000002200230020D14926F05AF807B0BDE828
:10158000F08FCF4B99422FDD42464B4625F074FD3C
:1015900007B0BDE8F08FCB4B9C4270DDCA4B1E44B8
:1015A0009E427ED80022C94B4046494625F064FD44
:1015B0004FEA215AAAF2FF3ABAF1000F04460D464B
:1015C0000E4640F3DE8142464B4625F053FD02466F
:1015D0000B460020BD4925F04DFD22462B4626F046
:1015E00027F8CDE902010BE0B94B9E42DADD9FED11
:1015F0009A7B8DED027B4FEA265A4446AAF2FF3AC7
:10160000B44BC6F313069E4246F07F5500F3E780C5
:1016100045F44015204629460022AC4B25F02AFD12
:10162000002204460D46AC4B25F0D8FE22462B4640
:1016300025F0D4FEA046CDE90401A946CDE900017C
:10164000002E3AD1002200232046294626F02EF90A
:10165000002800F0CE80BAF1000F40F07481002025
:10166000002195E742464B464046314625F002FDB3
:1016700002460B4625F0DCFF07B0BDE8F08F0022E4
:10168000964B25F0F9FC0022002326F037F90028BC
:1016900000F0CC80924B9C4200F3C8804046494603
:1016A00076E700228C4B25F099FE42464B4625F00A
:1016B00095FECDE900014FF0000A00224FF0804373
:1016C0004046494625F0D8FC02460B46404649466E
:1016D00025F0AEFF02460B4606460F4625F07EFE7D
:1016E0005FA3D3E9002304460D4625F077FE5EA3F1
:1016F000D3E9002325F0C0FC22462B4625F06EFEE0
:101700005BA3D3E9002325F0B7FC22462B4625F046
:1017100065FE59A3D3E9002325F0AEFC22462B46F3
:1017200025F05CFE56A3D3E9002325F0A5FC224654
:101730002B4625F053FE54A3D3E9002325F09CFC4F
:1017400022462B4625F04AFE51A3D3E9002325F07B
:1017500093FC22462B4625F041FE04460D46BAF185
:10176000000F00F0BF80504625F0D2FD4AA3D3E918
:10177000002382468B4625F031FEDDE90023CDE9CA
:1017800004012046294625F077FC32463B4625F0E9
:1017900025FE43A3D3E9002304460D46504659468F
:1017A00025F01CFEDDE9022325F066FC02460B460F
:1017B0002046294625F060FC02460B46DDE9000183
:1017C00025F058FC42464B4625F054FC02460B4699
:1017D000DDE9040125F04EFC07B0BDE8F08F45F4CB
:1017E0000015C6F5801620462946B6100AF1010AF2
:1017F00012E72DA3D3E900232046294625F0EEFD6C
:1018000002460B460020314925F034FCDDE9042373
:1018100025F0E4FD06460F46BAF1000F73D10246EB
:101820000B462046294625F025FCB1E642464B46AC
:101830004046494625F0D2FD0022274B25F0CEFD3B
:1018400002460B464046494625F014FC07B0BDE869
:10185000F08F00BFAFF30080000000000000000028
:1018600044523EDF12F1C23F9FC678D0099AC33F6F
:10187000DE03CB966446C73FAF788E1DC571CC3F63
:10188000599322942449D23F04FA97999999D93FC0
:10189000935555555555E53F0000E0FE422EE63F75
:1018A000763C7935EF39EA3D555555555555E53F67
:1018B0007982DA3FFFFFEF3F0000F0BF000050C326
:1018C000FFFFEF7FFFFF1F3E3C412D400000F03F38
:1018D000FFFF3F439DA006000000E03F0000504393
:1018E000FFFF8F3CDDE9004522462B4625F0C4FB77
:1018F00032463B4625F072FD02460B4620462946FD
:1019000025F0B8FB9CE7504625F002FD23A3D3E960
:10191000002382468B4625F061FD22A3D3E90023F4
:10192000804689465046594625F058FDDDE9022398
:1019300025F0A2FB02460B463046394625F09AFBBD
:1019400022462B46DCE7504625F0E2FC15A3D3E9FE
:10195000002306460F4625F041FDDDE9022325F070
:101960008BFB0EA3D3E9002304460D4630463946CF
:1019700025F034FD02460B462046294625F07CFB27
:1019800006E60022044B25F075FB02460B46404656
:10199000494625F06FFB20E60000F03F0000E0FE26
:1019A000422EE63F763C7935EF39EA3D00000000F3
:1019B00008B523F0F5F804A3D3E9002325F038FE99
:1019C00008BD00BFAFF30080EF39FAFE422EE63FBC
:1019D0002DE9F043DFF8B4808BB004460D4601F0EA
:1019E000F3F898F90030013306460F462BD0224613
:1019F0002B462046294625F08BFF814618BB204602
:101A0000294622F0FBFC1FA3D3E9002325F076FF33
:101A1000C8B1194A98F90030CDF820900321CDE9DA
:101A20000445CDE902458DE806008BB9134B4FF014
:101A30006042CDE90623684624F0FCFF70B1089BA4
:101A40009BB9DDE90667304639460BB0BDE8F08347
:101A50000B490020022BCDE90601ECD125F098FAC4
:101A600022230360089B002BEBD025F091FA089B02
:101A70000360E6E7AFF3008030B90200FFFFEF47F5
:101A80000000F07F7DF8B98FCE3386407C020020C5
:101A90002DE9F043DFF8E4808BB004460D4601F0F9
:101AA00043F998F90030013306460F4633D02046FB
:101AB000294624F0B9FF70B32CA3D3E900232046B4
:101AC000294625F01BFF814650BB2AA3D3E90023FA
:101AD0002046294625F0F4FEE8B198F90030204A66
:101AE000CDF82090002600270421022BCDE90445E3
:101AF000CDE90245CDE906678DE8060029D06846A4
:101B000024F098FF28B3089B1BB125F041FA089BED
:101B10000360DDE90667304639460BB0BDE8F08367
:101B20000F4A98F90030019203210022CDE90445C3
:101B3000CDE90245009108922BB90A4B4FF0604263
:101B4000CDE90623DBE708490020022BCDE9060199
:101B5000D5D125F01DFA22230360D4E7AFF300802E
:101B600038B90200FFFFEF470000F07FEF39FAFEBF
:101B7000422E864051302DD5104987C07C0200206E
:101B80002DE9F04FDFF80C938DB006460F46144652
:101B90001D4601F0C5FC99F90080B8F1FF3FCDE981
:101BA000000136D022462B462046294625F0B0FEBD
:101BB000834670BB32463B463046394625F0A8FE88
:101BC0008246002840F0A280304639460022002399
:101BD00025F06CFE10B3002200232046294625F094
:101BE00065FE834600286AD09FEDA17B0122A44BAD
:101BF000CDF828A00292CDE90467CDE906458DED28
:101C0000087B0393B8F1000F45D09FED9B7B8DEDD2
:101C1000007BDDE900010DB0BDE8F08FDDE90001DA
:101C200024F002FF8046002800F08D804FF0000A6B
:101C30004FF0000BDDE9000152465B4625F036FE11
:101C40000028E6D03046394624F0EEFE0028E0D0E9
:101C50002046294624F0E8FE0028DAD099F9003021
:101C6000874A039204210022022BCDE90467CDE9C3
:101C70000645CDE908AB02910A9203D002A824F0F0
:101C8000D9FE68B925F084F92223036008E09FEDAE
:101C9000787B8DED087B02A824F0CCFE002830D0A4
:101CA0000A9B1BB125F074F90A9B03609DED087B2C
:101CB0008DED007BDDE900010DB0BDE8F08F204621
:101CC000294624F0B1FE0028A3D00022002320469C
:101CD000294625F0F5FD00289BD099F90030684A87
:101CE000CDF828B00121CDE90467CDE90645029180
:101CF0000392002BCBD063490020022BCDE90801D1
:101D0000C9D125F045F921230360C9E7002200234A
:101D10002046294625F0CAFD00283FF47AAF5A4BE9
:101D20005749CDF828B000220120B8F1020FCDE9C3
:101D300004670290CDE90645CDE908230391AAD1B5
:101D4000CDE9002365E73046394624F06DFE0028D2
:101D50003FF46CAF2046294624F066FE00283FF48D
:101D600065AFDDE900231046194625F0D1FD0028B6
:101D70005FD1032399F900800293414B0A90CDE98A
:101D80000467CDE906450393B8F1000F2BD1DFF8C6
:101D900008B14FF0604A0022002330463946CDE9B1
:101DA00008AB25F08DFD00283FF468AF0022374BCB
:101DB0002046294625F012FB04460D4624F042FE3B
:101DC00002460B462046294625F070FD70BB304B7D
:101DD00099F900804FF06042CDE90823B8F1020F75
:101DE0007FF44CAF4EE7DFF8B4B04FF0000A0022AA
:101DF000002330463946CDE908AB25F061FD0028C7
:101E0000ECD00022214B2046294625F0E7FA044673
:101E10000D4624F017FE02460B462046294625F0C3
:101E200045FD18B9174B0022CDE9082399F9008028
:101E3000D4E799F90090124BCDF828800122CDE922
:101E40000467CDE9064502920393B9F1000F3FF410
:101E50001EAF002200231046194625F0E9FBB9F118
:101E6000020FCDE908013FF44CAF14E7AFF3008057
:101E70000000000000000000000000000000F03F33
:101E800050B902000000F0FF0000F03F0000E03F0A
:101E9000FFFFEFC77C020020FFFFEF470000F07F4D
:101EA0002DE9F84FC44E21F00043B34204460D46DD
:101EB0000DDD03F1404303F58013034340F0B98087
:101EC000002940F3408100200021BDE8F88FBB4E7F
:101ED000B34240F3A6800029C0F2788102460B4647
:101EE0000020B74925F0C6F80022B64B25F076FA57
:101EF00004460D4623F09CFB95A3D3E900238946B5
:101F000080462946204625F069FA93A3D3E90023A9
:101F100025F0B2F822462B4625F060FA90A3D3E9CB
:101F2000002325F0A7F822462B4625F057FA8EA36A
:101F3000D3E9002325F0A0F822462B4625F04EFADF
:101F40008BA3D3E9002325F095F822462B4625F0F4
:101F500045FA89A3D3E9002325F08EF822462B46C3
:101F600025F03CFA86A3D3E9002382468B4620461F
:101F7000294625F033FA84A3D3E9002325F07AF823
:101F800022462B4625F02AFA81A3D3E9002325F027
:101F900073F822462B4625F021FA7FA3D3E90023CC
:101FA00025F068F822462B4625F018FA0022844BCB
:101FB00025F062F802460B465046594625F038FB9C
:101FC00042464B4625F00AFA002682468B463246A8
:101FD0004B463046494625F001FA02460B4620465C
:101FE000294625F047F8324604460D464B46404602
:101FF000494625F041F802460B462046294625F081
:1020000017FB02460B465046594625F035F8324636
:102010004B4625F031F802460B4625F02DF8BDE879
:10202000F88F694A93420EDC5DA1D1E90001BDE859
:10203000F88F02460B4625F01DF802460B4625F0A8
:10204000F7FABDE8F88F02460B4625F0C7F940A322
:10205000D3E9002306460F4625F0C0F93EA3D3E995
:10206000002325F009F832463B4625F0B7F93CA39A
:10207000D3E9002324F0FEFF32463B4625F0AEF9BB
:1020800039A3D3E9002324F0F7FF32463B4625F07D
:10209000A5F937A3D3E9002324F0ECFF32463B46F1
:1020A00025F09CF934A3D3E9002324F0E5FF324660
:1020B0003B4625F093F932A3D3E9002380468946B5
:1020C0003046394625F08AF92FA3D3E9002324F0BE
:1020D000D1FF32463B4625F081F92DA3D3E90023F9
:1020E00024F0CAFF32463B4625F078F92AA3D3E90B
:1020F000002324F0BFFF32463B4625F06FF9002253
:102100002F4B24F0B9FF02460B464046494625F0C6
:102110008FFA22462B4625F061F902460B4622A192
:10212000D1E9000124F0A6FF02460B4620462946CD
:1021300024F0A0FF02460B4619A1D1E9000124F0CA
:1021400099FFBDE8F88F1AA1D1E90001BDE8F88F29
:1021500009F7FD0DE13D023F88B20175E0EF493F0F
:102160003B8F68B52882A43F5544880E55C1C93FAE
:102170007D6FEB0312D6D43F555555555555C53F88
:1021800082922EB1C5B8B33F59018D1B6C06E63F54
:10219000C88A599CE52A00404B2D8A1C273A0340E7
:1021A000182D4454FB21F93F075C143326A6913CBB
:1021B000182D4454FB210940FFFFEF3FFFFFDF3F95
:1021C0000000F03F0000E03F0000603C00225C4B5C
:1021D00024F052FF00225B4B25F000F940A3D3E925
:1021E000002304460D4625F0F9F83FA3D3E9002368
:1021F00024F042FF22462B4625F0F0F83CA3D3E919
:10220000002324F037FF22462B4625F0E7F83AA3B7
:10221000D3E9002324F030FF22462B4625F0DEF8D8
:1022200037A3D3E9002324F025FF22462B4625F0CF
:10223000D5F835A3D3E9002324F01EFF22462B4610
:1022400025F0CCF8804689462046294623F0F0F94F
:102250002FA3D3E9002306460F462046294625F042
:10226000BDF82DA3D3E9002324F004FF22462B461A
:1022700025F0B4F82AA3D3E9002324F0FDFE22467A
:102280002B4625F0ABF828A3D3E9002324F0F2FE77
:1022900022462B4625F0A2F80022294B24F0ECFE22
:1022A00002460B464046494625F0C2F932463B46B7
:1022B00025F094F81EA3D3E9002324F0DBFE324678
:1022C0003B4624F0D9FE02460B4624F0D5FE0246DA
:1022D0000B4619A1D1E9000124F0CCFEBDE8F88F2E
:1022E00009F7FD0DE13D023F88B20175E0EF493F7E
:1022F0003B8F68B52882A43F5544880E55C1C93F1D
:102300007D6FEB0312D6D43F555555555555C53FF6
:1023100082922EB1C5B8B33F59018D1B6C06E63FC2
:10232000C88A599CE52A00404B2D8A1C273A034055
:10233000075C143326A6913C182D4454FB21094018
:102340000000F03F0000E03F434A91422DE9F8438E
:1023500004460D4639DD414A914209DD02F17952C8
:10236000914240DD02460B4624F086FEBDE8F8832C
:1023700001F1404202F58012024330D0B1F1804FAA
:102380003ADC0022364B24F075FE02460B4604462A
:102390000D4624F071FE224606460F462B46204687
:1023A000294625F01BF802460B463046394624F0F4
:1023B00063FE23F03DF90B4602462946204624F0F1
:1023C0005BFEBDE8F843FFF7BFB802460B4624F0BA
:1023D00051FE02460B4625F02BF9BDE8F88300209C
:1023E0000021BDE8F88300F017FE19A3D3E900230C
:1023F00024F042FEBDE8F88302460B4624F0EEFFCF
:102400000022174B24F036FE23F012F922468046B4
:1024100089462B462046294624F02EFE4246064693
:102420000F464B462046294624F026FE02460B4620
:1024300000200B4925F0FCF80B4602463946304691
:1024400024F018FEBDE8F84300F0E6BDAFF30080CD
:10245000EF39FAFE422EE63FFFFFEF3FFFFFAF41AD
:102460000000F03F000000002DE9F047BE4B21F0D6
:102470000048984584B004460D4612DD08F14048F6
:1024800008F58018034658EA030321D002460B469C
:1024900024F0F0FD02460B4625F0CAF804B0BDE872
:1024A000F087B24B98458A4629DCB8F1795F80F213
:1024B000658191A3D3E9002324F0DEFD0022AC4B1B
:1024C00025F01CFAD8B12046294604B0BDE8F087B3
:1024D0008BA3D3E9002324F081FF8BA3D3E900234E
:1024E00006460F462046294624F078FF02460B4652
:1024F0003046394624F0C0FD04B0BDE8F0872046E0
:10250000294621F07BFF02460B460020984924F023
:10251000B1FD0022974B24F061FF7DA3D3E9002396
:1025200004460D4624F05AFF7BA3D3E9002324F090
:10253000A3FD22462B4624F051FF79A3D3E90023C3
:1025400024F098FD22462B4624F048FF76A3D3E9D9
:10255000002324F091FD22462B4624F03FFF74A374
:10256000D3E9002324F086FD22462B4624F036FFD3
:1025700071A3D3E9002324F07FFD22462B4624F0EB
:102580002DFF6FA3D3E90023CDE9000120462946A2
:1025900024F024FF6CA3D3E9002324F06BFD224632
:1025A0002B4624F01BFF6AA3D3E9002324F064FD2B
:1025B00022462B4624F012FF67A3D3E9002324F020
:1025C00059FD22462B4624F009FF694B002224F0D6
:1025D00053FDCDE902012046294623F029F8664B38
:1025E000984506460F4666DCDDE90223DDE9000179
:1025F00025F01EF83246CDE900013B46304639460B
:1026000024F03AFD02460B46DDE9000124F0E6FE27
:102610004FF00008CDE9000142463B4640463946AE
:1026200024F0DCFE02460B462046294624F022FD1B
:10263000424604460D463B463046394624F01CFDD2
:1026400002460B462046294624F0F2FF02460B467E
:1026500024F012FD02460B462BA1D1E9000124F023
:1026600009FD02460B46DDE9000124F003FD424668
:1026700004460D463B464046394624F0FDFC0246E2
:102680000B4637A1D1E9000124F0F4FC02460B46C9
:102690002046294624F0EEFC02460B4630A1D1E943
:1026A000000124F0E7FCBAF1000F3FF7F7AE01F1AB
:1026B00000431946F2E6DDE90223DDE9000124F0DA
:1026C000B7FF32463B4624F089FE32463B4624F0B3
:1026D000D3FC02460B4624F0CFFC0BA3D3E9002326
:1026E00024F0C8FC02460B4605A1D1E9000124F004
:1026F000C1FCD8E7AFF300809C7500883CE4377ECE
:10270000182D4454FB21F93F075C143326A6913C55
:1027100009F7FD0DE13D023F88B20175E0EF493F49
:102720003B8F68B52882A43F5544880E55C1C93FE8
:102730007D6FEB0312D6D43F555555555555C53FC2
:1027400082922EB1C5B8B33F59018D1B6C06E63F8E
:10275000C88A599CE52A00404B2D8A1C273A034021
:10276000182D4454FB21E93FFFFFEF3FFFFFDF3F00
:102770000000F03F0000E03F3233EF3F02460B46DF
:1027800024F02CFE37A3D3E9002306460F4624F09D
:1027900025FE36A3D3E9002324F06EFC32463B46E7
:1027A00024F01CFE33A3D3E9002324F063FC32465B
:1027B0003B4624F013FE31A3D3E9002324F05CFC54
:1027C00032463B4624F00AFE2EA3D3E9002324F030
:1027D00051FC32463B4624F001FE2CA3D3E90023F2
:1027E00024F04AFC32463B4624F0F8FD29A3D3E905
:1027F0000023804689463046394624F0EFFD27A362
:10280000D3E9002324F036FC32463B4624F0E6FDB3
:1028100024A3D3E9002324F02FFC32463B4624F0C6
:10282000DDFD22A3D3E9002324F024FC32463B46FD
:1028300024F0D4FD00220A4B24F01EFC02460B4675
:102840004046494624F0F4FE22462B4624F0C6FDBD
:1028500022462B4624F010FC04B0BDE8F08700BFF0
:102860000000F03F09F7FD0DE13D023F88B2017520
:10287000E0EF493F3B8F68B52882A43F5544880E5E
:1028800055C1C93F7D6FEB0312D6D43F5555555501
:102890005555C53F82922EB1C5B8B33F59018D1B26
:1028A0006C06E63FC88A599CE52A00404B2D8A1CDD
:1028B000273A0340000000002DE9F84F1D4653421F
:1028C000134325F0004ADFF8E0E14AEAD373734589
:1028D000144606460F4647D8C0F1000848EA0008EB
:1028E00021F0004343EAD878F0458B463CD805F107
:1028F000404808F5801858EA020850D04FEAA578F9
:1029000008F0020848EAD17850EA030134D052EACC
:102910000A023CD0F24557D0734538D0A3EB0A03E6
:102920001B153C2B42DC002D70DB22462B4630462B
:10293000394624F07DFE21F061FDFEF751FBB8F130
:10294000010F5FD0B8F1020F4ED0B8F1000F62D086
:1029500043A3D3E9002324F08DFB43A3D3E9002351
:1029600024F088FBBDE8F88F32463B4620462946D6
:1029700024F082FBBDE8F88FB8F1020F1AD0B8F14D
:10298000030F10D13AA1D1E90001BDE8F88FBBF1E6
:10299000000F14DB38A1D1E90001BDE8F88FBDE8D4
:1029A000F84FFEF71DBB3946BDE8F88F32A1D1E9DB
:1029B0000001C4E72CA1D1E90001BDE8F88F30A1E6
:1029C000D1E90001BDE8F88F534526D0B8F1020FD8
:1029D000F0D0B8F1030FD5D0B8F1010F4FF00000DF
:1029E00029D00021BDE8F88F1DA3D3E9002324F0EE
:1029F00041FB02460B461CA1D1E9000124F03AFB41
:102A0000BDE8F88F01F10041BDE8F88F3C338CDA66
:102A10000020002193E7BDE8F88FB8F1020F18D02D
:102A2000B8F1030F10D0B8F1010F08D016A1D1E909
:102A30000001BDE8F88F4FF00041BDE8F88F14A108
:102A4000D1E90001BDE8F88F13A1D1E90001BDE88B
:102A5000F88F13A1D1E90001BDE8F88FAFF3008032
:102A6000075C143326A6A13C182D4454FB210940D1
:102A7000182D4454FB2109C0182D4454FB21F93F63
:102A8000182D4454FB21F9BF182D4454FB21E93F74
:102A9000182D4454FB21E9BFD221337F7CD902C0D9
:102AA000D221337F7CD902400000F07F000000007B
:102AB00043422DE9F047034321F000463E4A46EAEF
:102AC000D373934204460D4613D896423DD03B4BF8
:102AD0009E428A4617DC36A3D3E9002324F0CCFAC1
:102AE0000022002324F00AFFA8B320462946BDE8AF
:102AF000F08702460B4624F0BDFA02460B4624F04E
:102B000097FDBDE8F0872E4B9E42354624DD3346C7
:102B10000246314624F0B0FA224606460F462B46BE
:102B20000020254924F0A6FA02460B4630463946D5
:102B300024F07EFDFEF708FD0022224B24F04EFC1F
:102B4000BAF1000F2FDBBDE8F0870022002324F04C
:102B50006FFDBDE8F087354622462B4620462946C4
:102B600024F08AFA22462B4606460F4624F036FC0D
:102B70002246804689462B4600200F4924F07AFAE7
:102B800002460B464046494624F052FD32463B463B
:102B900024F072FAFEF7D8FC00220A4B24F01EFC47
:102BA000BAF1000FCFDA01F100431946BDE8F08712
:102BB0009C7500883CE4377E0000F03FFFFF2F3E0D
:102BC000FFFFDF3F0000E03F2DE9F8434E4B21F0CF
:102BD00000449C4206460F461BDC4C4B9C4222DDC7
:102BE0004B4B9C4263DD4B4B9C427BDD4A4B9C42F2
:102BF00046DD01339C4240D041A3D3E90023104677
:102C0000194624F0EBFB06460F4630463946BDE830
:102C1000F88302460B4624F0E1FB06460F46304699
:102C20003946BDE8F88321F0E9FB02F0B1FC00224F
:102C30003A4B8046894624F01FFAB4F1725F06468B
:102C40000F46ECDB42464B464046494624F0C6FB65
:102C500032463B4604460D463046394624F00CFACF
:102C600002460B462046294624F0E2FC00222B4B6C
:102C700024F002FA06460F46D1E7294B9842BBD80A
:102C80003046394621F0BAFB0022264B24F0A6FB41
:102C900000F04AF8002204460D46224B24F09EFB29
:102CA00022462B4624F09AFB06460F46B7E721F052
:102CB000A5FB00F039F800221A4B06460F4624F017
:102CC0008DFB32463B4604460D460020154924F054
:102CD000AFFC02460B462046294624F0CDF90646B5
:102CE0000F469CE721F08AFB00F01EF800220D4BF6
:102CF00024F074FB06460F4691E700BFAFF3008057
:102D00009C7500883CE4377EFFFFEF7F422ED63F64
:102D1000FFFF3540412E8640CD3386400000F03F16
:102D20007DF8B98F0000E03F2DE9F04FB04E21F063
:102D30000042B24283B004460D464FEAD1770DD926
:102D4000AC4EB24225D9C1F31303034340F0EC80EB
:102D50000FB10020002103B0BDE8F08FA64B9A42CE
:102D600000F2CB80A54B9A4200F2DC808AA3D3E923
:102D7000002324F081F90022A14B24F0BFFD00289C
:102D800000F006812046294600229D4B24F074F96C
:102D9000E1E783A3D3E9002324F0B0FD002840F04D
:102DA000C88081A3D3E900232046294624F088FD6A
:102DB0000028CED1934E7EA3D3E9002306EBC706AD
:102DC0002046294624F00AFBD6E9002324F054F9D2
:102DD00024F0B4FD064624F09BFA77A3D3E9002340
:102DE0008046894624F0FAFA02460B4620462946D8
:102DF00024F040F972A3D3E90023CDE90001404655
:102E0000494624F0EBFA82468B4652465B46DDE9A2
:102E1000000124F02FF904460D4622462B46204699
:102E2000294624F0DBFA68A3D3E9002380468946CB
:102E300024F0D4FA66A3D3E9002324F01BF9424618
:102E40004B4624F0CBFA64A3D3E9002324F014F911
:102E500042464B4624F0C2FA61A3D3E9002324F092
:102E600009F942464B4624F0B9FA5FA3D3E900239F
:102E700024F002F942464B4624F0B0FA02460B46D3
:102E80002046294624F0F6F880468946002E58D080
:102E90002046294642464B4624F0A0FA42460446C4
:102EA0000D464B4600204FF0804124F0E3F80246E7
:102EB0000B462046294624F0BBFB02460B465046F3
:102EC000594624F0D7F8DDE9002324F0D3F80B4667
:102ED00002464B49002024F0CDF86FF47F739E42E8
:102EE00051DA06F57A7601EB065100224FF0B873FD
:102EF00024F074FA03B0BDE8F08F434B9A423FF6DA
:102F000059AF424BFC002344D3E9002324F0B2F82C
:102F10003F4BC7F101062344CDE90001D3E900ABE3
:102F2000F61B72E7002678E702460B4624F0A4F869
:102F300011E719A3D3E900231046194624F04EFAED
:102F400009E702460B462046294624F047FA0022AC
:102F500006460F464FF080434046494624F08AF823
:102F600002460B463046394624F062FB22462B4689
:102F700024F080F802460B460020214924F07AF81C
:102F800003B0BDE8F08F01EB065103B0BDE8F08F50
:102F9000064642E7AFF300809C7500883CE4377E2C
:102FA000EF39FAFE422E864051302DD5104987C0A8
:102FB000FE822B654715F73F0000E0FE422EE63FFC
:102FC000763C7935EF39EA3DD0A4BE726937663E6A
:102FD000F16BD2C541BDBB3E2CDE25AF6A56113F19
:102FE00093BDBE166CC1663F3E5555555555C53F00
:102FF000412E8640FFFFEF7F422ED63FFFFF2F3E40
:103000000000F03F30870200B1A2F03F408702008D
:1030100050870200000000002DE9F04FB1F5801F3D
:1030200085B006460F460B465ADA024621F00044A8
:10303000224300F0F8800029C0F27A810022D64BAA
:1030400024F0CCF9D54A0B46934206460F466FF062
:10305000350C4ADCC3F3130505F5152E0EF6647E18
:103060000EF4801E8EF07F5282F440121C1542EA4C
:103070000507A4F2FF3464440022C94B30463946A8
:1030800004EB1E5423F0F6FFAB1CC3F31303022B17
:1030900082468B464FF0000230DC002324F006FC11
:1030A000002800F0C980002C00F04B81204624F05D
:1030B0002FF9A5A3D3E9002306460F4624F08EF985
:1030C000A3A3D3E9002304460D463046394624F035
:1030D00085F902460B462046294623F0CDFF0AE03B
:1030E000AE4A93424FF0000CB4DD32463B463046C8
:1030F000394623F0C1FF05B0BDE8F08F4FF08043A3
:1031000023F0BAFF02460B465046594624F090FA87
:10311000064620460F4624F0FBF83246CDE9000172
:103120003B4630463946CDE9026724F057F902465E
:103130000B468046894624F051F987A3D3E9002342
:1031400006460F4624F04AF985A3D3E9002323F06D
:1031500093FF32463B4624F041F983A3D3E9002391
:1031600023F08AFF32463B4624F038F980A3D3E9A6
:10317000002323F081FF42464B4624F02FF97EA323
:10318000D3E90023804689463046394624F026F9A3
:103190007BA3D3E9002323F06FFF32463B4624F0A4
:1031A0001DF979A3D3E9002323F066FF32463B469D
:1031B00024F014F90B4602464946404623F05CFFD2
:1031C000A5F5C223C5F5D725A3F27A4351351D4392
:1031D000002D8046894656DD0022724B50465946E6
:1031E00024F0FCF852465B4624F0F8F806460F46F9
:1031F000002C68D132463B464046494623F03CFF0E
:10320000DDE9022324F0EAF802460B46304639464F
:1032100023F030FF02460B465046594623F02AFF62
:1032200005B0BDE8F08F0022002300205E4924F0A5
:10323000FFF905B0BDE8F08F55A3D3E90023504650
:10324000594624F0CBF802460B460020554923F09E
:1032500011FF524606460F465B465046594624F03B
:10326000BDF802460B463046394624F0B7F806460C
:103270000F46002C40F09A8002460B4650465946B5
:1032800023F0F8FE37E7002C00F0A4802EA3D3E94A
:103290000023DDE9000124F0A1F842464B46044634
:1032A0000D465046594623F0E5FEDDE9022324F0A1
:1032B00095F827A3D3E9002306460F46DDE9000170
:1032C00024F08CF821E020A3D3E90023DDE90001FC
:1032D00024F084F832463B4604460D4640464946B3
:1032E00023F0CAFEDDE9022324F078F818A3D3E91D
:1032F000002380468946DDE9000124F06FF802468C
:103300000B464046494623F0B7FE02460B46304680
:10331000394623F0AFFE52465B4623F0ABFE024631
:103320000B462046294623F0A5FE05B0BDE8F08FE8
:1033300002460B4623F09EFE0022002324F078F97B
:10334000D9E600200021D6E60000E0FE422EE63F4E
:10335000763C7935EF39EA3D44523EDF12F1C23F07
:10336000DE03CB966446C73F599322942449D23F4B
:10337000935555555555E53F9FC678D0099AC33F9B
:10338000AF788E1DC571CC3F04FA97999999D93FB2
:10339000555555555555D53F00005043FFFFEF7F1C
:1033A0000000F03F0000E03F000050C3204623F043
:1033B000AFFF0FA3D3E900238046894624F00EF81F
:1033C0000DA3D3E9002304460D464046494624F0A8
:1033D00005F89AE702460B465046594623F04AFE46
:1033E000DDE9022323F0FAFF14E700BFAFF300800A
:1033F0000000E0FE422EE63F763C7935EF39EA3DAB
:10340000B1F5801F2DE9F84304460D460B461ADA44
:10341000024621F00046324359D000295FDB0022EA
:103420003B4B23F0DBFF3B4A0D462B4693420446C1
:103430006FF035010CDD22462B462046294623F04D
:103440001BFEBDE8F883334A93424FF00001F2DCE3
:103450001815A0F2FF3008444FEAD0794844C3F36E
:10346000130823F055FFC9F57F73033348EA03556A
:1034700006460F4620462946FFF7CEFD1EA3D3E998
:103480000023804689463046394623F0A7FF1CA317
:10349000D3E9002304460D464046494623F09EFFEB
:1034A00002460B462046294623F0E6FD16A3D3E943
:1034B000002304460D463046394623F08FFF02466E
:1034C0000B462046294623F0D7FDBDE8F8830022AD
:1034D00000230020104924F0ABF8BDE8F883024631
:1034E0000B4623F0C7FD0022002324F0A1F8BDE81D
:1034F000F88300BFAFF30080362BF111F3FE593D86
:103500000EE526157BCBDB3F00609F501344D33F75
:1035100000005043FFFFEF7F000050C30000000099
:103520002DE9F04F23F0004757EA020493B037D05B
:10353000674C21F00046A64283460D4629DC9A4698
:10354000964625D0A74224DC614CA74279D0002DB5
:1035500080468946CDE9002377DB0024BEF1000FC9
:103560002CD15B4B9F4200F08B805A4B9F4261D025
:10357000BAF1804F00F0C383574B9A451ED1002DFE
:103580001CDB4046494613B0BDE8F04F22F050B86E
:1035900058B106F1404606F5801656EA0B0306D1EF
:1035A0004C49002013B0BDE8F08FB742CCDD4B484A
:1035B00013B0BDE8F04F23F03FBA0024404649461F
:1035C00020F01CFFBBF1000F19D126B1414B25F0B3
:1035D00040429A4213D1BAF1000FC0F2CA83002DC3
:1035E000E0DA06F1404606F5801656EA040300F0DC
:1035F000A584012CD6D101F100431946D2E7ED0F85
:10360000013D54EA05034ED0354B9F426EDD03F178
:1036100004739F4240F3FE83324B9E424EDDBAF16B
:10362000000F4EDD28A3D3E900231046194623F0EE
:10363000D5FEB7E7BAF1000FC0F2528440464946C2
:10364000B0E7BEF1000F82D0A3E7274B9F4228DCF2
:10365000A3F154739F4280DD3B15A3F2FF33142B7B
:1036600040F35484C3F134032EFA03F202FA03F355
:103670009E457FF472AF02F00102C2F102046DE7D1
:1036800006F1404303F5801353EA0B0388D0154B32
:103690009E4240F33B83BAF1000F12DBDDE90001EB
:1036A00080E702245AE742464B461046194623F06B
:1036B000E1FC02460B4623F0BBFF73E7BAF1000FB3
:1036C000B0DB002000216DE79C7500883CE4377E6C
:1036D0000000F07F0000F03F0000E03F6891020032
:1036E0000000E041FFFFEF3FFFFF3F43B6F5801FC3
:1036F0004FF0000205DAD84B23F070FE6FF0340271
:103700000E463315D54FC6F31306A3F2FF33134409
:1037100046F07F5ABE421A460D934AF4401A40F3CF
:103720002F83CF4B9E4240F30D849FEDB57B8DEDF3
:10373000087B8DED0E7B9FEDB47B13468DED067BF4
:1037400001330D93AAF5801A0027DDE906235146BF
:10375000CDE90A0123F08EFCDDE906238046894687
:10376000DDE90A0123F088FC02460B460020BD4932
:1037700023F05EFF0A460146CDE910121346494682
:103780000246404623F02AFE4FEA6A0343F0005304
:103790008C46834603F50023CDE904BCDA468B460C
:1037A000D9190023CDE902AB0293DDE902AB002079
:1037B00006460F4602460B465046594623F00EFE7B
:1037C00002460B464046494623F054FCDDE90623F9
:1037D000804689463046394623F04CFC02460B466B
:1037E000DDE90A0123F046FC52465B4623F0F6FD74
:1037F00002460B464046494623F03CFCDDE91023D7
:1038000023F0ECFDDDE90467CDE9060132463B46D5
:103810003046394623F0E2FD7DA3D3E90023064676
:103820000F4623F0DBFD7CA3D3E9002323F024FC27
:1038300032463B4623F0D2FD79A3D3E9002323F09F
:103840001BFC32463B4623F0C9FD77A3D3E9002396
:1038500023F012FC32463B4623F0C0FD74A3D3E9AB
:10386000002323F009FC32463B4623F0B7FD72A348
:10387000D3E9002323F000FC3246804689463B46CC
:103880003046394623F0AAFD02460B4640464946DB
:1038900023F0A4FD524606460F465B46DDE90401CF
:1038A00023F0EAFBDDE9062323F098FD32463B4690
:1038B00023F0E2FB5246804689465B465046594615
:1038C00023F08CFD0022684BCDE90A0123F0D4FBE4
:1038D00042464B4623F0D0FB02980F46064632463E
:1038E0003B465046594623F079FD002282468B46DE
:1038F0005D4B3046394623F0BDFBDDE90A2323F05A
:10390000B9FB02460B464046494623F0B3FBDDE9CE
:10391000042323F063FD3246804689463B46DDE9B9
:10392000060123F05BFD02460B464046494623F064
:10393000A3FB8046894602460B4650465946CDE9D0
:1039400004AB23F099FBDDE902AB3DA3D3E90023EF
:1039500050460F4623F042FDDDE90423CDE9020184
:103960003946504623F086FB02460B464046494600
:1039700023F080FB34A3D3E9002323F02FFD34A3ED
:10398000D3E90023804689465046394623F026FD78
:1039900002460B464046494623F06EFBDDE90E2306
:1039A00023F06AFB80460D98894623F0B1FC42461D
:1039B00006460F464B46DDE9020123F05DFBDDE9DB
:1039C000082323F059FB32463B4623F055FB324691
:1039D0003B4650468B4623F04DFBDDE9082323F0A0
:1039E00049FBDDE9022323F045FB02460B46404636
:1039F000494623F03FFB8046894637E0AFF300801D
:103A00000000000000000000000000000000F03F87
:103A1000EF4E454A287ECA3F65DBC9934A86CD3FB3
:103A200001411DA96074D13F4D268F515555D53F99
:103A3000FFAB6FDBB66DDB3F033333333333E33F31
:103A4000000000E009C7EE3FFD033ADC09C7EE3F86
:103A5000F5015B14E02F3EBE000040438E9803004A
:103A600079B60B000000F03F00000840013C54EA2A
:103A7000050300F079819FEDC87B8DED047BDDE9C6
:103A800000120B461446CDE9023400230293DDE90F
:103A9000024508462B461146224623F0EBFA5246D1
:103AA0005B4623F09BFCDDE9002306460F464046BB
:103AB000494623F093FC02460B463046394623F034
:103AC000DBFA2246804689462B4650465946CDE9C8
:103AD000008923F083FC0B46024606460F4640460B
:103AE000494623F0C9FAC64B994204460D468A4618
:103AF00040F3168101F13F4303F5E003034340F037
:103B0000F781A7A3D3E90023DDE9000123F0B4FA8C
:103B10003246804689463B462046294623F0AAFA8B
:103B200002460B464046494623F0E8FE002840F096
:103B3000DF81A8464FEA28534FF48012A3F2FE33E8
:103B400042FA03F35344C3F30A52AE4DA2F2FF32DA
:103B50001541C3F3130423EA05010020C2F1140B3D
:103B600044F48014BAF1000F02460B4644FA0BFBF2
:103B700030463946B8BFCBF1000B23F07BFA024642
:103B80000B4606460F46DDE9000123F075FA4FEAC1
:103B90000B5A0D46002484A3D3E90023204629466E
:103BA00023F01CFC3246804689463B462046294687
:103BB00023F060FA02460B46DDE9000123F05AFAD1
:103BC0007BA3D3E9002323F009FC7BA3D3E90023E3
:103BD00006460F462046294623F000FC02460B46C7
:103BE0003046394623F048FA06460F4602460B4651
:103BF0004046494623F040FA42464B4604460D46AD
:103C000023F038FA02460B463046394623F032FAA2
:103C10002246804689462B462046294623F0DEFB75
:103C200067A3D3E9002306460F4623F0D7FB66A31C
:103C3000D3E9002323F01EFA32463B4623F0CEFBA5
:103C400063A3D3E9002323F017FA32463B4623F05F
:103C5000C5FB61A3D3E9002323F00CFA32463B46AF
:103C600023F0BCFB5EA3D3E9002323F005FA324620
:103C70003B4623F0B3FB02460B462046294623F081
:103C8000F9F906460F4602460B462046294623F020
:103C9000A5FB0022CDE900014FF0804330463946B4
:103CA00023F0E8F902460B46DDE9000123F0C0FCF1
:103CB000424606460F464B462046294623F08EFBD9
:103CC00042464B4623F0D8F902460B463046394669
:103CD00023F0D0F922462B4623F0CCF902460B46BE
:103CE0000020494923F0C6F98A44BAF5801FC0F282
:103CF00039815146DDE9042323F070FB52E442464A
:103D00004B464046494623F069FB4BE4BAF1000FAD
:103D1000BFF6D7ACDDE90034184604F1004141E4B8
:103D20003A4B21F00048984540F3FF80384B0B4454
:103D300003430CD132463B4623F09CF902460B4626
:103D4000DDE9000123F0C6FD00283FF4F3AEDDE914
:103D5000040125A3D3E9002323F040FB22A3D3E9E8
:103D6000002323F03BFB1DE49FED217B8DED047BC5
:103D700085E602460B460020234923F059FC2EE439
:103D80009FED1D7B8DED087B8DED0E7B9FED027B06
:103D900000278DED067BD8E4000000000000F03F16
:103DA000FE822B654715973C00000000432EE63F3E
:103DB000EF39FAFE422EE63F396CA80C615C20BE5A
:103DC000D0A4BE726937663EF16BD2C541BDBB3E21
:103DD0002CDE25AF6A56113F93BDBE166CC1663FFF
:103DE0003E5555555555C53F59F3F8C21F6EA501AF
:103DF000000000000000F0BF000000000000000014
:103E0000FFFF8F40FFFF0F000000F03FFFCB90400F
:103E100000346F3F684B9E427FF750AC674B9E4229
:103E20003FF7FDAB0022654B23F024F952A3D3E901
:103E3000002306460F4623F0D1FA51A3D3E900230D
:103E4000804689463046394623F0C8FA0022824629
:103E50008B465B4B3046394623F0C0FA02460B4690
:103E600049A1D1E9000123F005F932463B4623F090
:103E7000B5FA02460B460020524923F0FBF83246C1
:103E8000CDE902013B463046394623F0A7FA024607
:103E90000B46DDE9020123F0A1FA3DA3D3E900239B
:103EA00023F09CFA02460B465046594623F0E2F8AE
:103EB00002460B4606460F464046494623F0DCF8CC
:103EC00042464B46002082468B4623F0D3F80246FA
:103ED0000B463046394623F0CDF880468946C5E585
:103EE00042464B460020354923F0A2FBFFF75ABB60
:103EF000DDE9040128A3D3E9002323F06FFA26A308
:103F0000D3E9002323F06AFAFFF74CBBBEF1000FA0
:103F10007FF453ABC3F1140347FA03F202FA03F33D
:103F20009F4223D07446FFF720BB264B98453FF7AE
:103F300001AEDDE90223924693462BE602460B468C
:103F4000FFF7B3BB9FED167B8DED087B9FED167BD6
:103F50008DED0E7B9FED167B4FF480278DED067B5C
:103F6000FFF7F3BB5A4601F04FFDC3E602F0010232
:103F7000C2F10204FFF7F9BA000000604715F73FED
:103F800044DF5DF80BAE543E555555555555D53F5C
:103F9000FE822B654715F73F9C7500883CE4377E11
:103FA0000000004003B8E23F06D0CF43EBFD4C3E9B
:103FB000000000000000F83FFEFFEF3F0000F03F70
:103FC0000000D03F0000E03F2DE9F0479C4B21F07E
:103FD00000479F4290B08046894640F38E80994BBF
:103FE0009F420C46924626DC00298BA3D3E900238E
:103FF00040F3B08123F03EF8934B9F4204460D46B8
:1040000000F0908086A3D3E9002323F033F8024622
:104010000B46CAE900232046294623F02BF880A34B
:10402000D3E9002323F026F80125CAE90201284636
:1040300010B0BDE8F087854B9F4240F39080844BE1
:104040009F4265DC3D15A5F21645A7EB05531946C1
:104050001F46064623F072FC23F05AF98046894633
:1040600042464B4630463946CDE90A8923F002F8EC
:104070000022784B23F0B2F98946804623F05EFC9B
:1040800023F046F906460F4632463B46404649462F
:10409000CDE90C6722F0EEFF00226E4B23F09EF973
:1040A00000220023CDE90E0123F000FC002800F0DF
:1040B0006F81002330463946002223F0F7FB0028A9
:1040C00014BF01230223644A019202212A4600916F
:1040D0000AA8514600F08CFB002C054614DADAF8E9
:1040E0000420DAF80C3002F1004203F100434542AB
:1040F000CAF80420CAF80C3006E000200021C2E90A
:104100000089C2E902010025284610B0BDE8F08709
:1041100002460B4622F0AEFF0025CAE90201CAE9B9
:104120000001F1E740A3D3E9002322F0A3FF40A35D
:10413000D3E900230D46044622F09CFF02460B46BD
:10414000CAE900232946204622F094FF38A3D3E988
:10415000002322F08FFF0125CAE90201D4E720F0F5
:104160004DF935A3D3E900238046894623F036F97B
:1041700000223A4B22F080FF23F0E0FB054623F0BB
:10418000C7F825A3D3E90023CDE9060123F026F9DA
:1041900002460B464046494622F06CFF20A3D3E975
:1041A0000023CDE90201DDE9060123F017F91F2DF7
:1041B00080468946CDE9048954DC294B6A1E53F8B0
:1041C00022309F424ED002460B46DDE9020122F02A
:1041D00051FF80468946CAE9008942464B46DDE9DF
:1041E000020122F047FFDDE9042322F043FF002C07
:1041F000CAE9020188DA09F1004401F100436D4285
:10420000CAF80080CAF80440CAF80800CAF80C309E
:104210007AE700BFAFF3008000004054FB21F93F74
:104220003163621A61B4D03D0000601A61B4D03DC0
:104230007370032E8A19A33B83C8C96D305FE43FB6
:10424000FB21E93F7BD90240FB21F93FFB213941AA
:10425000FFFFEF7F00007041FCB902000000E03F6B
:104260007CB90200DDE90423DDE9020122F002FF4E
:104270003F15C1F30A53FB1A80468946102BCAE941
:104280000089AADD58A3D3E90023DDE9060123F064
:10429000A5F88046894602460B46DDE9020122F078
:1042A000E9FE02460B46DDE90201CDE9082322F0D2
:1042B000E1FE42464B4622F0DDFE4DA3D3E900234A
:1042C00080468946DDE9060123F088F842464B46E0
:1042D00022F0D0FE0B46CDE904010246DDE90801DB
:1042E00022F0C8FEC1F30A53FF1A80468946312FD7
:1042F000CAE900896CDD41A3D3E90023DDE90601A9
:1043000023F06CF8DDE9088906460F4602460B46A5
:104310004046494622F0AEFE02460B46404649461C
:10432000CDE9022322F0A6FE32463B4622F0A2FE51
:1043300034A3D3E9002306460F46DDE9060123F046
:104340004DF832463B4622F095FE02460B46CDE93B
:1043500004233AE722F090FE274B9F4204460D4685
:1043600018D01FA3D3E9002322F086FE02460B4695
:10437000CAE900232946204622F07CFE18A3D3E98F
:10438000002322F079FE4FF0FF35CAE90201BBE6B7
:10439000032398E614A3D3E9002322F06DFE14A3AF
:1043A000D3E900230D46044622F066FE02460B4682
:1043B000CAE900232946204622F05CFE0CA3D3E97B
:1043C000002322F059FE4FF0FF35CAE902019BE6B7
:1043D0009DED087B8DED027BFFE600BFAFF3008013
:1043E0003163621A61B4D03D0000601A61B4D03DFF
:1043F0007370032E8A19A33BFB21F93F0000002EA6
:104400008A19A33BC14920259A837B39000000000B
:10441000594A2DE9F84F21F00048904506460F46CD
:104420002BDC564B0029B4BF554D564D98454FF0E7
:10443000000410DC544B984570DC4DA3D3E90023F5
:1044400022F01AFE0022514B23F058FAD8B1304620
:104450003946BDE8F88F4E4B98457CDD4D4B98456D
:1044600044DD013398453ED03046394640A3D3E978
:10447000002322F0B3FFBDE8F88F02460B4622F07E
:10448000FBFDBDE8F88F304639461FF0B7FF01F05D
:104490007FF806460F4632463B463046394622F004
:1044A000EBFD324682468B463B463046394622F08B
:1044B00095FF002280468946344B3046394622F02B
:1044C000DBFD02460B464046494623F0B1F8024662
:1044D0000B465046594622F0CDFD22462B4622F08F
:1044E0007DFFBDE8F88F2C4B9842BDD83046394649
:1044F0001FF084FF0022234B22F070FFFEF714FC14
:1045000006460F4602460B462046294622F066FF25
:1045100032463B4622F062FFBDE8F88F1FF06EFF87
:1045200001F036F81D4B984506460F46B3DD0022D4
:10453000164B22F0A1FD02460B463046394623F0C9
:1045400077F832463B4622F097FD22462B4622F072
:1045500045FFBDE8F88F1FF051FFFEF7E5FB02466F
:104560000B462046294622F039FFBDE8F88F00BFF0
:104570003374AC3C1F7BAC7FFFFFEF7FFFFF354008
:104580000000E0BF0000E03FFFFF2F3E0000F03FD3
:10459000412E8640CD3386407DF8B98FFFFFEF3F37
:1045A0002DE9F04F21F00048B8F1795F85B006465B
:1045B0000F4692469B466BDA23F0C0F9002800F0C4
:1045C000EA8032463B463046394622F007FF74A364
:1045D000D3E9002304460D4622F000FF72A3D3E97D
:1045E000002322F049FD22462B4622F0F7FE70A35D
:1045F000D3E9002322F03EFD22462B4622F0EEFEB8
:104600006DA3D3E9002322F037FD22462B4622F08A
:10461000E5FE6BA3D3E9002322F02CFD22462B46B6
:1046200022F0DCFE68A3D3E9002322F025FD224618
:104630002B4622F0D3FECDE900010022664B204636
:10464000294622F0CBFEDDE900238046894620463C
:10465000294622F0C3FE524604460D465B463046CC
:10466000394622F0BBFE02460B462046294622F080
:1046700001FD02460B464046494622F0FBFC02463D
:104680000B460020554922F0F5FC05B0BDE8F08F3F
:1046900002460B4622F0A2FE41A3D3E900230446C2
:1046A0000D4622F09BFE40A3D3E9002322F0E4FC58
:1046B00022462B4622F092FE3DA3D3E9002322F0AE
:1046C000D9FC22462B4622F089FE3BA3D3E90023E6
:1046D00022F0D2FC22462B4622F080FE38A3D3E9FA
:1046E000002322F0C7FC22462B4622F077FE36A399
:1046F000D3E9002322F0C0FC2B46224622F06EFEB6
:10470000374B9845CDE9000197DD364B984539DCAC
:10471000A8F500130022002030499046994622F067
:10472000A9FCCDE9020100222B4B2046294622F0AC
:1047300055FE42464B4622F09DFCDDE900238046B3
:1047400089462046294622F049FE524604460D4637
:104750005B463046394622F041FE02460B46204673
:10476000294622F087FC02460B464046494622F085
:1047700081FC02460B46DDE9020122F07BFC05B01C
:10478000BDE8F08F9FED127B4FF000088DED027BAE
:10479000DFF85490C7E71149002005B0BDE8F08F5D
:1047A000D43888BEE9FAA8BDC4B1B4BD9EEE213E9E
:1047B000AD529C804F7E923E9015CB19A001FA3EDF
:1047C0007751C1166CC1563F4C5555555555A53FAF
:1047D000000000000000E73F0000E03F0000F03F65
:1047E0003233D33F0000E93F0000D23F0000000019
:1047F0002DE9F04FADF51B7D9F4CA49E9F4D54F8C5
:10480000264007942646D41E85FB0475E417C4EBA6
:10481000A50424EAE4741D460A93631CA3EB8303F6
:10482000013D02EBC30306932B460B940395651BD6
:10483000F418049008911AD42C440026002701345F
:104840000DF18808DDF8949208E059F8250022F06F
:104850005FFD0135A542E8E8020108D0002DF4DA39
:10486000013530463946A542E8E80201F6D1079BFA
:10487000002BC0F2DF83079B03F1010B0A9B22A9E7
:10488000DB001A4601EB03090093049B0DF5E47A63
:1048900019460AEBCB0B01EB0208039B002BC0F27D
:1048A000F582049C4D460026002775E90223F4E8B2
:1048B000020122F093FD02460B463046394622F0B3
:1048C000DBFB444506460F46EFD1EAE80267DA45CE
:1048D00009F10809E1D107990098049C009101F1C0
:1048E0008043013B9B0020441A1F83460EA80244CC
:1048F00003440C920D93009A9AA901EBC203002A7B
:1049000053E9284529DD0DF5E47A0AEBC2080DF1DB
:10491000340900225A4B2046294622F05FFD23F03D
:104920000DF822F0F5FC0022564B06460F4622F009
:1049300055FD02460B462046294622F09BFB22F0FD
:10494000FDFF78E9022349F8040F3946304622F08A
:1049500093FBD04504460D46DBD1DDF81890204688
:1049600029464A4601F050F800224FF07F53044692
:104970000D4622F033FDFCF75FFD0022424B22F092
:104980002DFD02460B462046294622F073FB0D46BC
:10499000044622F0D3FF804622F0BAFC0B460246C2
:1049A0002946204622F066FB4B46002B06460F4662
:1049B00040F3F980009A0EA9013AC9F1180351F8A1
:1049C000225045FA03F101FA03F30EA8EB1A40F85E
:1049D0002230C9F11705884443FA05F5002D6DDD35
:1049E000009B002B08F1010840F36F820E9C002C05
:1049F00040F01683009B012B40F38F820EAA012307
:104A000052F8044F002C00F08382581C0EAAC4F107
:104A1000807442F82340009A824219DD0EAA0EAC3F
:104A200052F820106FF07F42511A44F8201000997C
:104A3000023399420CDD1046009A0EA901EB830364
:104A400001EB82011A68821A43F8042B8B42F9D1D8
:104A5000069B002B1ADD069B012B4FF0010440F052
:104A60003C82009B5A1E0EAB0EA953F82230C3F3B2
:104A7000160341F822303CE29CBE0200ABAAAA2AEF
:104A80000000703E0000704100002040022D15D152
:104A900032463B460020924922F0ECFA06460F4689
:104AA000069A8F49002000F0AFFF02460B463046C1
:104AB000394622F0DFFA022506460F46002200237F
:104AC0003046394622F0F2FE002800F03782009A84
:104AD000079B501E83420FDC02F18043013B0EAA6C
:104AE0000D9C02EB8303002253F80419A34242EA0F
:104AF0000102F9D1002A67D1079B0EAA013B52F8A7
:104B00002330002B40F018820C9A012352F804192C
:104B100001330029FAD0009AD31802F1010A9A450C
:104B200009933DDC009B0A990B9A0B4409990AEB07
:104B30000208994622AB08F1804803EBC9098B189B
:104B4000A59A08F1FF3802EB880872AA02EBCA0A9C
:104B5000A59A02EB8303009358F8040F22F0D8FBC8
:104B6000039B002BE9E802014FF000064FF000071D
:104B700011DB049C4D4675E90223F4E8020122F0A2
:104B80002DFC02460B463046394622F075FA5C454C
:104B900006460F46EFD1009B9845EAE80267DBD155
:104BA000099B0093A7E606D1009B0EAA013B52F891
:104BB0002350ED1512E700224A4B22F095FE002803
:104BC00040F06E81054679E70EA9039551F8203033
:104BD0000699CDF8248018390246009006916BB9E9
:104BE00000F18043013B0EA800EB830353F8040956
:104BF000013A18390028F9D000920691069A3849EE
:104C0000002000F001FF009B002B04460D46C0F27F
:104C1000F781DA0072A901EB020B06920EAA02EBF1
:104C20008306DFF8C4904FF000080BF10807043644
:104C300056F8040D22F06CFB22462B4622F0CEFBE8
:104C40004B4667E9020142462046294622F0C6FB50
:104C50000EAB9E4204460D46EAD14AACDDF81C90EC
:104C600004944FF0000AB9F1000FC0F22B81DFF875
:104C70007C805D4618A1D1E90001002600270024B0
:104C800003E0544510DCF8E80201F5E8022322F0C5
:104C9000A5FB02460B463046394622F0EDF90134B9
:104CA000A14506460F46ECDA049B03EBCA03ABF1C1
:104CB000080BC3E9006770AB9B450AF1010AD2D12A
:104CC000A49B049C032B00F28980DFE803F0C58ECF
:104CD0008E1100BFAFF3008000000040FB21F93FC0
:104CE0000000F03F0000E03F0000703E78870200C7
:104CF000009B002B40F38181069A04EB020ADAE95B
:104D0000008902F1080525440DF5987B1AED027B18
:104D100042464B4651EC170B8DED047B22F0ACF96B
:104D200006460F4602460B46DDE9040122F0A2F9D1
:104D300042464B4622F0A0F965E902015D45B046C6
:104D4000B9466AE90267E1D1009B012B40F3558126
:104D5000069BE518D5E9008903F1080B04EB0B0A63
:104D600015ED027B42464B4651EC170B8DED007B57
:104D700022F082F906460F4602460B46DDE90001A5
:104D800022F078F94B46424622F076F96AE90201B0
:104D90004EAB5345B046B94665E90267E0D1002005
:104DA000002104EB0B0575E9022322F065F9AA4501
:104DB000F9D1039B002B00F00A816268E368089F29
:104DC0002568A4683D6002F1004203F1004301F14F
:104DD00000417A60FB60BC6038617961099B03F037
:104DE00007000DF51B7DBDE8F08F069D08352544B5
:104DF0000020002175E9022322F03EF9A542F9D1F5
:104E0000039B002B00F0D280089E024601F1004374
:104E100086E80C000B460246D4E9000122F02AF98C
:104E2000009B002B0BDD4CAD0124F5E8022322F0A2
:104E300023F9009B0134A342F7DA039B13B101F17C
:104E400000431946089BC3E90201099B03F00700D0
:104E50000DF51B7DBDE8F08F069D08350020002173
:104E6000254475E9022322F007F9AC42F9D1039BEE
:104E700013B101F100431946089BC3E90001099BE6
:104E800003F007000DF51B7DBDE8F08F002600271D
:104E9000EAE80267DA4509F108097FF4FEAC1AE591
:104EA000009B002B08F10108C8BF02253FF79EAD0B
:104EB00032463B460020614922F0DCF802250646D6
:104EC0000F46FBE500260027EEE6069B002B27DDBC
:104ED0000024069B012B3FF4C4AD022B09D1009B9B
:104EE0005A1E0EAB0EA953F82230C3F3150341F836
:104EF0002230022D7FF4E2AD32463B4600204F497E
:104F000022F0B8F806460F46002C3FF4D7ADC7E5AF
:104F10000099013399427FF473AD069B002BD8DCD6
:104F2000022D7FF4CBAD32463B460020434922F0B0
:104F3000A1F806460F46C1E50123ECE53946069F78
:104F400003957A423046CDF8248000F05DFD0022C2
:104F50003B4B04460D4622F0C7FC002843D00022FC
:104F6000384B2046294622F039FA22F0E7FC064663
:104F700022F0CEF90022324B22F030FA02460B46E4
:104F80002046294622F076F822F0D8FC00990B46FC
:104F900001331A4600933B46183306930B460EA97D
:104FA00041F82300134641F8236027E6089B024698
:104FB000C3E900010B46D4E9000122F05BF8009B35
:104FC000002B3FF730AF089BC3E902013DE7D4E96E
:104FD0000067D4E90223089DC5E90401C5E900671B
:104FE000C5E90223FAE62946204622F0A7FC009AEA
:104FF0000EA941F8220001E64AAC00200021D8E6C3
:10500000A49B032B3FF6EAAE01A252F823F000BFA7
:105010002F5000002750000027500000F94F0000DB
:1050200001200023F2E4002000214AACE8E6002041
:1050300000211CE70A9BDB0000934CE40000F03FDA
:10504000000070410000703E2DE9F04F21F0004655
:10505000B6F1795F85B004460D469046994604DA6C
:1050600022F06CFC002800F0858022462B4620466A
:10507000294622F0B3F906460F4602460B46204663
:10508000294622F0ABF941A3D3E9002382468B469F
:105090003046394622F0A2F93EA3D3E9002321F09D
:1050A000E9FF32463B4622F099F93CA3D3E90023BD
:1050B00021F0E2FF32463B4622F090F939A3D3E9D2
:1050C000002321F0D7FF32463B4622F087F937A371
:1050D000D3E9002321F0D0FF0E9BCDE900019BB363
:1050E0000022294B4046494622F078F9DDE90023A9
:1050F000CDE902015046594622F070F902460B46AE
:10510000DDE9020121F0B6FF32463B4622F066F9A6
:1051100042464B4621F0AEFF19A3D3E900230646D1
:105120000F465046594622F059F902460B46304682
:10513000394621F0A1FF02460B462046294621F0C0
:1051400099FF05B0BDE8F08F02460B463046394660
:1051500022F044F90AA3D3E9002321F08BFF524641
:105160005B4622F03BF922462B4621F085FF05B035
:10517000BDE8F08F2046294605B0BDE8F08F00BF9E
:10518000495555555555C53F0000E03F7CD5CF5A90
:105190003AD9E53DEB9C2B8AE6E55A3E7DFEB157B8
:1051A000E31DC73ED561C119A0012A3FA6F8101121
:1051B0001111813F000000002DE9F04FBE4C21F09D
:1051C000004687B0A64282468B460F46CDE90023B3
:1051D0001BDC22F0B3FB002837D153461E43109B43
:1051E0000133334300F0B381109B012B00F0C881E1
:1051F00052465B460020B14922F01AFA04460D4699
:105200002046294607B0BDE8F08FAD4B9E421CDD1D
:105210000029C0F2A98152465B4687A1D1E900016D
:1052200021F028FFDDE9002304460D4684A1D1E9E1
:10523000000121F01FFF9FED847B22462B468DED60
:10524000007B21F019FF82468B4652465B46504652
:10525000594622F0C3F802460B468046894622F0A2
:10526000BDF8424604460D464B465046594622F08C
:10527000B5F877A3D3E90023CDE9020120462946FA
:1052800022F0ACF874A3D3E9002321F0F5FE224606
:105290002B4622F0A3F872A3D3E9002321F0ECFE01
:1052A00022462B4622F09AF86FA3D3E9002321F07F
:1052B000E3FE22462B4622F091F86DA3D3E90023AA
:1052C00021F0DAFE22462B4622F088F86AA3D3E9C1
:1052D000002321F0D1FE42464B4622F07FF868A31E
:1052E000D3E90023CDE904012046294622F076F8CF
:1052F00065A3D3E9002321F0BFFE22462B4622F00E
:105300006DF863A3D3E9002321F0B6FE22462B46B5
:1053100022F064F860A3D3E9002321F0ADFE224619
:105320002B4622F05BF85EA3D3E9002321F0A4FE14
:1053300022462B4622F052F85BA3D3E9002321F04A
:105340009BFE02460B46DDE9040121F095FEDDE9F6
:10535000022322F043F8DDE9004522462B4621F0E6
:105360008BFE42464B4622F039F802460B46204659
:10537000294621F081FE4EA3D3E9002304460D46C1
:10538000DDE9020122F02AF822462B4621F074FEC4
:105390000B460246804689465046594621F06CFE2F
:1053A000474B9E4204460D4600F38E80109B012B16
:1053B0003BD002460B460020404922F039F9002438
:1053C00006460F462046294652465B46CDE9006711
:1053D000CDE90201009421F04DFEDDE900AB02466B
:1053E0000B464046494621F045FE52465B4621F0B9
:1053F000F5FF524604460D465B46DDE9020121F009
:10540000EDFF00222F4B21F037FE02460B462046CF
:10541000294621F031FE32463B4621F0DFFF52465D
:105420005B4621F029FE04460D462046294607B07A
:10543000BDE8F08FAFF30080182D4454FB21E93F05
:10544000075C143326A6813C000000000000000029
:10545000D47ABF74702AFB3EE9A7F0320FB8123F2E
:1054600068108D1AF726303F1583E0FEC8DB573FE2
:1054700093846EE9E326823FFE41B31BBAA1AB3FA2
:10548000735360DBCB75F3BEA69237A0887E143FC2
:105490000165F2F2D844433F280356C9226D6D3F9F
:1054A00037D60684F464963F7AFE10111111C13F7D
:1054B000635555555555D53FFFFF2F3E0000F0BFB2
:1054C0002794E53F0000F03F109821F021FF22468D
:1054D000CDE900012B462046294621F07FFFDDE97A
:1054E0000023CDE902012046294621F0C5FD0246F0
:1054F0000B46DDE9020122F09BF842464B4621F0C3
:10550000B9FD02460B465046594621F0B3FD02460E
:105510000B4621F0B1FD02460B46DDE9000121F00A
:10552000A9FD0446B81700F00200C0F101000D46C5
:1055300021F0EEFE02460B462046294621F04EFFA2
:1055400004460D462046294607B0BDE8F08F504678
:1055500059461EF053FF02460B4600200A4922F02E
:1055600067F804460D4660E7DDE9004501F10041BA
:10557000224605F1004382468B46CDE900234AE6E8
:1055800054465D4651E700BF0000F03F00000000B8
:105590002DE9F04FD24A21F00043934285B0824674
:1055A0008B460C462DD9CF4A93421AD8002C80F254
:1055B0001681B5A3D3E900235046594621F05CFD7E
:1055C0000022002322F07CF9C0B9B1A3D3E9002363
:1055D0005046594621F002FF02460B460020C249C0
:1055E00008E1C24A934240F2D0800346C1F313025D
:1055F000134340F0F481002980F2C4800020BC49AC
:10560000C0E0BC4A934200F22981BB4A934240F277
:10561000DE80002301930022B84B5046594621F00A
:10562000DDFE06460F4602460B465046594621F01F
:10563000D5FE99A3D3E9002304460D4621F0CEFE02
:1056400097A3D3E9002321F017FD22462B4621F032
:10565000C5FE95A3D3E9002321F00CFD22462B467D
:1056600021F0BCFE92A3D3E9002321F005FD2246E0
:105670002B4621F0B3FE90A3D3E9002321F0FAFCDE
:1056800022462B4621F0AAFE00229D4B21F0F4FC7D
:105690008046894602460B463046394621F09EFE3A
:1056A00002460B460020974921F0E4FC06460246DC
:1056B0000B460F464046494621F0DCFC3246804608
:1056C00089463B465046594621F088FE02460B4625
:1056D00000208D4921F0CEFC02460B46404649464B
:1056E00021F0A6FF22462B4621F078FE019E0246BD
:1056F0000B46002E38D0DDE9026732463B4621F0EA
:10570000B9FC52465B4621F069FE32463B4621F029
:10571000B1FC2B46224621F0ADFC019B013306462D
:105720000F4600F00F81019B012B00F0F180019BDF
:105730000133392B39D8019B132B40F31281019C83
:10574000C4F57F75033500222B0521F095FC024638
:105750000B465046594621F08DFC0022684B21F043
:105760008BFC01EB04510DE05046594621F036FE0A
:1057700022462B4621F07EFC02460B4650465946F7
:1057800021F078FC05B0BDE8F08F4DA3D3E90023EC
:1057900022F0B4F800283FF409AF4BA3D3E900236B
:1057A0001046194621F01AFEECE752465B4621F0FE
:1057B00061FC02460B460020514921F05BFC019A36
:1057C0004F4B01EB0251002221F054FCDAE73EA3DB
:1057D000D3E9002321F050FC02460B46CAE72CA374
:1057E000D3E900235046594621F0F8FD0B464349C2
:1057F0000246002021F040FC22F0A0F8019021F0A8
:1058000087FD33A3D3E9002306460F4621F0E6FDCA
:1058100002460B465046594621F02CFC2EA3D3E9F4
:105820000023804689463046394621F0D7FD06469A
:105830000F4632463B464046494621F01BFC024695
:105840000B4682468B464046494621F013FC3246C1
:105850003B4621F00FFCCDE90201DCE62B4A9342E6
:1058600000F2958000291AA3D3E90023C0F2AC808E
:1058700021F000FC012380468946019316A7D7E951
:105880000067D6E7AFF3008059F3F8C21F6EA50199
:10589000FE822B654715F73F2DC3096EB7FD8ABE03
:1058A0003952E686CACFD03EB7DBAA9E19CE143F46
:1058B0008555FE19A0015A3FF41011111111A13F95
:1058C000EF39FAFE422E86409C7500883CE4377E14
:1058D0000000E0FE422EE63F763C7935EF39EA3DA6
:1058E00079684340412E86400000E0BFFFFFEF7F14
:1058F0000000F0BF422ED63FFFFF8F3C0000E03F8C
:105900000000F03F0000084000001840B1A2F03F46
:105910000022394B5046594621F0D2FF002844D08E
:10592000504659460022354B21F0A6FB02460B4655
:105930003046394621F09EFB00224FF0404321F0D3
:105940004DFD1FE702460B465046594621F092FB9B
:1059500000222A4B21F042FD0022284B21F08AFB35
:1059600010E7019C4FF400132341C3F17F575246C7
:105970005B4621F07FFB002607F5401702460B46E9
:105980003046394621F076FB01EB0451FAE616A3C6
:10599000D3E9002321F022FD002C02460B464FF0F4
:1059A0000000FFF61CAE154924E732463B46504640
:1059B000594621F05FFB02460B4621F05DFB0022B9
:1059C0000F4B21F059FBDDE621F056FB4FF0FF3382
:1059D00080468946019306A7D7E9006729E7024672
:1059E0000B4621F049FBCDE6FE822B654715F73FBC
:1059F000763C7935EF39EABD0000D0BF0000E03FCA
:105A00000000F03F00000000F8B5C1F30A5604465C
:105A10000D460B4617460EBB21F000430343864656
:105A200025D00022344B21F0D9FC344A9742044659
:105A30000D460B462ADBC1F30A56363E3E4440F281
:105A4000FE72964228DC002E12DD23F0FF4323F481
:105A5000E00343EA065520462946F8BD40F2FF72AE
:105A60009642EBD102460B4621F006FBF8BDF8BD8D
:105A700016F1350F1DDA4CF250339F4222462B4669
:105A800025DC19A1D1E9000121F066FA16A3D3E9BA
:105A9000002321F0A3FCF8BD22462B4614A1D1E936
:105AA000000121F059FA12A3D3E9002321F096FC5A
:105AB000F8BD23F0FF4323F4E003363643EA0655EE
:105AC0002046294600220E4B21F088FCF8BD08A193
:105AD000D1E9000121F040FA05A3D3E9002321F028
