:100000000000022059D6010081D6010083D60100EC
:1000100085D6010087D6010089D6010000000000C6
:100020000000000000000000000000008BD601006E
:100030008DD60100000000008FD6010091D601008E
:1000400093D601003D170100F9D40100BDD4010091
:10005000D1D4010093D6010051B8010019A70100C5
:1000600019CB010021CB010029CB010093D601005F
:10007000B99D000093D6010093D6010093D60100EC
:1000800093D6010093D6010093D6010093D60100C8
:1000900093D6010093D6010093D6010093D60100B8
:1000A00093D6010093D6010031CB010039CB01007A
:1000B00093D6010093D6010000000000000000006C
:1000C00093D6010093D6010093D60100E5D4010038
:1000D00093D6010093D6010093D6010093D6010078
:1000E00021D5010000000000000000000000000019
:1000F0000000000093D60100000000000DD50100B3
:1001000000000000000000000000000000000000EF
:1001100000000000000000000000000000000000DF
:1001200000000000000000000000000000000000CF
:1001300000000000000000000000000000000000BF
:1001400000000000000000000000000000000000AF
:10015000000000000000000000000000000000009F
:10016000000000000000000000000000000000008F
:10017000000000000000000000000000000000007F
:10018000000000000000000000000000000000006F
:10019000000000000000000000000000000000005F
:1001A000000000000000000000000000000000004F
:1001B000000000000000000000000000000000003F
:1001C000000000000000000000000000000000002F
:1001D000000000000000000000000000000000001F
:1001E000000000000000000000000000000000000F
:1001F00000000000000000000000000000000000FF
:100200007CB0EE877CB0EE87FF00FF00FF00FF00B0
:10021000FF00FF00FF00FF00FF00FF00FF00FF00E6
:10022000FF00FF00FF00FF00FF00FF00FF00FF00D6
:10023000FF00FF00FF00FF002DE9F04F85B00391A4
:100240000778A7F10903042B044607F07F0200F1A9
:100250000100F5D9202AF3D02B2F04BF677804467C
:100260002D2F72D09FED427B8DED007B4FF000086B
:100270004FF000098FB34FF0000E4FF0000ADFF887
:1002800000B1754619E028F033FB804689463046B8
:1002900028F0C8FA42464B4628F078F95246804684
:1002A00089465B46DDE9000135B328F04BFCCDE91A
:1002B0000001AE4614F8017F7FB1A7F13006092E88
:1002C00052465B4640464946DDD9C5B92E2F16D168
:1002D00014F8017F0125002FEFD142464B46DDE99E
:1002E000000128F005FB80468946039B40464946AD
:1002F0001C6005B0BDE8F08F4FF0010EDAE7BEF1EB
:10030000000F29D042464B46DDE9000128F0F0FA03
:1003100007F0DF07452F80468946E6D10399601C28
:100320000A2228F017F916490246002028F040FE5C
:1003300002460B464046494628F0DAFA804689468E
:100340004046494605B0BDE8F08F9FED0B7B6778CE
:100350008DED007B013489E7DFF828904FF000082D
:100360004046494605B0BDE8F08F00BFAFF30080BE
:10037000000000000000F03F000000000000F0BF9F
:10038000000024400000F87F2DE9F84F16460023B6
:10039000002204460D4628F01DFD002840F09D80F7
:1003A000002200232046294628F00AFD28B13022E9
:1003B000002332707370BDE8F88F2046294625F07F
:1003C000F9FE28F045FD7BA3D3E9002381462946A9
:1003D000204628F0FFFC002800F08680B9F1000FCD
:1003E000C0F2BE804A4600206F4928F0E1FD024677
:1003F0000B462046294628F0A5FB04460D4666A17B
:10040000D1E9000101274FF0000822462B4628F0D1
:100410006FFA0022654B28F0B9F828F01DFE002F76
:10042000CC464FF0FF3AC1464FF0000840F38580BC
:10043000DFF888E15E4C0122AEF1700945F6F32544
:100440004FF02E0BA94208BFA0424FF0300309D352
:10045000001B61EB0501A94208BFA04203F10103A3
:10046000F6D2DBB2337050EA010306F1010409D180
:10047000BA4210DACE4502F101020CD026467EE8DF
:100480000245DFE7BA4204BF86F801B0B41CCE458E
:1004900002F10102F2D1B8F1000F0DD02246302155
:1004A00002F8011BC2F1010353442344002BF7DC83
:1004B0002AEAEA7301331C44BCF1010F4CD06523D6
:1004C000BCF1000F2370C5BF2B236370611CA11CFE
:1004D0006046BDE8F84F13F063BB05F100431D46CD
:1004E0002D23337001365BE72DA3D3E9002320468B
:1004F000294628F08DFC00287FF470AFB9F10E0F6B
:1005000009F101073DDDA9F10E0842460020264908
:1005100028F04EFD02460B462046294628F012FBE5
:100520000022224B28F032F828F096FD002FA9F186
:100530000F0A4FF0010C3FF77BAF334630222E24D9
:1005400003F8022B74707FEA090618D01E4403F8E2
:10055000012BB342FBD16BE700232370BDE8F88F7A
:10056000C9F100020020104928F022FD02460B4686
:100570002046294628F0BCF904460D463FE71E46B2
:1005800056E7C9F10E0200200749C84628F010FDC1
:100590004FF0010939E700BF0000901EC4BCD642ED
:1005A00050EFE2D6E41A4B44000024400000E03F44
:1005B00000407A108DEDB5A0F7C6B03E609B0200FA
:1005C00070B54FF0FF3006F0A9FD04466FF07F4094
:1005D00006F0A4FD0646204628F014F900220C4B34
:1005E00028F086F9044630460D4628F00BF906A39C
:1005F000D3E9002328F0A6FA02460B4620462946F6
:1006000027F0C4FF70BD00BF0000E0DFFFFF6F43B5
:100610000000F03D000000002DE9F843436A044665
:1006200018680D4628F010F9064668680F4628F04D
:10063000F9F825F0BFFD636A95ED037AD3ED007AF2
:1006400077EE677A8046894617EE900A28F0FCF824
:1006500042464B4628F04CF907A3D3E9002328F083
:1006600071FA32463B4627F091FF28F039FCA0632F
:10067000BDE8F883AFF30080333333333333FF3FC8
:100680002DE9F04F2DED028B044683B0C06828F0B1
:10069000C9F880462069894628F0C4F88246606916
:1006A0008B4628F0BFF8024601F1004306460F468C
:1006B0004046494625F02AFC28F012FCE062054637
:1006C00025F0D8FA0190284625F088FA019B0546C6
:1006D000184628F0B9F842464B4628F009F98046FA
:1006E0002846894628F0B0F832463B4628F000F903
:1006F00002460B464046494627F046FF02460B4657
:100700005046594625F002FC28F0EAFB002208EE8C
:10071000100A00233046394628F07AFB28B3B5EE9C
:10072000C08AF1EE10FA1CDD11A7D7E9006718EEB8
:10073000100A28F089F802460B463046394627F061
:1007400023FF32463B4627F021FF28F0C9FBA06279
:10075000E38843F00203E38003B0BDEC028BBDE805
:10076000F08F05A7D7E90067E1E784ED0A8AEFE794
:10077000EA2E4454FB21F93FEA2E4454FB21F9BFF1
:1007800008B514F02DFDDFED0C7A07EE100A67EEC8
:10079000277A17EE900A28F057F805A3D3E900232B
:1007A00028F0D0F928F054FB08BD00BFAFF300805B
:1007B000EA2E4454FB2119400000B443000000001D
:1007C00008B514F021FDDFED0C7A07EE100A67EE94
:1007D000277A17EE900A28F037F805A3D3E900230B
:1007E00028F0B0F928F034FB08BD00BFAFF300805B
:1007F000EA2E4454FB2119400000B44300000000DD
:100800002DE9F84F16461F460446002200233046C5
:1008100039460A9D28F0DEFA002840F0CD803246A5
:100820003B463046394628F0FDFA002840F01F814B
:1008300027F00049304649464FF0FF32984B28F0E8
:10084000F1FA48B9304649464FF0FF32944B28F050
:10085000CBFA002800F0B7808BA3D3E90023304601
:10086000394628F0B7FA002840F099800F2DA8BF2C
:100870000F25042D30463946A946B8BF4FF004096C
:1008800025F098FC28F0E4FA81A3D3E900238246FE
:100890003946304628F09EFA48B97FA3D3E90023B1
:1008A0003046394628F0B4FA002800F09180BAF1B9
:1008B000000FC0F2BE80524600207A4928F078FB33
:1008C00002460B463046394628F03CF906460F46AC
:1008D00001254FF0000BA9EB0B02013A00207149F2
:1008E00028F066FB3B46324628F002F800226E4BA9
:1008F00027F04CFE28F0B0FB002D57464FF0FF3894
:10090000DA464FF0000B40F38180684B09F1FF3C61
:100910004FF0010E03EBC9094FF02E0A79E90223CB
:10092000994208BF90424FF0300609D3801A61EB1C
:100930000301994208BF904206F10106F6D2F6B2D1
:1009400050EA0102267004F101032ED1AE451C4687
:1009500006DA0CF1FF3CBCF1FF3F0EF1010EDDD1D8
:10096000BBF1000F0DD02246302102F8011BC2F16D
:10097000010343442344002BF7DC28EAE8730133E6
:100980001C44012F51D06523002F237060DD2B23E1
:100990006370A11C3846BDE8F84F1FF0EBBF302252
:1009A000002322706370BDE8F88FAE450ABF84F85B
:1009B00001A01C460234CCE707F100431F462D235B
:1009C000237001342BE73A4B18682060BDE8F88F9C
:1009D000D1450AF1010551DCAAEB090808F1010B28
:1009E0005A4600202F4928F0E3FA02460B463046CB
:1009F000394628F0A7F800222B4B27F0C7FD28F036
:100A00002BFB002D4FF001073FF77FAF234630222D
:100A10002E2603F8022B66707FEA0A042CD01C44B1
:100A200003F8012BA342FBD16FE700232370BDE83D
:100A3000F88FCAF1000200201A4928F0B9FA0246DC
:100A40000B463046394627F053FF06460F463FE730
:100A5000611C0AD0002F9DDA2D237F426370A11CF8
:100A60003846BDE8F84F1FF085BFBDE8F88F114B41
:100A700018682060BDE8F88F1C4646E7D3464FF063
:100A8000010A28E7AFF30080B0CA6E47ED89100075
:100A90008DEDB5A0F7C6B03E50EFE2D6E41A4B4458
:100AA000FFFFEF7F000024400000E03FB09B02000A
:100AB0009CCA020098CA02002DE9F04F90468A684D
:100AC00008F00F0BD2F82C90ABF10802012A8DB080
:100AD000044640F28A801D4608F0030A08234FEAC4
:100AE000181603FA0AF39E4277D805AB00934846DE
:100AF000DDE916231EF044FC012303FA0AFA059BE4
:100B0000AA449A45074632D8189B00EB050A002BE9
:100B100000F00F8193E8030016B94B1C00F0D88059
:100B20001EF0BAFB06F2FF390023002269F31E53C0
:100B300027F0DEFE18F0080F02460B4605D1002212
:100B4000B54B27F023FD02460B4602A81EF0F8FA2B
:100B5000039902980B46BBF10B0F00F2B780DFE858
:100B60000BF06F699775635D5911B5B55349189BC3
:100B700053B320464946672221F004FE20460DB0BB
:100B8000BDE8F08F4B1C00F0C1801EF085FB0022F9
:100B9000A24B8046894628F01DF9002840F0548178
:100BA00000229E4B4046494628F032F9002840F08A
:100BB0004B814046494628F037FACDE9080108AB99
:100BC00003CB7851CAF80410954BD3E90023C4E94C
:100BD000002320460DB0BDE8F08F4946652221F084
:100BE000D1FD20460DB0BDE8F08F4946642221F0CA
:100BF000C9FDEEE71EF050FB0CAB63E9020103CB2D
:100C00007851CAF80410DFE71EF046FB28F068F9B7
:100C10007851D9E71EF024FB7851D5E71EF020FB70
:100C200000F30F007853CFE71EF01AFB00F3070024
:100C30007855C9E71EF014FB80F310007853C3E722
:100C40001EF00EFB80F308007855BDE74A1C6AD001
:100C50001EF022FB002200238046894628F0BAF8C5
:100C6000002840F0078100226E4B4046494628F09C
:100C7000CFF8002840F0ED804046494628F0ECF9D6
:100C8000CDE9060106AB03CB7851CAF804109BE707
:100C9000013142D019461EF0FFFA0022002380469F
:100CA000894628F097F8002840F0E18058A3D3E95E
:100CB00000234046494628F0ABF8002840F0CE809B
:100CC0004046494628F0ECF878517DE71CF01CFFBF
:100CD000BBF10B0FFAD801A353F82BF0410C000025
:100CE000350C00001B0D0000270D0000290C000032
:100CF0001D0C0000150C00000D0D0000CD0C0000B7
:100D0000CD0C0000090C0000F50B000000287FF757
:100D10003CAFC117CDE9080151E700283FF778AF94
:100D20004FF0FF33B6E7002892DDC117CDE9060189
:100D3000A8E7BBF10B0FC9D801A353F82BF000BFF4
:100D4000450E00003F0E0000290E0000E90D0000D6
:100D5000E50D0000DF0D0000B30D0000970D000051
:100D6000CD0C0000CD0C0000850D0000710D0000C1
:100D7000DAF80000DAF804100AAB03C3DDE90A016F
:100D80003EB31CE0DAF80000049027F05DFDCDE9E9
:100D90000A01F6B113E0DAF80000DAF8041008AB43
:100DA00003C3DDE9080127F075FDCDE90A0186B12D
:100DB00005E0DAF80000002E54D027F033FDC6F528
:100DC0007F7909F103090023002269F31E5327F0FC
:100DD0008FFD02460B4620461EF0B2F9F9E6BAF93D
:100DE0000000E8E74057E6E7DAF80000DAF8041018
:100DF00006AB03C3DDE90601002908BFB0F1004FCF
:100E0000D9D327F03FFDCDE90A01002EE1D0D6E786
:100E10000000E0FFFFFFEF410000E03F0000E04383
:100E2000909B02000000F043DAF800000028C2DACC
:100E300027F0E8FCCDE90A01002ECAD0BFE7BAF8D6
:100E40000000B8E7405DB6E74FF0FF306FF00041BB
:100E5000B3E64FF0FF304FF0FF3111E74FF0FF30B6
:100E60007851B1E6014620461EF0CEF9B1E60020E9
:100E70007851A9E60020002102E700BF0000000031
:100E8000494A21F0004393422DE9704304460D4640
:100E90004BDC464A93420E460EDC3FA3D3E90023C7
:100EA00027F074FB0022424B27F0B2FF00284CD001
:100EB00020462946BDE870833E4A93423BDCB3F1AD
:100EC000804F42DD24F024FD2246804689462B4691
:100ED0002046294627F00CFD0022354B27F056FB13
:100EE00025F030FE02460B464046494627F04EFBB1
:100EF00002460B4600202E4927F024FE42460446B7
:100F00000D464B464046494627F040FB02460B46FD
:100F10002046294627F03AFB02F06AF8002EC9DC89
:100F200001F100431946BDE8708302460B4627F0E5
:100F30002DFBBDE8708324F0EBFC02F059F818A3F8
:100F4000D3E9002327F022FBE8E722462B46204680
:100F5000294627F0CDFC804689462046294624F0C4
:100F6000D7FC002204460D46114B4046494627F067
:100F70000DFB25F0E7FD00220D4B27F007FB024695
:100F80000B464046494627F0DDFD22462B4627F01A
:100F9000FDFA00F0C5FAC1E79C7500883CE4377E95
:100FA000EF39FAFE422EE63FFFFFEF7FFFFF2F3EB5
:100FB0000000F03F0000B0412DE9F84FC44B21F094
:100FC00000469E4204460D468A460EDDC14B9E42B7
:100FD00000F3AC8000F0A780BAF1000F40F3EA8084
:100FE0009FA1D1E90001BDE8F88FBB4B9E4200F301
:100FF000B580A3F1DE739E4240F3A0804FF0FF3B2B
:1010000022462B462046294627F072FC02460B4614
:101010008046894627F06CFC93A3D3E9002306465B
:101020000F4627F065FC92A3D3E9002327F0AEFA20
:1010300032463B4627F05CFC8FA3D3E9002327F020
:10104000A5FA32463B4627F053FC8DA3D3E9002393
:1010500027F09CFA32463B4627F04AFC8AA3D3E9A4
:10106000002327F093FA32463B4627F041FC88A341
:10107000D3E9002327F08AFA42464B4627F038FC92
:1010800085A3D3E90023804689463046394627F0B8
:101090002FFC83A3D3E9002327F076FA32463B46A0
:1010A00027F026FC80A3D3E9002327F06DFA32460F
:1010B0003B4627F01DFC7EA3D3E9002327F064FA0A
:1010C00032463B4627F014FC7BA3D3E9002327F0EC
:1010D0005BFA32463B4627F00BFCBBF1FF3F024672
:1010E0000B466CD04046494627F050FA22462B4624
:1010F00027F0FEFB794E7A4B4FEACB0B5E449B44C4
:10110000DBE9002327F040FA22462B4627F03CFA81
:1011100002460B46D6E9000127F036FABAF1000F75
:1011200043DBBDE8F88F00283FF456AF22462B463C
:101130002046294627F02AFABDE8F88F60A3D3E9B4
:10114000002327F023FA0022664B27F061FE0028D7
:101150003FF454AF20462946BDE8F88F24F0D8FB71
:10116000614B9E4204460D4639DCA3F550239E4256
:101170005EDC02460B4627F009FA0022594B27F0A5
:1011800003FA002206460F464FF0804320462946C8
:1011900027F0FCF902460B463046394627F0D2FCD0
:1011A0004FF0000B04460D462AE701F100431946B3
:1011B000BDE8F88F44A1D1E90001BDE8F88F4046B1
:1011C000494627F0E3F922462B4627F091FB0246D9
:1011D0000B462046294627F0D7F9BDE8F88F434B48
:1011E0009E421ADC0022424B27F0CEF9002206462E
:1011F0000F463F4B2046294627F07AFB0022394B09
:1012000027F0C4F902460B463046394627F09AFCCF
:101210004FF0020B04460D46F2E602460B46002054
:10122000344927F08FFC4FF0030B04460D46E7E6E8
:1012300000222C4B27F0A8F9002206460F46294B26
:101240002046294627F0A2F902460B463046394689
:1012500027F078FC4FF0010B04460D46D0E600BFA6
:10126000182D4454FB21F93F11DA22E33AAD903FA7
:10127000EB0D76244B7BA93F513DD0A0660DB13FCD
:101280006E204CC5CD45B73FFF8300922449C23F35
:101290000D5555555555D53F2F6C6A2C44B4A2BFFA
:1012A0009AFDDE522DDEAD3F6D9A74AFF2B0B33FC2
:1012B000711623FEC671BC3FC4EB98999999C93F3A
:1012C0009C7500883CE4377E182D4454FB21F9BFFF
:1012D000FFFF0F440000F07FFFFFDB3F289C020070
:1012E000489C02000000F03FFFFFF23FFF7F0340F9
:1012F0000000F83F0000F0BF2DE9F843C1F30A59A0
:10130000A9F2FF35132D02460B460C4606468846C9
:10131000074622DC002D50DBDFF8F09049FA05F992
:1013200001EA090E5EEA06061CD036A3D3E90023C3
:1013300027F02CF90022002327F06AFD48B1002C89
:1013400004DD4FF4801343FA05F5A84428EA0904A4
:10135000002721463846BDE8F883332D06DDB5F574
:10136000806F3DD010461946BDE8F883A9F21349B5
:101370004FF0FF3E2EFA09F910EA090FF2D021A32F
:10138000D3E9002327F002F90022002327F040FDD3
:101390000028DED0002C09DD142D2BD00127C5F14B
:1013A000340507FA05F5AE1928BFB844444626EAC5
:1013B000090721463846BDE8F88312A3D3E9002384
:1013C00027F0E4F80022002327F022FD0028C0D0F7
:1013D000002C0BDB54EA060706D00027084CB8E7C0
:1013E00027F0D4F8BDE8F8833C46B2E700274FF079
:1013F0000044AEE704F10108D8E700BFAFF3008076
:101400000000F03F9C7500883CE4377EFFFF0F0032
:101410002DE9F041C1F30A57A7F2FF35132D02461B
:101420000B460C46884606461CDC002D3FDB3A4F37
:101430002F41864601EA070C5CEA0E0E17D034A352
:10144000D3E9002327F0A2F80022002327F0E0FCD4
:1014500020B1002C3FDB28EA070400262146304655
:10146000BDE8F081332D06DDB5F5806F2FD0104635
:101470001946BDE8F081A7F213474FF0FF3E2EFA60
:1014800007F73842F3D022A3D3E9002327F07EF8F0
:101490000022002327F0BCFC0028DFD0002C20DB3A
:1014A000444626EA070621463046BDE8F08118A3E7
:1014B000D3E9002327F06AF80022002327F0A8FCD4
:1014C0000028CBD0002C17DB00263446C6E727F0D7
:1014D0005DF8BDE8F0814FF4801343FA05F5A844A8
:1014E000B9E7142D10D00123C5F1340503FA05F531
:1014F000AE1928BF9844D3E724F00042074B32438B
:1015000018BF1C460026A9E704F10108C8E700BF80
:101510009C7500883CE4377EFFFF0F000000F0BFA1
:101520002DE9F04FD84B994287B0804689460E4648
:1015300013DCD64B21F000449C4218DD0022D44B32
:1015400027F03EFC002879D0002200230020D1495A
:1015500027F0F8FA07B0BDE8F08FCF4B99422FDDA6
:1015600042464B4627F012F807B0BDE8F08FCB4B50
:101570009C4270DDCA4B1E449E427ED80022C94B5D
:101580004046494627F002F84FEA215AAAF2FF3AAC
:10159000BAF1000F04460D460E4640F3DE81424686
:1015A0004B4626F0F1FF02460B460020BD4926F0CF
:1015B000EBFF22462B4627F0C5FACDE902010BE0EE
:1015C000B94B9E42DADD9FED9A7B8DED027B4FEAAF
:1015D000265A4446AAF2FF3AB44BC6F313069E427B
:1015E00046F07F5500F3E78045F440152046294634
:1015F0000022AC4B26F0C8FF002204460D46AC4B3F
:1016000027F076F922462B4627F072F9A046CDE95D
:101610000401A946CDE90001002E3AD100220023A1
:101620002046294627F0CCFB002800F0CE80BAF1F6
:10163000000F40F074810020002195E742464B46A0
:101640004046314626F0A0FF02460B4627F07AFAC4
:1016500007B0BDE8F08F0022964B26F097FF0022DE
:10166000002327F0D5FB002800F0CC80924B9C4251
:1016700000F3C8804046494676E700228C4B27F0AD
:1016800037F942464B4627F033F9CDE900014FF0D8
:10169000000A00224FF080434046494626F076FF7C
:1016A00002460B464046494627F04CFA02460B4696
:1016B00006460F4627F01CF95FA3D3E90023044632
:1016C0000D4627F015F95EA3D3E9002326F05EFF4F
:1016D00022462B4627F00CF95BA3D3E9002326F022
:1016E00055FF22462B4627F003F959A3D3E90023DF
:1016F00026F04CFF22462B4627F0FAF856A3D3E9F2
:10170000002326F043FF22462B4627F0F1F854A38E
:10171000D3E9002326F03AFF22462B4627F0E8F8CB
:1017200051A3D3E9002326F031FF22462B4627F0B0
:10173000DFF804460D46BAF1000F00F0BF805046B6
:1017400027F070F84AA3D3E9002382468B4627F09E
:10175000CFF8DDE90023CDE904012046294626F033
:1017600015FF32463B4627F0C3F843A3D3E90023D5
:1017700004460D465046594627F0BAF8DDE90223E3
:1017800026F004FF02460B462046294626F0FEFEC0
:1017900002460B46DDE9000126F0F6FE42464B46C6
:1017A00026F0F2FE02460B46DDE9040126F0ECFECF
:1017B00007B0BDE8F08F45F40015C6F58016204649
:1017C0002946B6100AF1010A12E72DA3D3E9002336
:1017D0002046294627F08CF802460B460020314966
:1017E00026F0D2FEDDE9042327F082F806460F46F4
:1017F000BAF1000F73D102460B462046294626F067
:10180000C3FEB1E642464B464046494627F070F8D3
:101810000022274B27F06CF802460B46404649460B
:1018200026F0B2FE07B0BDE8F08F00BFAFF3008036
:10183000000000000000000044523EDF12F1C23FF1
:101840009FC678D0099AC33FDE03CB966446C73F54
:10185000AF788E1DC571CC3F599322942449D23F55
:1018600004FA97999999D93F935555555555E53FA0
:101870000000E0FE422EE63F763C7935EF39EA3D46
:10188000555555555555E53F7982DA3FFFFFEF3FF6
:101890000000F0BF000050C3FFFFEF7FFFFF1F3EBF
:1018A0003C412D400000F03FFFFF3F439DA006005C
:1018B0000000E03F00005043FFFF8F3CDDE90045A2
:1018C00022462B4626F062FE32463B4627F010F8B1
:1018D00002460B462046294626F056FE9CE7504617
:1018E00026F0A0FF23A3D3E9002382468B4626F0EF
:1018F000FFFF22A3D3E9002380468946504659467C
:1019000026F0F6FFDDE9022326F040FE02460B46F4
:101910003046394626F038FE22462B46DCE7504654
:1019200026F080FF15A3D3E9002306460F4626F0D4
:10193000DFFFDDE9022326F029FE0EA3D3E9002311
:1019400004460D463046394626F0D2FF02460B4685
:101950002046294626F01AFE06E60022044B26F011
:1019600013FE02460B464046494626F00DFE20E691
:101970000000F03F0000E0FE422EE63F763C793565
:10198000EF39EA3D0000000008B524F093FB04A302
:10199000D3E9002327F0D6F808BD00BFAFF30080DD
:1019A000EF39FAFE422EE63F2DE9F043DFF8B4802E
:1019B0008BB004460D4601F0F3F898F9003001337E
:1019C00006460F462BD022462B462046294627F0B6
:1019D00029FA814618BB2046294623F099FF1FA308
:1019E000D3E9002327F014FAC8B1194A98F9003056
:1019F000CDF820900321CDE90445CDE902458DE8DD
:101A000006008BB9134B4FF06042CDE906236846C0
:101A100026F09AFA70B1089B9BB9DDE9066730465B
:101A200039460BB0BDE8F0830B490020022BCDE90D
:101A30000601ECD126F036FD22230360089B002B23
:101A4000EBD026F02FFD089B0360E6E7AFF30080A4
:101A500050CD0200FFFFEF470000F07F7DF8B98F07
:101A6000CE338640FC0300202DE9F043DFF8E4800C
:101A70008BB004460D4601F043F998F9003001336C
:101A800006460F4633D02046294626F057FA70B353
:101A90002CA3D3E900232046294627F0B9F9814633
:101AA00050BB2AA3D3E900232046294627F092F908
:101AB000E8B198F90030204ACDF8209000260027A0
:101AC0000421022BCDE90445CDE90245CDE90667A5
:101AD0008DE8060029D0684626F036FA28B3089B20
:101AE0001BB126F0DFFC089B0360DDE9066730468A
:101AF00039460BB0BDE8F0830F4A98F900300192E7
:101B000003210022CDE90445CDE902450091089268
:101B10002BB90A4B4FF06042CDE90623DBE70849B9
:101B20000020022BCDE90601D5D126F0BBFC2223F3
:101B30000360D4E7AFF3008058CD0200FFFFEF470A
:101B40000000F07FEF39FAFE422E864051302DD54D
:101B5000104987C0FC0300202DE9F04FDFF80C93FB
:101B60008DB006460F4614461D4601F0C5FC99F996
:101B70000080B8F1FF3FCDE9000136D022462B4668
:101B80002046294627F04EF9834670BB32463B4635
:101B90003046394627F046F98246002840F0A280B8
:101BA000304639460022002327F00AF910B30022FC
:101BB00000232046294627F003F9834600286AD0EF
:101BC0009FEDA17B0122A44BCDF828A00292CDE984
:101BD0000467CDE906458DED087B0393B8F1000F4E
:101BE00045D09FED9B7B8DED007BDDE900010DB0C5
:101BF000BDE8F08FDDE9000126F0A0F9804600285D
:101C000000F08D804FF0000A4FF0000BDDE900017D
:101C100052465B4627F0D4F80028E6D030463946D5
:101C200026F08CF90028E0D02046294626F086F9D7
:101C30000028DAD099F90030874A03920421002263
:101C4000022BCDE90467CDE90645CDE908AB029149
:101C50000A9203D002A826F077F968B926F022FC90
:101C60002223036008E09FED787B8DED087B02A8BE
:101C700026F06AF9002830D00A9B1BB126F012FC2E
:101C80000A9B03609DED087B8DED007BDDE9000183
:101C90000DB0BDE8F08F2046294626F04FF9002808
:101CA000A3D0002200232046294627F093F80028DD
:101CB0009BD099F90030684ACDF828B00121CDE9D0
:101CC0000467CDE9064502910392002BCBD063490E
:101CD0000020022BCDE90801C9D126F0E3FB212326
:101CE0000360C9E7002200232046294627F068F850
:101CF00000283FF47AAF5A4B5749CDF828B000225C
:101D00000120B8F1020FCDE904670290CDE9064544
:101D1000CDE908230391AAD1CDE9002365E7304638
:101D2000394626F00BF900283FF46CAF20462946CF
:101D300026F004F900283FF465AFDDE900231046E2
:101D4000194627F06FF800285FD1032399F9008026
:101D50000293414B0A90CDE90467CDE90645039310
:101D6000B8F1000F2BD1DFF808B14FF0604A002224
:101D7000002330463946CDE908AB27F02BF8002880
:101D80003FF468AF0022374B2046294626F0B0FDCD
:101D900004460D4626F0E0F802460B46204629464A
:101DA00027F00EF870BB304B99F900804FF060427D
:101DB000CDE90823B8F1020F7FF44CAF4EE7DFF80E
:101DC000B4B04FF0000A0022002330463946CDE976
:101DD00008AB26F0FFFF0028ECD00022214B204664
:101DE000294626F085FD04460D4626F0B5F8024644
:101DF0000B462046294626F0E3FF18B9174B002270
:101E0000CDE9082399F90080D4E799F90090124BA5
:101E1000CDF828800122CDE90467CDE9064502927C
:101E20000393B9F1000F3FF41EAF002200231046C8
:101E3000194626F087FEB9F1020FCDE908013FF4FB
:101E40004CAF14E7AFF3008000000000000000007A
:101E5000000000000000F03F70CD02000000F0FF25
:101E60000000F03F0000E03FFFFFEFC7FC03002051
:101E7000FFFFEF470000F07F2DE9F84FC44E21F03F
:101E80000043B34204460D460DDD03F1404303F524
:101E90008013034340F0B980002940F340810020C3
:101EA0000021BDE8F88FBB4EB34240F3A680002965
:101EB000C0F2788102460B460020B74926F064FB49
:101EC0000022B64B26F014FD04460D4624F03AFEDF
:101ED00095A3D3E90023894680462946204626F06B
:101EE00007FD93A3D3E9002326F050FB22462B469F
:101EF00026F0FEFC90A3D3E9002326F045FB224602
:101F00002B4626F0F5FC8EA3D3E9002326F03EFBFA
:101F100022462B4626F0ECFC8BA3D3E9002326F0C7
:101F200033FB22462B4626F0E3FC89A3D3E90023AA
:101F300026F02CFB22462B4626F0DAFC86A3D3E9BA
:101F4000002382468B462046294626F0D1FC84A3F6
:101F5000D3E9002326F018FB22462B4626F0C8FCC6
:101F600081A3D3E9002326F011FB22462B4626F05D
:101F7000BFFC7FA3D3E9002326F006FB22462B46B5
:101F800026F0B6FC0022844B26F000FB02460B46EE
:101F90005046594626F0D6FD42464B4626F0A8FC50
:101FA000002682468B4632464B463046494626F04E
:101FB0009FFC02460B462046294626F0E5FA3246AB
:101FC00004460D464B464046494626F0DFFA024697
:101FD0000B462046294626F0B5FD02460B465046E4
:101FE000594626F0D3FA32464B4626F0CFFA02463F
:101FF0000B4626F0CBFABDE8F88F694A93420EDC17
:102000005DA1D1E90001BDE8F88F02460B4626F03C
:10201000BBFA02460B4626F095FDBDE8F88F024656
:102020000B4626F065FC40A3D3E9002306460F4685
:1020300026F05EFC3EA3D3E9002326F0A7FA324641
:102040003B4626F055FC3CA3D3E9002326F09CFA3E
:1020500032463B4626F04CFC39A3D3E9002326F058
:1020600095FA32463B4626F043FC37A3D3E90023DA
:1020700026F08AFA32463B4626F03AFC34A3D3E9EE
:10208000002326F083FA32463B4626F031FC32A389
:10209000D3E90023804689463046394626F028FC9D
:1020A0002FA3D3E9002326F06FFA32463B4626F0F1
:1020B0001FFC2DA3D3E9002326F068FA32463B46E5
:1020C00026F016FC2AA3D3E9002326F05DFA324657
:1020D0003B4626F00DFC00222F4B26F057FA024615
:1020E0000B464046494626F02DFD22462B4626F05B
:1020F000FFFB02460B4622A1D1E9000126F044FA7B
:1021000002460B462046294626F03EFA02460B467A
:1021100019A1D1E9000126F037FABDE8F88F1AA11C
:10212000D1E90001BDE8F88F09F7FD0DE13D023F5F
:1021300088B20175E0EF493F3B8F68B52882A43F24
:102140005544880E55C1C93F7D6FEB0312D6D43F6D
:10215000555555555555C53F82922EB1C5B8B33F1B
:1021600059018D1B6C06E63FC88A599CE52A004040
:102170004B2D8A1C273A0340182D4454FB21F93F6C
:10218000075C143326A6913C182D4454FB210940CA
:10219000FFFFEF3FFFFFDF3F0000F03F0000E03FA9
:1021A0000000603C00225C4B26F0F0F900225B4B03
:1021B00026F09EFB40A3D3E9002304460D4626F0FB
:1021C00097FB3FA3D3E9002326F0E0F922462B46F4
:1021D00026F08EFB3CA3D3E9002326F0D5F9224656
:1021E0002B4626F085FB3AA3D3E9002326F0CEF94F
:1021F00022462B4626F07CFB37A3D3E9002326F0AA
:10220000C3F922462B4626F073FB35A3D3E90023FE
:1022100026F0BCF922462B4626F06AFB804689460A
:102220002046294624F08EFC2FA3D3E9002306463E
:102230000F462046294626F05BFB2DA3D3E9002359
:1022400026F0A2F922462B4626F052FB2AA3D3E918
:10225000002326F09BF922462B4626F049FB28A3B3
:10226000D3E9002326F090F922462B4626F040FBC6
:102270000022294B26F08AF902460B464046494681
:1022800026F060FC32463B4626F032FB1EA3D3E923
:10229000002326F079F932463B4626F077F90246CC
:1022A0000B4626F073F902460B4619A1D1E900014D
:1022B00026F06AF9BDE8F88F09F7FD0DE13D023F10
:1022C00088B20175E0EF493F3B8F68B52882A43F93
:1022D0005544880E55C1C93F7D6FEB0312D6D43FDC
:1022E000555555555555C53F82922EB1C5B8B33F8A
:1022F00059018D1B6C06E63FC88A599CE52A0040AF
:102300004B2D8A1C273A0340075C143326A6913CC8
:10231000182D4454FB2109400000F03F0000E03F2D
:10232000434A91422DE9F84304460D4639DD414ABE
:10233000914209DD02F17952914240DD02460B469D
:1023400026F024F9BDE8F88301F1404202F580123D
:10235000024330D0B1F1804F3ADC0022364B26F0F8
:1023600013F902460B4604460D4626F00FF92246A5
:1023700006460F462B462046294626F0B9FA024665
:102380000B463046394626F001F924F0DBFB0B46BC
:1023900002462946204626F0F9F8BDE8F843FFF743
:1023A000BFB802460B4626F0EFF802460B4626F071
:1023B000C9FBBDE8F88300200021BDE8F88300F0E8
:1023C00017FE19A3D3E9002326F0E0F8BDE8F8834F
:1023D00002460B4626F08CFA0022174B26F0D4F862
:1023E00024F0B0FB2246804689462B4620462946EB
:1023F00026F0CCF8424606460F464B462046294674
:1024000026F0C4F802460B4600200B4926F09AFB42
:102410000B4602463946304626F0B6F8BDE8F8438A
:1024200000F0E6BDAFF30080EF39FAFE422EE63F42
:10243000FFFFEF3FFFFFAF410000F03F0000000053
:102440002DE9F047BE4B21F00048984584B0044682
:102450000D4612DD08F1404808F58018034658EA99
:10246000030321D002460B4626F08EF802460B46A7
:1024700026F068FB04B0BDE8F087B24B98458A4669
:1024800029DCB8F1795F80F2658191A3D3E900235B
:1024900026F07CF80022AC4B26F0BAFCD8B12046DE
:1024A000294604B0BDE8F0878BA3D3E9002326F0CA
:1024B0001FFA8BA3D3E9002306460F462046294680
:1024C00026F016FA02460B463046394626F05EF8EC
:1024D00004B0BDE8F0872046294623F019FA0246E9
:1024E0000B460020984926F04FF80022974B26F023
:1024F000FFF97DA3D3E9002304460D4626F0F8F941
:102500007BA3D3E9002326F041F822462B4626F090
:10251000EFF979A3D3E9002326F036F822462B46BB
:1025200026F0E6F976A3D3E9002326F02FF8224619
:102530002B4626F0DDF974A3D3E9002326F024F816
:1025400022462B4626F0D4F971A3D3E9002326F0C6
:102550001DF822462B4626F0CBF96FA3D3E90023C2
:10256000CDE900012046294626F0C2F96CA3D3E943
:10257000002326F009F822462B4626F0B9F96AA373
:10258000D3E9002326F002F822462B4626F0B0F9C4
:1025900067A3D3E9002325F0F7FF22462B4626F058
:1025A000A7F9694B002225F0F1FFCDE90201204691
:1025B000294624F0C7FA664B984506460F4666DC66
:1025C000DDE90223DDE9000126F0BCFA3246CDE95F
:1025D00000013B463046394625F0D8FF02460B46FF
:1025E000DDE9000126F084F94FF00008CDE9000193
:1025F00042463B464046394626F07AF902460B46AB
:102600002046294625F0C0FF424604460D463B467B
:102610003046394625F0BAFF02460B462046294689
:1026200026F090FA02460B4625F0B0FF02460B4614
:102630002BA1D1E9000125F0A7FF02460B46DDE9F9
:10264000000125F0A1FF424604460D463B464046A8
:10265000394625F09BFF02460B4637A1D1E9000120
:1026600025F092FF02460B462046294625F08CFFB6
:1026700002460B4630A1D1E9000125F085FFBAF1F1
:10268000000F3FF7F7AE01F100431946F2E6DDE92E
:102690000223DDE9000126F055FA32463B4626F0DA
:1026A00027F932463B4625F071FF02460B4625F0DE
:1026B0006DFF0BA3D3E9002325F066FF02460B460E
:1026C00005A1D1E9000125F05FFFD8E7AFF3008055
:1026D0009C7500883CE4377E182D4454FB21F93F5B
:1026E000075C143326A6913C09F7FD0DE13D023F3E
:1026F00088B20175E0EF493F3B8F68B52882A43F5F
:102700005544880E55C1C93F7D6FEB0312D6D43FA7
:10271000555555555555C53F82922EB1C5B8B33F55
:1027200059018D1B6C06E63FC88A599CE52A00407A
:102730004B2D8A1C273A0340182D4454FB21E93FB6
:10274000FFFFEF3FFFFFDF3F0000F03F0000E03FF3
:102750003233EF3F02460B4626F0CAF837A3D3E9DF
:10276000002306460F4626F0C3F836A3D3E900231C
:1027700025F00CFF32463B4626F0BAF833A3D3E9E6
:10278000002325F001FF32463B4626F0B1F831A385
:10279000D3E9002325F0FAFE32463B4626F0A8F89E
:1027A0002EA3D3E9002325F0EFFE32463B4626F068
:1027B0009FF82CA3D3E9002325F0E8FE32463B46E0
:1027C00026F096F829A3D3E90023804689463046AF
:1027D000394626F08DF827A3D3E9002325F0D4FE4F
:1027E00032463B4626F084F824A3D3E9002325F0A3
:1027F000CDFE32463B4626F07BF822A3D3E90023E8
:1028000025F0C2FE32463B4626F072F800220A4B03
:1028100025F0BCFE02460B464046494626F092F99A
:1028200022462B4626F064F822462B4625F0AEFEC3
:1028300004B0BDE8F08700BF0000F03F09F7FD0DD0
:10284000E13D023F88B20175E0EF493F3B8F68B53B
:102850002882A43F5544880E55C1C93F7D6FEB03C4
:1028600012D6D43F555555555555C53F82922EB178
:10287000C5B8B33F59018D1B6C06E63FC88A599C09
:10288000E52A00404B2D8A1C273A03400000000037
:102890002DE9F84F1D465342134325F0004ADFF857
:1028A000E0E14AEAD3737345144606460F4647D81B
:1028B000C0F1000848EA000821F0004343EAD87854
:1028C000F0458B463CD805F1404808F5801858EA99
:1028D000020850D04FEAA57808F0020848EAD178FB
:1028E00050EA030134D052EA0A023CD0F24557D0F4
:1028F000734538D0A3EB0A031B153C2B42DC002D9B
:1029000070DB22462B463046394626F01BF922F072
:10291000FFFFFEF751FBB8F1010F5FD0B8F1020FD6
:102920004ED0B8F1000F62D043A3D3E9002325F0C5
:102930002BFE43A3D3E9002325F026FEBDE8F88F44
:1029400032463B462046294625F020FEBDE8F88F5A
:10295000B8F1020F1AD0B8F1030F10D13AA1D1E9A2
:102960000001BDE8F88FBBF1000F14DB38A1D1E9FD
:102970000001BDE8F88FBDE8F84FFEF71DBB3946F2
:10298000BDE8F88F32A1D1E90001C4E72CA1D1E95B
:102990000001BDE8F88F30A1D1E90001BDE8F88F52
:1029A000534526D0B8F1020FF0D0B8F1030FD5D0BF
:1029B000B8F1010F4FF0000029D00021BDE8F88FD9
:1029C0001DA3D3E9002325F0DFFD02460B461CA121
:1029D000D1E9000125F0D8FDBDE8F88F01F10041F3
:1029E000BDE8F88F3C338CDA0020002193E7BDE886
:1029F000F88FB8F1020F18D0B8F1030F10D0B8F16A
:102A0000010F08D016A1D1E90001BDE8F88F4FF001
:102A10000041BDE8F88F14A1D1E90001BDE8F88FAD
:102A200013A1D1E90001BDE8F88F13A1D1E900019C
:102A3000BDE8F88FAFF30080075C143326A6A13CF5
:102A4000182D4454FB210940182D4454FB2109C082
:102A5000182D4454FB21F93F182D4454FB21F9BF94
:102A6000182D4454FB21E93F182D4454FB21E9BFA4
:102A7000D221337F7CD902C0D221337F7CD902405E
:102A80000000F07F0000000043422DE9F0470343BF
:102A900021F000463E4A46EAD373934204460D466F
:102AA00013D896423DD03B4B9E428A4617DC36A354
:102AB000D3E9002325F06AFD0022002326F0A8F9BF
:102AC000A8B320462946BDE8F08702460B4625F00C
:102AD0005BFD02460B4626F035F8BDE8F0872E4B2D
:102AE0009E42354624DD33460246314625F04EFDF2
:102AF000224606460F462B460020254925F044FD78
:102B000002460B463046394626F01CF8FEF708FD13
:102B10000022224B25F0ECFEBAF1000F2FDBBDE8BE
:102B2000F0870022002326F00DF8BDE8F087354637
:102B300022462B462046294625F028FD22462B46D4
:102B400006460F4625F0D4FE2246804689462B468F
:102B500000200F4925F018FD02460B464046494625
:102B600025F0F0FF32463B4625F010FDFEF7D8FC7D
:102B700000220A4B25F0BCFEBAF1000FCFDA01F1BA
:102B800000431946BDE8F0879C7500883CE4377E19
:102B90000000F03FFFFF2F3EFFFFDF3F0000E03F60
:102BA0002DE9F8434E4B21F000449C4206460F4667
:102BB0001BDC4C4B9C4222DD4B4B9C4263DD4B4B60
:102BC0009C427BDD4A4B9C4246DD01339C4240D017
:102BD00041A3D3E900231046194625F089FE064695
:102BE0000F4630463946BDE8F88302460B4625F0CD
:102BF0007FFE06460F4630463946BDE8F88322F090
:102C000087FE02F0B1FC00223A4B8046894625F04F
:102C1000BDFCB4F1725F06460F46ECDB42464B4604
:102C20004046494625F064FE32463B4604460D4682
:102C30003046394625F0AAFC02460B462046294676
:102C400025F080FF00222B4B25F0A0FC06460F4606
:102C5000D1E7294B9842BBD83046394622F058FE7E
:102C60000022264B25F044FE00F04AF800220446DC
:102C70000D46224B25F03CFE22462B4625F038FE21
:102C800006460F46B7E722F043FE00F039F800226F
:102C90001A4B06460F4625F02BFE32463B460446AD
:102CA0000D460020154925F04DFF02460B462046F3
:102CB000294625F06BFC06460F469CE722F028FECD
:102CC00000F01EF800220D4B25F012FE06460F46BE
:102CD00091E700BFAFF300809C7500883CE4377E2D
:102CE000FFFFEF7F422ED63FFFFF3540412E86404B
:102CF000CD3386400000F03F7DF8B98F0000E03F03
:102D00002DE9F04FB04E21F00042B24283B00446AC
:102D10000D464FEAD1770DD9AC4EB24225D9C1F359
:102D20001303034340F0EC800FB10020002103B0F7
:102D3000BDE8F08FA64B9A4200F2CB80A54B9A4299
:102D400000F2DC808AA3D3E9002325F01FFC0022D7
:102D5000A14B26F05DF8002800F0068120462946A8
:102D600000229D4B25F012FCE1E783A3D3E9002369
:102D700026F04EF8002840F0C88081A3D3E9002354
:102D80002046294626F026F80028CED1934E7EA371
:102D9000D3E9002306EBC7062046294625F0A8FD07
:102DA000D6E9002325F0F2FB26F052F8064625F07E
:102DB00039FD77A3D3E900238046894625F098FDA5
:102DC00002460B462046294625F0DEFB72A3D3E9D6
:102DD0000023CDE900014046494625F089FD8246A1
:102DE0008B4652465B46DDE9000125F0CDFB0446EB
:102DF0000D4622462B462046294625F079FD68A33C
:102E0000D3E900238046894625F072FD66A3D3E905
:102E1000002325F0B9FB42464B4625F069FD64A32B
:102E2000D3E9002325F0B2FB42464B4625F060FD76
:102E300061A3D3E9002325F0A7FB42464B4625F0CA
:102E400057FD5FA3D3E9002325F0A0FB42464B4684
:102E500025F04EFD02460B462046294625F094FB00
:102E600080468946002E58D02046294642464B4689
:102E700025F03EFD424604460D464B4600204FF0ED
:102E8000804125F081FB02460B462046294625F06D
:102E900059FE02460B465046594625F075FBDDE9C2
:102EA000002325F071FB0B4602464B49002025F01C
:102EB0006BFB6FF47F739E4251DA06F57A7601EB75
:102EC000065100224FF0B87325F012FD03B0BDE8A3
:102ED000F08F434B9A423FF659AF424BFC002344DC
:102EE000D3E9002325F050FB3F4BC7F101062344F3
:102EF000CDE90001D3E900ABF61B72E7002678E7C5
:102F000002460B4625F042FB11E719A3D3E9002343
:102F10001046194625F0ECFC09E702460B46204610
:102F2000294625F0E5FC002206460F464FF0804377
:102F30004046494625F028FB02460B4630463946B6
:102F400025F000FE22462B4625F01EFB02460B46CE
:102F50000020214925F018FB03B0BDE8F08F01EBFC
:102F6000065103B0BDE8F08F064642E7AFF300809C
:102F70009C7500883CE4377EEF39FAFE422E86408D
:102F800051302DD5104987C0FE822B654715F73F7C
:102F90000000E0FE422EE63F763C7935EF39EA3D0F
:102FA000D0A4BE726937663EF16BD2C541BDBB3E4F
:102FB0002CDE25AF6A56113F93BDBE166CC1663F2D
:102FC0003E5555555555C53F412E8640FFFFEF7F75
:102FD000422ED63FFFFF2F3E0000F03F689C0200CC
:102FE000B1A2F03F789C0200889C02000000000023
:102FF0002DE9F04FB1F5801F85B006460F460B4610
:103000005ADA024621F00044224300F0F8800029F9
:10301000C0F27A810022D64B25F06AFCD54A0B46D5
:10302000934206460F466FF0350C4ADCC3F3130596
:1030300005F5152E0EF6647E0EF4801E8EF07F527E
:1030400082F440121C1542EA0507A4F2FF346444DE
:103050000022C94B3046394604EB1E5425F094FA41
:10306000AB1CC3F31303022B82468B464FF00002C6
:1030700030DC002325F0A4FE002800F0C980002CDD
:1030800000F04B81204625F0CDFBA5A3D3E900231A
:1030900006460F4625F02CFCA3A3D3E900230446E3
:1030A0000D463046394625F023FC02460B462046A5
:1030B000294625F06BFA0AE0AE4A93424FF0000C25
:1030C000B4DD32463B463046394625F05FFA05B05E
:1030D000BDE8F08F4FF0804325F058FA02460B46CA
:1030E0005046594625F02EFD064620460F4625F04F
:1030F00099FB3246CDE900013B4630463946CDE9E1
:10310000026725F0F5FB02460B468046894625F00E
:10311000EFFB87A3D3E9002306460F4625F0E8FB23
:1031200085A3D3E9002325F031FA32463B4625F04A
:10313000DFFB83A3D3E9002325F028FA32463B4680
:1031400025F0D6FB80A3D3E9002325F01FFA4246E1
:103150004B4625F0CDFB7EA3D3E90023804689466C
:103160003046394625F0C4FB7BA3D3E9002325F084
:103170000DFA32463B4625F0BBFB79A3D3E9002389
:1031800025F004FA32463B4625F0B2FB0B460246D8
:103190004946404625F0FAF9A5F5C223C5F5D725DD
:1031A000A3F27A4351351D43002D8046894656DDF2
:1031B0000022724B5046594625F09AFB52465B4618
:1031C00025F096FB06460F46002C68D132463B465A
:1031D0004046494625F0DAF9DDE9022325F088FB6F
:1031E00002460B463046394625F0CEF902460B46DC
:1031F0005046594625F0C8F905B0BDE8F08F0022C9
:10320000002300205E4925F09DFC05B0BDE8F08F4D
:1032100055A3D3E900235046594625F069FB0246E1
:103220000B460020554925F0AFF9524606460F4699
:103230005B465046594625F05BFB02460B4630463E
:10324000394625F055FB06460F46002C40F09A8083
:1032500002460B465046594625F096F937E7002CB2
:1032600000F0A4802EA3D3E90023DDE9000125F0BE
:103270003FFB42464B4604460D465046594625F014
:1032800083F9DDE9022325F033FB27A3D3E90023EB
:1032900006460F46DDE9000125F02AFB21E020A3C8
:1032A000D3E90023DDE9000125F022FB32463B464D
:1032B00004460D464046494625F068F9DDE90223FB
:1032C00025F016FB18A3D3E9002380468946DDE9E3
:1032D000000125F00DFB02460B464046494625F00D
:1032E00055F902460B463046394625F04DF952460F
:1032F0005B4625F049F902460B462046294625F053
:1033000043F905B0BDE8F08F02460B4625F03CF9C5
:103310000022002325F016FCD9E600200021D6E685
:103320000000E0FE422EE63F763C7935EF39EA3D7B
:1033300044523EDF12F1C23FDE03CB966446C73FE4
:10334000599322942449D23F935555555555E53FFD
:103350009FC678D0099AC33FAF788E1DC571CC3F08
:1033600004FA97999999D93F555555555555D53FD3
:1033700000005043FFFFEF7F0000F03F0000E03F00
:10338000000050C3204625F04DFA0FA3D3E90023D7
:103390008046894625F0ACFA0DA3D3E90023044604
:1033A0000D464046494625F0A3FA9AE702460B46E9
:1033B0005046594625F0E8F8DDE9022325F098FA51
:1033C00014E700BFAFF300800000E0FE422EE63FAE
:1033D000763C7935EF39EA3DB1F5801F2DE9F843A8
:1033E00004460D460B461ADA024621F000463243E7
:1033F00059D000295FDB00223B4B25F079FA3B4A8C
:103400000D462B46934204466FF035010CDD2246F3
:103410002B462046294625F0B9F8BDE8F883334A03
:1034200093424FF00001F2DC1815A0F2FF3008447F
:103430004FEAD0794844C3F3130825F0F3F9C9F5EE
:103440007F73033348EA035506460F462046294654
:10345000FFF7CEFD1EA3D3E9002380468946304600
:10346000394625F045FA1CA3D3E9002304460D464E
:103470004046494625F03CFA02460B46204629467E
:1034800025F084F816A3D3E9002304460D46304600
:10349000394625F02DFA02460B462046294625F0EE
:1034A00075F8BDE8F883002200230020104925F0BC
:1034B00049FBBDE8F88302460B4625F065F800227B
:1034C000002325F03FFBBDE8F88300BFAFF3008089
:1034D000362BF111F3FE593D0EE526157BCBDB3F74
:1034E00000609F501344D33F00005043FFFFEF7F25
:1034F000000050C3000000002DE9F04F23F000470A
:1035000057EA020493B037D0674C21F00046A64238
:1035100083460D4629DC9A46964625D0A74224DCF0
:10352000614CA74279D0002D80468946CDE9002321
:1035300077DB0024BEF1000F2CD15B4B9F4200F0E3
:103540008B805A4B9F4261D0BAF1804F00F0C38309
:10355000574B9A451ED1002D1CDB4046494613B0FF
:10356000BDE8F04F23F0EEBA58B106F1404606F53B
:10357000801656EA0B0306D14C49002013B0BDE873
:10358000F08FB742CCDD4B4813B0BDE8F04F24F0CC
:10359000DDBC00244046494622F0BAF9BBF1000FD9
:1035A00019D126B1414B25F040429A4213D1BAF1CC
:1035B000000FC0F2CA83002DE0DA06F1404606F59E
:1035C000801656EA040300F0A584012CD6D101F13F
:1035D00000431946D2E7ED0F013D54EA05034ED0F2
:1035E000354B9F426EDD03F104739F4240F3FE832F
:1035F000324B9E424EDDBAF1000F4EDD28A3D3E9D7
:1036000000231046194625F073F9B7E7BAF1000F09
:10361000C0F2528440464946B0E7BEF1000F82D066
:10362000A3E7274B9F4228DCA3F154739F4280DD20
:103630003B15A3F2FF33142B40F35484C3F134033E
:103640002EFA03F202FA03F39E457FF472AF02F002
:103650000102C2F102046DE706F1404303F5801355
:1036600053EA0B0388D0154B9E4240F33B83BAF1DB
:10367000000F12DBDDE9000180E702245AE7424631
:103680004B461046194624F07FFF02460B4625F0B4
:1036900059FA73E7BAF1000FB0DB002000216DE7A3
:1036A0009C7500883CE4377E0000F07F0000F03F0E
:1036B0000000E03FDCA602000000E041FFFFEF3F1A
:1036C000FFFF3F43B6F5801F4FF0000205DAD84BED
:1036D00025F00EF96FF034020E463315D54FC6F3C0
:1036E0001306A3F2FF33134446F07F5ABE421A4634
:1036F0000D934AF4401A40F32F83CF4B9E4240F380
:103700000D849FEDB57B8DED087B8DED0E7B9FEDE0
:10371000B47B13468DED067B01330D93AAF5801A19
:103720000027DDE906235146CDE90A0124F02CFFEC
:10373000DDE9062380468946DDE90A0124F026FFFB
:1037400002460B460020BD4925F0FCF90A46014619
:10375000CDE91012134649460246404625F0C8F806
:103760004FEA6A0343F000538C46834603F5002377
:10377000CDE904BCDA468B46D9190023CDE902AB6A
:103780000293DDE902AB002006460F4602460B46D7
:103790005046594625F0ACF802460B46404649468D
:1037A00024F0F2FEDDE9062380468946304639469C
:1037B00024F0EAFE02460B46DDE90A0124F0E4FEAD
:1037C00052465B4625F094F802460B464046494671
:1037D00024F0DAFEDDE9102325F08AF8DDE904673C
:1037E000CDE9060132463B463046394625F080F8A1
:1037F0007DA3D3E9002306460F4625F079F87CA384
:10380000D3E9002324F0C2FE32463B4625F070F88F
:1038100079A3D3E9002324F0B9FE32463B4625F0D4
:1038200067F877A3D3E9002324F0B0FE32463B4685
:1038300025F05EF874A3D3E9002324F0A7FE3246F6
:103840003B4625F055F872A3D3E9002324F09EFEF1
:103850003246804689463B463046394625F048F890
:1038600002460B464046494625F042F85246064677
:103870000F465B46DDE9040124F088FEDDE90623FE
:1038800025F036F832463B4624F080FE524680460C
:1038900089465B465046594625F02AF80022684B77
:1038A000CDE90A0124F072FE42464B4624F06EFE3A
:1038B00002980F46064632463B465046594625F08A
:1038C00017F8002282468B465D4B3046394624F07D
:1038D0005BFEDDE90A2324F057FE02460B46404614
:1038E000494624F051FEDDE9042325F001F8324673
:1038F000804689463B46DDE9060124F0F9FF024691
:103900000B464046494624F041FE80468946024621
:103910000B4650465946CDE904AB24F037FEDDE9AD
:1039200002AB3DA3D3E9002350460F4624F0E0FF4D
:10393000DDE90423CDE902013946504624F024FE96
:1039400002460B464046494624F01EFE34A3D3E906
:10395000002324F0CDFF34A3D3E900238046894619
:103960005046394624F0C4FF02460B4640464946BD
:1039700024F00CFEDDE90E2324F008FE80460D98AD
:10398000894624F04FFF424606460F464B46DDE986
:10399000020124F0FBFDDDE9082324F0F7FD3246A7
:1039A0003B4624F0F3FD32463B4650468B4624F01E
:1039B000EBFDDDE9082324F0E7FDDDE9022324F037
:1039C000E3FD02460B464046494624F0DDFD8046B5
:1039D000894637E0AFF300800000000000000000DF
:1039E000000000000000F03FEF4E454A287ECA3F2D
:1039F00065DBC9934A86CD3F01411DA96074D13F63
:103A00004D268F515555D53FFFAB6FDBB66DDB3F74
:103A1000033333333333E33F000000E009C7EE3FA5
:103A2000FD033ADC09C7EE3FF5015B14E02F3EBE13
:103A3000000040438E98030079B60B000000F03F71
:103A400000000840013C54EA050300F079819FED35
:103A5000C87B8DED047BDDE900120B461446CDE9F1
:103A6000023400230293DDE9024508462B46114645
:103A7000224624F089FD52465B4624F039FFDDE9F9
:103A8000002306460F464046494624F031FF0246D1
:103A90000B463046394624F079FD22468046894659
:103AA0002B4650465946CDE9008924F021FF0B46AC
:103AB000024606460F464046494624F067FDC64B7F
:103AC000994204460D468A4640F3168101F13F4370
:103AD00003F5E003034340F0F781A7A3D3E90023F4
:103AE000DDE9000124F052FD3246804689463B461E
:103AF0002046294624F048FD02460B4640464946EA
:103B000025F086F9002840F0DF81A8464FEA2853C7
:103B10004FF48012A3F2FE3342FA03F35344C3F38B
:103B20000A52AE4DA2F2FF321541C3F3130423EA49
:103B300005010020C2F1140B44F48014BAF1000F07
:103B400002460B4644FA0BFB30463946B8BFCBF170
:103B5000000B24F019FD02460B4606460F46DDE930
:103B6000000124F013FD4FEA0B5A0D46002484A3F4
:103B7000D3E900232046294624F0BAFE3246804687
:103B800089463B462046294624F0FEFC02460B4669
:103B9000DDE9000124F0F8FC7BA3D3E9002324F045
:103BA000A7FE7BA3D3E9002306460F4620462946FD
:103BB00024F09EFE02460B463046394624F0E6FCD1
:103BC00006460F4602460B464046494624F0DEFCB8
:103BD00042464B4604460D4624F0D6FC02460B46B0
:103BE0003046394624F0D0FC2246804689462B4692
:103BF0002046294624F07CFE67A3D3E9002306462D
:103C00000F4624F075FE66A3D3E9002324F0BCFC24
:103C100032463B4624F06CFE63A3D3E9002324F034
:103C2000B5FC32463B4624F063FE61A3D3E9002392
:103C300024F0AAFC32463B4624F05AFE5EA3D3E9A8
:103C4000002324F0A3FC32463B4624F051FE0246FA
:103C50000B462046294624F097FC06460F460246AE
:103C60000B462046294624F043FE0022CDE9000100
:103C70004FF080433046394624F086FC02460B461E
:103C8000DDE9000124F05EFF424606460F464B4642
:103C90002046294624F02CFE42464B4624F076FC72
:103CA00002460B463046394624F06EFC22462B462F
:103CB00024F06AFC02460B460020494924F064FCCB
:103CC0008A44BAF5801FC0F239815146DDE90423E8
:103CD00024F00EFE52E442464B464046494624F04C
:103CE00007FE4BE4BAF1000FBFF6D7ACDDE90034B4
:103CF000184604F1004141E43A4B21F00048984550
:103D000040F3FF80384B0B4403430CD132463B4613
:103D100024F03AFC02460B46DDE9000125F064F888
:103D200000283FF4F3AEDDE9040125A3D3E9002325
:103D300024F0DEFD22A3D3E9002324F0D9FD1DE405
:103D40009FED217B8DED047B85E602460B4600202E
:103D5000234924F0F7FE2EE49FED1D7B8DED087BBB
:103D60008DED0E7B9FED027B00278DED067BD8E469
:103D7000000000000000F03FFE822B654715973CD5
:103D800000000000432EE63FEF39FAFE422EE63FE8
:103D9000396CA80C615C20BED0A4BE726937663E47
:103DA000F16BD2C541BDBB3E2CDE25AF6A56113F3B
:103DB00093BDBE166CC1663F3E5555555555C53F22
:103DC00059F3F8C21F6EA501000000000000F0BF0B
:103DD0000000000000000000FFFF8F40FFFF0F0009
:103DE0000000F03FFFCB904000346F3F684B9E4295
:103DF0007FF750AC674B9E423FF7FDAB0022654B0F
:103E000024F0C2FB52A3D3E9002306460F4624F058
:103E10006FFD51A3D3E900238046894630463946D9
:103E200024F066FD002282468B465B4B30463946C5
:103E300024F05EFD02460B4649A1D1E9000124F0C1
:103E4000A3FB32463B4624F053FD02460B460020BE
:103E5000524924F099FB3246CDE902013B463046F7
:103E6000394624F045FD02460B46DDE9020124F007
:103E70003FFD3DA3D3E9002324F03AFD02460B4663
:103E80005046594624F080FB02460B4606460F4634
:103E90004046494624F07AFB42464B460020824683
:103EA0008B4624F071FB02460B463046394624F01F
:103EB0006BFB80468946C5E542464B4600203549A6
:103EC00024F040FEFFF75ABBDDE9040128A3D3E943
:103ED000002324F00DFD26A3D3E9002324F008FDE0
:103EE000FFF74CBBBEF1000F7FF453ABC3F11403DB
:103EF00047FA03F202FA03F39F4223D07446FFF716
:103F000020BB264B98453FF701AEDDE902239246E0
:103F100093462BE602460B46FFF7B3BB9FED167B9D
:103F20008DED087B9FED167B8DED0E7B9FED167B57
:103F30004FF480278DED067BFFF7F3BB5A4601F067
:103F40004FFDC3E602F00102C2F10204FFF7F9BA25
:103F5000000000604715F73F44DF5DF80BAE543EAC
:103F6000555555555555D53FFE822B654715F73F9D
:103F70009C7500883CE4377E0000004003B8E23FB7
:103F800006D0CF43EBFD4C3E000000000000F83FA0
:103F9000FEFFEF3F0000F03F0000D03F0000E03F99
:103FA0002DE9F0479C4B21F000479F4290B080469E
:103FB000894640F38E80994B9F420C46924626DC00
:103FC00000298BA3D3E9002340F3B08124F0DCFA6D
:103FD000934B9F4204460D4600F0908086A3D3E9A0
:103FE000002324F0D1FA02460B46CAE900232046FA
:103FF000294624F0C9FA80A3D3E9002324F0C4FAA7
:104000000125CAE90201284610B0BDE8F087854BBA
:104010009F4240F39080844B9F4265DC3D15A5F2A2
:104020001645A7EB055319461F46064624F010FF18
:1040300024F0F8FB8046894642464B4630463946D6
:10404000CDE90A8924F0A0FA0022784B24F050FC34
:104050008946804624F0FCFE24F0E4FB06460F4629
:1040600032463B4640464946CDE90C6724F08CFA7F
:1040700000226E4B24F03CFC00220023CDE90E010F
:1040800024F09EFE002800F06F8100233046394660
:10409000002224F095FE002814BF01230223644A65
:1040A000019202212A4600910AA8514600F08CFB99
:1040B000002C054614DADAF80420DAF80C3002F1A4
:1040C000004203F100434542CAF80420CAF80C300C
:1040D00006E000200021C2E90089C2E902010025B2
:1040E000284610B0BDE8F08702460B4624F04CFA93
:1040F0000025CAE90201CAE90001F1E740A3D3E9BA
:10410000002324F041FA40A3D3E900230D460446DE
:1041100024F03AFA02460B46CAE900232946204613
:1041200024F032FA38A3D3E9002324F02DFA012534
:10413000CAE90201D4E721F0EBFB35A3D3E9002360
:104140008046894624F0D4FB00223A4B24F01EFA24
:1041500024F07EFE054624F065FB25A3D3E9002369
:10416000CDE9060124F0C4FB02460B464046494611
:1041700024F00AFA20A3D3E90023CDE90201DDE906
:10418000060124F0B5FB1F2D80468946CDE9048940
:1041900054DC294B6A1E53F822309F424ED002460F
:1041A0000B46DDE9020124F0EFF980468946CAE9B1
:1041B000008942464B46DDE9020124F0E5F9DDE9DC
:1041C000042324F0E1F9002CCAE9020188DA09F19C
:1041D000004401F100436D42CAF80080CAF804406F
:1041E000CAF80800CAF80C307AE700BFAFF30080C5
:1041F00000004054FB21F93F3163621A61B4D03DA5
:104200000000601A61B4D03D7370032E8A19A33B7D
:1042100083C8C96D305FE43FFB21E93F7BD9024091
:10422000FB21F93FFB213941FFFFEF7F0000704187
:104230001CCE02000000E03F9CCD0200DDE904231B
:10424000DDE9020124F0A0F93F15C1F30A53FB1A7E
:1042500080468946102BCAE90089AADD58A3D3E914
:104260000023DDE9060124F043FB8046894602462F
:104270000B46DDE9020124F087F902460B46DDE931
:104280000201CDE9082324F07FF942464B4624F091
:104290007BF94DA3D3E9002380468946DDE9060179
:1042A00024F026FB42464B4624F06EF90B46CDE93E
:1042B00004010246DDE9080124F066F9C1F30A535E
:1042C000FF1A80468946312FCAE900896CDD41A377
:1042D000D3E90023DDE9060124F00AFBDDE90889C2
:1042E00006460F4602460B464046494624F04CF926
:1042F00002460B4640464946CDE9022324F044F9E4
:1043000032463B4624F040F934A3D3E90023064665
:104310000F46DDE9060124F0EBFA32463B4624F075
:1043200033F902460B46CDE904233AE724F02EF98F
:10433000274B9F4204460D4618D01FA3D3E9002304
:1043400024F024F902460B46CAE9002329462046F8
:1043500024F01AF918A3D3E9002324F017F94FF039
:10436000FF35CAE90201BBE6032398E614A3D3E9AB
:10437000002324F00BF914A3D3E900230D460446CF
:1043800024F004F902460B46CAE9002329462046D8
:1043900024F0FAF80CA3D3E9002324F0F7F84FF047
:1043A000FF35CAE902019BE69DED087B8DED027B9E
:1043B000FFE600BFAFF300803163621A61B4D03D05
:1043C0000000601A61B4D03D7370032E8A19A33BBC
:1043D000FB21F93F0000002E8A19A33BC14920258B
:1043E0009A837B3900000000594A2DE9F84F21F0EB
:1043F0000048904506460F462BDC564B0029B4BFBB
:10440000554D564D98454FF0000410DC544B9845DF
:1044100070DC4DA3D3E9002324F0B8F80022514BFF
:1044200024F0F6FCD8B130463946BDE8F88F4E4B43
:1044300098457CDD4D4B984544DD013398453ED091
:104440003046394640A3D3E9002324F051FABDE8B1
:10445000F88F02460B4624F099F8BDE8F88F3046F5
:10446000394621F055FA01F07FF806460F463246EC
:104470003B463046394624F089F8324682468B4620
:104480003B463046394624F033FA002280468946BE
:10449000344B3046394624F079F802460B46404604
:1044A000494624F04FFB02460B465046594624F03D
:1044B0006BF822462B4624F01BFABDE8F88F2C4BF4
:1044C0009842BDD83046394621F022FA0022234BCB
:1044D00024F00EFAFEF714FC06460F4602460B4681
:1044E0002046294624F004FA32463B4624F000FADE
:1044F000BDE8F88F21F00CFA01F036F81D4B984515
:1045000006460F46B3DD0022164B24F03FF8024664
:104510000B463046394624F015FB32463B4624F024
:1045200035F822462B4624F0E3F9BDE8F88F21F058
:10453000EFF9FEF7E5FB02460B462046294624F03C
:10454000D7F9BDE8F88F00BF3374AC3C1F7BAC7F5C
:10455000FFFFEF7FFFFF35400000E0BF0000E03FBE
:10456000FFFF2F3E0000F03F412E8640CD338640B6
:104570007DF8B98FFFFFEF3F2DE9F04F21F00048A4
:10458000B8F1795F85B006460F4692469B466BDAD6
:1045900024F05EFC002800F0EA8032463B463046BC
:1045A000394624F0A5F974A3D3E9002304460D4647
:1045B00024F09EF972A3D3E9002323F0E7FF2246FB
:1045C0002B4624F095F970A3D3E9002323F0DCFFF8
:1045D00022462B4624F08CF96DA3D3E9002323F067
:1045E000D5FF22462B4624F083F96BA3D3E90023A1
:1045F00023F0CAFF22462B4624F07AF968A3D3E9B8
:10460000002323F0C3FF22462B4624F071F9CDE9A5
:1046100000010022664B2046294624F069F9DDE9B5
:104620000023804689462046294624F061F95246F7
:1046300004460D465B463046394624F059F9024699
:104640000B462046294623F09FFF02460B46404674
:10465000494623F099FF02460B460020554923F0B6
:1046600093FF05B0BDE8F08F02460B4624F040F9F9
:1046700041A3D3E9002304460D4624F039F940A3B1
:10468000D3E9002323F082FF22462B4624F030F9A1
:104690003DA3D3E9002323F077FF22462B4624F0E5
:1046A00027F93BA3D3E9002323F070FF22462B46D2
:1046B00024F01EF938A3D3E9002323F065FF224636
:1046C0002B4624F015F936A3D3E9002323F05EFF2F
:1046D0002B46224624F00CF9374B9845CDE90001D2
:1046E00097DD364B984539DCA8F5001300220020F1
:1046F00030499046994623F047FFCDE90201002258
:104700002B4B2046294624F0F3F842464B4623F033
:104710003BFFDDE90023804689462046294624F0F8
:10472000E7F8524604460D465B463046394624F0CB
:10473000DFF802460B462046294623F025FF0246B5
:104740000B464046494623F01FFF02460B46DDE973
:10475000020123F019FF05B0BDE8F08F9FED127B39
:104760004FF000088DED027BDFF85490C7E7114948
:10477000002005B0BDE8F08FD43888BEE9FAA8BDA6
:10478000C4B1B4BD9EEE213EAD529C804F7E923EA0
:104790009015CB19A001FA3E7751C1166CC1563F56
:1047A0004C5555555555A53F000000000000E73F0A
:1047B0000000E03F0000F03F3233D33F0000E93F0C
:1047C0000000D23F000000002DE9F04FADF51B7D49
:1047D0009F4CA49E9F4D54F8264007942646D41E15
:1047E00085FB0475E417C4EBA50424EAE4741D46B4
:1047F0000A93631CA3EB8303013D02EBC3030693FF
:104800002B460B940395651BF418049008911AD459
:104810002C440026002701340DF18808DDF894921D
:1048200008E059F8250023F0FDFF0135A542E8E82E
:10483000020108D0002DF4DA013530463946A54290
:10484000E8E80201F6D1079B002BC0F2DF83079B4B
:1048500003F1010B0A9B22A9DB001A4601EB0309B5
:104860000093049B0DF5E47A19460AEBCB0B01EBA0
:104870000208039B002BC0F2F582049C4D460026E3
:10488000002775E90223F4E8020124F031F802461A
:104890000B463046394623F079FE444506460F461E
:1048A000EFD1EAE80267DA4509F10809E1D1079991
:1048B0000098049C009101F18043013B9B0020443F
:1048C0001A1F83460EA8024403440C920D93009ACB
:1048D0009AA901EBC203002A53E9284529DD0DF509
:1048E000E47A0AEBC2080DF1340900225A4B204643
:1048F000294623F0FDFF24F0ABFA23F093FF0022BA
:10490000564B06460F4623F0F3FF02460B46204661
:10491000294623F039FE24F09BFA78E9022349F86E
:10492000040F3946304623F031FED04504460D468B
:10493000DBD1DDF81890204629464A4601F050F8B0
:1049400000224FF07F5304460D4623F0D1FFFCF7C1
:104950005FFD0022424B23F0CBFF02460B46204670
:10496000294623F011FE0D46044624F071FA8046D4
:1049700023F058FF0B4602462946204623F004FE4A
:104980004B46002B06460F4640F3F980009A0EA9CD
:10499000013AC9F1180351F8225045FA03F101FA1E
:1049A00003F30EA8EB1A40F82230C9F1170588442A
:1049B00043FA05F5002D6DDD009B002B08F1010881
:1049C00040F36F820E9C002C40F01683009B012B5D
:1049D00040F38F820EAA012352F8044F002C00F0FE
:1049E0008382581C0EAAC4F1807442F82340009AB6
:1049F000824219DD0EAA0EAC52F820106FF07F42F1
:104A0000511A44F820100099023399420CDD1046E7
:104A1000009A0EA901EB830301EB82011A68821A46
:104A200043F8042B8B42F9D1069B002B1ADD069B21
:104A3000012B4FF0010440F03C82009B5A1E0EAB4C
:104A40000EA953F82230C3F3160341F822303CE29A
:104A5000BCD20200ABAAAA2A0000703E000070413E
:104A600000002040022D15D132463B4600209249DD
:104A700023F08AFD06460F46069A8F49002000F073
:104A8000AFFF02460B463046394623F07DFD022536
:104A900006460F46002200233046394624F090F99E
:104AA000002800F03782009A079B501E83420FDCDB
:104AB00002F18043013B0EAA0D9C02EB830300220E
:104AC00053F80419A34242EA0102F9D1002A67D13E
:104AD000079B0EAA013B52F82330002B40F01882AE
:104AE0000C9A012352F8041901330029FAD0009AD4
:104AF000D31802F1010A9A4509933DDC009B0A99FB
:104B00000B9A0B4409990AEB0208994622AB08F16B
:104B1000804803EBC9098B18A59A08F1FF3802EB0E
:104B2000880872AA02EBCA0AA59A02EB83030093D3
:104B300058F8040F23F076FE039B002BE9E80201EE
:104B40004FF000064FF0000711DB049C4D4675E95D
:104B50000223F4E8020123F0CBFE02460B46304666
:104B6000394623F013FD5C4506460F46EFD1009B06
:104B70009845EAE80267DBD1099B0093A7E606D1D6
:104B8000009B0EAA013B52F82350ED1512E70022BC
:104B90004A4B24F033F9002840F06E81054679E74E
:104BA0000EA9039551F820300699CDF824801839C4
:104BB0000246009006916BB900F18043013B0EA8BC
:104BC00000EB830353F80409013A18390028F9D09F
:104BD00000920691069A3849002000F001FF009BE0
:104BE000002B04460D46C0F2F781DA0072A901EBF2
:104BF000020B06920EAA02EB8306DFF8C4904FF078
:104C000000080BF10807043656F8040D23F00AFEDD
:104C100022462B4623F06CFE4B4667E902014246D2
:104C20002046294623F064FE0EAB9E4204460D4604
:104C3000EAD14AACDDF81C9004944FF0000AB9F1B7
:104C4000000FC0F22B81DFF87C805D4618A1D1E90E
:104C5000000100260027002403E0544510DCF8E89A
:104C60000201F5E8022323F043FE02460B463046DC
:104C7000394623F08BFC0134A14506460F46ECDA99
:104C8000049B03EBCA03ABF1080BC3E9006770ABED
:104C90009B450AF1010AD2D1A49B049C032B00F28C
:104CA0008980DFE803F0C58E8E1100BFAFF300806E
:104CB00000000040FB21F93F0000F03F0000E03F12
:104CC0000000703EB09C0200009B002B40F38181ED
:104CD000069A04EB020ADAE9008902F10805254484
:104CE0000DF5987B1AED027B42464B4651EC170BB3
:104CF0008DED047B23F04AFC06460F4602460B4628
:104D0000DDE9040123F040FC42464B4623F03EFC23
:104D100065E902015D45B046B9466AE90267E1D13D
:104D2000009B012B40F35581069BE518D5E90089CE
:104D300003F1080B04EB0B0A15ED027B42464B46D0
:104D400051EC170B8DED007B23F020FC06460F463F
:104D500002460B46DDE9000123F016FC4B464246B5
:104D600023F014FC6AE902014EAB5345B046B94644
:104D700065E90267E0D10020002104EB0B0575E92D
:104D8000022323F003FCAA45F9D1039B002B00F07A
:104D90000A816268E368089F2568A4683D6002F1A3
:104DA000004203F1004301F100417A60FB60BC6006
:104DB00038617961099B03F007000DF51B7DBDE8A3
:104DC000F08F069D083525440020002175E9022357
:104DD00023F0DCFBA542F9D1039B002B00F0D2802D
:104DE000089E024601F1004386E80C000B4602468D
:104DF000D4E9000123F0C8FB009B002B0BDD4CAD78
:104E00000124F5E8022323F0C1FB009B0134A342F7
:104E1000F7DA039B13B101F100431946089BC3E97C
:104E20000201099B03F007000DF51B7DBDE8F08F23
:104E3000069D083500200021254475E9022323F052
:104E4000A5FBAC42F9D1039B13B101F10043194614
:104E5000089BC3E90001099B03F007000DF51B7DCA
:104E6000BDE8F08F00260027EAE80267DA4509F17D
:104E700008097FF4FEAC1AE5009B002B08F101083D
:104E8000C8BF02253FF79EAD32463B460020614930
:104E900023F07AFB022506460F46FBE50026002795
:104EA000EEE6069B002B27DD0024069B012B3FF43A
:104EB000C4AD022B09D1009B5A1E0EAB0EA953F8AC
:104EC0002230C3F3150341F82230022D7FF4E2AD06
:104ED00032463B4600204F4923F056FB06460F461C
:104EE000002C3FF4D7ADC7E50099013399427FF418
:104EF00073AD069B002BD8DC022D7FF4CBAD324680
:104F00003B460020434923F03FFB06460F46C1E5E0
:104F10000123ECE53946069F03957A423046CDF8E9
:104F2000248000F05DFD00223B4B04460D4623F03B
:104F300065FF002843D00022384B2046294623F045
:104F4000D7FC23F085FF064623F06CFC0022324B91
:104F500023F0CEFC02460B462046294623F014FBE4
:104F600023F076FF00990B4601331A4600933B4627
:104F7000183306930B460EA941F82300134641F857
:104F8000236027E6089B0246C3E900010B46D4E9EB
:104F9000000123F0F9FA009B002B3FF730AF089B8C
:104FA000C3E902013DE7D4E90067D4E90223089D83
:104FB000C5E90401C5E90067C5E90223FAE6294607
:104FC000204623F045FF009A0EA941F8220001E691
:104FD0004AAC00200021D8E6A49B032B3FF6EAAEA2
:104FE00001A252F823F000BF07500000FF4F00005D
:104FF000FF4F0000D14F000001200023F2E4002009
:1050000000214AACE8E6002000211CE70A9BDB00F7
:1050100000934CE40000F03F000070410000703E3F
:105020002DE9F04F21F00046B6F1795F85B00446D6
:105030000D469046994604DA23F00AFF002800F056
:10504000858022462B462046294623F051FC064601
:105050000F4602460B462046294623F049FC41A351
:10506000D3E9002382468B463046394623F040FC84
:105070003EA3D3E9002323F087FA32463B4623F0D0
:1050800037FC3CA3D3E9002323F080FA32463B46A9
:1050900023F02EFC39A3D3E9002323F075FA32461E
:1050A0003B4623F025FC37A3D3E9002323F06EFA17
:1050B0000E9BCDE900019BB30022294B4046494697
:1050C00023F016FCDDE90023CDE9020150465946E4
:1050D00023F00EFC02460B46DDE9020123F054FAF0
:1050E00032463B4623F004FC42464B4623F04CFA42
:1050F00019A3D3E9002306460F465046594623F02C
:10510000F7FB02460B463046394623F03FFA02468B
:105110000B462046294623F037FA05B0BDE8F08F4C
:1051200002460B463046394623F0E2FB0AA3D3E998
:10513000002323F029FA52465B4623F0D9FB22468E
:105140002B4623F023FA05B0BDE8F08F2046294610
:1051500005B0BDE8F08F00BF495555555555C53FC1
:105160000000E03F7CD5CF5A3AD9E53DEB9C2B8A35
:10517000E6E55A3E7DFEB157E31DC73ED561C11934
:10518000A0012A3FA6F810111111813F0000000074
:105190002DE9F04FBE4C21F0004687B0A642824672
:1051A0008B460F46CDE900231BDC23F051FE00287F
:1051B00037D153461E43109B0133334300F0B38174
:1051C000109B012B00F0C88152465B460020B1497C
:1051D00023F0B8FC04460D462046294607B0BDE83A
:1051E000F08FAD4B9E421CDD0029C0F2A9815246D2
:1051F0005B4687A1D1E9000123F0C6F9DDE9002370
:1052000004460D4684A1D1E9000123F0BDF99FEDCC
:10521000847B22462B468DED007B23F0B7F9824636
:105220008B4652465B465046594623F061FB024688
:105230000B468046894623F05BFB424604460D46FA
:105240004B465046594623F053FB77A3D3E900233E
:10525000CDE902012046294623F04AFB74A3D3E995
:10526000002323F093F922462B4623F041FB72A33F
:10527000D3E9002323F08AF922462B4623F038FB9A
:105280006FA3D3E9002323F081F922462B4623F0B4
:105290002FFB6DA3D3E9002323F078F922462B4698
:1052A00023F026FB6AA3D3E9002323F06FF94246DB
:1052B0004B4623F01DFB68A3D3E90023CDE904018D
:1052C0002046294623F014FB65A3D3E9002323F0ED
:1052D0005DF922462B4623F00BFB63A3D3E90023A1
:1052E00023F054F922462B4623F002FB60A3D3E9B6
:1052F000002323F04BF922462B4623F0F9FA5EA354
:10530000D3E9002323F042F922462B4623F0F0FA9A
:105310005BA3D3E9002323F039F902460B46DDE90C
:10532000040123F033F9DDE9022323F0E1FADDE99A
:10533000004522462B4623F029F942464B4623F0EE
:10534000D7FA02460B462046294623F01FF94EA302
:10535000D3E9002304460D46DDE9020123F0C8FA33
:1053600022462B4623F012F90B4602468046894618
:105370005046594623F00AF9474B9E4204460D46D3
:1053800000F38E80109B012B3BD002460B46002081
:10539000404923F0D7FB002406460F462046294605
:1053A00052465B46CDE90067CDE90201009423F047
:1053B000EBF8DDE900AB02460B464046494623F0D8
:1053C000E3F852465B4623F093FA524604460D46F4
:1053D0005B46DDE9020123F08BFA00222F4B23F01C
:1053E000D5F802460B462046294623F0CFF8324630
:1053F0003B4623F07DFA52465B4623F0C7F804464D
:105400000D462046294607B0BDE8F08FAFF3008077
:10541000182D4454FB21E93F075C143326A6813C38
:105420000000000000000000D47ABF74702AFB3E28
:10543000E9A7F0320FB8123F68108D1AF726303FF7
:105440001583E0FEC8DB573F93846EE9E326823F75
:10545000FE41B31BBAA1AB3F735360DBCB75F3BE08
:10546000A69237A0887E143F0165F2F2D844433FEC
:10547000280356C9226D6D3F37D60684F464963FE3
:105480007AFE10111111C13F635555555555D53F41
:10549000FFFF2F3E0000F0BF2794E53F0000F03FE4
:1054A000109823F0BFF92246CDE900012B46204693
:1054B000294623F01DFADDE90023CDE9020120464B
:1054C000294623F063F802460B46DDE9020123F08A
:1054D00039FB42464B4623F057F802460B465046EE
:1054E000594623F051F802460B4623F04FF8024686
:1054F0000B46DDE9000123F047F80446B81700F039
:105500000200C0F101000D4623F08CF902460B4663
:105510002046294623F0ECF904460D46204629464C
:1055200007B0BDE8F08F5046594620F0F1F9024629
:105530000B4600200A4923F005FB04460D4660E7B0
:10554000DDE9004501F10041224605F100438246B4
:105550008B46CDE900234AE654465D4651E700BF3D
:105560000000F03F000000002DE9F04FD24A21F08A
:105570000043934285B082468B460C462DD9CF4AD4
:1055800093421AD8002C80F21681B5A3D3E90023E8
:105590005046594622F0FAFF0022002323F01AFC5D
:1055A000C0B9B1A3D3E900235046594623F0A0F96E
:1055B00002460B460020C24908E1C24A934240F22B
:1055C000D0800346C1F31302134340F0F481002955
:1055D00080F2C4800020BC49C0E0BC4A934200F283
:1055E0002981BB4A934240F2DE80002301930022CE
:1055F000B84B5046594623F07BF906460F46024603
:105600000B465046594623F073F999A3D3E900237A
:1056100004460D4623F06CF997A3D3E9002322F04A
:10562000B5FF22462B4623F063F995A3D3E9002367
:1056300022F0AAFF22462B4623F05AF992A3D3E97F
:10564000002322F0A3FF22462B4623F051F990A31A
:10565000D3E9002322F098FF22462B4623F048F995
:1056600000229D4B22F092FF8046894602460B465F
:105670003046394623F03CF902460B460020974954
:1056800022F082FF064602460B460F464046494638
:1056900022F07AFF3246804689463B4650465946BC
:1056A00023F026F902460B4600208D4922F06CFFBC
:1056B00002460B464046494623F044FA22462B4612
:1056C00023F016F9019E02460B46002E38D0DDE984
:1056D000026732463B4622F057FF52465B4623F0B4
:1056E00007F932463B4622F04FFF2B46224622F076
:1056F0004BFF019B013306460F4600F00F81019BD3
:10570000012B00F0F180019B0133392B39D8019B2B
:10571000132B40F31281019CC4F57F7503350022E1
:105720002B0522F033FF02460B465046594622F025
:105730002BFF0022684B22F029FF01EB04510DE002
:105740005046594623F0D4F822462B4622F01CFF3F
:1057500002460B465046594622F016FF05B0BDE8FA
:10576000F08F4DA3D3E9002323F052FB00283FF430
:1057700009AF4BA3D3E900231046194623F0B8F82C
:10578000ECE752465B4622F0FFFE02460B46002045
:10579000514922F0F9FE019A4F4B01EB02510022D0
:1057A00022F0F2FEDAE73EA3D3E9002322F0EEFE78
:1057B00002460B46CAE72CA3D3E9002350465946BC
:1057C00023F096F80B4643490246002022F0DEFE05
:1057D00023F03EFB019023F025F833A3D3E9002307
:1057E00006460F4623F084F802460B4650465946BB
:1057F00022F0CAFE2EA3D3E9002380468946304614
:10580000394623F075F806460F4632463B46404679
:10581000494622F0B9FE02460B4682468B46404678
:10582000494622F0B1FE32463B4622F0ADFECDE9BC
:105830000201DCE62B4A934200F2958000291AA36C
:10584000D3E90023C0F2AC8022F09EFE0123804603
:105850008946019316A7D7E90067D6E7AFF3008022
:1058600059F3F8C21F6EA501FE822B654715F73F5D
:105870002DC3096EB7FD8ABE3952E686CACFD03E27
:10588000B7DBAA9E19CE143F8555FE19A0015A3FD9
:10589000F41011111111A13FEF39FAFE422E86408A
:1058A0009C7500883CE4377E0000E0FE422EE63F17
:1058B000763C7935EF39EA3D79684340412E8640A0
:1058C0000000E0BFFFFFEF7F0000F0BF422ED63F99
:1058D000FFFF8F3C0000E03F0000F03F0000084069
:1058E00000001840B1A2F03F0022394B5046594603
:1058F00023F070FA002844D0504659460022354B18
:1059000022F044FE02460B463046394622F03CFE69
:1059100000224FF0404322F0EBFF1FE702460B4608
:105920005046594622F030FE00222A4B22F0E0FF7A
:105930000022284B22F028FE10E7019C4FF40013B0
:105940002341C3F17F5752465B4622F01DFE0026DD
:1059500007F5401702460B463046394622F014FE42
:1059600001EB0451FAE616A3D3E9002322F0C0FFAD
:10597000002C02460B464FF00000FFF61CAE154906
:1059800024E732463B465046594622F0FDFD02468A
:105990000B4622F0FBFD00220F4B22F0F7FDDDE667
:1059A00022F0F4FD4FF0FF3380468946019306A7AD
:1059B000D7E9006729E702460B4622F0E7FDCDE66E
:1059C000FE822B654715F73F763C7935EF39EABD06
:1059D0000000D0BF0000E03F0000F03F00000000EA
:1059E000F8B5C1F30A5604460D460B4617460EBBE2
:1059F00021F000430343864625D00022344B22F099
:105A000077FF344A974204460D460B462ADBC1F322
:105A10000A56363E3E4440F2FE72964228DC002E84
:105A200012DD23F0FF4323F4E00343EA065520464A
:105A30002946F8BD40F2FF729642EBD102460B4672
:105A400022F0A4FDF8BDF8BD16F1350F1DDA4CF2B9
:105A500050339F4222462B4625DC19A1D1E9000193
:105A600022F004FD16A3D3E9002322F041FFF8BD84
:105A700022462B4614A1D1E9000122F0F7FC12A323
:105A8000D3E9002322F034FFF8BD23F0FF4323F4D1
:105A9000E003363643EA06552046294600220E4BDF
:105AA00022F026FFF8BD08A1D1E9000122F0DEFCBA
:105AB00005A3D3E9002322F01BFFF8BDAFF300805C
:105AC00059F3F8C21F6EA5019C7500883CE4377E2F
:105AD00000005043B03CFFFF0000903C10B5054C67
