:100000000000022029D7010051D7010053D7010079
:1000100055D7010057D7010059D701000000000053
:100020000000000000000000000000005BD701009D
:100030005DD70100000000005FD7010061D701001B
:1000400063D70100DD170100C9D501008DD501007E
:10005000A1D5010063D7010021B90100E9A7010082
:10006000E9CB0100F1CB0100F9CB010063D701001E
:10007000FD9D000063D7010063D7010063D7010035
:1000800063D7010063D7010063D7010063D7010084
:1000900063D7010063D7010063D7010063D7010074
:1000A00063D7010063D7010001CC010009CC010036
:1000B00063D7010063D701000000000000000000CA
:1000C00063D7010063D7010063D70100B5D50100F4
:1000D00063D7010063D7010063D7010063D7010034
:1000E000F1D5010000000000000000000000000049
:1000F0000000000063D7010000000000DDD5010012
:1001000000000000000000000000000000000000EF
:1001100000000000000000000000000000000000DF
:1001200000000000000000000000000000000000CF
:1001300000000000000000000000000000000000BF
:1001400000000000000000000000000000000000AF
:10015000000000000000000000000000000000009F
:10016000000000000000000000000000000000008F
:10017000000000000000000000000000000000007F
:10018000000000000000000000000000000000006F
:10019000000000000000000000000000000000005F
:1001A000000000000000000000000000000000004F
:1001B000000000000000000000000000000000003F
:1001C000000000000000000000000000000000002F
:1001D000000000000000000000000000000000001F
:1001E000000000000000000000000000000000000F
:1001F00000000000000000000000000000000000FF
:100200007CB0EE877CB0EE87FF00FF00FF00FF00B0
:10021000FF00FF00FF00FF00FF00FF00FF00FF00E6
:10022000FF00FF00FF00FF00FF00FF00FF00FF00D6
:10023000FF00FF00FF00FF002DE9F04F85B00391A4
:100240000778A7F10903042B044607F07F0200F1A9
:100250000100F5D9202AF3D02B2F04BF677804467C
:100260002D2F72D09FED427B8DED007B4FF000086B
:100270004FF000098FB34FF0000E4FF0000ADFF887
:1002800000B1754619E028F0A5FB80468946304646
:1002900028F03AFB42464B4628F0EAF9524680469F
:1002A00089465B46DDE9000135B328F0BDFCCDE9A8
:1002B0000001AE4614F8017F7FB1A7F13006092E88
:1002C00052465B4640464946DDD9C5B92E2F16D168
:1002D00014F8017F0125002FEFD142464B46DDE99E
:1002E000000128F077FB80468946039B404649463B
:1002F0001C6005B0BDE8F08F4FF0010EDAE7BEF1EB
:10030000000F29D042464B46DDE9000128F062FB90
:1003100007F0DF07452F80468946E6D10399601C28
:100320000A2228F089F916490246002028F0B2FE78
:1003300002460B464046494628F04CFB804689461B
:100340004046494605B0BDE8F08F9FED0B7B6778CE
:100350008DED007B013489E7DFF828904FF000082D
:100360004046494605B0BDE8F08F00BFAFF30080BE
:10037000000000000000F03F000000000000F0BF9F
:10038000000024400000F87F2DE9F84F16460023B6
:10039000002204460D4628F08FFD002840F09D8085
:1003A000002200232046294628F07CFD28B1302277
:1003B000002332707370BDE8F88F2046294625F07F
:1003C0006BFF28F0B7FD7BA3D3E9002381462946C4
:1003D000204628F071FD002800F08680B9F1000F5A
:1003E000C0F2BE804A4600206F4928F053FE024604
:1003F0000B462046294628F017FC04460D4666A108
:10040000D1E9000101274FF0000822462B4628F0D1
:10041000E1FA0022654B28F02BF928F08FFE002F1F
:10042000CC464FF0FF3AC1464FF0000840F38580BC
:10043000DFF888E15E4C0122AEF1700945F6F32544
:100440004FF02E0BA94208BFA0424FF0300309D352
:10045000001B61EB0501A94208BFA04203F10103A3
:10046000F6D2DBB2337050EA010306F1010409D180
:10047000BA4210DACE4502F101020CD026467EE8DF
:100480000245DFE7BA4204BF86F801B0B41CCE458E
:1004900002F10102F2D1B8F1000F0DD02246302155
:1004A00002F8011BC2F1010353442344002BF7DC83
:1004B0002AEAEA7301331C44BCF1010F4CD06523D6
:1004C000BCF1000F2370C5BF2B236370611CA11CFE
:1004D0006046BDE8F84F13F0CBBB05F100431D4665
:1004E0002D23337001365BE72DA3D3E9002320468B
:1004F000294628F0FFFC00287FF470AFB9F10E0FF9
:1005000009F101073DDDA9F10E0842460020264908
:1005100028F0C0FD02460B462046294628F084FB01
:100520000022224B28F0A4F828F008FE002FA9F1A1
:100530000F0A4FF0010C3FF77BAF334630222E24D9
:1005400003F8022B74707FEA090618D01E4403F8E2
:10055000012BB342FBD16BE700232370BDE8F88F7A
:10056000C9F100020020104928F094FD02460B4614
:100570002046294628F02EFA04460D463FE71E463F
:1005800056E7C9F10E0200200749C84628F082FD4F
:100590004FF0010939E700BF0000901EC4BCD642ED
:1005A00050EFE2D6E41A4B44000024400000E03F44
:1005B00000407A108DEDB5A0F7C6B03E409C020019
:1005C00070B54FF0FF3006F0A9FD04466FF07F4094
:1005D00006F0A4FD0646204628F086F900220C4BC2
:1005E00028F0F8F9044630460D4628F07DF906A3B8
:1005F000D3E9002328F018FB02460B462046294683
:1006000028F036F870BD00BF0000E0DFFFFF6F4349
:100610000000F03D000000002DE9F843436A044665
:1006200018680D4628F082F9064668680F4628F0DB
:100630006BF925F031FE636A95ED037AD3ED007A0C
:1006400077EE677A8046894617EE900A28F06EF9B1
:1006500042464B4628F0BEF907A3D3E9002328F011
:10066000E3FA32463B4628F003F828F0ABFCA063DF
:10067000BDE8F883AFF30080333333333333FF3FC8
:100680002DE9F04F2DED028B044683B0C06828F0B1
:100690003BF980462069894628F036F98246606930
:1006A0008B4628F031F9024601F1004306460F4619
:1006B0004046494625F09CFC28F084FCE062054653
:1006C00025F04AFB0190284625F0FAFA019B0546E1
:1006D000184628F02BF942464B4628F07BF9804615
:1006E0002846894628F022F932463B4628F072F91E
:1006F00002460B464046494627F0B8FF02460B46E5
:100700005046594625F074FC28F05CFC002208EEA7
:10071000100A00233046394628F0ECFB28B3B5EE2A
:10072000C08AF1EE10FA1CDD11A7D7E9006718EEB8
:10073000100A28F0FBF802460B463046394627F0EF
:1007400095FF32463B4627F093FF28F03BFCA06222
:10075000E38843F00203E38003B0BDEC028BBDE805
:10076000F08F05A7D7E90067E1E784ED0A8AEFE794
:10077000EA2E4454FB21F93FEA2E4454FB21F9BFF1
:1007800008B514F095FDDFED0C7A07EE100A67EE60
:10079000277A17EE900A28F0C9F805A3D3E90023B9
:1007A00028F042FA28F0C6FB08BD00BFAFF3008076
:1007B000EA2E4454FB2119400000B443000000001D
:1007C00008B514F089FDDFED0C7A07EE100A67EE2C
:1007D000277A17EE900A28F0A9F805A3D3E9002399
:1007E00028F022FA28F0A6FB08BD00BFAFF3008076
:1007F000EA2E4454FB2119400000B44300000000DD
:100800002DE9F84F16461F460446002200233046C5
:1008100039460A9D28F050FB002840F0CD80324632
:100820003B463046394628F06FFB002840F01F81D8
:1008300027F00049304649464FF0FF32984B28F0E8
:1008400063FB48B9304649464FF0FF32944B28F0DD
:100850003DFB002800F0B7808BA3D3E9002330468E
:10086000394628F029FB002840F099800F2DA8BFB9
:100870000F25042D30463946A946B8BF4FF004096C
:1008800025F00AFD28F056FB81A3D3E90023824618
:100890003946304628F010FB48B97FA3D3E900233E
:1008A0003046394628F026FB002800F09180BAF146
:1008B000000FC0F2BE80524600207A4928F0EAFBC1
:1008C00002460B463046394628F0AEF906460F463A
:1008D00001254FF0000BA9EB0B02013A00207149F2
:1008E00028F0D8FB3B46324628F074F800226E4BC5
:1008F00027F0BEFE28F022FC002D57464FF0FF38AF
:10090000DA464FF0000B40F38180684B09F1FF3C61
:100910004FF0010E03EBC9094FF02E0A79E90223CB
:10092000994208BF90424FF0300609D3801A61EB1C
:100930000301994208BF904206F10106F6D2F6B2D1
:1009400050EA0102267004F101032ED1AE451C4687
:1009500006DA0CF1FF3CBCF1FF3F0EF1010EDDD1D8
:10096000BBF1000F0DD02246302102F8011BC2F16D
:10097000010343442344002BF7DC28EAE8730133E6
:100980001C44012F51D06523002F237060DD2B23E1
:100990006370A11C3846BDE8F84F20F053B83022F0
:1009A000002322706370BDE8F88FAE450ABF84F85B
:1009B00001A01C460234CCE707F100431F462D235B
:1009C000237001342BE73A4B18682060BDE8F88F9C
:1009D000D1450AF1010551DCAAEB090808F1010B28
:1009E0005A4600202F4928F055FB02460B46304658
:1009F000394628F019F900222B4B27F039FE28F050
:100A00009DFB002D4FF001073FF77FAF23463022BB
:100A10002E2603F8022B66707FEA0A042CD01C44B1
:100A200003F8012BA342FBD16FE700232370BDE83D
:100A3000F88FCAF1000200201A4928F02BFB024669
:100A40000B463046394627F0C5FF06460F463FE7BE
:100A5000611C0AD0002F9DDA2D237F426370A11CF8
:100A60003846BDE8F84F1FF0EDBFBDE8F88F114BD9
:100A700018682060BDE8F88F1C4646E7D3464FF063
:100A8000010A28E7AFF30080B0CA6E47ED89100075
:100A90008DEDB5A0F7C6B03E50EFE2D6E41A4B4458
:100AA000FFFFEF7F000024400000E03F909C020029
:100AB0008CCB020088CB02002DE9F04F90468A686B
:100AC00008F00F0BD2F82C90ABF10802012A8DB080
:100AD000044640F28A801D4608F0030A08234FEAC4
:100AE000181603FA0AF39E4277D805AB00934846DE
:100AF000DDE916231EF0ACFC012303FA0AFA059B7C
:100B0000AA449A45074632D8189B00EB050A002BE9
:100B100000F00F8193E8030016B94B1C00F0D88059
:100B20001EF022FC06F2FF390023002269F31E5357
:100B300027F050FF18F0080F02460B4605D100229F
:100B4000B54B27F095FD02460B4602A81EF060FB50
:100B5000039902980B46BBF10B0F00F2B780DFE858
:100B60000BF06F699775635D5911B5B55349189BC3
:100B700053B320464946672221F076FE20460DB049
:100B8000BDE8F08F4B1C00F0C1801EF0EDFB002291
:100B9000A24B8046894628F08FF9002840F0548106
:100BA00000229E4B4046494628F0A4F9002840F018
:100BB0004B814046494628F0A9FACDE9080108AB27
:100BC00003CB7851CAF80410954BD3E90023C4E94C
:100BD000002320460DB0BDE8F08F4946652221F084
:100BE00043FE20460DB0BDE8F08F4946642221F057
:100BF0003BFEEEE71EF0B8FB0CAB63E9020103CB52
:100C00007851CAF80410DFE71EF0AEFB28F0DAF9DD
:100C10007851D9E71EF08CFB7851D5E71EF088FBA0
:100C200000F30F007853CFE71EF082FB00F30700BC
:100C30007855C9E71EF07CFB80F310007853C3E7BA
:100C40001EF076FB80F308007855BDE74A1C6AD099
:100C50001EF08AFB002200238046894628F02CF9EA
:100C6000002840F0078100226E4B4046494628F09C
:100C700041F9002840F0ED804046494628F05EFAF0
:100C8000CDE9060106AB03CB7851CAF804109BE707
:100C9000013142D019461EF067FB00220023804636
:100CA000894628F009F9002840F0E18058A3D3E9EB
:100CB00000234046494628F01DF9002840F0CE8028
:100CC0004046494628F05EF978517DE71CF084FFE4
:100CD000BBF10B0FFAD801A353F82BF0410C000025
:100CE000350C00001B0D0000270D0000290C000032
:100CF0001D0C0000150C00000D0D0000CD0C0000B7
:100D0000CD0C0000090C0000F50B000000287FF757
:100D10003CAFC117CDE9080151E700283FF778AF94
:100D20004FF0FF33B6E7002892DDC117CDE9060189
:100D3000A8E7BBF10B0FC9D801A353F82BF000BFF4
:100D4000450E00003F0E0000290E0000E90D0000D6
:100D5000E50D0000DF0D0000B30D0000970D000051
:100D6000CD0C0000CD0C0000850D0000710D0000C1
:100D7000DAF80000DAF804100AAB03C3DDE90A016F
:100D80003EB31CE0DAF80000049027F0CFFDCDE977
:100D90000A01F6B113E0DAF80000DAF8041008AB43
:100DA00003C3DDE9080127F0E7FDCDE90A0186B1BB
:100DB00005E0DAF80000002E54D027F0A5FDC6F5B6
:100DC0007F7909F103090023002269F31E5327F0FC
:100DD00001FE02460B4620461EF01AFAF9E6BAF961
:100DE0000000E8E74057E6E7DAF80000DAF8041018
:100DF00006AB03C3DDE90601002908BFB0F1004FCF
:100E0000D9D327F0B1FDCDE90A01002EE1D0D6E714
:100E10000000E0FFFFFFEF410000E03F0000E04383
:100E2000709C02000000F043DAF800000028C2DAEB
:100E300027F05AFDCDE90A01002ECAD0BFE7BAF863
:100E40000000B8E7405DB6E74FF0FF306FF00041BB
:100E5000B3E64FF0FF304FF0FF3111E74FF0FF30B6
:100E60007851B1E6014620461EF036FAB1E6002080
:100E70007851A9E60020002102E700BF0000000031
:100E8000494A21F0004393422DE9704304460D4640
:100E90004BDC464A93420E460EDC3FA3D3E90023C7
:100EA00027F0E6FB0022424B28F024F800284CD023
:100EB00020462946BDE870833E4A93423BDCB3F1AD
:100EC000804F42DD24F096FD2246804689462B461F
:100ED0002046294627F07EFD0022354B27F0C8FB2F
:100EE00025F0A2FE02460B464046494627F0C0FBCD
:100EF00002460B4600202E4927F096FE4246044645
:100F00000D464B464046494627F0B2FB02460B468B
:100F10002046294627F0ACFB02F06AF8002EC9DC17
:100F200001F100431946BDE8708302460B4627F0E5
:100F30009FFBBDE8708324F05DFD02F059F818A313
:100F4000D3E9002327F094FBE8E722462B4620460E
:100F5000294627F03FFD804689462046294624F051
:100F600049FD002204460D46114B4046494627F0F4
:100F70007FFB25F059FE00220D4B27F079FB02463E
:100F80000B464046494627F04FFE22462B4627F0A7
:100F90006FFB00F0C5FAC1E79C7500883CE4377E22
:100FA000EF39FAFE422EE63FFFFFEF7FFFFF2F3EB5
:100FB0000000F03F0000B0412DE9F84FC44B21F094
:100FC00000469E4204460D468A460EDDC14B9E42B7
:100FD00000F3AC8000F0A780BAF1000F40F3EA8084
:100FE0009FA1D1E90001BDE8F88FBB4B9E4200F301
:100FF000B580A3F1DE739E4240F3A0804FF0FF3B2B
:1010000022462B462046294627F0E4FC02460B46A2
:101010008046894627F0DEFC93A3D3E900230646E9
:101020000F4627F0D7FC92A3D3E9002327F020FB3B
:1010300032463B4627F0CEFC8FA3D3E9002327F0AE
:1010400017FB32463B4627F0C5FC8DA3D3E90023AE
:1010500027F00EFB32463B4627F0BCFC8AA3D3E9BF
:10106000002327F005FB32463B4627F0B3FC88A35C
:10107000D3E9002327F0FCFA42464B4627F0AAFCAE
:1010800085A3D3E90023804689463046394627F0B8
:10109000A1FC83A3D3E9002327F0E8FA32463B46BC
:1010A00027F098FC80A3D3E9002327F0DFFA32462B
:1010B0003B4627F08FFC7EA3D3E9002327F0D6FA26
:1010C00032463B4627F086FC7BA3D3E9002327F07A
:1010D000CDFA32463B4627F07DFCBBF1FF3F02468E
:1010E0000B466CD04046494627F0C2FA22462B46B2
:1010F00027F070FC794E7A4B4FEACB0B5E449B4451
:10110000DBE9002327F0B2FA22462B4627F0AEFA9D
:1011100002460B46D6E9000127F0A8FABAF1000F03
:1011200043DBBDE8F88F00283FF456AF22462B463C
:101130002046294627F09CFABDE8F88F60A3D3E942
:10114000002327F095FA0022664B27F0D3FE0028F3
:101150003FF454AF20462946BDE8F88F24F04AFCFE
:10116000614B9E4204460D4639DCA3F550239E4256
:101170005EDC02460B4627F07BFA0022594B27F033
:1011800075FA002206460F464FF080432046294656
:1011900027F06EFA02460B463046394627F044FDEA
:1011A0004FF0000B04460D462AE701F100431946B3
:1011B000BDE8F88F44A1D1E90001BDE8F88F4046B1
:1011C000494627F055FA22462B4627F003FC0246F3
:1011D0000B462046294627F049FABDE8F88F434BD5
:1011E0009E421ADC0022424B27F040FA00220646BB
:1011F0000F463F4B2046294627F0ECFB0022394B97
:1012000027F036FA02460B463046394627F00CFDE9
:101210004FF0020B04460D46F2E602460B46002054
:10122000344927F001FD4FF0030B04460D46E7E675
:1012300000222C4B27F01AFA002206460F46294BB3
:101240002046294627F014FA02460B463046394616
:1012500027F0EAFC4FF0010B04460D46D0E600BF34
:10126000182D4454FB21F93F11DA22E33AAD903FA7
:10127000EB0D76244B7BA93F513DD0A0660DB13FCD
:101280006E204CC5CD45B73FFF8300922449C23F35
:101290000D5555555555D53F2F6C6A2C44B4A2BFFA
:1012A0009AFDDE522DDEAD3F6D9A74AFF2B0B33FC2
:1012B000711623FEC671BC3FC4EB98999999C93F3A
:1012C0009C7500883CE4377E182D4454FB21F9BFFF
:1012D000FFFF0F440000F07FFFFFDB3F089D02008F
:1012E000289D02000000F03FFFFFF23FFF7F034018
:1012F0000000F83F0000F0BF2DE9F843C1F30A59A0
:10130000A9F2FF35132D02460B460C4606468846C9
:10131000074622DC002D50DBDFF8F09049FA05F992
:1013200001EA090E5EEA06061CD036A3D3E90023C3
:1013300027F09EF90022002327F0DCFD48B1002CA5
:1013400004DD4FF4801343FA05F5A84428EA0904A4
:10135000002721463846BDE8F883332D06DDB5F574
:10136000806F3DD010461946BDE8F883A9F21349B5
:101370004FF0FF3E2EFA09F910EA090FF2D021A32F
:10138000D3E9002327F074F90022002327F0B2FDEF
:101390000028DED0002C09DD142D2BD00127C5F14B
:1013A000340507FA05F5AE1928BFB844444626EAC5
:1013B000090721463846BDE8F88312A3D3E9002384
:1013C00027F056F90022002327F094FD0028C0D012
:1013D000002C0BDB54EA060706D00027084CB8E7C0
:1013E00027F046F9BDE8F8833C46B2E700274FF006
:1013F0000044AEE704F10108D8E700BFAFF3008076
:101400000000F03F9C7500883CE4377EFFFF0F0032
:101410002DE9F041C1F30A57A7F2FF35132D02461B
:101420000B460C46884606461CDC002D3FDB3A4F37
:101430002F41864601EA070C5CEA0E0E17D034A352
:10144000D3E9002327F014F90022002327F052FDEE
:1014500020B1002C3FDB28EA070400262146304655
:10146000BDE8F081332D06DDB5F5806F2FD0104635
:101470001946BDE8F081A7F213474FF0FF3E2EFA60
:1014800007F73842F3D022A3D3E9002327F0F0F87E
:101490000022002327F02EFD0028DFD0002C20DBC7
:1014A000444626EA070621463046BDE8F08118A3E7
:1014B000D3E9002327F0DCF80022002327F01AFDEF
:1014C0000028CBD0002C17DB00263446C6E727F0D7
:1014D000CFF8BDE8F0814FF4801343FA05F5A84436
:1014E000B9E7142D10D00123C5F1340503FA05F531
:1014F000AE1928BF9844D3E724F00042074B32438B
:1015000018BF1C460026A9E704F10108C8E700BF80
:101510009C7500883CE4377EFFFF0F000000F0BFA1
:101520002DE9F04FD84B994287B0804689460E4648
:1015300013DCD64B21F000449C4218DD0022D44B32
:1015400027F0B0FC002879D0002200230020D149E8
:1015500027F06AFB07B0BDE8F08FCF4B99422FDD33
:1015600042464B4627F084F807B0BDE8F08FCB4BDE
:101570009C4270DDCA4B1E449E427ED80022C94B5D
:101580004046494627F074F84FEA215AAAF2FF3A3A
:10159000BAF1000F04460D460E4640F3DE81424686
:1015A0004B4627F063F802460B460020BD4927F062
:1015B0005DF822462B4627F037FBCDE902010BE010
:1015C000B94B9E42DADD9FED9A7B8DED027B4FEAAF
:1015D000265A4446AAF2FF3AB44BC6F313069E427B
:1015E00046F07F5500F3E78045F440152046294634
:1015F0000022AC4B27F03AF8002204460D46AC4BD3
:1016000027F0E8F922462B4627F0E4F9A046CDE979
:101610000401A946CDE90001002E3AD100220023A1
:101620002046294627F03EFC002800F0CE80BAF183
:10163000000F40F074810020002195E742464B46A0
:101640004046314627F012F802460B4627F0ECFAE6
:1016500007B0BDE8F08F0022964B27F009F8002272
:10166000002327F047FC002800F0CC80924B9C42DE
:1016700000F3C8804046494676E700228C4B27F0AD
:10168000A9F942464B4627F0A5F9CDE900014FF0F4
:10169000000A00224FF080434046494626F0E8FF0A
:1016A00002460B464046494627F0BEFA02460B4624
:1016B00006460F4627F08EF95FA3D3E900230446C0
:1016C0000D4627F087F95EA3D3E9002326F0D0FF6B
:1016D00022462B4627F07EF95BA3D3E9002326F0B0
:1016E000C7FF22462B4627F075F959A3D3E90023FB
:1016F00026F0BEFF22462B4627F06CF956A3D3E90D
:10170000002326F0B5FF22462B4627F063F954A3A9
:10171000D3E9002326F0ACFF22462B4627F05AF9E6
:1017200051A3D3E9002326F0A3FF22462B4627F03E
:1017300051F904460D46BAF1000F00F0BF80504643
:1017400027F0E2F84AA3D3E9002382468B4627F02C
:1017500041F9DDE90023CDE904012046294626F0C0
:1017600087FF32463B4627F035F943A3D3E90023F0
:1017700004460D465046594627F02CF9DDE9022370
:1017800026F076FF02460B462046294626F070FFDB
:1017900002460B46DDE9000126F068FF42464B4653
:1017A00026F064FF02460B46DDE9040126F05EFFE9
:1017B00007B0BDE8F08F45F40015C6F58016204649
:1017C0002946B6100AF1010A12E72DA3D3E9002336
:1017D0002046294627F0FEF802460B4600203149F4
:1017E00026F044FFDDE9042327F0F4F806460F460F
:1017F000BAF1000F73D102460B462046294626F067
:1018000035FFB1E642464B464046494627F0E2F8EE
:101810000022274B27F0DEF802460B464046494699
:1018200026F024FF07B0BDE8F08F00BFAFF30080C3
:10183000000000000000000044523EDF12F1C23FF1
:101840009FC678D0099AC33FDE03CB966446C73F54
:10185000AF788E1DC571CC3F599322942449D23F55
:1018600004FA97999999D93F935555555555E53FA0
:101870000000E0FE422EE63F763C7935EF39EA3D46
:10188000555555555555E53F7982DA3FFFFFEF3FF6
:101890000000F0BF000050C3FFFFEF7FFFFF1F3EBF
:1018A0003C412D400000F03FFFFF3F439DA006005C
:1018B0000000E03F00005043FFFF8F3CDDE90045A2
:1018C00022462B4626F0D4FE32463B4627F082F8CD
:1018D00002460B462046294626F0C8FE9CE75046A5
:1018E00027F012F823A3D3E9002382468B4627F082
:1018F00071F822A3D3E90023804689465046594611
:1019000027F068F8DDE9022326F0B2FE02460B4616
:101910003046394626F0AAFE22462B46DCE75046E2
:1019200026F0F2FF15A3D3E9002306460F4627F061
:1019300051F8DDE9022326F09BFE0EA3D3E9002334
:1019400004460D463046394627F044F802460B4619
:101950002046294626F08CFE06E60022044B26F09F
:1019600085FE02460B464046494626F07FFE20E6AD
:101970000000F03F0000E0FE422EE63F763C793565
:10198000EF39EA3D0000000008B524F005FC04A38F
:10199000D3E9002327F048F908BD00BFAFF300806A
:1019A000EF39FAFE422EE63F2DE9F043DFF8B4802E
:1019B0008BB004460D4601F0F3F898F9003001337E
:1019C00006460F462BD022462B462046294627F0B6
:1019D0009BFA814618BB2046294624F00BF81FA32A
:1019E000D3E9002327F086FAC8B1194A98F90030E4
:1019F000CDF820900321CDE90445CDE902458DE8DD
:101A000006008BB9134B4FF06042CDE906236846C0
:101A100026F00CFB70B1089B9BB9DDE906673046E8
:101A200039460BB0BDE8F0830B490020022BCDE90D
:101A30000601ECD126F0A8FD22230360089B002BB1
:101A4000EBD026F0A1FD089B0360E6E7AFF3008032
:101A500040CE0200FFFFEF470000F07F7DF8B98F16
:101A6000CE338640FC0300202DE9F043DFF8E4800C
:101A70008BB004460D4601F043F998F9003001336C
:101A800006460F4633D02046294626F0C9FA70B3E1
:101A90002CA3D3E900232046294627F02BFA8146C0
:101AA00050BB2AA3D3E900232046294627F004FA95
:101AB000E8B198F90030204ACDF8209000260027A0
:101AC0000421022BCDE90445CDE90245CDE90667A5
:101AD0008DE8060029D0684626F0A8FA28B3089BAE
:101AE0001BB126F051FD089B0360DDE90667304617
:101AF00039460BB0BDE8F0830F4A98F900300192E7
:101B000003210022CDE90445CDE902450091089268
:101B10002BB90A4B4FF06042CDE90623DBE70849B9
:101B20000020022BCDE90601D5D126F02DFD222380
:101B30000360D4E7AFF3008048CE0200FFFFEF4719
:101B40000000F07FEF39FAFE422E864051302DD54D
:101B5000104987C0FC0300202DE9F04FDFF80C93FB
:101B60008DB006460F4614461D4601F0C5FC99F996
:101B70000080B8F1FF3FCDE9000136D022462B4668
:101B80002046294627F0C0F9834670BB32463B46C3
:101B90003046394627F0B8F98246002840F0A28046
:101BA000304639460022002327F07CF910B300228A
:101BB00000232046294627F075F9834600286AD07D
:101BC0009FEDA17B0122A44BCDF828A00292CDE984
:101BD0000467CDE906458DED087B0393B8F1000F4E
:101BE00045D09FED9B7B8DED007BDDE900010DB0C5
:101BF000BDE8F08FDDE9000126F012FA80460028EA
:101C000000F08D804FF0000A4FF0000BDDE900017D
:101C100052465B4627F046F90028E6D03046394662
:101C200026F0FEF90028E0D02046294626F0F8F9F3
:101C30000028DAD099F90030874A03920421002263
:101C4000022BCDE90467CDE90645CDE908AB029149
:101C50000A9203D002A826F0E9F968B926F094FCAC
:101C60002223036008E09FED787B8DED087B02A8BE
:101C700026F0DCF9002830D00A9B1BB126F084FC4A
:101C80000A9B03609DED087B8DED007BDDE9000183
:101C90000DB0BDE8F08F2046294626F0C1F9002896
:101CA000A3D0002200232046294627F005F900286A
:101CB0009BD099F90030684ACDF828B00121CDE9D0
:101CC0000467CDE9064502910392002BCBD063490E
:101CD0000020022BCDE90801C9D126F055FC2123B3
:101CE0000360C9E7002200232046294627F0DAF8DE
:101CF00000283FF47AAF5A4B5749CDF828B000225C
:101D00000120B8F1020FCDE904670290CDE9064544
:101D1000CDE908230391AAD1CDE9002365E7304638
:101D2000394626F07DF900283FF46CAF204629465D
:101D300026F076F900283FF465AFDDE90023104670
:101D4000194627F0E1F800285FD1032399F90080B4
:101D50000293414B0A90CDE90467CDE90645039310
:101D6000B8F1000F2BD1DFF808B14FF0604A002224
:101D7000002330463946CDE908AB27F09DF800280E
:101D80003FF468AF0022374B2046294626F022FE5A
:101D900004460D4626F052F902460B4620462946D7
:101DA00027F080F870BB304B99F900804FF060420B
:101DB000CDE90823B8F1020F7FF44CAF4EE7DFF80E
:101DC000B4B04FF0000A0022002330463946CDE976
:101DD00008AB27F071F80028ECD00022214B2046F8
:101DE000294626F0F7FD04460D4626F027F902465F
:101DF0000B462046294627F055F818B9174B002204
:101E0000CDE9082399F90080D4E799F90090124BA5
:101E1000CDF828800122CDE90467CDE9064502927C
:101E20000393B9F1000F3FF41EAF002200231046C8
:101E3000194626F0F9FEB9F1020FCDE908013FF489
:101E40004CAF14E7AFF3008000000000000000007A
:101E5000000000000000F03F60CE02000000F0FF34
:101E60000000F03F0000E03FFFFFEFC7FC03002051
:101E7000FFFFEF470000F07F2DE9F84FC44E21F03F
:101E80000043B34204460D460DDD03F1404303F524
:101E90008013034340F0B980002940F340810020C3
:101EA0000021BDE8F88FBB4EB34240F3A680002965
:101EB000C0F2788102460B460020B74926F0D6FBD7
:101EC0000022B64B26F086FD04460D4624F0ACFEFB
:101ED00095A3D3E90023894680462946204626F06B
:101EE00079FD93A3D3E9002326F0C2FB22462B46BB
:101EF00026F070FD90A3D3E9002326F0B7FB22461D
:101F00002B4626F067FD8EA3D3E9002326F0B0FB15
:101F100022462B4626F05EFD8BA3D3E9002326F054
:101F2000A5FB22462B4626F055FD89A3D3E90023C5
:101F300026F09EFB22462B4626F04CFD86A3D3E9D5
:101F4000002382468B462046294626F043FD84A383
:101F5000D3E9002326F08AFB22462B4626F03AFDE1
:101F600081A3D3E9002326F083FB22462B4626F0EB
:101F700031FD7FA3D3E9002326F078FB22462B46D0
:101F800026F028FD0022844B26F072FB02460B4609
:101F90005046594626F048FE42464B4626F01AFD6A
:101FA000002682468B4632464B463046494626F04E
:101FB00011FD02460B462046294626F057FB3246C5
:101FC00004460D464B464046494626F051FB024624
:101FD0000B462046294626F027FE02460B46504671
:101FE000594626F045FB32464B4626F041FB024659
:101FF0000B4626F03DFBBDE8F88F694A93420EDCA4
:102000005DA1D1E90001BDE8F88F02460B4626F03C
:102010002DFB02460B4626F007FEBDE8F88F024670
:102020000B4626F0D7FC40A3D3E9002306460F4613
:1020300026F0D0FC3EA3D3E9002326F019FB32465C
:102040003B4626F0C7FC3CA3D3E9002326F00EFB59
:1020500032463B4626F0BEFC39A3D3E9002326F0E6
:1020600007FB32463B4626F0B5FC37A3D3E90023F5
:1020700026F0FCFA32463B4626F0ACFC34A3D3E90A
:10208000002326F0F5FA32463B4626F0A3FC32A3A5
:10209000D3E90023804689463046394626F09AFC2B
:1020A0002FA3D3E9002326F0E1FA32463B4626F07F
:1020B00091FC2DA3D3E9002326F0DAFA32463B4601
:1020C00026F088FC2AA3D3E9002326F0CFFA324673
:1020D0003B4626F07FFC00222F4B26F0C9FA024631
:1020E0000B464046494626F09FFD22462B4626F0E9
:1020F00071FC02460B4622A1D1E9000126F0B6FA96
:1021000002460B462046294626F0B0FA02460B4608
:1021100019A1D1E9000126F0A9FABDE8F88F1AA1AA
:10212000D1E90001BDE8F88F09F7FD0DE13D023F5F
:1021300088B20175E0EF493F3B8F68B52882A43F24
:102140005544880E55C1C93F7D6FEB0312D6D43F6D
:10215000555555555555C53F82922EB1C5B8B33F1B
:1021600059018D1B6C06E63FC88A599CE52A004040
:102170004B2D8A1C273A0340182D4454FB21F93F6C
:10218000075C143326A6913C182D4454FB210940CA
:10219000FFFFEF3FFFFFDF3F0000F03F0000E03FA9
:1021A0000000603C00225C4B26F062FA00225B4B90
:1021B00026F010FC40A3D3E9002304460D4626F088
:1021C00009FC3FA3D3E9002326F052FA22462B460E
:1021D00026F000FC3CA3D3E9002326F047FA224670
:1021E0002B4626F0F7FB3AA3D3E9002326F040FA6A
:1021F00022462B4626F0EEFB37A3D3E9002326F038
:1022000035FA22462B4626F0E5FB35A3D3E9002319
:1022100026F02EFA22462B4626F0DCFB8046894625
:102220002046294624F000FD2FA3D3E900230646CB
:102230000F462046294626F0CDFB2DA3D3E90023E7
:1022400026F014FA22462B4626F0C4FB2AA3D3E933
:10225000002326F00DFA22462B4626F0BBFB28A3CE
:10226000D3E9002326F002FA22462B4626F0B2FBE1
:102270000022294B26F0FCF902460B46404649460F
:1022800026F0D2FC32463B4626F0A4FB1EA3D3E93F
:10229000002326F0EBF932463B4626F0E9F90246E8
:1022A0000B4626F0E5F902460B4619A1D1E90001DB
:1022B00026F0DCF9BDE8F88F09F7FD0DE13D023F9E
:1022C00088B20175E0EF493F3B8F68B52882A43F93
:1022D0005544880E55C1C93F7D6FEB0312D6D43FDC
:1022E000555555555555C53F82922EB1C5B8B33F8A
:1022F00059018D1B6C06E63FC88A599CE52A0040AF
:102300004B2D8A1C273A0340075C143326A6913CC8
:10231000182D4454FB2109400000F03F0000E03F2D
:10232000434A91422DE9F84304460D4639DD414ABE
:10233000914209DD02F17952914240DD02460B469D
:1023400026F096F9BDE8F88301F1404202F58012CB
:10235000024330D0B1F1804F3ADC0022364B26F0F8
:1023600085F902460B4604460D4626F081F92246C1
:1023700006460F462B462046294626F02BFB0246F2
:102380000B463046394626F073F924F04DFC0B46D7
:1023900002462946204626F06BF9BDE8F843FFF7D0
:1023A000BFB802460B4626F061F902460B4626F0FE
:1023B0003BFCBDE8F88300200021BDE8F88300F075
:1023C00017FE19A3D3E9002326F052F9BDE8F883DC
:1023D00002460B4626F0FEFA0022174B26F046F97D
:1023E00024F022FC2246804689462B462046294678
:1023F00026F03EF9424606460F464B462046294601
:1024000026F036F902460B4600200B4926F00CFC5C
:102410000B4602463946304626F028F9BDE8F84317
:1024200000F0E6BDAFF30080EF39FAFE422EE63F42
:10243000FFFFEF3FFFFFAF410000F03F0000000053
:102440002DE9F047BE4B21F00048984584B0044682
:102450000D4612DD08F1404808F58018034658EA99
:10246000030321D002460B4626F000F902460B4634
:1024700026F0DAFB04B0BDE8F087B24B98458A46F7
:1024800029DCB8F1795F80F2658191A3D3E900235B
:1024900026F0EEF80022AC4B26F02CFDD8B12046F9
:1024A000294604B0BDE8F0878BA3D3E9002326F0CA
:1024B00091FA8BA3D3E9002306460F46204629460E
:1024C00026F088FA02460B463046394626F0D0F808
:1024D00004B0BDE8F0872046294623F08BFA024677
:1024E0000B460020984926F0C1F80022974B26F0B1
:1024F00071FA7DA3D3E9002304460D4626F06AFA5B
:102500007BA3D3E9002326F0B3F822462B4626F01E
:1025100061FA79A3D3E9002326F0A8F822462B46D6
:1025200026F058FA76A3D3E9002326F0A1F8224634
:102530002B4626F04FFA74A3D3E9002326F096F831
:1025400022462B4626F046FA71A3D3E9002326F053
:102550008FF822462B4626F03DFA6FA3D3E90023DD
:10256000CDE900012046294626F034FA6CA3D3E9D0
:10257000002326F07BF822462B4626F02BFA6AA38E
:10258000D3E9002326F074F822462B4626F022FADF
:1025900067A3D3E9002326F069F822462B4626F0EC
:1025A00019FA694B002226F063F8CDE902012046B2
:1025B000294624F039FB664B984506460F4666DCF3
:1025C000DDE90223DDE9000126F02EFB3246CDE9EC
:1025D00000013B463046394626F04AF802460B4693
:1025E000DDE9000126F0F6F94FF00008CDE9000121
:1025F00042463B464046394626F0ECF902460B4639
:102600002046294626F032F8424604460D463B460F
:102610003046394626F02CF802460B46204629461D
:1026200026F002FB02460B4626F022F802460B4635
:102630002BA1D1E9000126F019F802460B46DDE98D
:10264000000126F013F8424604460D463B4640463C
:10265000394626F00DF802460B4637A1D1E90001B4
:1026600026F004F802460B462046294625F0FEFFD8
:1026700002460B4630A1D1E9000125F0F7FFBAF17F
:10268000000F3FF7F7AE01F100431946F2E6DDE92E
:102690000223DDE9000126F0C7FA32463B4626F068
:1026A00099F932463B4625F0E3FF02460B4625F0FA
:1026B000DFFF0BA3D3E9002325F0D8FF02460B462A
:1026C00005A1D1E9000125F0D1FFD8E7AFF30080E3
:1026D0009C7500883CE4377E182D4454FB21F93F5B
:1026E000075C143326A6913C09F7FD0DE13D023F3E
:1026F00088B20175E0EF493F3B8F68B52882A43F5F
:102700005544880E55C1C93F7D6FEB0312D6D43FA7
:10271000555555555555C53F82922EB1C5B8B33F55
:1027200059018D1B6C06E63FC88A599CE52A00407A
:102730004B2D8A1C273A0340182D4454FB21E93FB6
:10274000FFFFEF3FFFFFDF3F0000F03F0000E03FF3
:102750003233EF3F02460B4626F03CF937A3D3E96C
:10276000002306460F4626F035F936A3D3E90023A9
:1027700025F07EFF32463B4626F02CF933A3D3E901
:10278000002325F073FF32463B4626F023F931A3A0
:10279000D3E9002325F06CFF32463B4626F01AF9B8
:1027A0002EA3D3E9002325F061FF32463B4626F0F5
:1027B00011F92CA3D3E9002325F05AFF32463B46FA
:1027C00026F008F929A3D3E900238046894630463C
:1027D000394626F0FFF827A3D3E9002325F046FF6A
:1027E00032463B4626F0F6F824A3D3E9002325F031
:1027F0003FFF32463B4626F0EDF822A3D3E9002303
:1028000025F034FF32463B4626F0E4F800220A4B1E
:1028100025F02EFF02460B464046494626F004FAB4
:1028200022462B4626F0D6F822462B4625F020FFDE
:1028300004B0BDE8F08700BF0000F03F09F7FD0DD0
:10284000E13D023F88B20175E0EF493F3B8F68B53B
:102850002882A43F5544880E55C1C93F7D6FEB03C4
:1028600012D6D43F555555555555C53F82922EB178
:10287000C5B8B33F59018D1B6C06E63FC88A599C09
:10288000E52A00404B2D8A1C273A03400000000037
:102890002DE9F84F1D465342134325F0004ADFF857
:1028A000E0E14AEAD3737345144606460F4647D81B
:1028B000C0F1000848EA000821F0004343EAD87854
:1028C000F0458B463CD805F1404808F5801858EA99
:1028D000020850D04FEAA57808F0020848EAD178FB
:1028E00050EA030134D052EA0A023CD0F24557D0F4
:1028F000734538D0A3EB0A031B153C2B42DC002D9B
:1029000070DB22462B463046394626F08DF923F0FF
:1029100071F8FEF751FBB8F1010F5FD0B8F1020F6B
:102920004ED0B8F1000F62D043A3D3E9002325F0C5
:102930009DFE43A3D3E9002325F098FEBDE8F88F60
:1029400032463B462046294625F092FEBDE8F88FE8
:10295000B8F1020F1AD0B8F1030F10D13AA1D1E9A2
:102960000001BDE8F88FBBF1000F14DB38A1D1E9FD
:102970000001BDE8F88FBDE8F84FFEF71DBB3946F2
:10298000BDE8F88F32A1D1E90001C4E72CA1D1E95B
:102990000001BDE8F88F30A1D1E90001BDE8F88F52
:1029A000534526D0B8F1020FF0D0B8F1030FD5D0BF
:1029B000B8F1010F4FF0000029D00021BDE8F88FD9
:1029C0001DA3D3E9002325F051FE02460B461CA1AE
:1029D000D1E9000125F04AFEBDE8F88F01F1004180
:1029E000BDE8F88F3C338CDA0020002193E7BDE886
:1029F000F88FB8F1020F18D0B8F1030F10D0B8F16A
:102A0000010F08D016A1D1E90001BDE8F88F4FF001
:102A10000041BDE8F88F14A1D1E90001BDE8F88FAD
:102A200013A1D1E90001BDE8F88F13A1D1E900019C
:102A3000BDE8F88FAFF30080075C143326A6A13CF5
:102A4000182D4454FB210940182D4454FB2109C082
:102A5000182D4454FB21F93F182D4454FB21F9BF94
:102A6000182D4454FB21E93F182D4454FB21E9BFA4
:102A7000D221337F7CD902C0D221337F7CD902405E
:102A80000000F07F0000000043422DE9F0470343BF
:102A900021F000463E4A46EAD373934204460D466F
:102AA00013D896423DD03B4B9E428A4617DC36A354
:102AB000D3E9002325F0DCFD0022002326F01AFADA
:102AC000A8B320462946BDE8F08702460B4625F00C
:102AD000CDFD02460B4626F0A7F8BDE8F0872E4B49
:102AE0009E42354624DD33460246314625F0C0FD80
:102AF000224606460F462B460020254925F0B6FD06
:102B000002460B463046394626F08EF8FEF708FDA1
:102B10000022224B25F05EFFBAF1000F2FDBBDE84B
:102B2000F0870022002326F07FF8BDE8F0873546C5
:102B300022462B462046294625F09AFD22462B4662
:102B400006460F4625F046FF2246804689462B461C
:102B500000200F4925F08AFD02460B4640464946B3
:102B600026F062F832463B4625F082FDFEF7D8FC9F
:102B700000220A4B25F02EFFBAF1000FCFDA01F147
:102B800000431946BDE8F0879C7500883CE4377E19
:102B90000000F03FFFFF2F3EFFFFDF3F0000E03F60
:102BA0002DE9F8434E4B21F000449C4206460F4667
:102BB0001BDC4C4B9C4222DD4B4B9C4263DD4B4B60
:102BC0009C427BDD4A4B9C4246DD01339C4240D017
:102BD00041A3D3E900231046194625F0FBFE064623
:102BE0000F4630463946BDE8F88302460B4625F0CD
:102BF000F1FE06460F4630463946BDE8F88322F01E
:102C0000F9FE02F0B1FC00223A4B8046894625F0DD
:102C10002FFDB4F1725F06460F46ECDB42464B4691
:102C20004046494625F0D6FE32463B4604460D4610
:102C30003046394625F01CFD02460B462046294603
:102C400025F0F2FF00222B4B25F012FD06460F4621
:102C5000D1E7294B9842BBD83046394622F0CAFE0C
:102C60000022264B25F0B6FE00F04AF8002204466A
:102C70000D46224B25F0AEFE22462B4625F0AAFE3D
:102C800006460F46B7E722F0B5FE00F039F80022FD
:102C90001A4B06460F4625F09DFE32463B4604463B
:102CA0000D460020154925F0BFFF02460B46204681
:102CB000294625F0DDFC06460F469CE722F09AFEE9
:102CC00000F01EF800220D4B25F084FE06460F464C
:102CD00091E700BFAFF300809C7500883CE4377E2D
:102CE000FFFFEF7F422ED63FFFFF3540412E86404B
:102CF000CD3386400000F03F7DF8B98F0000E03F03
:102D00002DE9F04FB04E21F00042B24283B00446AC
:102D10000D464FEAD1770DD9AC4EB24225D9C1F359
:102D20001303034340F0EC800FB10020002103B0F7
:102D3000BDE8F08FA64B9A4200F2CB80A54B9A4299
:102D400000F2DC808AA3D3E9002325F091FC002265
:102D5000A14B26F0CFF8002800F006812046294636
:102D600000229D4B25F084FCE1E783A3D3E90023F7
:102D700026F0C0F8002840F0C88081A3D3E90023E2
:102D80002046294626F098F80028CED1934E7EA3FF
:102D9000D3E9002306EBC7062046294625F01AFE94
:102DA000D6E9002325F064FC26F0C4F8064625F099
:102DB000ABFD77A3D3E900238046894625F00AFEC0
:102DC00002460B462046294625F050FC72A3D3E963
:102DD0000023CDE900014046494625F0FBFD82462F
:102DE0008B4652465B46DDE9000125F03FFC044678
:102DF0000D4622462B462046294625F0EBFD68A3CA
:102E0000D3E900238046894625F0E4FD66A3D3E993
:102E1000002325F02BFC42464B4625F0DBFD64A346
:102E2000D3E9002325F024FC42464B4625F0D2FD91
:102E300061A3D3E9002325F019FC42464B4625F057
:102E4000C9FD5FA3D3E9002325F012FC42464B469F
:102E500025F0C0FD02460B462046294625F006FC1B
:102E600080468946002E58D02046294642464B4689
:102E700025F0B0FD424604460D464B4600204FF07B
:102E8000804125F0F3FB02460B462046294625F0FB
:102E9000CBFE02460B465046594625F0E7FBDDE9DE
:102EA000002325F0E3FB0B4602464B49002025F0AA
:102EB000DDFB6FF47F739E4251DA06F57A7601EB03
:102EC000065100224FF0B87325F084FD03B0BDE831
:102ED000F08F434B9A423FF659AF424BFC002344DC
:102EE000D3E9002325F0C2FB3F4BC7F10106234481
:102EF000CDE90001D3E900ABF61B72E7002678E7C5
:102F000002460B4625F0B4FB11E719A3D3E90023D1
:102F10001046194625F05EFD09E702460B4620469D
:102F2000294625F057FD002206460F464FF0804304
:102F30004046494625F09AFB02460B463046394644
:102F400025F072FE22462B4625F090FB02460B46EA
:102F50000020214925F08AFB03B0BDE8F08F01EB8A
:102F6000065103B0BDE8F08F064642E7AFF300809C
:102F70009C7500883CE4377EEF39FAFE422E86408D
:102F800051302DD5104987C0FE822B654715F73F7C
:102F90000000E0FE422EE63F763C7935EF39EA3D0F
:102FA000D0A4BE726937663EF16BD2C541BDBB3E4F
:102FB0002CDE25AF6A56113F93BDBE166CC1663F2D
:102FC0003E5555555555C53F412E8640FFFFEF7F75
:102FD000422ED63FFFFF2F3E0000F03F489D0200EB
:102FE000B1A2F03F589D0200689D02000000000061
:102FF0002DE9F04FB1F5801F85B006460F460B4610
:103000005ADA024621F00044224300F0F8800029F9
:10301000C0F27A810022D64B25F0DCFCD54A0B4663
:10302000934206460F466FF0350C4ADCC3F3130596
:1030300005F5152E0EF6647E0EF4801E8EF07F527E
:1030400082F440121C1542EA0507A4F2FF346444DE
:103050000022C94B3046394604EB1E5425F006FBCE
:10306000AB1CC3F31303022B82468B464FF00002C6
:1030700030DC002325F016FF002800F0C980002C6A
:1030800000F04B81204625F03FFCA5A3D3E90023A7
:1030900006460F4625F09EFCA3A3D3E90023044671
:1030A0000D463046394625F095FC02460B46204633
:1030B000294625F0DDFA0AE0AE4A93424FF0000CB3
:1030C000B4DD32463B463046394625F0D1FA05B0EC
:1030D000BDE8F08F4FF0804325F0CAFA02460B4658
:1030E0005046594625F0A0FD064620460F4625F0DD
:1030F0000BFC3246CDE900013B4630463946CDE96E
:10310000026725F067FC02460B468046894625F09B
:1031100061FC87A3D3E9002306460F4625F05AFC3D
:1031200085A3D3E9002325F0A3FA32463B4625F0D8
:1031300051FC83A3D3E9002325F09AFA32463B469B
:1031400025F048FC80A3D3E9002325F091FA4246FC
:103150004B4625F03FFC7EA3D3E9002380468946F9
:103160003046394625F036FC7BA3D3E9002325F011
:103170007FFA32463B4625F02DFC79A3D3E90023A4
:1031800025F076FA32463B4625F024FC0B460246F3
:103190004946404625F06CFAA5F5C223C5F5D7256A
:1031A000A3F27A4351351D43002D8046894656DDF2
:1031B0000022724B5046594625F00CFC52465B46A5
:1031C00025F008FC06460F46002C68D132463B46E7
:1031D0004046494625F04CFADDE9022325F0FAFB8A
:1031E00002460B463046394625F040FA02460B4669
:1031F0005046594625F03AFA05B0BDE8F08F002256
:10320000002300205E4925F00FFD05B0BDE8F08FDA
:1032100055A3D3E900235046594625F0DBFB02466F
:103220000B460020554925F021FA524606460F4626
:103230005B465046594625F0CDFB02460B463046CC
:10324000394625F0C7FB06460F46002C40F09A8011
:1032500002460B465046594625F008FA37E7002C3F
:1032600000F0A4802EA3D3E90023DDE9000125F0BE
:10327000B1FB42464B4604460D465046594625F0A2
:10328000F5F9DDE9022325F0A5FB27A3D3E9002307
:1032900006460F46DDE9000125F09CFB21E020A356
:1032A000D3E90023DDE9000125F094FB32463B46DB
:1032B00004460D464046494625F0DAF9DDE9022389
:1032C00025F088FB18A3D3E9002380468946DDE971
:1032D000000125F07FFB02460B464046494625F09B
:1032E000C7F902460B463046394625F0BFF952462B
:1032F0005B4625F0BBF902460B462046294625F0E1
:10330000B5F905B0BDE8F08F02460B4625F0AEF9E1
:103310000022002325F088FCD9E600200021D6E613
:103320000000E0FE422EE63F763C7935EF39EA3D7B
:1033300044523EDF12F1C23FDE03CB966446C73FE4
:10334000599322942449D23F935555555555E53FFD
:103350009FC678D0099AC33FAF788E1DC571CC3F08
:1033600004FA97999999D93F555555555555D53FD3
:1033700000005043FFFFEF7F0000F03F0000E03F00
:10338000000050C3204625F0BFFA0FA3D3E9002365
:103390008046894625F01EFB0DA3D3E90023044691
:1033A0000D464046494625F015FB9AE702460B4676
:1033B0005046594625F05AF9DDE9022325F00AFB6B
:1033C00014E700BFAFF300800000E0FE422EE63FAE
:1033D000763C7935EF39EA3DB1F5801F2DE9F843A8
:1033E00004460D460B461ADA024621F000463243E7
:1033F00059D000295FDB00223B4B25F0EBFA3B4A1A
:103400000D462B46934204466FF035010CDD2246F3
:103410002B462046294625F02BF9BDE8F883334A90
:1034200093424FF00001F2DC1815A0F2FF3008447F
:103430004FEAD0794844C3F3130825F065FAC9F57B
:103440007F73033348EA035506460F462046294654
:10345000FFF7CEFD1EA3D3E9002380468946304600
:10346000394625F0B7FA1CA3D3E9002304460D46DC
:103470004046494625F0AEFA02460B46204629460C
:1034800025F0F6F816A3D3E9002304460D4630468E
:10349000394625F09FFA02460B462046294625F07C
:1034A000E7F8BDE8F883002200230020104925F04A
:1034B000BBFBBDE8F88302460B4625F0D7F8002297
:1034C000002325F0B1FBBDE8F88300BFAFF3008017
:1034D000362BF111F3FE593D0EE526157BCBDB3F74
:1034E00000609F501344D33F00005043FFFFEF7F25
:1034F000000050C3000000002DE9F04F23F000470A
:1035000057EA020493B037D0674C21F00046A64238
:1035100083460D4629DC9A46964625D0A74224DCF0
:10352000614CA74279D0002D80468946CDE9002321
:1035300077DB0024BEF1000F2CD15B4B9F4200F0E3
:103540008B805A4B9F4261D0BAF1804F00F0C38309
:10355000574B9A451ED1002D1CDB4046494613B0FF
:10356000BDE8F04F23F060BB58B106F1404606F5C8
:10357000801656EA0B0306D14C49002013B0BDE873
:10358000F08FB742CCDD4B4813B0BDE8F04F24F0CC
:103590004FBD00244046494622F02CFABBF1000FF3
:1035A00019D126B1414B25F040429A4213D1BAF1CC
:1035B000000FC0F2CA83002DE0DA06F1404606F59E
:1035C000801656EA040300F0A584012CD6D101F13F
:1035D00000431946D2E7ED0F013D54EA05034ED0F2
:1035E000354B9F426EDD03F104739F4240F3FE832F
:1035F000324B9E424EDDBAF1000F4EDD28A3D3E9D7
:1036000000231046194625F0E5F9B7E7BAF1000F97
:10361000C0F2528440464946B0E7BEF1000F82D066
:10362000A3E7274B9F4228DCA3F154739F4280DD20
:103630003B15A3F2FF33142B40F35484C3F134033E
:103640002EFA03F202FA03F39E457FF472AF02F002
:103650000102C2F102046DE706F1404303F5801355
:1036600053EA0B0388D0154B9E4240F33B83BAF1DB
:10367000000F12DBDDE9000180E702245AE7424631
:103680004B461046194624F0F1FF02460B4625F042
:10369000CBFA73E7BAF1000FB0DB002000216DE731
:1036A0009C7500883CE4377E0000F07F0000F03F0E
:1036B0000000E03FCCA702000000E041FFFFEF3F29
:1036C000FFFF3F43B6F5801F4FF0000205DAD84BED
:1036D00025F080F96FF034020E463315D54FC6F34E
:1036E0001306A3F2FF33134446F07F5ABE421A4634
:1036F0000D934AF4401A40F32F83CF4B9E4240F380
:103700000D849FEDB57B8DED087B8DED0E7B9FEDE0
:10371000B47B13468DED067B01330D93AAF5801A19
:103720000027DDE906235146CDE90A0124F09EFF7A
:10373000DDE9062380468946DDE90A0124F098FF89
:1037400002460B460020BD4925F06EFA0A460146A6
:10375000CDE91012134649460246404625F03AF993
:103760004FEA6A0343F000538C46834603F5002377
:10377000CDE904BCDA468B46D9190023CDE902AB6A
:103780000293DDE902AB002006460F4602460B46D7
:103790005046594625F01EF902460B46404649461A
:1037A00024F064FFDDE90623804689463046394629
:1037B00024F05CFF02460B46DDE90A0124F056FFC7
:1037C00052465B4625F006F902460B4640464946FE
:1037D00024F04CFFDDE9102325F0FCF8DDE9046757
:1037E000CDE9060132463B463046394625F0F2F82F
:1037F0007DA3D3E9002306460F4625F0EBF87CA312
:10380000D3E9002324F034FF32463B4625F0E2F8AA
:1038100079A3D3E9002324F02BFF32463B4625F061
:10382000D9F877A3D3E9002324F022FF32463B46A0
:1038300025F0D0F874A3D3E9002324F019FF324611
:103840003B4625F0C7F872A3D3E9002324F010FF0C
:103850003246804689463B463046394625F0BAF81E
:1038600002460B464046494625F0B4F85246064605
:103870000F465B46DDE9040124F0FAFEDDE906238C
:1038800025F0A8F832463B4624F0F2FE5246804628
:1038900089465B465046594625F09CF80022684B05
:1038A000CDE90A0124F0E4FE42464B4624F0E0FE56
:1038B00002980F46064632463B465046594625F08A
:1038C00089F8002282468B465D4B3046394624F00B
:1038D000CDFEDDE90A2324F0C9FE02460B46404630
:1038E000494624F0C3FEDDE9042325F073F832468F
:1038F000804689463B46DDE9060125F06BF8024625
:103900000B464046494624F0B3FE804689460246AF
:103910000B4650465946CDE904AB24F0A9FEDDE93B
:1039200002AB3DA3D3E9002350460F4625F052F8E1
:10393000DDE90423CDE902013946504624F096FE24
:1039400002460B464046494624F090FE34A3D3E994
:10395000002325F03FF834A3D3E9002380468946AD
:103960005046394625F036F802460B464046494651
:1039700024F07EFEDDE90E2324F07AFE80460D98C9
:10398000894624F0C1FF424606460F464B46DDE914
:10399000020124F06DFEDDE9082324F069FE3246C1
:1039A0003B4624F065FE32463B4650468B4624F0AB
:1039B0005DFEDDE9082324F059FEDDE9022324F051
:1039C00055FE02460B464046494624F04FFE8046CF
:1039D000894637E0AFF300800000000000000000DF
:1039E000000000000000F03FEF4E454A287ECA3F2D
:1039F00065DBC9934A86CD3F01411DA96074D13F63
:103A00004D268F515555D53FFFAB6FDBB66DDB3F74
:103A1000033333333333E33F000000E009C7EE3FA5
:103A2000FD033ADC09C7EE3FF5015B14E02F3EBE13
:103A3000000040438E98030079B60B000000F03F71
:103A400000000840013C54EA050300F079819FED35
:103A5000C87B8DED047BDDE900120B461446CDE9F1
:103A6000023400230293DDE9024508462B46114645
:103A7000224624F0FBFD52465B4624F0ABFFDDE915
:103A8000002306460F464046494624F0A3FF02465F
:103A90000B463046394624F0EBFD224680468946E7
:103AA0002B4650465946CDE9008924F093FF0B463A
:103AB000024606460F464046494624F0D9FDC64B0D
:103AC000994204460D468A4640F3168101F13F4370
:103AD00003F5E003034340F0F781A7A3D3E90023F4
:103AE000DDE9000124F0C4FD3246804689463B46AC
:103AF0002046294624F0BAFD02460B464046494678
:103B000025F0F8F9002840F0DF81A8464FEA285355
:103B10004FF48012A3F2FE3342FA03F35344C3F38B
:103B20000A52AE4DA2F2FF321541C3F3130423EA49
:103B300005010020C2F1140B44F48014BAF1000F07
:103B400002460B4644FA0BFB30463946B8BFCBF170
:103B5000000B24F08BFD02460B4606460F46DDE9BE
:103B6000000124F085FD4FEA0B5A0D46002484A382
:103B7000D3E900232046294624F02CFF3246804614
:103B800089463B462046294624F070FD02460B46F6
:103B9000DDE9000124F06AFD7BA3D3E9002324F0D2
:103BA00019FF7BA3D3E9002306460F46204629468A
:103BB00024F010FF02460B463046394624F058FDEB
:103BC00006460F4602460B464046494624F050FD45
:103BD00042464B4604460D4624F048FD02460B463D
:103BE0003046394624F042FD2246804689462B461F
:103BF0002046294624F0EEFE67A3D3E900230646BB
:103C00000F4624F0E7FE66A3D3E9002324F02EFD3F
:103C100032463B4624F0DEFE63A3D3E9002324F0C2
:103C200027FD32463B4624F0D5FE61A3D3E90023AD
:103C300024F01CFD32463B4624F0CCFE5EA3D3E9C3
:103C4000002324F015FD32463B4624F0C3FE024615
:103C50000B462046294624F009FD06460F4602463B
:103C60000B462046294624F0B5FE0022CDE900018E
:103C70004FF080433046394624F0F8FC02460B46AC
:103C8000DDE9000124F0D0FF424606460F464B46D0
:103C90002046294624F09EFE42464B4624F0E8FC8E
:103CA00002460B463046394624F0E0FC22462B46BD
:103CB00024F0DCFC02460B460020494924F0D6FCE7
:103CC0008A44BAF5801FC0F239815146DDE90423E8
:103CD00024F080FE52E442464B464046494624F0DA
:103CE00079FE4BE4BAF1000FBFF6D7ACDDE9003442
:103CF000184604F1004141E43A4B21F00048984550
:103D000040F3FF80384B0B4403430CD132463B4613
:103D100024F0ACFC02460B46DDE9000125F0D6F8A4
:103D200000283FF4F3AEDDE9040125A3D3E9002325
:103D300024F050FE22A3D3E9002324F04BFE1DE41F
:103D40009FED217B8DED047B85E602460B4600202E
:103D5000234924F069FF2EE49FED1D7B8DED087B48
:103D60008DED0E7B9FED027B00278DED067BD8E469
:103D7000000000000000F03FFE822B654715973CD5
:103D800000000000432EE63FEF39FAFE422EE63FE8
:103D9000396CA80C615C20BED0A4BE726937663E47
:103DA000F16BD2C541BDBB3E2CDE25AF6A56113F3B
:103DB00093BDBE166CC1663F3E5555555555C53F22
:103DC00059F3F8C21F6EA501000000000000F0BF0B
:103DD0000000000000000000FFFF8F40FFFF0F0009
:103DE0000000F03FFFCB904000346F3F684B9E4295
:103DF0007FF750AC674B9E423FF7FDAB0022654B0F
:103E000024F034FC52A3D3E9002306460F4624F0E5
:103E1000E1FD51A3D3E90023804689463046394667
:103E200024F0D8FD002282468B465B4B3046394653
:103E300024F0D0FD02460B4649A1D1E9000124F04F
:103E400015FC32463B4624F0C5FD02460B460020D9
:103E5000524924F00BFC3246CDE902013B46304684
:103E6000394624F0B7FD02460B46DDE9020124F095
:103E7000B1FD3DA3D3E9002324F0ACFD02460B467F
:103E80005046594624F0F2FB02460B4606460F46C2
:103E90004046494624F0ECFB42464B460020824611
:103EA0008B4624F0E3FB02460B463046394624F0AD
:103EB000DDFB80468946C5E542464B460020354934
:103EC00024F0B2FEFFF75ABBDDE9040128A3D3E9D1
:103ED000002324F07FFD26A3D3E9002324F07AFDFC
:103EE000FFF74CBBBEF1000F7FF453ABC3F11403DB
:103EF00047FA03F202FA03F39F4223D07446FFF716
:103F000020BB264B98453FF701AEDDE902239246E0
:103F100093462BE602460B46FFF7B3BB9FED167B9D
:103F20008DED087B9FED167B8DED0E7B9FED167B57
:103F30004FF480278DED067BFFF7F3BB5A4601F067
:103F40004FFDC3E602F00102C2F10204FFF7F9BA25
:103F5000000000604715F73F44DF5DF80BAE543EAC
:103F6000555555555555D53FFE822B654715F73F9D
:103F70009C7500883CE4377E0000004003B8E23FB7
:103F800006D0CF43EBFD4C3E000000000000F83FA0
:103F9000FEFFEF3F0000F03F0000D03F0000E03F99
:103FA0002DE9F0479C4B21F000479F4290B080469E
:103FB000894640F38E80994B9F420C46924626DC00
:103FC00000298BA3D3E9002340F3B08124F04EFBFA
:103FD000934B9F4204460D4600F0908086A3D3E9A0
:103FE000002324F043FB02460B46CAE90023204687
:103FF000294624F03BFB80A3D3E9002324F036FBC1
:104000000125CAE90201284610B0BDE8F087854BBA
:104010009F4240F39080844B9F4265DC3D15A5F2A2
:104020001645A7EB055319461F46064624F082FFA6
:1040300024F06AFC8046894642464B463046394663
:10404000CDE90A8924F012FB0022784B24F0C2FC4F
:104050008946804624F06EFF24F056FC06460F4643
:1040600032463B4640464946CDE90C6724F0FEFA0D
:1040700000226E4B24F0AEFC00220023CDE90E019D
:1040800024F010FF002800F06F81002330463946ED
:10409000002224F007FF002814BF01230223644AF2
:1040A000019202212A4600910AA8514600F08CFB99
:1040B000002C054614DADAF80420DAF80C3002F1A4
:1040C000004203F100434542CAF80420CAF80C300C
:1040D00006E000200021C2E90089C2E902010025B2
:1040E000284610B0BDE8F08702460B4624F0BEFA21
:1040F0000025CAE90201CAE90001F1E740A3D3E9BA
:10410000002324F0B3FA40A3D3E900230D4604466C
:1041100024F0ACFA02460B46CAE9002329462046A1
:1041200024F0A4FA38A3D3E9002324F09FFA012550
:10413000CAE90201D4E721F05DFC35A3D3E90023ED
:104140008046894624F046FC00223A4B24F090FA3F
:1041500024F0F0FE054624F0D7FB25A3D3E9002385
:10416000CDE9060124F036FC02460B46404649469E
:1041700024F07CFA20A3D3E90023CDE90201DDE994
:10418000060124F027FC1F2D80468946CDE90489CD
:1041900054DC294B6A1E53F822309F424ED002460F
:1041A0000B46DDE9020124F061FA80468946CAE93E
:1041B000008942464B46DDE9020124F057FADDE969
:1041C000042324F053FA002CCAE9020188DA09F129
:1041D000004401F100436D42CAF80080CAF804406F
:1041E000CAF80800CAF80C307AE700BFAFF30080C5
:1041F00000004054FB21F93F3163621A61B4D03DA5
:104200000000601A61B4D03D7370032E8A19A33B7D
:1042100083C8C96D305FE43FFB21E93F7BD9024091
:10422000FB21F93FFB213941FFFFEF7F0000704187
:104230000CCF02000000E03F8CCE0200DDE9042339
:10424000DDE9020124F012FA3F15C1F30A53FB1A0B
:1042500080468946102BCAE90089AADD58A3D3E914
:104260000023DDE9060124F0B5FB804689460246BD
:104270000B46DDE9020124F0F9F902460B46DDE9BF
:104280000201CDE9082324F0F1F942464B4624F01F
:10429000EDF94DA3D3E9002380468946DDE9060107
:1042A00024F098FB42464B4624F0E0F90B46CDE95A
:1042B00004010246DDE9080124F0D8F9C1F30A53EC
:1042C000FF1A80468946312FCAE900896CDD41A377
:1042D000D3E90023DDE9060124F07CFBDDE9088950
:1042E00006460F4602460B464046494624F0BEF9B4
:1042F00002460B4640464946CDE9022324F0B6F972
:1043000032463B4624F0B2F934A3D3E900230646F3
:104310000F46DDE9060124F05DFB32463B4624F002
:10432000A5F902460B46CDE904233AE724F0A0F9AB
:10433000274B9F4204460D4618D01FA3D3E9002304
:1043400024F096F902460B46CAE900232946204686
:1043500024F08CF918A3D3E9002324F089F94FF055
:10436000FF35CAE90201BBE6032398E614A3D3E9AB
:10437000002324F07DF914A3D3E900230D4604465D
:1043800024F076F902460B46CAE900232946204666
:1043900024F06CF90CA3D3E9002324F069F94FF061
:1043A000FF35CAE902019BE69DED087B8DED027B9E
:1043B000FFE600BFAFF300803163621A61B4D03D05
:1043C0000000601A61B4D03D7370032E8A19A33BBC
:1043D000FB21F93F0000002E8A19A33BC14920258B
:1043E0009A837B3900000000594A2DE9F84F21F0EB
:1043F0000048904506460F462BDC564B0029B4BFBB
:10440000554D564D98454FF0000410DC544B9845DF
:1044100070DC4DA3D3E9002324F02AF90022514B8C
:1044200024F068FDD8B130463946BDE8F88F4E4BD0
:1044300098457CDD4D4B984544DD013398453ED091
:104440003046394640A3D3E9002324F0C3FABDE83F
:10445000F88F02460B4624F00BF9BDE8F88F304682
:10446000394621F0C7FA01F07FF806460F4632467A
:104470003B463046394624F0FBF8324682468B46AE
:104480003B463046394624F0A5FA0022804689464C
:10449000344B3046394624F0EBF802460B46404692
:1044A000494624F0C1FB02460B465046594624F0CB
:1044B000DDF822462B4624F08DFABDE8F88F2C4B10
:1044C0009842BDD83046394621F094FA0022234B59
:1044D00024F080FAFEF714FC06460F4602460B460F
:1044E0002046294624F076FA32463B4624F072FAFA
:1044F000BDE8F88F21F07EFA01F036F81D4B9845A3
:1045000006460F46B3DD0022164B24F0B1F80246F2
:104510000B463046394624F087FB32463B4624F0B2
:10452000A7F822462B4624F055FABDE8F88F21F073
:1045300061FAFEF7E5FB02460B462046294624F0C9
:1045400049FABDE8F88F00BF3374AC3C1F7BAC7FE9
:10455000FFFFEF7FFFFF35400000E0BF0000E03FBE
:10456000FFFF2F3E0000F03F412E8640CD338640B6
:104570007DF8B98FFFFFEF3F2DE9F04F21F00048A4
:10458000B8F1795F85B006460F4692469B466BDAD6
:1045900024F0D0FC002800F0EA8032463B4630464A
:1045A000394624F017FA74A3D3E9002304460D46D4
:1045B00024F010FA72A3D3E9002324F059F822461C
:1045C0002B4624F007FA70A3D3E9002324F04EF819
:1045D00022462B4624F0FEF96DA3D3E9002324F0F4
:1045E00047F822462B4624F0F5F96BA3D3E90023C4
:1045F00024F03CF822462B4624F0ECF968A3D3E9DA
:10460000002324F035F822462B4624F0E3F9CDE9C7
:1046100000010022664B2046294624F0DBF9DDE943
:104620000023804689462046294624F0D3F9524685
:1046300004460D465B463046394624F0CBF9024627
:104640000B462046294624F011F802460B46404608
:10465000494624F00BF802460B460020554924F049
:1046600005F805B0BDE8F08F02460B4624F0B2F91C
:1046700041A3D3E9002304460D4624F0ABF940A33F
:10468000D3E9002323F0F4FF22462B4624F0A2F9BD
:104690003DA3D3E9002323F0E9FF22462B4624F073
:1046A00099F93BA3D3E9002323F0E2FF22462B46EE
:1046B00024F090F938A3D3E9002323F0D7FF224652
:1046C0002B4624F087F936A3D3E9002323F0D0FF4B
:1046D0002B46224624F07EF9374B9845CDE9000160
:1046E00097DD364B984539DCA8F5001300220020F1
:1046F00030499046994623F0B9FFCDE902010022E6
:104700002B4B2046294624F065F942464B4623F0C0
:10471000ADFFDDE90023804689462046294624F086
:1047200059F9524604460D465B463046394624F058
:1047300051F902460B462046294623F097FF0246D0
:104740000B464046494623F091FF02460B46DDE901
:10475000020123F08BFF05B0BDE8F08F9FED127BC7
:104760004FF000088DED027BDFF85490C7E7114948
:10477000002005B0BDE8F08FD43888BEE9FAA8BDA6
:10478000C4B1B4BD9EEE213EAD529C804F7E923EA0
:104790009015CB19A001FA3E7751C1166CC1563F56
:1047A0004C5555555555A53F000000000000E73F0A
:1047B0000000E03F0000F03F3233D33F0000E93F0C
:1047C0000000D23F000000002DE9F04FADF51B7D49
:1047D0009F4CA49E9F4D54F8264007942646D41E15
:1047E00085FB0475E417C4EBA50424EAE4741D46B4
:1047F0000A93631CA3EB8303013D02EBC3030693FF
:104800002B460B940395651BF418049008911AD459
:104810002C440026002701340DF18808DDF894921D
:1048200008E059F8250024F06FF80135A542E8E8C2
:10483000020108D0002DF4DA013530463946A54290
:10484000E8E80201F6D1079B002BC0F2DF83079B4B
:1048500003F1010B0A9B22A9DB001A4601EB0309B5
:104860000093049B0DF5E47A19460AEBCB0B01EBA0
:104870000208039B002BC0F2F582049C4D460026E3
:10488000002775E90223F4E8020124F0A3F80246A8
:104890000B463046394623F0EBFE444506460F46AC
:1048A000EFD1EAE80267DA4509F10809E1D1079991
:1048B0000098049C009101F18043013B9B0020443F
:1048C0001A1F83460EA8024403440C920D93009ACB
:1048D0009AA901EBC203002A53E9284529DD0DF509
:1048E000E47A0AEBC2080DF1340900225A4B204643
:1048F000294624F06FF824F01DFB24F005F800226F
:10490000564B06460F4624F065F802460B462046F5
:10491000294623F0ABFE24F00DFB78E9022349F889
:10492000040F3946304623F0A3FED04504460D4619
:10493000DBD1DDF81890204629464A4601F050F8B0
:1049400000224FF07F5304460D4624F043F8FCF755
:104950005FFD0022424B24F03DF802460B46204604
:10496000294623F083FE0D46044624F0E3FA8046F0
:1049700023F0CAFF0B4602462946204623F076FE66
:104980004B46002B06460F4640F3F980009A0EA9CD
:10499000013AC9F1180351F8225045FA03F101FA1E
:1049A00003F30EA8EB1A40F82230C9F1170588442A
:1049B00043FA05F5002D6DDD009B002B08F1010881
:1049C00040F36F820E9C002C40F01683009B012B5D
:1049D00040F38F820EAA012352F8044F002C00F0FE
:1049E0008382581C0EAAC4F1807442F82340009AB6
:1049F000824219DD0EAA0EAC52F820106FF07F42F1
:104A0000511A44F820100099023399420CDD1046E7
:104A1000009A0EA901EB830301EB82011A68821A46
:104A200043F8042B8B42F9D1069B002B1ADD069B21
:104A3000012B4FF0010440F03C82009B5A1E0EAB4C
:104A40000EA953F82230C3F3160341F822303CE29A
:104A5000ACD30200ABAAAA2A0000703E000070414D
:104A600000002040022D15D132463B4600209249DD
:104A700023F0FCFD06460F46069A8F49002000F001
:104A8000AFFF02460B463046394623F0EFFD0225C4
:104A900006460F46002200233046394624F002FA2B
:104AA000002800F03782009A079B501E83420FDCDB
:104AB00002F18043013B0EAA0D9C02EB830300220E
:104AC00053F80419A34242EA0102F9D1002A67D13E
:104AD000079B0EAA013B52F82330002B40F01882AE
:104AE0000C9A012352F8041901330029FAD0009AD4
:104AF000D31802F1010A9A4509933DDC009B0A99FB
:104B00000B9A0B4409990AEB0208994622AB08F16B
:104B1000804803EBC9098B18A59A08F1FF3802EB0E
:104B2000880872AA02EBCA0AA59A02EB83030093D3
:104B300058F8040F23F0E8FE039B002BE9E802017C
:104B40004FF000064FF0000711DB049C4D4675E95D
:104B50000223F4E8020123F03DFF02460B463046F3
:104B6000394623F085FD5C4506460F46EFD1009B94
:104B70009845EAE80267DBD1099B0093A7E606D1D6
:104B8000009B0EAA013B52F82350ED1512E70022BC
:104B90004A4B24F0A5F9002840F06E81054679E7DC
:104BA0000EA9039551F820300699CDF824801839C4
:104BB0000246009006916BB900F18043013B0EA8BC
:104BC00000EB830353F80409013A18390028F9D09F
:104BD00000920691069A3849002000F001FF009BE0
:104BE000002B04460D46C0F2F781DA0072A901EBF2
:104BF000020B06920EAA02EB8306DFF8C4904FF078
:104C000000080BF10807043656F8040D23F07CFE6B
:104C100022462B4623F0DEFE4B4667E90201424660
:104C20002046294623F0D6FE0EAB9E4204460D4692
:104C3000EAD14AACDDF81C9004944FF0000AB9F1B7
:104C4000000FC0F22B81DFF87C805D4618A1D1E90E
:104C5000000100260027002403E0544510DCF8E89A
:104C60000201F5E8022323F0B5FE02460B4630466A
:104C7000394623F0FDFC0134A14506460F46ECDA27
:104C8000049B03EBCA03ABF1080BC3E9006770ABED
:104C90009B450AF1010AD2D1A49B049C032B00F28C
:104CA0008980DFE803F0C58E8E1100BFAFF300806E
:104CB00000000040FB21F93F0000F03F0000E03F12
:104CC0000000703E909D0200009B002B40F381810C
:104CD000069A04EB020ADAE9008902F10805254484
:104CE0000DF5987B1AED027B42464B4651EC170BB3
:104CF0008DED047B23F0BCFC06460F4602460B46B6
:104D0000DDE9040123F0B2FC42464B4623F0B0FC3F
:104D100065E902015D45B046B9466AE90267E1D13D
:104D2000009B012B40F35581069BE518D5E90089CE
:104D300003F1080B04EB0B0A15ED027B42464B46D0
:104D400051EC170B8DED007B23F092FC06460F46CD
:104D500002460B46DDE9000123F088FC4B46424643
:104D600023F086FC6AE902014EAB5345B046B946D2
:104D700065E90267E0D10020002104EB0B0575E92D
:104D8000022323F075FCAA45F9D1039B002B00F008
:104D90000A816268E368089F2568A4683D6002F1A3
:104DA000004203F1004301F100417A60FB60BC6006
:104DB00038617961099B03F007000DF51B7DBDE8A3
:104DC000F08F069D083525440020002175E9022357
:104DD00023F04EFCA542F9D1039B002B00F0D280BA
:104DE000089E024601F1004386E80C000B4602468D
:104DF000D4E9000123F03AFC009B002B0BDD4CAD05
:104E00000124F5E8022323F033FC009B0134A34284
:104E1000F7DA039B13B101F100431946089BC3E97C
:104E20000201099B03F007000DF51B7DBDE8F08F23
:104E3000069D083500200021254475E9022323F052
:104E400017FCAC42F9D1039B13B101F100431946A1
:104E5000089BC3E90001099B03F007000DF51B7DCA
:104E6000BDE8F08F00260027EAE80267DA4509F17D
:104E700008097FF4FEAC1AE5009B002B08F101083D
:104E8000C8BF02253FF79EAD32463B460020614930
:104E900023F0ECFB022506460F46FBE50026002723
:104EA000EEE6069B002B27DD0024069B012B3FF43A
:104EB000C4AD022B09D1009B5A1E0EAB0EA953F8AC
:104EC0002230C3F3150341F82230022D7FF4E2AD06
:104ED00032463B4600204F4923F0C8FB06460F46AA
:104EE000002C3FF4D7ADC7E50099013399427FF418
:104EF00073AD069B002BD8DC022D7FF4CBAD324680
:104F00003B460020434923F0B1FB06460F46C1E56E
:104F10000123ECE53946069F03957A423046CDF8E9
:104F2000248000F05DFD00223B4B04460D4623F03B
:104F3000D7FF002843D00022384B2046294623F0D3
:104F400049FD23F0F7FF064623F0DEFC0022324B3A
:104F500023F040FD02460B462046294623F086FBFF
:104F600023F0E8FF00990B4601331A4600933B46B5
:104F7000183306930B460EA941F82300134641F857
:104F8000236027E6089B0246C3E900010B46D4E9EB
:104F9000000123F06BFB009B002B3FF730AF089B19
:104FA000C3E902013DE7D4E90067D4E90223089D83
:104FB000C5E90401C5E90067C5E90223FAE6294607
:104FC000204623F0B7FF009A0EA941F8220001E61F
:104FD0004AAC00200021D8E6A49B032B3FF6EAAEA2
:104FE00001A252F823F000BF07500000FF4F00005D
:104FF000FF4F0000D14F000001200023F2E4002009
:1050000000214AACE8E6002000211CE70A9BDB00F7
:1050100000934CE40000F03F000070410000703E3F
:105020002DE9F04F21F00046B6F1795F85B00446D6
:105030000D469046994604DA23F07CFF002800F0E4
:10504000858022462B462046294623F0C3FC06468F
:105050000F4602460B462046294623F0BBFC41A3DF
:10506000D3E9002382468B463046394623F0B2FC12
:105070003EA3D3E9002323F0F9FA32463B4623F05E
:10508000A9FC3CA3D3E9002323F0F2FA32463B46C5
:1050900023F0A0FC39A3D3E9002323F0E7FA32463A
:1050A0003B4623F097FC37A3D3E9002323F0E0FA33
:1050B0000E9BCDE900019BB30022294B4046494697
:1050C00023F088FCDDE90023CDE902015046594672
:1050D00023F080FC02460B46DDE9020123F0C6FA0C
:1050E00032463B4623F076FC42464B4623F0BEFA5E
:1050F00019A3D3E9002306460F465046594623F02C
:1051000069FC02460B463046394623F0B1FA0246A6
:105110000B462046294623F0A9FA05B0BDE8F08FDA
:1051200002460B463046394623F054FC0AA3D3E925
:10513000002323F09BFA52465B4623F04BFC2246A9
:105140002B4623F095FA05B0BDE8F08F204629469E
:1051500005B0BDE8F08F00BF495555555555C53FC1
:105160000000E03F7CD5CF5A3AD9E53DEB9C2B8A35
:10517000E6E55A3E7DFEB157E31DC73ED561C11934
:10518000A0012A3FA6F810111111813F0000000074
:105190002DE9F04FBE4C21F0004687B0A642824672
:1051A0008B460F46CDE900231BDC23F0C3FE00280D
:1051B00037D153461E43109B0133334300F0B38174
:1051C000109B012B00F0C88152465B460020B1497C
:1051D00023F02AFD04460D462046294607B0BDE8C7
:1051E000F08FAD4B9E421CDD0029C0F2A9815246D2
:1051F0005B4687A1D1E9000123F038FADDE90023FD
:1052000004460D4684A1D1E9000123F02FFA9FED59
:10521000847B22462B468DED007B23F029FA8246C3
:105220008B4652465B465046594623F0D3FB024616
:105230000B468046894623F0CDFB424604460D4688
:105240004B465046594623F0C5FB77A3D3E90023CC
:10525000CDE902012046294623F0BCFB74A3D3E923
:10526000002323F005FA22462B4623F0B3FB72A35A
:10527000D3E9002323F0FCF922462B4623F0AAFBB6
:105280006FA3D3E9002323F0F3F922462B4623F042
:10529000A1FB6DA3D3E9002323F0EAF922462B46B4
:1052A00023F098FB6AA3D3E9002323F0E1F94246F7
:1052B0004B4623F08FFB68A3D3E90023CDE904011B
:1052C0002046294623F086FB65A3D3E9002323F07B
:1052D000CFF922462B4623F07DFB63A3D3E90023BD
:1052E00023F0C6F922462B4623F074FB60A3D3E9D2
:1052F000002323F0BDF922462B4623F06BFB5EA36F
:10530000D3E9002323F0B4F922462B4623F062FBB5
:105310005BA3D3E9002323F0ABF902460B46DDE99A
:10532000040123F0A5F9DDE9022323F053FBDDE9B5
:10533000004522462B4623F09BF942464B4623F07C
:1053400049FB02460B462046294623F091F94EA31D
:10535000D3E9002304460D46DDE9020123F03AFBC0
:1053600022462B4623F084F90B46024680468946A6
:105370005046594623F07CF9474B9E4204460D4661
:1053800000F38E80109B012B3BD002460B46002081
:10539000404923F049FC002406460F462046294692
:1053A00052465B46CDE90067CDE90201009423F047
:1053B0005DF9DDE900AB02460B464046494623F065
:1053C00055F952465B4623F005FB524604460D460E
:1053D0005B46DDE9020123F0FDFA00222F4B23F0AA
:1053E00047F902460B462046294623F041F932464A
:1053F0003B4623F0EFFA52465B4623F039F9044668
:105400000D462046294607B0BDE8F08FAFF3008077
:10541000182D4454FB21E93F075C143326A6813C38
:105420000000000000000000D47ABF74702AFB3E28
:10543000E9A7F0320FB8123F68108D1AF726303FF7
:105440001583E0FEC8DB573F93846EE9E326823F75
:10545000FE41B31BBAA1AB3F735360DBCB75F3BE08
:10546000A69237A0887E143F0165F2F2D844433FEC
:10547000280356C9226D6D3F37D60684F464963FE3
:105480007AFE10111111C13F635555555555D53F41
:10549000FFFF2F3E0000F0BF2794E53F0000F03FE4
:1054A000109823F031FA2246CDE900012B46204620
:1054B000294623F08FFADDE90023CDE902012046D9
:1054C000294623F0D5F802460B46DDE9020123F018
:1054D000ABFB42464B4623F0C9F802460B4650460A
:1054E000594623F0C3F802460B4623F0C1F80246A2
:1054F0000B46DDE9000123F0B9F80446B81700F0C7
:105500000200C0F101000D4623F0FEF902460B46F1
:105510002046294623F05EFA04460D4620462946D9
:1055200007B0BDE8F08F5046594620F063FA0246B6
:105530000B4600200A4923F077FB04460D4660E73E
:10554000DDE9004501F10041224605F100438246B4
:105550008B46CDE900234AE654465D4651E700BF3D
:105560000000F03F000000002DE9F04FD24A21F08A
:105570000043934285B082468B460C462DD9CF4AD4
:1055800093421AD8002C80F21681B5A3D3E90023E8
:105590005046594623F06CF80022002323F08CFC7F
:1055A000C0B9B1A3D3E900235046594623F012FAFB
:1055B00002460B460020C24908E1C24A934240F22B
:1055C000D0800346C1F31302134340F0F481002955
:1055D00080F2C4800020BC49C0E0BC4A934200F283
:1055E0002981BB4A934240F2DE80002301930022CE
:1055F000B84B5046594623F0EDF906460F46024691
:105600000B465046594623F0E5F999A3D3E9002308
:1056100004460D4623F0DEF997A3D3E9002323F0D7
:1056200027F822462B4623F0D5F995A3D3E900238A
:1056300023F01CF822462B4623F0CCF992A3D3E9A1
:10564000002323F015F822462B4623F0C3F990A33C
:10565000D3E9002323F00AF822462B4623F0BAF9B7
:1056600000229D4B23F004F88046894602460B46F3
:105670003046394623F0AEF902460B4600209749E2
:1056800022F0F4FF064602460B460F4640464946C6
:1056900022F0ECFF3246804689463B46504659464A
:1056A00023F098F902460B4600208D4922F0DEFFD8
:1056B00002460B464046494623F0B6FA22462B46A0
:1056C00023F088F9019E02460B46002E38D0DDE912
:1056D000026732463B4622F0C9FF52465B4623F042
:1056E00079F932463B4622F0C1FF2B46224622F092
:1056F000BDFF019B013306460F4600F00F81019B61
:10570000012B00F0F180019B0133392B39D8019B2B
:10571000132B40F31281019CC4F57F7503350022E1
:105720002B0522F0A5FF02460B465046594622F0B3
:105730009DFF0022684B22F09BFF01EB04510DE01E
:105740005046594623F046F922462B4622F08EFF5A
:1057500002460B465046594622F088FF05B0BDE888
:10576000F08F4DA3D3E9002323F0C4FB00283FF4BE
:1057700009AF4BA3D3E900231046194623F02AF9B9
:10578000ECE752465B4622F071FF02460B460020D2
:10579000514922F06BFF019A4F4B01EB025100225D
:1057A00022F064FFDAE73EA3D3E9002322F060FF92
:1057B00002460B46CAE72CA3D3E9002350465946BC
:1057C00023F008F90B4643490246002022F050FF1F
:1057D00023F0B0FB019023F097F833A3D3E9002323
:1057E00006460F4623F0F6F802460B465046594649
:1057F00022F03CFF2EA3D3E90023804689463046A1
:10580000394623F0E7F806460F4632463B46404607
:10581000494622F02BFF02460B4682468B46404605
:10582000494622F023FF32463B4622F01FFFCDE9D6
:105830000201DCE62B4A934200F2958000291AA36C
:10584000D3E90023C0F2AC8022F010FF0123804690
:105850008946019316A7D7E90067D6E7AFF3008022
:1058600059F3F8C21F6EA501FE822B654715F73F5D
:105870002DC3096EB7FD8ABE3952E686CACFD03E27
:10588000B7DBAA9E19CE143F8555FE19A0015A3FD9
:10589000F41011111111A13FEF39FAFE422E86408A
:1058A0009C7500883CE4377E0000E0FE422EE63F17
:1058B000763C7935EF39EA3D79684340412E8640A0
:1058C0000000E0BFFFFFEF7F0000F0BF422ED63F99
:1058D000FFFF8F3C0000E03F0000F03F0000084069
:1058E00000001840B1A2F03F0022394B5046594603
:1058F00023F0E2FA002844D0504659460022354BA6
:1059000022F0B6FE02460B463046394622F0AEFE85
:1059100000224FF0404323F05DF81FE702460B469C
:105920005046594622F0A2FE00222A4B23F052F89C
:105930000022284B22F09AFE10E7019C4FF400133E
:105940002341C3F17F5752465B4622F08FFE00266B
:1059500007F5401702460B463046394622F086FED0
:1059600001EB0451FAE616A3D3E9002323F032F841
:10597000002C02460B464FF00000FFF61CAE154906
:1059800024E732463B465046594622F06FFE024617
:105990000B4622F06DFE00220F4B22F069FEDDE681
:1059A00022F066FE4FF0FF3380468946019306A73A
:1059B000D7E9006729E702460B4622F059FECDE6FB
:1059C000FE822B654715F73F763C7935EF39EABD06
:1059D0000000D0BF0000E03F0000F03F00000000EA
:1059E000F8B5C1F30A5604460D460B4617460EBBE2
:1059F00021F000430343864625D00022344B22F099
:105A0000E9FF344A974204460D460B462ADBC1F3B0
:105A10000A56363E3E4440F2FE72964228DC002E84
:105A200012DD23F0FF4323F4E00343EA065520464A
:105A30002946F8BD40F2FF729642EBD102460B4672
:105A400022F016FEF8BDF8BD16F1350F1DDA4CF246
:105A500050339F4222462B4625DC19A1D1E9000193
:105A600022F076FD16A3D3E9002322F0B3FFF8BDA0
:105A700022462B4614A1D1E9000122F069FD12A3B0
:105A8000D3E9002322F0A6FFF8BD23F0FF4323F45F
:105A9000E003363643EA06552046294600220E4BDF
:105AA00022F098FFF8BD08A1D1E9000122F050FDD5
:105AB00005A3D3E9002322F08DFFF8BDAFF30080EA
:105AC00059F3F8C21F6EA5019C7500883CE4377E2F
:105AD00000005043B03CFFFF0000903C10B5054C67
